:020000040800F2
:10000000600C002029020008F7240008991F00084E
:10001000F524000811050008A72D000800000000C5
:10002000000000000000000000000000B9250008EA
:100030009105000800000000F9240008ED280008E0
:10004000430200084302000843020008430200087C
:10005000430200084302000843020008430200086C
:10006000430200084302000843020008430200085C
:10007000430200084302000843020008430200084C
:10008000430200084302000843020008430200083C
:10009000430200084302000843020008430200082C
:1000A00043020008952900084302000843020008A3
:1000B000430200084302000843020008430200080C
:1000C00043020008430200084302000843020008FC
:1000D00043020008430200084302000843020008EC
:1000E00043020008430200084302000843020008DC
:1000F00043020008430200084302000843020008CC
:1001000043020008430200084302000843020008BB
:10011000DD2A0008430200084302000843020008E9
:10012000430200084302000843020008430200089B
:10013000430200084302000843020008430200088B
:10014000430200084302000843020008430200087B
:10015000430200084302000843020008430200086B
:10016000430200084302000843020008430200085B
:100170004302000843020008430200080000000098
:10018000430200084302000800F002F800F03CF8C7
:100190000AA090E8000C82448344AAF10107DA45E2
:1001A00001D100F031F8AFF2090EBAE80F0013F0F8
:1001B000010F18BFFB1A43F00103184780330000FA
:1001C000A0330000103A24BF78C878C1FAD852078B
:1001D00024BF30C830C144BF04680C6070470000C1
:1001E0000023002400250026103A28BF78C1FBD840
:1001F000520728BF30C148BF0B6070471FB503F0DE
:10020000A3F81FBD10B510BD00F03CF91146FFF773
:10021000F5FF03F057F800F06EF903B4FFF7F2FFB3
:1002200003BC02F0FFFF000009488047094800476F
:10023000FEE7FEE7FEE7FEE7FEE7FEE7FEE7FEE796
:10024000FEE7FEE704480549054A064B70470000F3
:10025000852900088901000860060020600C002044
:10026000600800206008002053EA020C00F069805A
:100270002DE9F04B4FF00006002B1FBFB3FA83F5BA
:1002800003FA05F424FA05F65E4012BF1643B2FAEB
:1002900082F502FA05F4C5F120051EBF22FA05FC1D
:1002A00044EA0C04203556EA044C4FEA144418BFC3
:1002B000641C4FF000084FF00009904271EB030CF2
:1002C00039D3002919BFB1FA81F701FA07F6B0FA5C
:1002D00080F700FA07F6C7F120071EBF20FA07FCD7
:1002E00046EA0C062037B6FBF4FCA7EB0507103FE7
:1002F00007F01F0BCBF120060CFA0BFB2CFA06F6CD
:1003000044BFB3460026202FA4BF5E464FF0000B2B
:100310005BEA060C08BF4FF0010B19EB0B09ABFBB6
:10032000027C48EB0608C01B06FB02CC0BFB03CC8F
:1003300071EB0C01C1E70B46024641464846BDE859
:10034000F08B13B54FF000004FF00001AFF30080C9
:10035000BDE81C40704700000FB4044910B503AA63
:10036000029800F061F810BC5DF814FB0400002056
:1003700010B5203AC0F00B80B1E81850203AA0E840
:100380001850B1E81850A0E81850BFF4F5AF5FEA74
:10039000027C24BFB1E81850A0E8185044BF18C927
:1003A00018C0BDE810405FEA827C24BF51F8043BCE
:1003B00040F8043B08BF7047D20728BF31F8023B22
:1003C00048BF11F8012B28BF20F8023B48BF00F8B6
:1003D000012B70474FF0000200B513469446964635
:1003E000203922BFA0E80C50A0E80C50B1F1200148
:1003F000BFF4F7AF090728BFA0E80C5048BF0CC0F6
:100400005DF804EB890028BF40F8042B08BF704753
:1004100048BF20F8022B11F0804F18BF00F8012BC5
:100420007047704770477047074B70B50D467B4467
:1004300000F011F80446284600F020F810B14FF003
:10044000FF3070BD204670BDF72D000001694A1CC9
:1004500002610878704700B58FB0CDE90131002105
:10046000059105497944CDE903101146684600F02D
:100470002EF80FB000BD0000E5FFFFFF007B00F08D
:1004800080007047754600F03FF8AE4605006946AB
:10049000534620F00700854618B020B5FFF7D2FE7E
:1004A000BDE820404FF000064FF000074FF0000875
:1004B0004FF0000B21F00701AC46ACE8C009ACE8F6
:1004C000C009ACE8C009ACE8C0098D4670472DE909
:1004D000F04106460024D6E90170F56880463046B2
:1004E00003E04146B847641C3046A8470028F8D1CD
:1004F0002046BDE8F08110B50446AFF300802046E9
:10050000BDE81040FFF789BE004870470006002094
:10051000FEE7000030B504460020651804E000BF87
:1005200014F8011B02F02FFCAC42F9D3002102F0B9
:100530002AFCBDE83040002102F025BC70B526221F
:1005400011491248FFF714FF0F4CE08C0F4DE8845F
:10055000A06AA862A08DA885E08DE885206B28633D
:10056000606B6863092204F1380105F13800FFF778
:10057000FFFE94F8410085F8410094F8420085F8A8
:100580004200606C686470BD28010020700100208A
:10059000704772B6FEE70000002229B101291AD087
:1005A00002291BD04FF440720E490B6823F44073AC
:1005B0000B600B6813430B600A6822F078020A6034
:1005C0000A68022303EBC00002430A60086840F493
:1005D0008030086070474FF48072E5E74FF4007296
:1005E000E2E70000103C02401348016889050FD57E
:1005F000016821F400710160016841F4006101604B
:10060000016821F400610160016841F4007101603A
:10061000016849050FD5016821F480610160016816
:1006200041F480510160016821F48051016001684A
:1006300041F4806101607047003C024000B587B022
:1006400000F02AF8094800F02DF902900A200390E2
:10065000002102200091049005A9684600F012FADA
:10066000002800D0012007B000BD00000080000875
:1006700010B588B040F6FF7400F03EFB684600F00D
:100680004DFA00F0D1FA0298844302D0022008B05B
:1006900010BD0020FBE7000010B500F02DFB024963
:1006A000F320086010BD00000C3C02402DE9F04131
:1006B00016468846054600240D4F13E058F82420BE
:1006C00000232946022000F0D9FA10B10320BDE82A
:1006D000F08158F824002968814201D00220F6E711
:1006E000641C2D1DB44201D2BD42E7D90020EEE7C3
:1006F000FBFF0F0830B58FB0044640F6FF7507A822
:1007000000F00CFA0120CDE90004AA200490099C15
:100710009DF834008DF818002C4300F0EDFA00F03D
:1007200099FA6846029400F019FA0FB030BD000043
:1007300008490A6822F440720A600A6842F004021A
:100740000A600A684FF4803343EA002002430A60DB
:1007500070470000103C0240064A136823F44073BF
:10076000136013681360136843F001031360017092
:1007700070470000103C0240094910B50C6824F491
:1007800040740C600C6844F440740C600C6844F0D5
:1007900001040C600260BFF36F8F436010BD000066
:1007A000103C0240074A136823F440731360136837
:1007B00043F480731360136843F0010313600180F6
:1007C00070470000103C0240074A136823F440734E
:1007D0001360136843F400731360136843F001035C
:1007E0001360016070470000103C02401749086820
:1007F000C206174805D5C26942F01002C261102234
:100800000A600A68920605D5C26942F00802C26110
:1008100020220A600A68520605D5C26942F0040225
:10082000C26140220A600A68120605D5C26942F018
:100830000202C26180220A600A68920705D5C26975
:1008400042F02002C2610220086070470C3C024066
:100850001800002070B5114904460020C86100F05E
:100860005FFB06460E4D09E0601C07D024B100F086
:1008700057FB801BA04201D9032070BD2868C0032C
:10088000F2D42868C00701D001202860286810F041
:10089000F200F2D0FFF7AAFF012070BD180000207F
:1008A0000C3C02400021A0F100634FF480429342CF
:1008B0003FD321490144914201D2012139E01F492E
:1008C0000144914201D2022133E01D490144914289
:1008D00001D203212DE01B490144B1F5803F01D233
:1008E000042126E0184942184FF400318A4201D20F
:1008F00005211EE0154A02448A4201D2062118E071
:10090000134A02448A4201D2072112E0114A0244EA
:100910008A4201D208210CE00F4A02448A4201D2E5
:10092000092106E00D4A1044884201D20A2100E064
:100930000B2108467047000000C0FFF70080FFF75A
:100940000040FFF70000FFF70000FEF70000FCF793
:100950000000FAF70000F8F70000F6F70000F4F7DF
:100960002DE9F0410446876D00F0DAFA064694F866
:1009700035000025022806D08020606584F83450B8
:100980000120BDE8F0812068016821F016010160B6
:100990002068416921F080014161206C08B9A06C98
:1009A00020B12068016821F0080101602068016819
:1009B00021F0010101600CE000F0B2FA801B052873
:1009C00007D920206065032084F8350084F834506E
:1009D000D7E720680068C007EED194F85C103F208C
:1009E0008840B860012084F8350084F83450002035
:1009F000C7E790F83510022903D080214165012016
:100A00007047052180F835100068016821F0010168
:100A100001600020704700000E4910B50C480860C6
:100A200000200860091D0C4A0A60086009490B4A49
:100A300010390A600860C122091D0A60086001229D
:100A4000091D0A60086000F0B3FA002010BD000024
:100A5000FFC9FEF62038024033797704FF11602287
:100A600070B5044600F05CFA0546601C02D00448EC
:100A70000078044400F054FA401BA042FAD370BD41
:100A8000380000202DE9F047044622480F46017E39
:100A900001290AD00121804601764CF2503948469E
:100AA000FFF7D8FE020003D02FE00220BDE8F08758
:100AB0004FF0FF3038602068174D012801D0A6683C
:100AC0001CE0207C6168FFF733FE4846FFF7C2FE5A
:100AD0000246286820F00400286014E0217C30469B
:100AE000FFF75AFD4846FFF7B5FE0200286820F0E0
:100AF0007A00286001D03E6005E0761CD4E902103F
:100B00000844B042EAD8FFF76FFD002188F81810BA
:100B10001046CBE718000020103C02400F21016076
:100B20000D49098881600C4AAA21521E1378CC2BEA
:100B30000FD01278AA2A00D0552101610649891EDA
:100B40000A6802F0E0020276097801F00C014161C6
:100B50007047CC21F1E70000163C02402DE9F04738
:100B60002E49044601200A7E012A11D0012288461E
:100B70000A7621784CF2503AC90715D06068284DA2
:100B80000128A668504606D0FFF764FE48B10BE086
:100B90000220BDE8F087FFF75DFE28B92988B14340
:100BA00001E02988314329802178890707D5257CF0
:100BB0005046FFF74FFE10B91949491E0D702178B4
:100BC000DFF86090490713D5207E00F0200700F081
:100BD000400500F080065046FFF73CFE40B999F80A
:100BE000002002F01F02154335433D4389F80050B1
:100BF00021784FF0000209070CD5207D99F80030CC
:100C000023F00C0389F8003099F80030034389F889
:100C10000030104688F81820BBE7000018000020BC
:100C2000163C0240143C02400348016841F0004178
:100C30000160002070470000103C02400448017829
:100C400041F0020101704CF25030FFF703BE00008A
:100C5000143C024006480068C00707D00448054914
:100C60000C38016004490160002070470120704782
:100C7000143C02403B2A19087F6E5D4C2DE9F04779
:100C80001B4E05461446307E1F468946012808D073
:100C9000012030764CF250384046FFF7DBFD18B1AA
:100CA00014E00220BDE8F0879DB1012D16D0022D81
:100CB00019D022463B464846FFF75EFD4046FFF707
:100CC000C9FD0C490A6822F001020A600021317650
:100CD000E8E7E1B24846FFF73FFDEFE7A1B248463B
:100CE000FFF760FDEAE721464846FFF76DFDE5E7BF
:100CF00018000020103C0240074900200A68002A22
:100D000009DA054A054B0C3A1360054B1360096874
:100D1000002900DA01207047103C0240230167459A
:100D2000AB89EFCD2DE9F84FDFF8BCA100220125FA
:100D300003264FF00F090AF1040BAAF1040E00BFBD
:100D40000B6805FA02F42340A34270D10F7907F033
:100D50000307012F01D0022F16D187684FEA4208FE
:100D600006FA08FC27EA0C07D1F80CC00CFA08FCBC
:100D70004CEA070CC0F808C04768A7430C79C4F3D5
:100D8000001494403C4344600C79E443A4070AD027
:100D9000C4684FEA420C06FA0CF7BC438F6807FAA6
:100DA0000CF72743C7600C7904F00304022C12D11E
:100DB000D40800EB840CDCF820405707FF0E09FA3A
:100DC00007F824EA0804D1F8108008FA07F848EA7E
:100DD0000408CCF8208004684FEA420C06FA0CF7AD
:100DE000BC430F7907F0030707FA0CF727430760A6
:100DF0004C6814F4403F70D03C4C276847F480475F
:100E00002760246822F0030704F480440094384CDF
:100E100007EB040CDCF8084897074FEA177809FA43
:100E200008F7BC43334FB84202D1002724E054E016
:100E3000314FB84201D101271EE0304FB84201D1F5
:100E4000022719E02E4FB84201D1032714E02D4F9D
:100E5000B84201D104270FE02B4FB84201D105273A
:100E60000AE02A4FB84201D1062705E0284FB842D0
:100E700001D1072700E0082707FA08F72743CCF835
:100E80000878DAF800405746D1F804C09C435FEA7E
:100E9000CC2C00D51C433C60DBF800405F46D1F809
:100EA00004C09C435FEA8C2C00D51C433C60DEF8F8
:100EB00000407746D1F804C09C435FEA8C3C00D5E3
:100EC0001C433C60084F083F3C68D1F804C09C4379
:100ED0005FEACC3C00D51C433C60521C102AFFF456
:100EE0002FAFBDE8F88F0000083C014044380240B5
:100EF00000300140000002400004024000080240AF
:100F0000000C024000100240001402400018024091
:100F1000001C02400AB1816170470904FBE7000030
:100F2000014880687047000038000020024881684E
:100F30000278114481607047380000200B4810B5DA
:100F4000016841F400710160016841F48061016051
:100F5000016841F480710160032000F071F80F20F6
:100F600000F006F800F026F8002010BD003C02401A
:100F700070B50D4D04464FF47A712878B1FBF0F04E
:100F80000A490968B1FBF0F000F0A6FB48B9102C43
:100F900007D200222146501E00F032F800206C607B
:100FA00070BD012070BD0000380000200800002046
:100FB000704700000A4808B5016841F480410160AB
:100FC000006800F4804000900548001F016841F06F
:100FD00080510160006800F08050009008BD000062
:100FE00044380240002809DB00F01F020121914033
:100FF0004009800000F1E020C0F8001170470000B7
:10100000F0B40E4B1B680C46C3F30223C3F1070573
:10101000042D00D90425191D072901D2002300E061
:10102000DB1E012606FA05F1491E214099409E402B
:10103000761E16403143F0BC02F0E4B80CED00E03F
:10104000064900F0070208684FF6FF03184040EA1F
:101050000220034A10430860704700000CED00E0D6
:101060000000FA052DE9F0470E46050065D0DFF8CF
:101070001481D8F80000F7B200F00700B04207D2A0
:1010800088F80070D8F8000000F00700B04254D192
:1010900028683D4C810712D5400703D5206840F4ED
:1010A000E05020602878000703D5206840F46040B5
:1010B00020602068A96820F0F000084320602878AC
:1010C000C0072DD0304968680839012812D002289D
:1010D00013D0032811D00968890700292DDA216867
:1010E00021F0030101432160FFF71AFF814641F21D
:1010F000883A0EE009688903EFE709688901ECE79F
:10110000FFF70EFFA0EB0901514502D90320BDE80E
:10111000F0872068696800F00C00B0EB810FEFD118
:10112000D8F80010404601F00701B14207D9077016
:10113000006800F00700B04201D00120E7E72878FE
:10114000400705D52068E96820F4E0500843206096
:101150002878000706D52068296920F4604040EA15
:10116000C100206000F0D2F82168084AC1F30311E1
:10117000515CC8400649086006480068FFF7F8FE61
:101180000020C4E7003C0240083802405233000807
:10119000080000203C0000202DE9F041FFF7C0FED0
:1011A000444C0546206840F00100206005E000BF87
:1011B000FFF7B6FE401B022847D820688007F7D506
:1011C000206840F080002060FFF7AAFE0546394EF7
:1011D00000200836306041F2883704E0FFF7A0FEB7
:1011E000401BB84231D8306810F00C0FF6D1FFF731
:1011F00097FE0546206820F45020206005E000BFDF
:10120000FFF78EFE401B64281FD820688003F7D4A8
:10121000FFF786FE0546206820F08070206004E01D
:10122000FFF77EFE401B02280FD820688001F7D40C
:10123000FFF776FE0546206820F08060206007E01A
:10124000FFF76EFE401B022802D90320BDE8F081A3
:1012500020680001F4D417491748091D0860154992
:1012600016488431086013480C30016821F4F851A5
:101270000160016821F400510160016841F41F011F
:101280000160016841F4001101600A48743001688E
:1012900021F001010160016841F08071016009499C
:1012A0000748086008480068FFF762FE0028CDD0B4
:1012B0000120CBE70038024010300004003000204D
:1012C0000024F400080000203C00002004480549E8
:1012D00000680968044AC1F38221515CC840704724
:1012E000080000200838024062330008044805491D
:1012F00000680968044AC1F34231515CC840704734
:10130000080000200838024062330008154810B574
:10131000006810F00C02144813D04110042A0FD0BA
:10132000082A0ED10F4C241F2268236802F03F02C6
:101330005B0207D52068C0F38810A0FB010106E01E
:10134000084610BD2168C1F38811A1FB00010023EC
:10135000FEF78AFF2168C1F30141491C4900B0FB37
:10136000F1F010BD083802400024F4002DE9F84FD8
:1013700004006ED02078DFF84C93C007A9F1040573
:101380004AD009F104000168C1F38101012908D0A4
:101390000068C0F3810002280AD1D9F80000400299
:1013A00006D52868800337D560680028E1D033E08F
:1013B0006068B0F5803F10D0B0F5A02F286810D03D
:1013C00020F480302860286820F48020286060683D
:1013D000A8B1FFF7A5FD06460DE0286840F480306F
:1013E000F4E740F480202860F7E700BFFFF798FD9E
:1013F000801B642873D828688003F7D50CE0FFF7BA
:101400008FFD064605E000BFFFF78AFD801B6428BC
:10141000F0D828688003F7D42078DFF8AC82800702
:101420004FF0000A3ED5A748001D016811F00C0FCF
:1014300008D00068C0F3810002280BD1D9F8000061
:10144000400207D42868800716D5E068012800D13B
:1014500012E033E1E068B8B10120C8F80000FFF7FE
:101460005FFD064605E000BFFFF75AFD801B02281E
:10147000C0D828688007F7D52868216920F0F800CF
:1014800040EAC10028600DE0C8F800A0FFF748FD61
:10149000064604E0FFF744FD801B02281FD8286899
:1014A0008007F7D42078000722D5864F87486169E6
:1014B000703771B101210160FFF732FD064604E08B
:1014C000FFF72EFD801B022809D838688007F7D562
:1014D0000EE0C0F800A0FFF723FD064605E082E01D
:1014E000FFF71EFD801B02287DD838688007F7D4DF
:1014F0002078400768D5DFF8CCB100270BF13C0B12
:10150000DBF80000C0000BD4DBF8001041F0805184
:10151000CBF80010DBF80000012700F080500090AD
:101520006B4E3068C00510D4306840F48070306075
:10153000FFF7F6FC009005E0FFF7F2FC0099401A77
:10154000022850D83068C005F6D55E4EA0686C36CB
:1015500001280FD00528306810D020F0010030603D
:10156000306820F004003060A068B8B1FFF7D8FC04
:1015700000900FE0306840F00100F4E740F0040014
:101580003060F7E7FFF7CCFC0099411A41F2883050
:10159000814266D830688007F4D50EE0FFF7C0FCC2
:1015A000009007E0FFF7BCFC0099411A41F2883037
:1015B000814256D830688007F4D42FB1DBF8001090
:1015C00021F08051CBF80010A069C8B33D49091D36
:1015D0000968C1F3810102294AD00228504607D088
:1015E000C8F8600000E03CE0FFF79AFC04463BE0EE
:1015F0004746C8F86000FFF793FC064605E000BFC9
:10160000FFF78EFC801B02282BD828688001F7D4B6
:10161000D4E907010843A16A2E4A490802EB0141B7
:10162000626A41EA8211084394F82C1040EA016191
:10163000C9F8001001203866FFF772FC044606E086
:101640003EE000BFFFF76CFC001B022809D82868A9
:101650008001F7D534E000BFFFF762FC001B0228D1
:1016600002D90320BDE8F88F28688001F4D427E070
:101670000128F7D0D9F80000E26900F48001914216
:101680001CD1226A00F03F01914217D147F6C07188
:10169000626A0140B1EB821F10D1A26A4FF0FF33A2
:1016A00000F4403103EB5202B1EB024F06D194F843
:1016B0002C1000F07060B0EB016F01D00120D1E779
:1016C0000020CFE70438024000004742800E474226
:1016D000007000400000FFFF10B5401EB0F1807F99
:1016E00001D3012010BD4FF0E02460610F2160178D
:1016F00001F088FD0020A06107202061002010BDBE
:101700007047704770B590F83C20012A32D0012410
:1017100080F83C40022280F83D2003685A689D68AA
:1017200022F070060A6832435A60134B02689A42EC
:1017300014D0B2F1804F11D0104B9A420ED0104B02
:101740009A420BD00F4B9A4208D00F4B9A4205D0C9
:101750000E4B9A4202D00E4B9A4204D1496825F0B2
:1017600080031943916080F83D40002180F83C10CF
:10177000084670BD022070BD00000140000400401A
:1017800000080040000C00400004014000400140FF
:101790000018004010B5040003D094F83D0010B1CB
:1017A00007E0012010BD002084F83C00204600F036
:1017B0001FF8022084F83D00211D206801F0F0F898
:1017C000012084F8460084F83E0084F83F0084F845
:1017D000400084F8410084F8420084F8430084F813
:1017E000440084F8450084F83D00002010BD00004E
:1017F00008B500680B49884212D10B48016841F0D6
:10180000010101600068002200F001000090114613
:101810001920FFF7F5FBBDE808401920FFF7E2BBF0
:1018200008BD0000000001404438024090F83D101F
:10183000012901D001207047022180F83D10016884
:10184000CA6842F00102CA6000681149884214D097
:10185000B0F1804F11D00F4988420ED00E49884216
:101860000BD00E49884208D00D49884205D00D4959
:10187000884202D00C49884204D1816801F00701F6
:10188000062903D0016841F0010101600020704782
:10189000000001400004004000080040000C00402F
:1018A00000040140004001400018004070B50446AB
:1018B00090F83C000025012817D0012684F83C60F0
:1018C000022084F83D002068826822F0770222F42A
:1018D0007F4282600868502838D00DDC20284FD025
:1018E00005DC90B3102811D14AE0022070BD3028E9
:1018F00046D040280AD13BE060282FD070280DD078
:10190000B0F5805F03D0B0F5005F12D0012584F8F8
:101910003D60002084F83C00284670BDCB68D1E9CA
:101920000121206801F0A4F82068816841F0770166
:1019300009E0CB68D1E90121206801F099F820681D
:10194000816841F480418160E1E719E0CA68496833
:10195000206801F09FF85021206806E0CA684968B5
:10196000206801F0A8F86021206801F08BF8CEE72C
:10197000CA684968206801F08DF840212068F4E7C2
:10198000226801461046F0E770472DE9F041044611
:101990000068C66805694FF00007A90713D5B107AD
:1019A00011D5F91E01610120207720688069800728
:1019B000204602D0FFF7E8FF04E000F07EF8204662
:1019C00000F07CF82777680716D5700714D52168D2
:1019D0006FF004000861022020772068806910F40D
:1019E000407F204602D0FFF7CFFF04E000F065F80B
:1019F000204600F063F82777280715D5300713D560
:101A000021686FF008000861042020772068C06911
:101A10008007204602D0FFF7B7FF04E000F04DF842
:101A2000204600F04BF82777E80616D5F00614D5C7
:101A300021686FF010000861082020772068C069D5
:101A400010F4407F204602D0FFF79EFF04E000F034
:101A500034F8204600F032F82777E80708D0F0077E
:101A600006D021686FF001000861204600F028F8D8
:101A7000280608D5300606D521686FF08000086179
:101A80002046FFF73DFE680608D5700606D521689A
:101A90006FF040000861204600F022F8A8060AD541
:101AA000B00608D521686FF0200008612046BDE827
:101AB000F041FFF726BEBDE8F08170477047000097
:101AC00000680549884205D104490888401C0880FF
:101AD00001F0DABB70470000000001401400002054
:101AE0007047704770470000F8B501680446086801
:101AF000CA684B6910F00F0F4FF0000559D003F082
:101B0000010602F49077374365D0C10705D0D105AF
:101B100003D5616C41F001016164410705D5D90726
:101B200003D0616C41F002016164810705D5D907DA
:101B300003D0616C41F004016164010707D502F034
:101B40002001314303D0616C41F008016164616C94
:101B500000293AD0800604D5900602D5204600F030
:101B6000F1FF20684069616CC0F38010090700D460
:101B700060B3204600F0BFFF20684069400621D5D1
:101B80002068143050E8001F21F0400140E80012A6
:101B9000002AF5D1E06BA8B172490165E06BFEF750
:101BA00028FF002811D0E06B016D01B0BDE8F040C6
:101BB000084783060FD593060DD52046BDE8F840AB
:101BC00000F0C0BF2046FFF78DFFF8BD2046FFF7AD
:101BD00089FF6564F8BD266B2023012E7ED1C606E1
:101BE0007CD5D6067AD508684868009048694FF0D9
:101BF000020640064DD5E26B106840684FF48077CE
:101C00000004000C3AD0A18D814237D9E085D0691B
:101C1000B8422DD020680C3050E8001F21F48071AC
:101C200040E80012002AF5D12068143050E8001F67
:101C300021F0010140E80012002AF5D1206814309B
:101C400050E8001F21F0400140E80012002AF5D1C1
:101C500084F84230256320680C3050E8001F21F0E2
:101C6000100140E80012002AF5D1E06BFEF778FE83
:101C70006663A08DE18D401A81B206E0A18D81429C
:101C8000A8D1D069B842A5D166632046FFF729FFE5
:101C9000F8BDA08DE18D401A81B2E08D0028F7D00B
:101CA0000029F5D020680C3050E8002F22F4907203
:101CB00040E80027002FF5D12068143050E8002FAD
:101CC00022F0010240E80027002FF5D184F84230CD
:101CD000256320680C3050E8002F00E006E022F079
:101CE000100240E80023002BF3D1CDE705062BD5E9
:101CF000150629D594F841002128C9D1A068B0F56E
:101D0000805F01D12069B0B1206A411C2162216845
:101D100000784860E08C401E0004000CE084B7D1DD
:101D20002068C16821F08001C1602068C16841F06D
:101D30004001C160F8BD206A0088C0F30800486017
:101D4000206A801C2062E5E74006F3D55006F1D5F5
:101D5000CA68204622F04002CA6084F8413000F090
:101D60001AF9F8BDE92A000870B5040004D094F807
:101D70004100002510B106E0012070BD84F84050FC
:101D8000204600F023F8242084F841002068C16830
:101D900021F40051C160204600F036FF206801693F
:101DA00021F4904101612068416921F02A014161DB
:101DB0002068C16841F40051C1606564202084F846
:101DC000410084F842006563002070BD10B586B004
:101DD000044614216846FEF7FDFA17492068884238
:101DE00027D116480021026842F4002202600068F0
:101DF00000F40020059011481038026842F00102FA
:101E000002600068022200F0010005900320CDE985
:101E10000210CDE900020820049069460848FEF748
:101E200081FF002211463420FFF7EAF83420FFF743
:101E3000D9F806B010BD0000004C00404038024008
:101E4000000002402DE9F84F044690F842009A46FF
:101E500016460D46202802D00220BDE8F88FB5B105
:101E6000AEB100206064222184F842102063FFF7A5
:101E700057F8A6858146E685A0684FF4805820274C
:101E8000404501D1206920B12E46002529E00120DE
:101E9000E3E7002625E04B46002220212046CDF82E
:101EA00000A000F037FF18B184F842700320D4E797
:101EB00026B1A06840451AD038B108E020684068D3
:101EC000C0F3080025F8020B08E0206978B120680B
:101ED000406800F07F0000BF06F8010BE08D401E57
:101EE000E085E08D0028D6D184F84270B5E72068FF
:101EF0004068F1E770472DE9F843044690F8410047
:101F0000984616460D46202802D00220BDE8F883E8
:101F100085B17EB100206064212084F84100FEF785
:101F2000FFFFA6848146E684A0682027B0F5805F85
:101F300002D003E00120E9E7206910B12E46002518
:101F40000EE000260CE08021204600F0E3FEA8B958
:101F5000C6B116F8010B21684860E08C401EE08491
:101F6000E08C4B464FF00002CDF800800028EAD10B
:101F70004FF04001204600F0CDFE40B184F84170A2
:101F80000320C3E735F8020BC0F30800E3E784F849
:101F900041700020BAE77047FEE70000F0B500226C
:101FA0000D4B154614460A27B1FBF3F6303686541E
:101FB000B1FBF3F603FB1611B3FBF7F3521C8618C3
:101FC00016F8016C302E00D125B16D1C641C0A2C52
:101FD000EAD3F0BD0022F9E700CA9A3B30B587B0DA
:101FE00014216846FEF7F6F915480024016841F00F
:101FF00080010160016801F080010591016841F0F4
:1020000001010160016801F001010591016841F0E1
:102010000201016000680B4D00F0020005900022F3
:1020200004212846FEF776FF042000900120CDE928
:102030000104694628460394FEF774FE07B030BDDC
:10204000303802400004024010B586B00024184821
:10205000009401940294039404941449059401603B
:102060005321C0E9011440F2CF71C0E9031480216B
:10207000C0E90541FFF78EFB08B1FEF78AFA4FF47D
:102080008050009069460A48FFF710FC08B1FEF73F
:1020900080FA049404A906480594FFF733FB00284E
:1020A00001D0FEF776FA06B010BD00000000014036
:1020B000E00000200C4810B50A4901604FF4E131FE
:1020C0004160002181600C22C160C0E9041281617D
:1020D000C161FFF749FE002803D0BDE81040FEF7BC
:1020E00058BA10BD004C00402801002008B500205F
:1020F0008DF800003D4800F08FFB3D4800F08CFB60
:102100003C4800F089FB3C4800F086FB394800F071
:1021100083FB3A4800F080FB344800F07DFB38A098
:1021200000F07AFB384D4FF0FF36384CFEF7A0FA3E
:10213000206037A000F070FB45A000F06DFB54A0BC
:1021400000F06AFB62A000F067FB206808B170A095
:1021500000E07FA000F060FB8DA000F05DFB286830
:1021600040683346012269462748FFF76BFE9DF819
:102170000000312807D0322808D0332809D034286D
:102180000FD093A014E000F019FACFE700F0CCFADA
:10219000CCE79FA000F040FBA649D1E900018847A9
:1021A000C4E7206890B10020FEF7A4FA18B1A2A0FD
:1021B00000F032FBBAE7ACA000F02EFBB2A000F0BA
:1021C0002BFBFEF73BFDFEF797FDAFE70120FEF787
:1021D00091FA08B1B4A0EBE7BEA000F01DFBAAA0E5
:1021E00000F01AFBFEF72AFDA0E70000F03400081B
:1021F00058340008C0330008A43400080C34000828
:102200000D0A0D0A00000000700100200C000020E3
:102210000D0A3D3D3D3D3D3D3D3D3D3D3D3D3D3D51
:102220003D3D3D3D3D204D61696E204D656E752003
:102230003D3D3D3D3D3D3D3D3D3D3D3D3D3D3D3DCE
:102240003D3D3D3D3D3D3D3D3D3D3D3D0D0A0A0091
:102250002020446F776E6C6F616420696D616765E3
:1022600020746F2074686520696E7465726E616C8D
:1022700020466C617368202D2D2D2D2D2D2D2D2D9B
:102280002D2D2D2D2D2D2D2D20310D0A0A00000074
:10229000202055706C6F616420696D6167652066F0
:1022A000726F6D2074686520696E7465726E616C02
:1022B00020466C617368202D2D2D2D2D2D2D2D2D5B
:1022C0002D2D2D2D2D2D2D2D20320D0A0A00000033
:1022D00020204578656375746520746865206C6F8F
:1022E00061646564206170706C69636174696F6EAC
:1022F000202D2D2D2D2D2D2D2D2D2D2D2D2D2D2D1B
:102300002D2D2D2D2D2D2D2D20330D0A0A000000F1
:10231000202044697361626C65207468652077725F
:102320006974652070726F74656374696F6E202DB7
:102330002D2D2D2D2D2D2D2D2D2D2D2D2D2D2D2DCD
:102340002D2D2D2D2D2D2D2D20340D0A0A000000B0
:102350002020456E61626C65207468652077726923
:1023600074652070726F74656374696F6E202D2DB3
:102370002D2D2D2D2D2D2D2D2D2D2D2D2D2D2D2D8D
:102380002D2D2D2D2D2D2D2D20340D0A0A00000070
:102390003D3D3D3D3D3D3D3D3D3D3D3D3D3D3D3D6D
:1023A0003D3D3D3D3D3D3D3D3D3D3D3D3D3D3D3D5D
:1023B0003D3D3D3D3D3D3D3D3D3D3D3D3D3D3D3D4D
:1023C0003D3D3D3D3D3D3D3D3D3D0D0A0A0000008A
:1023D000496E76616C6964204E756D62657220216C
:1023E000203D3D3E20546865206E756D626572200B
:1023F00073686F756C6420626520656974686572C6
:1024000020312C20322C2033206F7220340D00001C
:1024100053746172742070726F6772616D20657899
:1024200065637574696F6E2E2E2E2E2E2E0D0A0A80
:1024300000000000440000204572726F723A20468E
:102440006C61736820777269746520756E2D707287
:102450006F74656374696F6E206661696C65642E64
:102460002E2E0D0A0000000057726974652050720C
:102470006F74656374696F6E2064697361626C6503
:10248000642E2E2E0D0A000053797374656D20772B
:10249000696C6C206E6F7720726573746172742E34
:1024A0002E2E0D0A000000004572726F723A20460F
:1024B0006C6173682077726974652070726F7465DF
:1024C0006374696F6E206661696C65642E2E2E0DD3
:1024D0000A00000057726974652050726F7465635A
:1024E00074696F6E20656E61626C65642E2E2E0DB0
:1024F0000A000000FEE7FEE7704700002DE9F84300
:1025000000240F460646904613460C600122694699
:102510002848FFF797FC050020D19DF800001828F7
:1025200020D006DC01280BD002280BD0042804D1CF
:1025300004E0412827D0612825D0012530700DE026
:10254000802401E04FF480643070221D4346B11CAA
:102550001848FFF777FC050017D0002428463C6098
:10256000BDE8F8834346012269461248FFF76AFC3A
:1025700018B99DF80000182803D001259DF8000027
:10258000DCE70224DAE70225D8E7F178B07881F0B9
:10259000FF0188420AD130190179407900EB012806
:1025A0002146301DFDF7B6FF4045D7D00024012558
:1025B000D4E7000070010020704700001FB5002024
:1025C000009001900290039015A000F025F903A857
:1025D00000F0EAFB38B105281AD004281CD00228E4
:1025E0001CD01EA015E0254800F016F9244800F084
:1025F00013F968460399FFF7D1FC22A000F00CF90B
:10260000684600F009F922A000F006F923A000E0D6
:1026100028A000F001F91FBD36A0FAE73CA0F8E7BA
:1026200057616974696E6720666F722074686520EF
:1026300066696C6520746F2062652073656E742016
:102640002E2E2E2028707265737320276127207428
:102650006F2061626F7274290A0D00000A0D4661D5
:10266000696C656420746F207265636569766520A6
:102670007468652066696C65210A0D006C3300087A
:10268000B80100200A0D2053697A653A2000000045
:102690002042797465730D0A000000002D2D2D2D48
:1026A0002D2D2D2D2D2D2D2D2D2D2D2D2D2D2D0A7D
:1026B000000000000A0A0D54686520696D616765B5
:1026C0002073697A6520697320686967686572207C
:1026D0007468616E2074686520616C6C6F776564E6
:1026E000207370616365206D656D6F7279210A0DCD
:1026F000000000000A0A0D5665726966696361741C
:10270000696F6E206661696C6564210A0D000000C6
:102710000D0A0A41626F72746564206279207573D4
:1027200065722E0A0D00000008B500208DF800002B
:102730000EA000F071F84FF0FF33012269461248F5
:10274000FFF780FB9DF8000043280DD14FF478225D
:102750000EA1144800F0F2FB8DF8000008B112A0A1
:1027600000E01CA000F058F808BD00000A0A0D5354
:10277000656C65637420526563656976652046699A
:102780006C650A0D000000007001002055706C6F30
:1027900061646564466C617368496D6167652E624A
:1027A000696E0000008000080A0D4572726F722089
:1027B0004F63637572726564207768696C65205435
:1027C00072616E736D697474696E672046696C65B9
:1027D0000A0D00000A0D46696C652075706C6F610A
:1027E000646564207375636365737366756C6C7977
:1027F000200A0D0001B5074890F84110A02902D128
:10280000202180F841106423012269460148FFF726
:1028100072FB08BD70010020002201E0521C92B240
:10282000815C0029FAD1014664230148FFF763BBAC
:1028300070010020F0B5054600242A782046234682
:10284000302A2ED16A78782A01D0582A29D1022438
:102850001CE000BFA2F14106052E07D9A2F16107D5
:10286000052F03D91136092E04D913E0A2F1300740
:10287000092F01D8303A04E0052E01D8373A00E09C
:10288000573A641C02EB03130B2C04D22A5D002A76
:10289000E0D103E000202A5D002A01D101200B6075
:1028A000F0BD2A5D62B16B2A01D04B2A02D10CB176
:1028B0009B0205E06D2A01D04D2A04D11CB11B05F5
:1028C00001200B600AE0A2F13006092E0CD803EBC0
:1028D00083036FF02F0606EB43031344641C0B2C99
:1028E000DED20128DDD1F0BD0020F0BDFEF71EBB19
:1028F00030B593B030216846FDF76CFD14210CA86B
:10290000FDF768FD1D480025016841F08051016018
:10291000006800F0805011901948016841F480412E
:1029200001600068022400F48040119001200090B2
:10293000000401908001CDE9064008AA0420A821E6
:1029400082E813000B906846FEF710FD08B172B6DE
:10295000FEE70CA90F2081E831004FF4A0500F9042
:102960004FF48050109005210CA8FEF77BFB002847
:1029700001D072B6FEE713B030BD0000403802400F
:10298000007000400248016841F470010160704726
:1029900088ED00E00148FEF7F8BF0000E0000020ED
:1029A000F0B50268274B284D284E294F294C4FF08F
:1029B000804C984209D0604507D0A84205D0B0426B
:1029C00003D0B84201D0A04204D122F0700E4A6870
:1029D00042EA0E0298421BD0604519D0A84217D097
:1029E000B04215D0B84213D0A04211D01A4DA8421F
:1029F0000ED01A4DA8420BD0194DA84208D0194D3F
:102A0000A84205D0184DA84202D0184DA84203D1C3
:102A100022F44075CA682A434D6922F080022A4395
:102A20008D68C5620D688562984201D0A04201D1CF
:102A300009690163016841F00401016001214161FC
:102A40000260F0BD000001400004004000080040AA
:102A5000000C0040000401400040014000440140DF
:102A60000048014000180040001C004000200040C9
:102A700010B5846842EA032224F47F440A432243C7
:102A8000826010BD826822F070020A4342F00701A2
:102A90008160704710B5036A046A24F0010404627F
:102AA000846924F0F00444EA021423F00A020A4381
:102AB0008461026210BD10B5036A046A24F0100438
:102AC0000462846923F0A00324F4704444EA0232CF
:102AD00043EA01118261016210BD00000148FFF765
:102AE00003B800002801002010B5806B0021C185CB
:102AF000FEF7F8FF10BD01680C3151E8002F22F4F9
:102B0000907241E80023002BF5D10168143151E89F
:102B1000002F22F0010241E80023002BF5D1016BC8
:102B2000012909D101680C3151E8002F22F010026F
:102B300041E80023002BF5D1202180F8421000212C
:102B40000163704708B590F84210222901D0022095
:102B500008BD82684FF480539A4201D1016921B1C6
:102B6000816A9A421BD04AB10AE00268816A5268BF
:102B7000C2F308020A80816A891C08E0026972B106
:102B80000268526802F07F020A70816A491C816201
:102B9000C18D491E0904090CC18503D01BE00268E0
:102BA0005268F1E70168CA6822F02002CA60016831
:102BB000CA6822F48072CA6001684A6922F0010280
:102BC0004A61202180F8421000214163026B012AF2
:102BD00003D0FFF78FF9002008BD016301680C31B5
:102BE00051E8002F22F0100241E80023002BF5D11C
:102BF00001680A68D20602D50A6849680091818D89
:102C0000FEF76FFFE7E7000070B504460068016952
:102C1000E26821F44051114301612169A068E26931
:102C200008436169114308432168CA6849F20C638B
:102C30009A430243CA6020684169A26921F4407145
:102C40001143416131492068884202D030498842AD
:102C500002D1FEF74BFB01E0FEF738FBE2690023EF
:102C6000192164253226B2F5004F626828D0A0FBF6
:102C70000101930F9200FDF7F7FA0146B0FBF5F062
:102C80006FF01802504301EB800006EB0010B0FB20
:102C9000F5F000F0F002B1FBF5F002EB0012B1FB31
:102CA000F5F06FF01803584301EB800006EB0010BD
:102CB000B0FBF5F000F00F0021681044886070BD93
:102CC000A0FB010192185B41FDF7CEFA0146B0FB73
:102CD000F5F00201B1FBF5F06FF01803584301EB7A
:102CE000800006EBC000B0FBF5F000F0F80002EB4E
:102CF0004002B1FBF5F0584301EB800006EBC00049
:102D0000B0FBF5F000F00700D6E70000001001402E
:102D1000001401402DE9F843984617460D46044635
:102D2000089E24E0701C22D0FEF7FAF8A0EB080001
:102D3000B0421AD8CEB12068C168490717D5802D96
:102D400015D0402D13D00168C94309070FD401687D
:102D50000025406800902046FFF7CDFE0820606403
:102D600084F840500120BDE8F8830320FBE7206889
:102D7000006835EA000004D00020B842D2D000201C
:102D8000F1E70120F9E741F4807141F221024000AE
:102D90004900CB0500D5401CC30300D55040CB03F0
:102DA000F5D580B27047FEE72DE9F14F0027DFF837
:102DB0007CA188B0DFF870B13E46B9463C46CAF8FF
:102DC00000B0A9E04FF000084546A1E041F288328A
:102DD00004A95748FFF792FB60B102286CD0B9F103
:102DE000000F00D0761C052E67D91820FFF702FDD2
:102DF00018208BE00498002670B1022807D04C49B7
:102E000008F0FF028B7893420BD015207EE006205D
:102E1000FFF7F0FC02247BE00620FFF7EBFC012526
:102E200076E0B8F1000F12D08208DAF80000091D30
:102E3000FDF73CFCF0B31820FFF7DCFC1820FFF78F
:102E4000D9FC042408F101084FF0010960E0087979
:102E500088B30020374B091D02E01A54401C491C5E
:102E60000A780AB14028F8D34FF0000C03F800C0EC
:102E700060466B4601E01A54401C11F8012F202ACD
:102E800001D01028F7D303F800C005A91846FFF7B2
:102E9000D1FC05986FF47821C84216D918208DF816
:102EA00018004FF480142346012206A92248FFF798
:102EB00022F803E01AE013E022E026E02346012294
:102EC00006A91D48FFF717F805245846FDF7B6FB7D
:102ED0000898059901600620FFF78CFC43200CE060
:102EE0000620FFF787FC01252F4611E0DAF80010D5
:102EF000049A1144CAF800100620FFF77BFCA1E7F2
:102F00001820FFF777FC182082E74320FFF772FCB8
:102F100055EA04003FF45AAF57EA04003FF452AFB9
:102F200009B02046BDE8F08F0080000810000020A6
:102F3000F8010020B8010020700100202DE9F74FB2
:102F400086B04FF0000A0120AC4E01900122089893
:102F5000727086F802A0FF23D04655465746F3709C
:102F6000544604E006EB040C641C8CF804300B5D42
:102F70000BB1402CF6D3321900211171014602A881
:102F8000FFF70CF802A8641D02E03155641C7F1C99
:102F9000C15D0029F9D14FF48019DFF860B202E079
:102FA00000203055641C842CFAD31FE05C464E464A
:102FB0004B468322611C9248FEF79DFF8021201D15
:102FC000FDF7A8FA0446000AFFF714FCE0B2FFF789
:102FD00011FC3346012269468948FEF733FF60B190
:102FE0000AF1010ABAF1050F00D3012558EA0500DC
:102FF000DCD006980290089C7CE09DF80000062832
:1030000015D01828EED13346012269467C48FEF7D8
:1030100019FF0028E6D19DF800001828E2D102200F
:10302000FDF71EFD7648006840680225DAE74FF09C
:103030000108D7E7DDE90103704AC6B24FF48067A3
:103040002046BC4201D3394600E08021884200D3AB
:103050000846B1F5806F07D0012757709670F64388
:10306000D6700426071D06E00227F6E713F801CB09
:1030700002F806C0761CBE42F8D3884207D81A234D
:10308000001D091D01E01354401C8842FBD34FF082
:10309000000A8DF800A0574629E000BF4FF4806673
:1030A000B44200D28026F21C4B46D8460BF10101F7
:1030B0005348FEF720FF314608F10400FDF72AFAD5
:1030C0008046000AFFF796FB08F0FF00FFF792FB2F
:1030D0004B46012269464A48FEF7B4FE18B99DF8EE
:1030E0000000062811D07F1C052F00D301255AEAC5
:1030F0000500D3D00CB1002D9CD0002426468DF8BD
:1031000000402746DFF8F88020E002984FF0010ADF
:103110003044B442029009D90198A41BB0F5787FDD
:1031200002D0401C0190DFE70525DDE70024DBE746
:103130000420FFF75FFB4B46012269463048FEF74B
:1031400081FE40B17F1C052F00D3012554EA050004
:10315000EED0E5B14EE09DF80000062815D0182805
:10316000F1D14B46012269462548FEF76BFE002847
:10317000E9D19DF800001828E5D10220FDF770FC88
:10318000D8F8000040680225DDE70124DBE70120D4
:103190008BF801008BF80260FF208BF803005C467F
:1031A00004202654401CC0B28428FAD34E464B4615
:1031B0008322611C1248FEF79EFE8021201DFDF730
:1031C000A9F90446000AFFF715FBE0B2FFF712FB6E
:1031D0003346012269460A48FEF734FE50B99DF88D
:1031E0000000182806D10220FDF73AFCD8F80000AC
:1031F0004068022509B02846BDE8F08FF80100209C
:10320000700100200907090E002804DB00F1E0200E
:1032100080F80014704700F00F0000F1E02080F803
:10322000141D70477047000004490A685206FCD517
:10323000024AC1B2121D116070470000004C0040EC
:10324000104910B50860BFF34F8FBFF36F8F01684F
:1032500081F30888446872B60020421E810001F1A3
:10326000E021C1F88021C1F88022401C0828F5DB4C
:10327000FDF792FFFDF7D0FB62B6A446BDE8104013
:103280006047000008ED00E00C484FF4FA61008848
:10329000B0FBF1F201FB12010948B1F57A7F0BD2C4
:1032A0004FF4FA72B1FBF2F302FB1311FA2903D2C5
:1032B00001220421FDF72EBE0022FAE714000020AF
:1032C00000040240FDF73AFEFFF712FBFEF786FE10
:1032D000FEF7F0FEFEF7B8FEFDF730F90948FEF7FD
:1032E000A5FA40F2DC51084800F020F840B1064849
:1032F00000784D2804D105A0FDF72EF8FEF7F6FE64
:10330000FEE70000E0000020000000200D0A456EEE
:1033100074657220426F6F746C6F61646572204DCA
:10332000656E752E2E2E0D0A000000000B4610B59E
:10333000014601220348FEF785FD08B1002010BDBB
:10334000012010BD280100204FF04070E1EE100A6E
:10335000704700000000000000000102030406079F
:103360000809000000000102030400000A0A0D2001
:1033700050726F6772616D6D696E6720436F6D701B
:103380006C65746564205375636365737366756CEF
:103390006C79210A0D2D2D2D2D2D2D2D2D2D2D2D21
:1033A0002D2D2D2D2D2D2D2D2D2D2D2D2D2D2D2D4D
:1033B0002D2D2D2D2D0D0A204E616D653A2000001A
:1033C0000D0A3D2020202020202020202020202009
:1033D00020202020202020202020202020202020ED
:1033E00020202020202020202020202020202020DD
:1033F00020202020202020202020202020202020CD
:10340000202020202020203D000000000D0A3D202B
:1034100020202020202020202020202020202020AC
:103420002020202020204279204D434420417070EC
:103430006C69636174696F6E205465616D20202032
:10344000202020202020202020202020202020207C
:103450002020203D000000000D0A3D2020202020DB
:1034600020202020202020202028432920434F50A6
:1034700059524947485420323031362053544D690F
:1034800063726F656C656374726F6E69637320201D
:103490002020202020202020202020202020203D0F
:1034A000000000000D0A3D202020202020202020A8
:1034B0002053544D33324634787820496E2D417074
:1034C000706C69636174696F6E2050726F677261AE
:1034D0006D6D696E67204170706C69636174696FAE
:1034E0006E202020202020202020203D00000000F1
:1034F0000D0A3D3D3D3D3D3D3D3D3D3D3D3D3D3D5F
:103500003D3D3D3D3D3D3D3D3D3D3D3D3D3D3D3DEB
:103510003D3D3D3D3D3D3D3D3D3D3D3D3D3D3D3DDB
:103520003D3D3D3D3D3D3D3D3D3D3D3D3D3D3D3DCB
:103530003D3D3D3D3D3D3D3D000000005C3500080A
:1035400000000020E0000000C40100083C36000834
:10355000E0000020800B0000E001000800000000F7
:10356000000000000024F400000000000000000043
:10357000000000000000000000000000000000004B
:10358000000000000100000000000000000000003A
:10359000000000000100000010000000000000001A
:1035A0000080000841320008000000000000000018
:1035B000000000000000000000000000000000000B
:1035C00000000000000000000000000000000000FB
:1035D00000000000000000000000000000000000EB
:1035E00000000000000000000000000000000000DB
:1035F00000000000000000000000000000000000CB
:1036000000000000000000000000000000000000BA
:1036100000000000000000000000000000000000AA
:10362000000000000000000000000000000000009A
:0C3630000000000000000000000000008E
:040000050800018965
:00000001FF
