:020000040800F2
:10000000483A002039020008FB3900087133000823
:10001000F9390008E9070008434F00080000000014
:100020000000000000000000000000003D47000844
:100030003909000800000000FD390008814A000865
:10004000530200085302000853020008530200083C
:10005000530200085302000853020008530200082C
:10006000530200085302000853020008530200081C
:10007000530200085302000853020008530200080C
:1000800053020008530200085302000853020008FC
:1000900053020008530200085302000853020008EC
:1000A00053020008314B00085302000853020008B5
:1000B00053020008530200085302000853020008CC
:1000C00053020008530200085302000853020008BC
:1000D00053020008530200085302000853020008AC
:1000E000530200085302000853020008530200089C
:1000F000530200085302000853020008530200088C
:1001000053020008793B000853020008530200081C
:10011000794C0008530200085302000853020008FB
:100120005302000853020008530200087D0800082B
:10013000530200085302000853020008530200084B
:10014000530200085302000853020008530200083B
:1001500053020008890800085302000853020008EF
:10016000530200085302000853020008530200081B
:100170005302000853020008530200080000000068
:10018000530200085302000800F002F800F044F89F
:100190000AA090E8000C82448344AAF10107DA45E2
:1001A00001D100F039F8AFF2090EBAE80F0013F0F0
:1001B000010F18BFFB1A43F001031847205B000032
:1001C000405B0000103A24BF78C878C1FAD85207C3
:1001D00024BF30C830C144BF04680C6070470000C1
:1001E0000023002400250026103A28BF78C1FBD840
:1001F000520728BF30C148BF0B607047642900F028
:100200001D81732900F01D82002070471FB505F085
:100210005DFC1FBD10B510BD00F04AFA1146FFF796
:10022000F5FF05F027FB00F068FA03B4FFF7F2FFD3
:1002300003BC05F0C5F8000009488047094800479D
:10024000FEE7FEE7FEE7FEE7FEE7FEE7FEE7FEE786
:10025000FEE7FEE704480549054A064B70470000E3
:10026000214B000889010008480A0020483A002074
:10027000481A0020481A002053EA020C00F0698056
:100280002DE9F04B4FF00006002B1FBFB3FA83F5AA
:1002900003FA05F424FA05F65E4012BF1643B2FADB
:1002A00082F502FA05F4C5F120051EBF22FA05FC0D
:1002B00044EA0C04203556EA044C4FEA144418BFB3
:1002C000641C4FF000084FF00009904271EB030CE2
:1002D00039D3002919BFB1FA81F701FA07F6B0FA4C
:1002E00080F700FA07F6C7F120071EBF20FA07FCC7
:1002F00046EA0C062037B6FBF4FCA7EB0507103FD7
:1003000007F01F0BCBF120060CFA0BFB2CFA06F6BC
:1003100044BFB3460026202FA4BF5E464FF0000B1B
:100320005BEA060C08BF4FF0010B19EB0B09ABFBA6
:10033000027C48EB0608C01B06FB02CC0BFB03CC7F
:1003400071EB0C01C1E70B46024641464846BDE849
:10035000F08B13B54FF000004FF00001AFF30080B9
:10036000BDE81C40704700000FB4044910B503AA53
:10037000029800F06BF910BC5DF814FB040000203B
:100380002DE9F0410E460446002020622046E16837
:10039000884730B3252805D0D4E901219047206A49
:1003A000401CF2E7E168204600278847050018D086
:1003B000A5F14100192802D820354FF400673246D4
:1003C000294620462760FFF719FF40B1012804D0D5
:1003D000F61D26F007060836D8E7361DD6E728466C
:1003E000DAE7206ABDE8F08170B50C460546012ABF
:1003F00005D02878800600D5EA69002302E00123B1
:1004000005E05B1C934202D2E05C0028F9D1A869A8
:10041000E618C01AA861286A184428622846AFF373
:10042000008004E0D5E9012114F8010B9047B442A3
:10043000F8D32846AFF3008070BD00002DE9F041ED
:100440000646002410687529314616A510D0AFF372
:100450000080002802DA404213A507E031688A07CD
:1004600001D512A502E0490704D511A5012401E038
:10047000AFF3008000210A2206F1240709E0B0FB57
:10048000F2FCB0FBF2F302FB1C003030785418464B
:10049000491C0028F3D123462A463046BDE8F041E6
:1004A00000F064B8000000002D0000002B000000E8
:1004B0002000000010B5203AC0F00B80B1E81850C1
:1004C000203AA0E81850B1E81850A0E81850BFF43E
:1004D000F5AF5FEA027C24BFB1E81850A0E81850DD
:1004E00044BF18C918C0BDE810405FEA827C24BF31
:1004F00051F8043B40F8043B08BF7047D20728BFBF
:1005000031F8023B48BF11F8012B28BF20F8023B0D
:1005100048BF00F8012B70474FF0000200B51346AA
:1005200094469646203922BFA0E80C50A0E80C5013
:10053000B1F12001BFF4F7AF090728BFA0E80C50C4
:1005400048BF0CC05DF804EB890028BF40F8042BBD
:1005500008BF704748BF20F8022B11F0804F18BF2A
:1005600000F8012B70477047704770472DE9F0473E
:100570000D4699469246044600F124080168880613
:1005800004D5E06921F01001216000E00120A842BB
:1005900001DD471B00E00027A1697A1902EB090081
:1005A000081AA0612078C00602D42046AFF300806C
:1005B000002608E0D4E901211AF806009047206AD5
:1005C000401C761C20624E45F4DB2078C0060AD51C
:1005D0002046AFF3008006E0D4E9012130209047A7
:1005E000206A401C2062381EA7F10107F4DC07E0F6
:1005F000D4E9012118F805009047206A401C2062C8
:10060000281EA5F10105F3DC2046AFF30080207819
:10061000000602D50220BDE8F0870120FBE710B5F7
:10062000436913B1AFF3008001E0FFF7DDFE012065
:1006300010BD127800F124010A7000224A700122D4
:10064000EDE711684FF0FF32E9E70000074B70B5A6
:100650000D467B4400F015F80446284600F024F8C7
:1006600010B14FF0FF3070BD204670BD2751000023
:1006700000487047E809002001694A1C02610878B7
:10068000704700B58FB0CDE90131002105910549D2
:100690007944CDE9031011466846FFF771FE0FB0AB
:1006A00000BD0000E5FFFFFF007B00F08000704709
:1006B0007546FFF7DDFFAE4605006946534620F05C
:1006C0000700854618B020B5FFF7C4FDBDE82040FF
:1006D0004FF000064FF000074FF000084FF0000BFE
:1006E00021F00701AC46ACE8C009ACE8C009ACE8B1
:1006F000C009ACE8C0098D46704710B50446AFF399
:1007000000802046BDE81040FFF78FBD10B50124E2
:100710000821034800F068FF00B10024204610BD06
:10072000000C0240704700000146014801F070BE15
:100730002401002010B5044801F07CFE042801D0FB
:10074000012010BD002010BD2401002010B500F0D4
:1007500015F8012801D0012010BD074801F084FFE1
:10076000040006D14FF40061034801F0F7FC00B12A
:100770000124204610BD00002401002008B50120FE
:100780008DF80000FFF7C2FF10B900208DF80000BF
:100790009DF8000008BD0000134610B50A4601464A
:1007A0000024034802F05AF800B10124204610BD8D
:1007B000240100200149012088607047E8000020E2
:1007C000134610B50A4601460024034802F0E0F83B
:1007D00000B10124204610BD240100200149012060
:1007E00048607047E8000020FEE7000030B504468E
:1007F0000020651804E000BF14F8011B04F091FB11
:10080000AC42F9D3002104F08CFBBDE8304000215C
:1008100004F087BB70B5002829D01549016015493F
:100820000A684260D1F89840262221461248FFF714
:1008300041FEE08C104DE884A06AA862A08DA885D6
:10084000E08DE885206B2863606B686304F13801F4
:10085000092205F13800FFF72DFE94F8410085F8D4
:10086000410094F8420085F84200606C686470BDF5
:10087000B002002044000020F8020020014800F0EF
:10088000C3BA0000A8010020014800F0BDBA000072
:100890000802002001681823CAB2103AB2FBF3F232
:1008A000054B6FF30901032A9B5CC36500D9091D41
:1008B0008165084670470000EE5A000810B50146F1
:1008C00000208B698A6A4FF0C07453B1B3F5005FA2
:1008D00015D072B1012A0CD0022A0AD0032A09D1FC
:1008E00004E01AB1012A06D0022A03D1C96AC9015B
:1008F00000D5012010BDC96AA142FAD010BD002A5E
:10090000F7D0012AF2D0022AF3D0032AF3D010BD87
:1009100030B50468256825F4802525600468636087
:100920008368402B036803D099600068C26030BDC3
:100930009A600068C16030BD704772B6FEE7002261
:10094000AFF3008030B50E4B054601205C7A002CD9
:1009500014D1587A1C54587A03EB800045605D7AB4
:1009600003F108002A54587A421C5A723030087039
:100970003A2048702F208870CC70002030BD0000D5
:10098000DC090020002229B101291AD002291BD03C
:100990004FF440720E490B6823F440730B600B68F0
:1009A00013430B600A6822F078020A600A68022387
:1009B00003EBC00002430A60086840F4803008601E
:1009C00070474FF48072E5E74FF40072E2E70000F1
:1009D000103C02401348016889050FD5016821F4D5
:1009E00000710160016841F400610160016821F457
:1009F00000610160016841F400710160016849050E
:100A00000FD5016821F480610160016841F48051D3
:100A10000160016821F480510160016841F4806146
:100A200001607047003C024000B587B000F02AF832
:100A3000094800F02DF902900A20039000210220BD
:100A40000091049005A9684600F086FB002800D0BC
:100A5000012007B000BD00000080000810B588B07C
:100A600040F6FF7400F0B2FC684600F0C1FB00F0F5
:100A700045FC0298844302D0022008B010BD00203B
:100A8000FBE7000010B500F0A1FC0249F32008606C
:100A900010BD00000C3C02402DE9F041164688468E
:100AA000054600240D4F13E058F824200023294662
:100AB000022000F04DFC10B10320BDE8F08158F891
:100AC00024002968814201D00220F6E7641C2D1D14
:100AD000B44201D2BD42E7D90020EEE7FBFF0F0888
:100AE00030B58FB0044640F6FF7507A800F080FBD4
:100AF0000120CDE90004AA200490099C9DF834004F
:100B00008DF818002C4300F061FC00F00DFC6846E5
:100B1000029400F08DFB0FB030BD000008490A6858
:100B200022F440720A600A6842F004020A600A680D
:100B30004FF4803343EA002002430A60704700000C
:100B4000103C0240064A136823F440731360136894
:100B50001360136843F001031360017070470000D5
:100B6000103C0240094910B50C6824F440740C6034
:100B70000C6844F440740C600C6844F001040C6090
:100B80000260BFF36F8F436010BD0000103C024055
:100B9000074A136823F440731360136843F48073A7
:100BA0001360136843F00103136001807047000075
:100BB000103C0240074A136823F440731360136823
:100BC00043F400731360136843F001031360016082
:100BD00070470000103C024017490868C2061748D9
:100BE00005D5C26942F01002C26110220A600A688B
:100BF000920605D5C26942F00802C26120220A604D
:100C00000A68520605D5C26942F00402C261402258
:100C10000A600A68120605D5C26942F00202C26182
:100C200080220A600A68920705D5C26942F0200254
:100C3000C2610220086070470C3C0240180000208E
:100C400070B5114904460020C86100F0D7FC064683
:100C50000E4D09E0601C07D024B100F0CFFC801BD2
:100C6000A04201D9032070BD2868C003F2D42868CF
:100C7000C00701D001202860286810F0F200F2D0EF
:100C8000FFF7AAFF012070BD180000200C3C0240B5
:100C90000021A0F100634FF4804293423FD32149E9
:100CA0000144914201D2012139E01F49014491429E
:100CB00001D2022133E01D490144914201D20321B6
:100CC0002DE01B490144B1F5803F01D2042126E00B
:100CD000184942184FF400318A4201D205211EE022
:100CE000154A02448A4201D2062118E0134A0244FE
:100CF0008A4201D2072112E0114A02448A4201D2FB
:100D000008210CE00F4A02448A4201D2092106E080
:100D10000D4A1044884201D20A2100E00B21084606
:100D20007047000000C0FFF70080FFF70040FFF7AA
:100D30000000FFF70000FEF70000FCF70000FAF7E4
:100D40000000F8F70000F6F70000F4F72DE9F04195
:100D50000446876D00F052FC064694F835000025E5
:100D6000022806D08020606584F834500120BDE858
:100D7000F0812068016821F0160101602068416956
:100D800021F080014161206C08B9A06C20B120687D
:100D9000016821F0080101602068016821F001016B
:100DA00001600CE000F02AFC801B052807D92020F8
:100DB0006065032084F8350084F83450D7E7206854
:100DC0000068C007EED194F85C103F208840B860FE
:100DD000012084F8350084F834500020C7E790F8EB
:100DE0003510022903D0802141650120704705217B
:100DF00080F835100068016821F0010101600020D1
:100E00007047406D704700002DE9F84304464FF0ED
:100E10000009CDF8009063484FF41651A56D0068A5
:100E2000B0FBF1F72E6894F85C10082000FA01F18D
:100E300031420FD021680A6852070BD50A6822F0A8
:100E400004020A6094F85C108840A860606D40F06D
:100E50000100606594F85C104FF0010808FA01F099
:100E6000304208D021684969090604D5A860606D40
:100E700040F00200606594F85C1004208840304225
:100E800008D021680968890704D5A860606D40F022
:100E90000400606594F85C1010208840304218D03F
:100EA00021680968090714D5A8602068016849030A
:100EB00004D50068000308D5A16C07E00168C905E6
:100EC00003D4016821F008010160216C09B12046BA
:100ED000884794F85C1020208840304231D0216847
:100EE0000968C9062DD5A86094F835000528206842
:100EF000016806D0490347D5006800031DD4616C22
:100F00001CE021F0160101602068416921F0800198
:100F10004161206C08B9A06C20B12068016821F003
:100F20000801016094F85C103F208840A86084F8B4
:100F3000358084F83490216D1FE0E16B09B12046C3
:100F40008847606D00282BD0606DC00714D0052045
:100F500084F835002068016821F0010101600098E3
:100F6000401C0090B84203D820680068C007F6D142
:100F700084F8358084F83490E16C002910D001B0F9
:100F80002046BDE8F04308470168C905D5D401688B
:100F900021F01001016084F8358084F83490CCE7AA
:100FA000BDE8F883080000202DE9F041044600F078
:100FB00025FB06465CB1022084F83500002584F844
:100FC00034502068016821F0010101600DE001202A
:100FD000BDE8F08100F012FB801B052805D9202018
:100FE0006065032084F83500F2E720680068C007D8
:100FF000F0D12268116820480140D4E90103184368
:10100000D4E903363343184363691843A36918438B
:10101000E3691843236A18430843616A042903D12A
:10102000D4E90B1319430843106020684069666ACD
:1010300020F0070130460E43012704280CD1A06A96
:101040000643E06A40B12046FFF738FC20B140205B
:10105000606584F83570BAE7206846612046FFF77E
:1010600019FC94F85C203F2191408160656584F80B
:1010700035700020ACE700003F8010F02DE9F04112
:101080000446866D90F83400002501280DD001201B
:1010900084F8340094F835700020012F07D084F8CC
:1010A000340002252846BDE8F0810220FBE7022734
:1010B00084F8357060652046FFF72AFC94F85C10D0
:1010C0003F208840B0602068016841F0160101604F
:1010D000206C20B12068016841F00801016020689F
:1010E000016841F001010160DCE700000E4910B524
:1010F0000C48086000200860091D0C4A0A6008605E
:1011000009490B4A10390A600860C122091D0A60AA
:1011100008600122091D0A60086000F0B7FA00208B
:1011200010BD0000FFC9FEF6203802403379770475
:10113000FF11602270B5044600F060FA0546601C9D
:1011400002D004480078044400F058FA401BA04242
:10115000FAD370BD380000202DE9F047044622483C
:101160000F46017E01290AD00121804601764CF20A
:1011700050394846FFF764FD020003D02FE00220FB
:10118000BDE8F0874FF0FF3038602068174D012828
:1011900001D0A6681CE0207C6168FFF7BFFC4846D0
:1011A000FFF74EFD0246286820F00400286014E096
:1011B000217C3046FFF7E6FB4846FFF741FD020081
:1011C000286820F07A00286001D03E6005E0761C97
:1011D000D4E902100844B042EAD8FFF7FBFB002133
:1011E00088F818101046CBE718000020103C024089
:1011F0000F2101600D49098881600C4AAA21521E05
:101200001378CC2B0FD01278AA2A00D05521016177
:101210000649891E0A6802F0E0020276097801F0A8
:101220000C0141617047CC21F1E70000163C0240FF
:101230002DE9F0472E49044601200A7E012A11D0EB
:10124000012288460A7621784CF2503AC90715D017
:101250006068284D0128A668504606D0FFF7F0FCCC
:1012600048B10BE00220BDE8F087FFF7E9FC28B9A0
:101270002988B14301E029883143298021788907F1
:1012800007D5257C5046FFF7DBFC10B91949491EEC
:101290000D702178DFF86090490713D5207E00F0AB
:1012A000200700F0400500F080065046FFF7C8FC1C
:1012B00040B999F8002002F01F02154335433D4321
:1012C00089F8005021784FF0000209070CD5207DE5
:1012D00099F8003023F00C0389F8003099F80030B9
:1012E000034389F80030104688F81820BBE7000057
:1012F00018000020163C0240143C024003480168DC
:1013000041F000410160002070470000103C0240A5
:101310000448017841F0020101704CF25030FFF7AF
:101320008FBC0000143C024006480068C00707D08C
:10133000044805490C3801600449016000207047E9
:1013400001207047143C02403B2A19087F6E5D4C17
:101350002DE9F0471B4E05461446307E1F46894650
:10136000012808D0012030764CF250384046FFF773
:1013700067FC18B114E00220BDE8F0879DB1012D93
:1013800016D0022D19D022463B464846FFF7EAFB0D
:101390004046FFF755FC0C490A6822F001020A603A
:1013A00000213176E8E7E1B24846FFF7CBFBEFE7F3
:1013B000A1B24846FFF7ECFBEAE721464846FFF7B3
:1013C000F9FBE5E718000020103C02400749002027
:1013D0000A68002A09DA054A054B0C3A1360054BE6
:1013E00013600968002900DA01207047103C0240B0
:1013F00023016745AB89EFCD2DE9F84FDFF8BCA19C
:101400000022012503264FF00F090AF1040BAAF16F
:10141000040E00BF0B6805FA02F42340A34270D10A
:101420000F7907F00307012F01D0022F16D187682B
:101430004FEA420806FA08FC27EA0C07D1F80CC06C
:101440000CFA08FC4CEA070CC0F808C04768A74330
:101450000C79C4F3001494403C4344600C79E44399
:10146000A4070AD0C4684FEA420C06FA0CF7BC4342
:101470008F6807FA0CF72743C7600C7904F0030460
:10148000022C12D1D40800EB840CDCF82040570762
:10149000FF0E09FA07F824EA0804D1F8108008FAC8
:1014A00007F848EA0408CCF8208004684FEA420CA8
:1014B00006FA0CF7BC430F7907F0030707FA0CF79D
:1014C000274307604C6814F4403F70D03C4C2768B9
:1014D00047F480472760246822F0030704F480441F
:1014E0000094384C07EB040CDCF8084897074FEAE7
:1014F000177809FA08F7BC43334FB84202D10027E6
:1015000024E054E0314FB84201D101271EE0304FB2
:10151000B84201D1022719E02E4FB84201D103276A
:1015200014E02D4FB84201D104270FE02B4FB842F1
:1015300001D105270AE02A4FB84201D1062705E06C
:10154000284FB84201D1072700E0082707FA08F71B
:101550002743CCF80878DAF800405746D1F804C0A1
:101560009C435FEACC2C00D51C433C60DBF8004078
:101570005F46D1F804C09C435FEA8C2C00D51C4325
:101580003C60DEF800407746D1F804C09C435FEA37
:101590008C3C00D51C433C60084F083F3C68D1F8A8
:1015A00004C09C435FEACC3C00D51C433C60521C09
:1015B000102AFFF42FAFBDE8F88F0000083C01406F
:1015C0004438024000300140000002400004024064
:1015D00000080240000C02400010024000140240CB
:1015E00000180240001C02400069084000D00120A1
:1015F00070470AB1816170470904FBE701488068C0
:1016000070470000380000200248816802781144C9
:1016100081607047380000200B4810B5016841F424
:1016200000710160016841F480610160016841F46A
:1016300080710160032000F071F80F2000F006F8BF
:1016400000F026F8002010BD003C024070B50D4DA2
:1016500004464FF47A712878B1FBF0F00A49096822
:10166000B1FBF0F001F024FA48B9102C07D20022A7
:101670002146501E00F032F800206C6070BD012041
:1016800070BD0000380000200800002070470000F6
:101690000A4808B5016841F480410160006800F41F
:1016A000804000900548001F016841F080510160B2
:1016B000006800F08050009008BD000044380240EF
:1016C000002809DB00F01F02012191404009800041
:1016D00000F1E020C0F8001170470000F0B40E4B9C
:1016E0001B680C46C3F30223C3F10705042D00D980
:1016F0000425191D072901D2002300E0DB1E012665
:1017000006FA05F1491E214099409E40761E16407A
:101710003143F0BC03F044BE0CED00E0064900F09C
:10172000070208684FF6FF03184040EA0220034A08
:1017300010430860704700000CED00E00000FA055F
:101740002DE9F843054600684FF00109C1074FF045
:10175000000601D1400727D5DFF80C81C8F8686082
:10176000FFF74CFF0746414C05E000BFFFF746FF7F
:10177000C01B022857D820680001F7D4686881018F
:10178000287A41EA0070394984310860C8F86890C5
:10179000FFF734FF074604E0FFF730FFC01B0228C5
:1017A00041D820680001F7D52878800752D52F4806
:1017B0004030016841F08051016000682C4C00F01D
:1017C00080500090206840F480702060FFF716FF82
:1017D000074604E0FFF712FFC01B022823D8206849
:1017E000C005F7D5214C7034206810F4407020D02B
:1017F000A98901F4407181421BD020681D4920F461
:101800004070C1F800900E6020602068C00710D0C2
:10181000FFF7F4FE064641F2883707E0FFF7EEFED9
:10182000801BB84202D90320BDE8F88320688007F6
:10183000F4D5E9680D48C1F301220830032A0BD022
:10184000016821F4F81101602068A989C1F30B0136
:10185000084320600020E7E70268074B22F4F812F3
:1018600019400A430260EFE7000047420038024097
:1018700000700040400E4742FFFCFF0F2DE9F0478B
:101880000E46050065D0DFF81481D8F80000F7B2E5
:1018900000F00700B04207D288F80070D8F80000C6
:1018A00000F00700B04254D128683D4C810712D5A2
:1018B000400703D5206840F4E050206028780007F6
:1018C00003D5206840F4604020602068A96820F0BB
:1018D000F000084320602878C0072DD030496868A0
:1018E0000839012812D0022813D0032811D0096822
:1018F000890700292DDA216821F0030101432160C5
:10190000FFF77CFE814641F2883A0EE009688903C0
:10191000EFE709688901ECE7FFF770FEA0EB09012A
:10192000514502D90320BDE8F0872068696800F0BE
:101930000C00B0EB810FEFD1D8F80010404601F059
:101940000701B14207D90770006800F00700B042F4
:1019500001D00120E7E72878400705D52068E9682D
:1019600020F4E050084320602878000706D520685E
:10197000296920F4604040EAC100206000F0D2F8FC
:101980002168084AC1F30311515CC8400649086048
:1019900006480068FFF75AFE0020C4E7003C0240FA
:1019A00008380240D65A0008080000203C000020F9
:1019B0002DE9F041FFF722FE444C0546206840F037
:1019C0000100206005E000BFFFF718FE401B022861
:1019D00047D820688007F7D5206840F08000206055
:1019E000FFF70CFE0546394E00200836306041F204
:1019F000883704E0FFF702FE401BB84231D8306858
:101A000010F00C0FF6D1FFF7F9FD0546206820F421
:101A10005020206005E000BFFFF7F0FD401B642868
:101A20001FD820688003F7D4FFF7E8FD054620683B
:101A300020F08070206004E0FFF7E0FD401B0228EA
:101A40000FD820688001F7D4FFF7D8FD054620683D
:101A500020F08060206007E0FFF7D0FD401B0228E7
:101A600002D90320BDE8F08120680001F4D41749B1
:101A70001748091D08601549164884310860134845
:101A80000C30016821F4F8510160016821F4005123
:101A90000160016841F41F010160016841F4001117
:101AA00001600A487430016821F001010160016899
:101AB00041F08071016009490748086008480068E2
:101AC000FFF7C4FD0028CDD00120CBE7003802404D
:101AD00010300004003000200024F4000800002032
:101AE0003C0000200448054900680968044AC1F325
:101AF0008221515CC840704708000020083802402D
:101B0000E65A00080448054900680968044AC1F318
:101B10004231515CC840704708000020083802403C
:101B2000E65A0008154810B5006810F00C02144879
:101B300013D04110042A0FD0082A0ED10F4C241FB5
:101B40002268236802F03F025B0207D52068C0F3D9
:101B50008810A0FB010106E0084610BD2168C1F312
:101B60008811A1FB00010023FEF786FB2168C1F369
:101B70000141491C4900B0FBF1F010BD083802409A
:101B80000024F4002DE9F84F04006ED02078DFF82F
:101B90004C93C007A9F104054AD009F1040001687B
:101BA000C1F38101012908D00068C0F38100022837
:101BB0000AD1D9F80000400206D52868800337D53D
:101BC00060680028E1D033E06068B0F5803F10D055
:101BD000B0F5A02F286810D020F480302860286845
:101BE00020F4802028606068A8B1FFF707FD064652
:101BF0000DE0286840F48030F4E740F4802028604D
:101C0000F7E700BFFFF7FAFC801B642873D8286849
:101C10008003F7D50CE0FFF7F1FC064605E000BFB6
:101C2000FFF7ECFC801B6428F0D828688003F7D409
:101C30002078DFF8AC8280074FF0000A3ED5A74835
:101C4000001D016811F00C0F08D00068C0F381007E
:101C500002280BD1D9F80000400207D42868800779
:101C600016D5E068012800D112E033E1E068B8B190
:101C70000120C8F80000FFF7C1FC064605E000BFE0
:101C8000FFF7BCFC801B0228C0D828688007F7D566
:101C90002868216920F0F80040EAC10028600DE0C2
:101CA000C8F800A0FFF7AAFC064604E0FFF7A6FC70
:101CB000801B02281FD828688007F7D420780007E7
:101CC00022D5864F87486169703771B10121016063
:101CD000FFF794FC064604E0FFF790FC801B022807
:101CE00009D838688007F7D50EE0C0F800A0FFF7E4
:101CF00085FC064605E082E0FFF780FC801B022899
:101D00007DD838688007F7D42078400768D5DFF899
:101D1000CCB100270BF13C0BDBF80000C0000BD46A
:101D2000DBF8001041F08051CBF80010DBF8000028
:101D3000012700F0805000906B4E3068C00510D431
:101D4000306840F480703060FFF758FC009005E088
:101D5000FFF754FC0099401A022850D83068C0059B
:101D6000F6D55E4EA0686C3601280FD00528306885
:101D700010D020F001003060306820F004003060A6
:101D8000A068B8B1FFF73AFC00900FE0306840F06F
:101D90000100F4E740F004003060F7E7FFF72EFCA5
:101DA0000099411A41F28830814266D83068800734
:101DB000F4D50EE0FFF722FC009007E0FFF71EFCD1
:101DC0000099411A41F28830814256D83068800724
:101DD000F4D42FB1DBF8001021F08051CBF80010C3
:101DE000A069C8B33D49091D0968C1F381010229F1
:101DF0004AD00228504607D0C8F8600000E03CE016
:101E0000FFF7FCFB04463BE04746C8F86000FFF7DD
:101E1000F5FB064605E000BFFFF7F0FB801B02283C
:101E20002BD828688001F7D4D4E907010843A16AB8
:101E30002E4A490802EB0141626A41EA82110843D5
:101E400094F82C1040EA0161C9F8001001203866AE
:101E5000FFF7D4FB044606E03EE000BFFFF7CEFBF1
:101E6000001B022809D828688001F7D534E000BF9C
:101E7000FFF7C4FB001B022802D90320BDE8F88F3E
:101E800028688001F4D427E00128F7D0D9F80000B1
:101E9000E26900F4800191421CD1226A00F03F0106
:101EA000914217D147F6C071626A0140B1EB821FBF
:101EB00010D1A26A4FF0FF3300F4403103EB52021D
:101EC000B1EB024F06D194F82C1000F07060B0EB2B
:101ED000016F01D00120D1E70020CFE70438024094
:101EE00000004742800E4742007000400000FFFFA4
:101EF00010B5040002D0607F10B106E0012010BDD3
:101F000000202077204600F041F80220607720680A
:101F1000C168C943C90632D5CA214162216853202C
:101F20004862204601F076FD20BB20688168164A91
:101F3000114081602168886862681043D4E90423F5
:101F40001A43104388602168E068086120680169CD
:101F5000228941EA02410161204601F07FFD48B932
:101F600021680A6C22F480220A6421680A6CA36941
:101F70001A430A642268FF21516208B110BD002093
:101F80000121617710BD0000BFFF8FFF1FB5002149
:101F900000910191029103910068084988420CD197
:101FA00002200090C00103906846FFF7C9FB08B10A
:101FB000FEF7C3FC0249012008601FBD0028004055
:101FC0003C0E474270B50446007F0B46012819D0ED
:101FD0000126267702206077B2B19878D97840EA56
:101FE000014558781978000240EA413005432168DC
:101FF000CA204862216853204862204601F00AFD49
:10200000D0B122E0022070BD5878C10603D500F09F
:10201000EF000A305870D87801F0F1FC02045878CB
:1020200001F0EDFC42EA0022987801F0E8FC02435E
:10203000187842EA4035DAE70748054020684560ED
:10204000204601F00BFD00B966772268FF2151623E
:102050000021217770BD00003FFFFF002DE9F04116
:102060000446007F0D46012823D04FF0010884F874
:102070001C80022060772068002780684FEA40605B
:10208000D2B1002800DBEF70A878297840EA014639
:102090006878E978000240EA815006432168CA2046
:1020A0004862216853204862204601F0B3FCB8B171
:1020B0002CE00220BDE8F081002800DBEF702878DA
:1020C00001F09DFC0204687801F099FC42EA0022CC
:1020D000A87801F094FC0243E87842EA8056DDE7F4
:1020E0000D480640206806602068816821F4802140
:1020F0008160D5E90301084321688A68104388603C
:10210000204601F0ABFC08B984F81D802268FF214D
:1021100051622777CEE700007F7F7F0070B50446CD
:102120000B482168C860FFF769FA05464FF47A76D4
:1021300007E000BFFFF762FA401BB04201D903205D
:1021400070BD2068C0688006F4D5002070BD000016
:102150005F7F010010B5FEF7E5FA10BD2DE9FE43E3
:102160000446002603200D4684F83400606C0328E2
:102170005ED0B5F5805F5BD04FF4006700204FF074
:102180008068BD421FD181460090019000212068E7
:1021900001F0EEFC800113D46946204602F0DCF821
:1021A00007000DD10198400334D5B4F85000010464
:1021B000206801F015FD070002D10221206823E00C
:1021C000A06B384328E01DB1A06B40F0006023E015
:1021D0008146009001900021206801F0C9FC800137
:1021E000EED46946204602F0B7F80700E8D101981E
:1021F000C0030FD5B4F850000104206801F0F0FCD2
:102200000700DDD10021206801F037FD0700D7D19C
:102210004F46D5E74746D3E7A063A06B144F4FF076
:10222000010848B12068876384F8348001260EE0F5
:10223000A06B40F08050EFE7211DD4E9050C0EC9DA
:10224000CDE90050CDF808C0206801F09BFC4FF4A8
:102250000071206801F0F8FC28B121688F63A16B40
:102260000143A163012684F834803046BDE8FE8333
:10227000FF05400070470000F0B5426E920F0A70F3
:10228000426EC2F383624A70426EC2F301628A7088
:10229000426E120CCA70B0F86420120A0A7190F8EB
:1022A00064204A71826E120DCA80826EC2F30342AC
:1022B0000A72B0F86820C2F3C0324A72B0F86820DF
:1022C000C2F380328A72B0F86820C2F34032CA7218
:1022D000B0F86820C2F300320A7300264E73426CD5
:1022E0004FF40075012462B1012A3AD002684749CF
:1022F0009163816B41F08051816380F8344001200B
:10230000F0BDB0F86820C36E9205120D42EA9372D8
:102310000A61C26EC2F3C2620A75C26EC2F3026281
:102320004A75C26EC2F342528A75C26EC2F38242CD
:10233000CA75C26EC2F3C2320A760A69521C42657D
:102340000B7E03F007039B1C9A4042650B7A03F057
:102350000F0704FA07F383655B0A5A43C0E91725A0
:102360000EE090F86820C36E9206920A42EA134289
:102370000A610A69521C92024265C0E9165205665A
:1023800030F86C2FC2F3803201F8192F0288C2F3A3
:10239000C6124A70027802F07F028A704268D20F39
:1023A000CA704268C2F341720A714268C2F3826223
:1023B0004A714268C2F383528A714268C2F3405242
:1023C000CA710E724268C2F300424A728288C2F336
:1023D000C0328A728288C2F38032CA728288C2F3A3
:1023E00040320A738288C2F300324A738288C2F391
:1023F00081228A738288C2F30122CA730079C0F3F2
:10240000460008744C740020F0BD0000FF05400039
:10241000426C0A60826C4A60C26C8A60026DCA605B
:10242000426D0A61826D4A61C26D8A61006EC86147
:102430000020704770B50446B0F850000025010434
:10244000206801F002FD18B1A16B0143A16304E013
:102450000021206801F08CFB0546C5F3432070BDC8
:10246000F8B5056B04460068416B09041BD52907C4
:1024700019D5D4E90A56002E14D00027206801F09F
:1024800097FB05F8010B010A05F8011B010C05F883
:10249000021B000E361F7F1C05F8010C082FEDD320
:1024A000C4E90A56F8BD416B4FF00006C9054FF06C
:1024B000010744D5390281632068C16B4CF23A327E
:1024C0009143C1632068C16A21F00101C1622807FC
:1024D0001DD515F0220F09D0206801F0E7FC28B1C6
:1024E000A16B0143A1632046FFF7C4FE216840F2BF
:1024F0003A50886384F834702663A80703D02046D6
:1025000000F03EFAF8BD204600F03EFAF8BD28067D
:10251000FCD5A80609D5206801F0C8FC28B1A16B3C
:102520000143A1632046FFF7A5FEA807EED120686E
:10253000C16A21F00801C16284F83470E3E7416B9D
:10254000490424D5290722D5D4E90856002EDDD028
:102550005FF0000715F8010B009015F8011B361FFE
:1025600040EA0120009015F8021B40EA014000906B
:1025700015F8011C40EA016000906946206801F0EE
:102580002AFB7F1C082FE5D3C4E90856F8BD416B30
:1025900040F23A221142F9D0416B890703D5A16B71
:1025A00041F00201A163416B090703D5A16B41F022
:1025B0000801A163416B890603D5A16B41F020019D
:1025C000A163416BC90603D5A16B41F01001A16362
:1025D000416B890503D5A16B41F00801A16340F26D
:1025E0003A7181632068C16B40F23A329143C16312
:1025F000206801F05BFCA16B0843A063280706D5A7
:1026000084F8347026632046FFF734FEF8BD2806B0
:10261000FCD515F0300F0CD0E16B11480865E06B6C
:10262000FEF7DDFB0028F1D0E06BBDE8F84001F0DB
:1026300071BEA8070CD0216C0A480865206CFEF713
:10264000CEFB0028E2D0206CBDE8F84001F039BE96
:10265000A66384F8347026632046FFF77BFDF8BD3F
:1026600015430008C342000870B504000ED094F86A
:102670003400002518B92577204600F04DF80320D6
:1026800084F83400204600F00BF808B1012070BD3A
:10269000A5632563012084F83400002070BD00008C
:1026A000FEB50025044676200095CDE901502B4665
:1026B0002A462946206801F065FA154E46F8A05FC3
:1026C000206801F071FA012535600220FEF732FD25
:1026D000204601F029FF28B184F83450A16B014352
:1026E000A16313E0204601F0A7FE0028F4D14FF4C7
:1026F0000071206801F0A8FA002808D02268054976
:102700009163A16B0143A16384F834500120FEBDA5
:1027100000802542FF0540002DE9F04F87B00546B7
:1027200014216846FDF7F8FE4649286888427DD1A5
:1027300045480068444940F400600860086800F4B7
:10274000006005904048143800683F4940F004009C
:1027500014390860086800F004000590086840F02B
:10276000080008600868032600F0080005904FF490
:10277000F8500090022001900020CDE902060C24C0
:10278000694604943148FEF737FE04270220CDE95C
:1027900000700020CDE90206694604942C48FEF73B
:1027A0002BFE2D4C2B484FF00068C4E90008002098
:1027B000A060E06038022061C4E90976800004F17D
:1027C00014014FF480494FF0200A4FF4403B81E858
:1027D000010EC60247022046C4E90B67FEF7E4FB80
:1027E00008B1FEF7AAF82C64A5631B4C19486034A5
:1027F0004830C4E900084020A0600020E0604FF4A9
:102800008060206104F11401800081E8010E042041
:1028100060621431032081E8C1002046FEF7C4FB4A
:1028200008B1FEF78AF8EC63002200E007E001211E
:102830003120A563FEF752FF3120FEF741FF07B0BC
:10284000BDE8F08F002C01404438024000080240EF
:10285000000C024058640240A80100202DE9F04716
:1028600086B01F460446154639B194F83400012855
:1028700007D0022006B0BDE8F087A06B40F00060F2
:1028800008E00020A063E36DEA199A4204D9A06B26
:1028900040F00070A06369E0032284F834202268CD
:1028A0008146D0622268D36B40F22A363343D36329
:1028B000236C2F4ADA63236C2E4ADA64226C10658B
:1028C000226C9060206C0068026822F0C0020260F6
:1028D00020680A46266C4FEA472800F180014FEA3B
:1028E00098033046FEF7CAFBDFF88CA0012670B1D2
:1028F0002068C16B21F49571C1632168C1F838A0CB
:10290000A06B40F08040A06384F834602EE01B4848
:102910000660606C012800D06D024FF0FF30CDE9F9
:1029200000089020029002200596CDE9030969462F
:10293000206801F007F9012F06D98220206329467B
:10294000206801F0F3F905E0812020632946206822
:1029500001F005FA00288DD02268C2F838A0A16BDA
:102960000143A16384F83460C4F83090012081E70A
:10297000814200081D420008FF0540008C85254269
:1029800010B5FDF717FF10BD10B5FDF727FF10BDFF
:102990002DE9F04F5FEA010B87B01E460446114651
:1029A00007D094F83400012807D0022007B0BDE812
:1029B000F08FA06B40F0006008E00025A563E26D99
:1029C0008819904204D9A06B40F00070A06356E0D3
:1029D000032084F834002068C5622068C26B40F28E
:1029E0001A2942EA0902C263E26B2D48D063E26B06
:1029F0002C48D064E06B0565606C012800D049026A
:102A00004FF09008012E05D9A0202063206801F026
:102A100067FA04E0C4F83080206801F07AFADFF841
:102A200088A0012730B12268C2F838A0A16B014309
:102A3000A16321E01D480760E16B40208860E06BE6
:102A40000068016821F0C00141F040010160226886
:102A50007602B30859468032E06BFEF70FFB80B177
:102A60002068C16B21EA0901C1632168C1F838A05F
:102A7000A06B40F08040A06384F83470256301208F
:102A800094E74FF0FF30CDE90006CDE90285CDE9AE
:102A900004576946206801F055F8002086E70000D9
:102AA000074300081D420008FF0540008C852542B1
:102AB00010B5401EB0F1807F01D3012010BD4FF052
:102AC000E02460610F21601702F06AFC0020A06121
:102AD00007202061002010BD7047704770B590F846
:102AE0003C20012A32D0012480F83C40022280F8A8
:102AF0003D2003685A689D6822F070060A683243D8
:102B00005A60134B02689A4214D0B2F1804F11D030
:102B1000104B9A420ED0104B9A420BD00F4B9A4258
:102B200008D00F4B9A4205D00E4B9A4202D00E4B62
:102B30009A4204D1496825F080031943916080F8D6
:102B40003D40002180F83C10084670BD022070BD59
:102B5000000001400004004000080040000C00405C
:102B600000040140004001400018004010B504007E
:102B700003D094F83D0010B107E0012010BD002003
:102B800084F83C00204600F01FF8022084F83D0045
:102B9000211D206801F0D2FF012084F8460084F84E
:102BA0003E0084F83F0084F8400084F8410084F837
:102BB000420084F8430084F8440084F8450084F817
:102BC0003D00002010BD000008B500680B49884298
:102BD00012D10B48016841F0010101600068002238
:102BE00000F00100009011461920FEF777FDBDE8C6
:102BF00008401920FEF764BD08BD00000000014038
:102C00004438024090F83D10012901D0012070475E
:102C1000022180F83D100168CA6842F00102CA60D2
:102C200000681149884214D0B0F1804F11D00F498B
:102C300088420ED00E4988420BD00E49884208D0F7
:102C40000D49884205D00D49884202D00C4988427E
:102C500004D1816801F00701062903D0016841F021
:102C600001010160002070470000014000040040A5
:102C700000080040000C00400004014000400140FA
:102C80000018004070B5044690F83C00002501286B
:102C900017D0012684F83C60022084F83D002068AB
:102CA000826822F0770222F47F428260086850280E
:102CB00038D00DDC20284FD005DC90B3102811D17E
:102CC0004AE0022070BD302846D040280AD13BE0BF
:102CD00060282FD070280DD0B0F5805F03D0B0F5FC
:102CE000005F12D0012584F83D60002084F83C008C
:102CF000284670BDCB68D1E90121206801F086FF2C
:102D00002068816841F0770109E0CB68D1E90121B1
:102D1000206801F07BFF2068816841F48041816078
:102D2000E1E719E0CA684968206801F081FF502195
:102D3000206806E0CA684968206801F08AFF6021BF
:102D4000206801F06DFFCEE7CA684968206801F08D
:102D50006FFF40212068F4E7226801461046F0E743
:102D600070472DE9F04104460068C66805694FF0D8
:102D70000007A90713D5B10711D5F91E016101207C
:102D80002077206880698007204602D0FFF7E8FF9F
:102D900004E000F07EF8204600F07CF82777680712
:102DA00016D5700714D521686FF004000861022061
:102DB00020772068806910F4407F204602D0FFF71A
:102DC000CFFF04E000F065F8204600F063F82777B5
:102DD000280715D5300713D521686FF00800086162
:102DE000042020772068C0698007204602D0FFF7C2
:102DF000B7FF04E000F04DF8204600F04BF82777CD
:102E0000E80616D5F00614D521686FF010000861A9
:102E1000082020772068C06910F4407F204602D047
:102E2000FFF79EFF04E000F034F8204600F032F88F
:102E30002777E80708D0F00706D021686FF0010077
:102E40000861204600F028F8280608D5300606D587
:102E500021686FF0800008612046FFF73DFE68069C
:102E600008D5700606D521686FF04000086120463D
:102E700000F022F8A8060AD5B00608D521686FF040
:102E8000200008612046BDE8F041FFF726BEBDE8FE
:102E9000F08170477047000000680549884205D1FD
:102EA00004490888401C088002F0C6BC7047000036
:102EB0000000014014000020704770477047000078
:102EC000F8B5016804460868CA684B6910F00F0F2E
:102ED0004FF0000559D003F0010602F49077374314
:102EE00065D0C10705D0D10503D5616C41F0010162
:102EF0006164410705D5D90703D0616C41F0020137
:102F00006164810705D5D90703D0616C41F00401E4
:102F10006164010707D502F02001314303D0616CE1
:102F200041F008016164616C00293AD0800604D543
:102F3000900602D5204601F0D3FE20684069616CFE
:102F4000C0F38010090700D460B3204601F0A1FE51
:102F500020684069400621D52068143050E8001FE1
:102F600021F0400140E80012002AF5D1E06BA8B141
:102F700072490165E06BFDF732FF002811D0E06B6C
:102F8000016D01B0BDE8F040084783060FD59306F8
:102F90000DD52046BDE8F84001F0A2BE2046FFF75F
:102FA0008DFFF8BD2046FFF789FF6564F8BD266BED
:102FB0002023012E7ED1C6067CD5D6067AD5086898
:102FC0004868009048694FF0020640064DD5E26B14
:102FD000106840684FF480770004000C3AD0A18D4F
:102FE000814237D9E085D069B8422DD020680C30B5
:102FF00050E8001F21F4807140E80012002AF5D14A
:103000002068143050E8001F21F0010140E8001250
:10301000002AF5D12068143050E8001F21F040014B
:1030200040E80012002AF5D184F842302563206878
:103030000C3050E8001F21F0100140E80012002A77
:10304000F5D1E06BFDF782FE6663A08DE18D401A3D
:1030500081B206E0A18D8142A8D1D069B842A5D144
:1030600066632046FFF729FFF8BDA08DE18D401A69
:1030700081B2E08D0028F7D00029F5D020680C300F
:1030800050E8002F22F4907240E80027002FF5D17D
:103090002068143050E8002F22F0010240E8002799
:1030A000002FF5D184F84230256320680C3050E8B9
:1030B000002F00E006E022F0100240E80023002B81
:1030C000F3D1CDE705062BD5150629D594F8410097
:1030D0002128C9D1A068B0F5805F01D12069B0B1C5
:1030E000206A411C2162216800784860E08C401E03
:1030F0000004000CE084B7D12068C16821F0800191
:10310000C1602068C16841F04001C160F8BD206A1B
:103110000088C0F308004860206A801C2062E5E750
:103120004006F3D55006F1D5CA68204622F0400289
:10313000CA6084F8413000F01AF9F8BD854C0008E7
:1031400070B5040004D094F84100002510B106E0E9
:10315000012070BD84F84050204600F023F8242060
:1031600084F841002068C16821F40051C160204604
:1031700001F018FE2068016921F490410161206886
:10318000416921F02A0141612068C16841F4005180
:10319000C1606564202084F8410084F842006563C2
:1031A000002070BD10B586B0044614216846FDF7B6
:1031B000B3F917492068884227D1164800210268D0
:1031C00042F400220260006800F4002005901148DB
:1031D0001038026842F0010202600068022200F02A
:1031E000010005900320CDE90210CDE9000208207E
:1031F000049069460848FEF7FFF8002201213420B8
:10320000FEF76CFA3420FEF75BFA06B010BD000042
:10321000004C004040380240000002402DE9F84FC9
:10322000044690F842009A4616460D46202802D0E1
:103230000220BDE8F88FB5B1AEB100206064222154
:1032400084F842102063FEF7D9F9A6858146E68509
:10325000A0684FF480582027404501D1206920B153
:103260002E46002529E00120E3E7002625E04B4615
:10327000002220212046CDF800A001F019FE18B14F
:1032800084F842700320D4E726B1A06840451AD0E4
:1032900038B108E020684068C0F3080025F8020B48
:1032A00008E0206978B12068406800F07F0000BF26
:1032B00006F8010BE08D401EE085E08D0028D6D198
:1032C00084F84270B5E720684068F1E770472DE95F
:1032D000F843044690F84100984616460D462028CB
:1032E00002D00220BDE8F88385B17EB10020606481
:1032F000212084F84100FEF781F9A6848146E68406
:10330000A0682027B0F5805F02D003E00120E9E744
:10331000206910B12E4600250EE000260CE0802129
:10332000204601F0C5FDA8B9C6B116F8010B216809
:103330004860E08C401EE084E08C4B464FF0000279
:10334000CDF800800028EAD14FF04001204601F07E
:10335000AFFD40B184F841700320C3E735F8020B9C
:10336000C0F30800E3E784F841700020BAE7704733
:10337000FEE70000F0B500220D4B154614460A2763
:10338000B1FBF3F630368654B1FBF3F603FB1611AE
:10339000B3FBF7F3521C861816F8016C302E00D1DF
:1033A00025B16D1C641C0A2CEAD3F0BD0022F9E79C
:1033B00000CA9A3B0D4808B5016841F480010160DC
:1033C0000068002200F48000009002213B20FEF7FC
:1033D00085F93B20FEF774F9002202214520FEF713
:1033E0007DF9BDE808404520FEF76AB93038024053
:1033F00010B504490448FDF7A2FA0249491E0870B5
:1034000010BD0000F5000020F85A000870B586B025
:1034100014216846FDF780F821480024016841F036
:1034200004010160016801F004010591016841F0A7
:1034300080010160016801F080010591016841F09F
:1034400001010160016801F001010591016841F08D
:1034500002010160016801F002010591016841F07B
:103460000801016000680F4E00F00800059000227E
:1034700004213046FEF7BDF8042000900125CDE977
:103480000154694630460394FDF7B6FF08208DE8E5
:10349000310069460448FDF7AFFF06B070BD00007B
:1034A0003038024000040240000C024010B586B0E3
:1034B00014216846FDF730F81B480024194905948B
:1034C000C0E900147F218160FF21C0E90314446139
:1034D0008461FEF70DFD08B1FDF72FFA8DF800406D
:1034E0008DF801408DF802400394012269460E4890
:1034F0000494FEF7B3FD08B1FDF71FFA01208DF823
:1035000014008DF815008DF8160002468DF817404E
:1035100005A90548FEF756FD002801D0FDF70DFA74
:1035200006B010BD002800400401002006480549EF
:103530000160002141608160C16001614161816180
:1035400070470000002C01402401002010B586B017
:10355000002418480094019402940394049414499C
:10356000059401605321C0E9011440F2CF71C0E914
:1035700003148021C0E90541FFF7F8FA08B1FDF70F
:10358000DCF94FF48050009069460A48FFF77AFB57
:1035900008B1FDF7D2F9049404A906480594FFF791
:1035A0009DFA002801D0FDF7C8F906B010BD000053
:1035B00000000140680200200C4810B50A49016073
:1035C0004FF4E1314160002181600C22C160C0E90B
:1035D00004128161C161FFF7B3FD002803D0BDE88B
:1035E0001040FDF7AAB910BD004C0040B002002009
:1035F00008B500208DF800003D4801F0D1F93D48A4
:1036000001F0CEF93C4801F0CBF93C4801F0C8F993
:10361000394801F0C5F93A4801F0C2F9344801F0DF
:10362000BFF938A001F0BCF9384D4FF0FF36384CE7
:10363000FDF714FA206037A001F0B2F945A001F0BF
:10364000AFF954A001F0ACF962A001F0A9F920682B
:1036500008B170A000E07FA001F0A2F98DA001F0F8
:103660009FF9286840683346012269462748FFF7DA
:10367000D5FD9DF80000312807D0322808D0332826
:1036800009D034280FD093A014E001F059F8CFE707
:1036900001F00CF9CCE79FA001F082F9A649086877
:1036A00049688847C4E7206890B10020FDF718FA00
:1036B00018B1A2A001F074F9BAE7ACA001F070F95A
:1036C000B2A001F06DF9FDF723FEFDF77FFEAFE735
:1036D0000120FDF705FA08B1B4A0EBE7BEA001F0A8
:1036E0005FF9AAA001F05CF9FDF712FEA0E7000067
:1036F000905C0008F85B0008605B0008445C000810
:10370000AC5B00080D0A0D0A00000000F802002062
:103710000C0000200D0A3D3D3D3D3D3D3D3D3D3D04
:103720003D3D3D3D3D3D3D3D3D204D61696E204D62
:10373000656E75203D3D3D3D3D3D3D3D3D3D3D3D45
:103740003D3D3D3D3D3D3D3D3D3D3D3D3D3D3D3DA9
:103750000D0A0A002020446F776E6C6F6164206947
:103760006D61676520746F2074686520696E74658B
:10377000726E616C20466C617368202D2D2D2D2D8D
:103780002D2D2D2D2D2D2D2D2D2D2D2D20310D0AB5
:103790000A000000202055706C6F616420696D6123
:1037A00067652066726F6D2074686520696E746548
:1037B000726E616C20466C617368202D2D2D2D2D4D
:1037C0002D2D2D2D2D2D2D2D2D2D2D2D20320D0A74
:1037D0000A000000202045786563757465207468D0
:1037E00065206C6F61646564206170706C696361F1
:1037F00074696F6E202D2D2D2D2D2D2D2D2D2D2D00
:103800002D2D2D2D2D2D2D2D2D2D2D2D20330D0A32
:103810000A000000202044697361626C65207468AE
:10382000652077726974652070726F74656374695E
:103830006F6E202D2D2D2D2D2D2D2D2D2D2D2D2D42
:103840002D2D2D2D2D2D2D2D2D2D2D2D20340D0AF1
:103850000A0000002020456E61626C652074686576
:103860002077726974652070726F74656374696F14
:103870006E202D2D2D2D2D2D2D2D2D2D2D2D2D2D44
:103880002D2D2D2D2D2D2D2D2D2D2D2D20340D0AB1
:103890000A0000003D3D3D3D3D3D3D3D3D3D3D3D42
:1038A0003D3D3D3D3D3D3D3D3D3D3D3D3D3D3D3D48
:1038B0003D3D3D3D3D3D3D3D3D3D3D3D3D3D3D3D38
:1038C0003D3D3D3D3D3D3D3D3D3D3D3D3D3D0D0A8B
:1038D0000A000000496E76616C6964204E756D6265
:1038E00065722021203D3D3E20546865206E756D37
:1038F0006265722073686F756C642062652065690B
:103900007468657220312C20322C2033206F722095
:10391000340D000053746172742070726F677261AD
:103920006D20657865637574696F6E2E2E2E2E2E50
:103930002E0D0A0A00000000440000204572726F3C
:10394000723A20466C6173682077726974652075DD
:103950006E2D70726F74656374696F6E2066616935
:103960006C65642E2E2E0D0A0000000057726974DB
:10397000652050726F74656374696F6E206469733B
:1039800061626C65642E2E2E0D0A000053797374EB
:10399000656D2077696C6C206E6F7720726573742B
:1039A0006172742E2E2E0D0A000000004572726F97
:1039B000723A20466C617368207772697465207072
:1039C000726F74656374696F6E206661696C65649B
:1039D0002E2E2E0D0A000000577269746520507259
:1039E0006F74656374696F6E20656E61626C656487
:1039F0002E2E2E0D0A000000FEE7FEE77047002184
:103A000002E00A38C0B2491C0A28FAD2090740EA83
:103A1000116070472DE9F041044600680025C16837
:103A2000490618D4C16841F08001C160FDF7E6FD88
:103A300006464FF47A78042707E000BFFDF7DEFD65
:103A4000801B404501D9677701252068C068400682
:103A500001D4002DF2D02846BDE8F08170B50446AF
:103A600000680025C16821F08001C160206880687D
:103A7000800606D42046FEF751FB10B10420607783
:103A80000125284670BD00002DE9F84300240F46AB
:103A90000646904613460C60012269462848FFF707
:103AA000BDFB050020D19DF80000182820D006DCC1
:103AB00001280BD002280BD0042804D104E04128AF
:103AC00027D0612825D0012530700DE0802401E049
:103AD0004FF480643070221D4346B11C1848FFF734
:103AE0009DFB050017D0002428463C60BDE8F88304
:103AF0004346012269461248FFF790FB18B99DF82A
:103B00000000182803D001259DF80000DCE70224FE
:103B1000DAE70225D8E7F178B07881F0FF01884232
:103B20000AD130190179407900EB01282146301D76
:103B3000FCF75CFE4045D7D000240125D4E7000007
:103B4000F80200200A6842624A688262D1E90223D0
:103B50001A43D1E904310B43C16A1A4321F0F7013A
:103B60001143C16200207047006800F003007047F5
:103B700008444069704700000148FEF771BC00002E
:103B80002401002070B50DF1100C11439CE8700069
:103B90002343194329434268314347F6FF639A435D
:103BA0000A434260002070BD03210160002070477D
:103BB000D0F8800070470A688260D1E901231A4377
:103BC000D1E903310B43C1681A436FF30B01114371
:103BD000C160002070470968C0F88010002070475D
:103BE00010B585B004463720CDE900104020029082
:103BF000002003904FF48060049069462046FFF750
:103C0000DAFF41F288323721204600F09BF905B0F7
:103C100010BD000010B504460A4885B001432920B4
:103C2000CDE9001040200290002003904FF4806006
:103C3000049069462046FFF7BEFF204600F03AFA9E
:103C400005B010BD0000108010B585B004461020EE
:103C5000CDE9001040200290002003904FF48060D6
:103C6000049069462046FFF7A6FF41F288321021F2
:103C7000204600F067F905B010BD10B585B00446C8
:103C80000620CDE9001040200290002003904FF460
:103C90008060049069462046FFF78DFF41F288322C
:103CA0000621204600F04EF905B010BD30B585B0B4
:103CB00000240546009401944FF480600294CDE9FD
:103CC000034069462846FFF776FF0B484FF4FA5148
:103CD0000068B0FBF1F041F288314843401E03D246
:103CE0004FF0004005B030BD696B0906F6D5C52020
:103CF000A8632046F6E700000800002010B585B054
:103D000004464FF4D57000900820019040200290A6
:103D1000002003904FF48060049069462046FFF72E
:103D20004AFF204600F02CFA05B010BD10B585B052
:103D300004461220CDE9001040200290002003909C
:103D40004FF48060049069462046FFF734FF41F24B
:103D500088321221204600F0F5F805B010BD10B5EC
:103D600085B004461120CDE90010402002900020CB
:103D700003904FF48060049069462046FFF71BFFD4
:103D800041F288321121204600F0DCF805B010BD68
:103D900010B585B004460720CDE9002040200290F0
:103DA000002003904FF48060049069462046FFF79E
:103DB00002FF41F288320721204600F0C3F805B027
:103DC00010BD10B585B0044600210220CDE90010D9
:103DD000C020CDE902014FF480600490694620467E
:103DE000FFF7E9FE204600F03DF905B010BD10B523
:103DF00085B004460920CDE90010C02002900020C3
:103E000003904FF48060049069462046FFF7D3FE8C
:103E1000204600F027F905B010BD10B585B0044666
:103E200000213320CDE900104020CDE9020100013E
:103E3000049069462046FFF7BEFE41F288323321E6
:103E4000204600F07FF805B010BD10B585B00446DF
:103E50000D20CDE9001040200290002003904FF487
:103E60008060049069462046FFF7A5FE41F2883243
:103E70000D21204600F066F805B010BD30B585B0C4
:103E80000C46054600210320CDE900104020CDE975
:103E900002010001049069462846FFF78CFE224685
:103EA0000321284600F028F905B030BD10B585B0D3
:103EB000044600210C20CDE900104020CDE902018C
:103EC0000001049069462046FFF775FE034A0C2165
:103ED000204600F037F805B010BD000000E1F50500
:103EE00010B585B004461920CDE90010402002909D
:103EF000002003904FF48060049069462046FFF74D
:103F00005AFE41F288321921204600F01BF805B014
:103F100010BD10B585B004461820CDE90010402032
:103F20000290002003904FF4806004906946204680
:103F3000FFF741FE41F288321821204600F002F8D6
:103F400005B010BD454B10B51B684FF4FA54B3FBD8
:103F5000F4F353435B1E02D24FF0004010BD426B9E
:103F600012F0450FF6D01205F4D4426B520703D578
:103F700004218163084610BD426BD20702D00121A3
:103F8000816305E0C52282630269D2B28A4201D010
:103F9000012010BD0021FFF7EBFD3149084201D19E
:103FA000002010BD002802DA4FF0007010BD410063
:103FB00001D5402010BD810001D5802010BDC10079
:103FC00002D54FF4807010BD010102D54FF400708E
:103FD00010BD410102D54FF4806010BDC10102D572
:103FE0004FF4006010BD010202D54FF4805010BDA7
:103FF000410202D54FF4005010BD810202D54FF4AA
:10400000804010BDC10202D54FF4004010BD4103F5
:1040100002D54FF4003010BD810302D54FF480204B
:1040200010BDC10302D54FF4002010BD010402D51C
:104030004FF4801010BD410402D54FF4001010BDA4
:10404000810402D54FF4800010BD000702D54FF463
:10405000000010BD4FF4803010BD000008000020AB
:1040600008E0FFFD12494FF4FA520968B1FBF2F182
:1040700041F288325143491E02D24FF0004070474E
:10408000426B12F0450FF6D01205F4D4416B49078C
:1040900003D50421816308467047416BC90703D0EB
:1040A0000121816308467047C52181630020704764
:1040B000080000200F494FF4FA520968B1FBF2F1F1
:1040C00041F288325143491E02D24FF000407047FE
:1040D000426B12F0450FF6D01205F4D4416B49073C
:1040E00003D50421816308467047C5218163002000
:1040F000704700000800002030B5204B4FF4FA5400
:104100001B68B3FBF4F341F2883463435B1E02D2B5
:104110004FF0004030BD446B14F0450FF6D024053D
:10412000F4D4436B5B0703D504218163084630BD9B
:10413000436BDB0702D00121816303E00369DBB23B
:104140008B4201D0012030BDC52181630021FFF7E2
:104150000FFD10F4604F04D0410406D54FF4005019
:1041600030BD000C1080002030BD000402D54FF49B
:10417000805030BD4FF4803030BD0000080000207A
:1041800014494FF4FA520968B1FBF2F141F2883256
:104190005143491E02D24FF000407047426B12F06B
:1041A000450FF6D01205F4D4416B490703D504211D
:1041B000816308467047416BC90703D001218163C1
:1041C00008467047416B490601D5402181630020B4
:1041D000704700000800002010B5064C0120207038
:1041E000FCF7A8FA18B9207820F001002070207898
:1041F00010BD0000E800002070B50546FDF7FEF98F
:10420000044603E0FCF796FA002806D0FDF7F6F91D
:10421000001BA842F6D34FF0FF3070BD10B5846B81
:10422000FCF7EFFD022828D0206C416DE06B406D5B
:10423000012901D001281DD1216810488863206818
:10424000C16B21F49D71C163A06B40F08040A063FD
:104250002046FEF7EFF8062801D0052805D1206892
:10426000FFF724FEA16B0843A063012084F834000B
:10427000002020632046FDF7FDFF10BDFF05400034
:1042800010B5846B206B822809D12068FFF70EFEE1
:1042900028B1A16B0143A1632046FDF7EBFF206825
:1042A000C16A21F00801C162216840F23A50886376
:1042B000012084F83400002020632046FEF760FBD4
:1042C00010BD10B5846B40F23A50216888632046D7
:1042D000FEF7B0F8012184F834100021216306288C
:1042E00001D0052805D12068FFF7E0FDA16B084348
:1042F000A063A06B0028204602D0FDF7BBFF10BDD5
:10430000FDF728FF10BD806B0068C16B41F4807120
:10431000C163704710B5846B40F23A5021688863DE
:104320002046FEF787F8012184F83410002121632C
:10433000062801D0052805D12068FFF7B7FDA16B3D
:104340000843A063A06B0028204602D0FDF792FF2F
:1043500010BDFDF7FFFE10BD2DE9F04788B00D46FA
:104360000446FDF74BF90026824600960196374633
:1043700008212068FFF768FC00282CD1B4F8500011
:1043800001042068FFF72CFC002824D1401E4FF0C8
:104390000808CDE9020830204FF00209CDE90409F0
:1043A0000120CDE9067002A92068FFF7CBFB206849
:1043B000FFF733FD00280ED16F462068416B11F0E6
:1043C0002A0F0BD0416B090702D4416B89051AD51E
:1043D000C0F83880082008B0BDE8F087416B89023A
:1043E00005D5FFF7E5FB47F82600761C02E0416B98
:1043F0008904E7D5FDF702F9A0EB0A00401CDCD1E7
:104400004FF00040E7E7416B890703D5C0F83890CB
:104410000220E0E7416B890603D52021816308462D
:10442000D9E740F23A518163019800BA28600098B8
:1044300000BA68600020CEE710B590B004460120B5
:10444000ADF838002068FFF78FFB002854D0606C6F
:10445000032842D02068FFF7B4FC00284AD100218D
:104460002068FFF785FB606704212068FFF780FB69
:10447000A06708212068FFF77BFBE0670C2120681C
:10448000FFF776FBC4F88000606C032825D00EA9E6
:104490002068FFF7F3FC00282CD1606C03281CD0A7
:1044A000BDF83800206501042068FFF7A0FC002853
:1044B00020D100212068FFF75BFB606604212068A3
:1044C000FFF756FBA06608212068FFF751FBE06666
:1044D0000C212068FFF74CFB206704212068FFF7C0
:1044E00047FB000DE06403A92046FDF7C5FE30B18F
:1044F0004FF0805010B010BD4FF08060FAE7B4F874
:104500005000002302042068FFF742FC0028F1D18C
:1045100004F1100007C88DE8070094E80F00FFF7CA
:1045200031FB0020E6E700002DE9F84F00260446A5
:1045300000963546B0460068FFF7B8FB002827D143
:104540002068FFF7DBFB4FF0805B4FF001094FF66F
:10455000FF7748B1A6642068FFF7A8FB002817D1B1
:10456000A06C012802D020E0C4F848900021206807
:10457000FFF736FB58B918E000212068FFF730FB41
:10458000002805D151462068FFF744FB10B158467A
:10459000BDE8F88F00212068FFF7EAFA05464FEAE8
:1045A000D0780098401C009002E0DFF82CA0009822
:1045B000B84202D2B8F1000FDED00098B84202D360
:1045C0004FF08070E4E7680002D5C4F8449000E042
:1045D00066640020DCE70000000010C170B50546ED
:1045E000FCF7B4F8034C18B92846FFF7F5FD207026
:1045F000207870BDE800002010B5124888B014463D
:104600000078C00702D0032008B010BDC1B1012955
:1046100005D0022908D003290CD00420F4E768460D
:10462000FCF782F806980AE06846FCF77DF80798E0
:10463000208005E06846FCF777F80798400A20607C
:104640000020E1E7E80000202DE9F04147F2305575
:104650001C461746884601262846FFF7CDFD002850
:1046600026DB224639464046FCF796F800BB134C41
:104670004FF00008C4F80880FCF7C0FF0746A068A8
:1046800020B9FCF7BBFFC01BA842F8D3A06828B133
:10469000C4F80880FCF7B2FF044604E0012607E0F6
:1046A000FCF748F838B1FCF7A9FF001BA842F7D384
:1046B0003046BDE8F0810026FAE70000E80000205F
:1046C000FFF78ABD2DE9F0471B4C4FF000081F464D
:1046D00091468A460126C4F8048047F230552846A0
:1046E000FFF78AFD002821DB3A4649465046FCF791
:1046F00067F8D8B9FCF782FF0746606820B9FCF775
:104700007DFFC01BA842F8D3606828B1C4F80480BC
:10471000FCF774FF044604E0012607E0FCF70AF802
:1047200038B1FCF76BFF001BA842F7D33046BDE859
:10473000F0870026FAE70000E8000020704700003C
:104740001FB50020009001900290039015A000F08A
:1047500027F903A800F0F6FB38B105281AD0042881
:104760001CD002281CD01EA015E0254800F018F926
:10477000244800F015F968460399FEF7FBFD22A0D6
:1047800000F00EF9684600F00BF922A000F008F9DD
:1047900023A000E028A000F003F91FBD36A0FAE72F
:1047A0003CA0F8E757616974696E6720666F7220F4
:1047B0007468652066696C6520746F20626520737B
:1047C000656E74202E2E2E2028707265737320273C
:1047D000612720746F2061626F7274290A0D0000D6
:1047E0000A0D4661696C656420746F2072656365AB
:1047F000697665207468652066696C65210A0D001C
:104800000C5B0008400300200A0D2053697A653ACA
:10481000200000002042797465730D0A000000003A
:104820002D2D2D2D2D2D2D2D2D2D2D2D2D2D2D2DB8
:104830002D2D2D0A000000000A0A0D54686520691C
:104840006D6167652073697A65206973206869679F
:10485000686572207468616E2074686520616C6C94
:104860006F776564207370616365206D656D6F722D
:1048700079210A0D000000000A0A0D56657269666A
:1048800069636174696F6E206661696C6564210A91
:104890000D0000000D0A0A41626F727465642062A7
:1048A0007920757365722E0A0D00000008B500208E
:1048B0008DF800000EA000F073F84FF0FF330122D6
:1048C00069461248FEF7AAFC9DF8000043280DD166
:1048D0004FF478220EA1144800F0FEFB8DF8000082
:1048E00008B112A000E01CA000F05AF808BD0000BA
:1048F0000A0A0D53656C65637420526563656976B9
:10490000652046696C650A0D00000000F802002071
:1049100055706C6F61646564466C617368496D6164
:1049200067652E62696E0000008000080A0D4572FE
:10493000726F72204F636375727265642077686965
:104940006C65205472616E736D697474696E672052
:1049500046696C650A0D00000A0D46696C65207594
:10496000706C6F61646564207375636365737366EF
:10497000756C6C79200A0D0001B50848D0F89800D4
:1049800090F84110A02902D1202180F84110642321
:1049900001226946FEF79BFC08BD00004400002090
:1049A00030B4002201E0521C92B2815C0029FAD19D
:1049B00004496423D1F898400146204630BCFEF7F4
:1049C00086BC000044000020F0B5054600242A788B
:1049D00020462346302A2ED16A78782A01D0582AD8
:1049E00029D102241CE000BFA2F14106052E07D9FF
:1049F000A2F16107052F03D91136092E04D913E05E
:104A0000A2F13007092F01D8303A04E0052E01D871
:104A1000373A00E0573A641C02EB03130B2C04D224
:104A20002A5D002AE0D103E000202A5D002A01D19E
:104A300001200B60F0BD2A5D62B16B2A01D04B2AC8
:104A400002D10CB19B0205E06D2A01D04D2A04D1A0
:104A50001CB11B0501200B600AE0A2F13006092EF3
:104A60000CD803EB83036FF02F0606EB43031344CC
:104A7000641C0B2CDED20128DDD1F0BD0020F0BD7E
:104A8000FCF7C2BD30B593B030216846FBF744FD5A
:104A900014210CA8FBF740FD1F480025016841F0D8
:104AA00080510160006800F0805011901B4801683F
:104AB00041F4804101600068022400F480401190BC
:104AC000052000904FF48030019001200290800575
:104AD000CDE9064004200890A820CDE9090407206C
:104AE0000B906846FDF74EF808B172B6FEE70CA9C8
:104AF0000F2081E831004FF4A0500F904FF4805008
:104B0000109005210CA8FCF7B9FE002801D072B660
:104B1000FEE713B030BD0000403802400070004096
:104B20000248016841F470010160704788ED00E0BF
:104B30000148FEF716B9000068020020F0B50268CF
:104B4000274B284D284E294F294C4FF0804C984236
:104B500009D0604507D0A84205D0B04203D0B84282
:104B600001D0A04204D122F0700E4A6842EA0E023F
:104B700098421BD0604519D0A84217D0B04215D03A
:104B8000B84213D0A04211D01A4DA8420ED01A4DEF
:104B9000A8420BD0194DA84208D0194DA84205D003
:104BA000184DA84202D0184DA84203D122F44075F6
:104BB000CA682A434D6922F080022A438D68C56283
:104BC0000D688562984201D0A04201D10969016354
:104BD000016841F004010160012141610260F0BD02
:104BE000000001400004004000080040000C0040AC
:104BF00000040140004001400044014000480140E1
:104C000000180040001C00400020004010B58468DF
:104C100042EA032224F47F440A432243826010BD07
:104C2000826822F070020A4342F0070181607047F7
:104C300010B5036A046A24F001040462846924F054
:104C4000F00444EA021423F00A020A438461026277
:104C500010BD10B5036A046A24F01004046284696C
:104C600023F0A00324F4704444EA023243EA011121
:104C70008261016210BD00000148FEF721B9000009
:104C8000B002002010B5806B0021C185FEF716F937
:104C900010BD01680C3151E8002F22F4907241E8F8
:104CA0000023002BF5D10168143151E8002F22F0C8
:104CB000010241E80023002BF5D1016B012909D144
:104CC00001680C3151E8002F22F0100241E8002366
:104CD000002BF5D1202180F842100021016370479C
:104CE00008B590F84210222901D0022008BD826840
:104CF0004FF480539A4201D1016921B1816A9A42ED
:104D00001BD04AB10AE00268816A5268C2F3080205
:104D10000A80816A891C08E0026972B102685268DF
:104D200002F07F020A70816A491C8162C18D491EAE
:104D30000904090CC18503D01BE002685268F1E741
:104D40000168CA6822F02002CA600168CA6822F4B9
:104D50008072CA6001684A6922F001024A6120211A
:104D600080F8421000214163026B012A03D0FEF754
:104D7000ADFA002008BD016301680C3151E8002F35
:104D800022F0100241E80023002BF5D101680A68E7
:104D9000D20602D50A6849680091818DFEF78DF828
:104DA000E7E7000070B5044600680169E26821F495
:104DB0004051114301612169A068E26908436169BA
:104DC000114308432168CA6849F20C639A430243BD
:104DD000CA6020684169A26921F4407111434161B0
:104DE00031492068884202D03049884202D1FCF71C
:104DF00089FE01E0FCF776FEE269002319216425B3
:104E00003226B2F5004F626828D0A0FB0101930F53
:104E10009200FBF731FA0146B0FBF5F06FF0180293
:104E2000504301EB800006EB0010B0FBF5F000F002
:104E3000F002B1FBF5F002EB0012B1FBF5F06FF000
:104E40001803584301EB800006EB0010B0FBF5F0AF
:104E500000F00F0021681044886070BDA0FB0101C4
:104E600092185B41FBF708FA0146B0FBF5F002012E
:104E7000B1FBF5F06FF01803584301EB800006EB2F
:104E8000C000B0FBF5F000F0F80002EB4002B1FB0F
:104E9000F5F0584301EB800006EBC000B0FBF5F0E5
:104EA00000F00700D6E700000010014000140140A8
:104EB0002DE9F843984617460D460446089E24E01F
:104EC000701C22D0FCF79AFBA0EB0800B0421AD865
:104ED000CEB12068C168490717D5802D15D0402D67
:104EE00013D00168C94309070FD401680025406841
:104EF00000902046FFF7CDFE0820606484F8405003
:104F00000120BDE8F8830320FBE72068006835EA4C
:104F1000000004D00020B842D2D00020F1E70120E8
:104F2000F9E741F4807141F2210240004900CB05CC
:104F300000D5401CC30300D55040CB03F5D580B24B
:104F40007047FEE72DE9F14F0027DFF87CA188B01C
:104F5000DFF870B13E46B9463C46CAF800B0A9E059
:104F60004FF000084546A1E041F2883204A95748B5
:104F7000FEF78AFD60B102286CD0B9F1000F00D0B5
:104F8000761C052E67D91820FFF7F6FC18208BE059
:104F90000498002670B1022807D04C4908F0FF029F
:104FA0008B7893420BD015207EE00620FFF7E4FCBF
:104FB00002247BE00620FFF7DFFC012576E0B8F154
:104FC000000F12D08208DAF80000091DFBF764FD1B
:104FD000F0B31820FFF7D0FC1820FFF7CDFC042415
:104FE00008F101084FF0010960E0087988B300205A
:104FF000374B091D02E01A54401C491C0A780AB1BB
:105000004028F8D34FF0000C03F800C060466B4610
:1050100001E01A54401C11F8012F202A01D0102859
:10502000F7D303F800C005A91846FFF7CDFC059893
:105030006FF47821C84216D918208DF818004FF463
:1050400080142346012206A92248FEF740F903E016
:105050001AE013E022E026E02346012206A91D48BB
:10506000FEF735F905245846FBF7DEFC089805994C
:1050700001600620FFF780FC43200CE00620FFF7CC
:105080007BFC01252F4611E0DAF80010049A114448
:10509000CAF800100620FFF76FFCA1E71820FFF701
:1050A0006BFC182082E74320FFF766FC55EA0400FA
:1050B0003FF45AAF57EA04003FF452AF09B020461C
:1050C000BDE8F08F00800008100000208003002061
:1050D00040030020F80200202DE9F74F86B04FF082
:1050E000000A0120AC4E019001220898727086F8E7
:1050F00002A0FF23D04655465746F370544604E0BD
:1051000006EB040C641C8CF804300B5D0BB1402CD6
:10511000F6D3321900211171014602A8FEF72AF9CF
:1051200002A8641D02E03155641C7F1CC15D00298A
:10513000F9D14FF48019DFF860B202E00020305559
:10514000641C842CFAD31FE05C464E464B468322F7
:10515000611C9248FEF7BBF88021201DFBF746FB3F
:105160000446000AFFF708FCE0B2FFF705FC3346EF
:10517000012269468948FEF751F860B10AF1010A37
:10518000BAF1050F00D3012558EA0500DCD00698D6
:105190000290089C7CE09DF80000062815D0182895
:1051A000EED13346012269467C48FEF737F80028E5
:1051B000E6D19DF800001828E2D10220FBF7BAFFE3
:1051C0007648006840680225DAE74FF00108D7E723
:1051D000DDE90103704AC6B24FF480672046BC4245
:1051E00001D3394600E08021884200D30846B1F55A
:1051F000806F07D0012757709670F643D67004264B
:10520000071D06E00227F6E713F801CB02F806C0F7
:10521000761CBE42F8D3884207D81A23001D091D08
:1052200001E01354401C8842FBD34FF0000A8DF874
:1052300000A0574629E000BF4FF48066B44200D278
:105240008026F21C4B46D8460BF101015348FEF76D
:105250003EF8314608F10400FBF7C8FA8046000A20
:10526000FFF78AFB08F0FF00FFF786FB4B460122A1
:1052700069464A48FDF7D2FF18B99DF80000062894
:1052800011D07F1C052F00D301255AEA0500D3D089
:105290000CB1002D9CD0002426468DF800402746F6
:1052A000DFF8F88020E002984FF0010A3044B44261
:1052B000029009D90198A41BB0F5787F02D0401C58
:1052C0000190DFE70525DDE70024DBE70420FFF799
:1052D00053FB4B46012269463048FDF79FFF40B122
:1052E0007F1C052F00D3012554EA0500EED0E5B15F
:1052F0004EE09DF80000062815D01828F1D14B4645
:10530000012269462548FDF789FF0028E9D19DF86B
:1053100000001828E5D10220FBF70CFFD8F80000A8
:1053200040680225DDE70124DBE701208BF801005E
:105330008BF80260FF208BF803005C4604202654A3
:10534000401CC0B28428FAD34E464B468322611CCF
:105350001248FDF7BCFF8021201DFBF747FA0446E9
:10536000000AFFF709FBE0B2FFF706FB3346012214
:1053700069460A48FDF752FF50B99DF80000182809
:1053800006D10220FBF7D6FED8F8000040680225BF
:1053900009B02846BDE8F08F80030020F802002005
:1053A0000907090E002804DB00F1E02080F8001452
:1053B000704700F00F0000F1E02080F8141D7047E6
:1053C0007047000010B504460020E070401E2063C6
:1053D000204600F02BFB08B1042010BD04F232205F
:1053E00000F025FAA0F52A41553901D0032010BD5F
:1053F00094F83400E92805D0EB2814D194F836004D
:10540000902810D104F16A0000F006FA0749B1EBC8
:10541000002F06D004F1860000F0FEF9044988420E
:1054200001D1002010BD022010BD000000464154F3
:105430004641543330B50021054B0C4603EB0112B5
:105440001568854200D11460491C0229F6D330BD8D
:10545000BC09002070B5094C05460020615D00299B
:105460000AD104EB850160194968007A0968884708
:10547000002801D10121615570BD0000DC09002028
:1054800030B4054D2C1805EB8000247A40688568FF
:105490002046AC4630BC6047DC090020044A1118A5
:1054A00002EB8000097A4068426808461047000015
:1054B000DC09002030B4054D2C1805EB8000247A5F
:1054C0004068C5682046AC4630BC6047DC09002017
:1054D0002DE9F74181B0904602980090684600F0AF
:1054E00059F9040003D50B2004B0BDE8F0810D4E3E
:1054F000002756F824501DB12846FFF79BFF2F7058
:105500000198002800D0077046F8240002D0B8F1B6
:10551000010F01D00020E7E7002201A902A800F056
:1055200003F8E1E7000100202DE9FF410027904644
:105530000E460F6000F02EF9050003D50B2004B0D5
:10554000BDE8F0818A4850F825409CB1346020784D
:1055500008F0FE0620B16078FFF7A0FFC1070BD06E
:105560002770E8B2B8466070FFF774FFC10708D033
:105570000320E4E70C20E2E70EB1400704D400204A
:10558000DDE71EB1400701D50A20D8E700263146E5
:105590002046FFF717FF022822D100254FEA0D070A
:1055A00004EB051090F8F61100F5F97019B1083008
:1055B00000F032F900E0002047F825006D1C042DB2
:1055C000EED3002557F8256036B131462046FFF767
:1055D000F9FE022801D203E003206D1C042DF1D353
:1055E000042809D002286DD204F13F0000F01FF911
:1055F000B0F5007F66D101E00120A0E704F14A0088
:1056000000F015F918B904F1580000F005F9E0614F
:1056100094F84450A570012D01D0022D52D145437C
:1056200094F841006081E8B3411E08424AD104F178
:10563000450000F0FCF82081000743D104F1470049
:1056400000F0F5F8070004D104F1540000F0E4F88C
:10565000074604F1420000F0EAF8010032D0238945
:10566000481900EB131297422CD3B81A6789B0FB84
:10567000F7F0B8B103274FF6F57C604500D8022754
:1056800040F6F57C604500D80127801C3244E26278
:105690003144A061C4E90861032F15D013B1294436
:1056A000A16200E00EE0022F1FD000F0010100EB2C
:1056B000400001EB500000BFE16900F2FF10B1EBC8
:1056C000502F14D20D203AE704F15E0000F0AFF83D
:1056D0000028F7D120890028F4D104F1600000F0FF
:1056E0009BF8A062A0698000E6E74000E4E74FF085
:1056F000FF306061206180202071032F2CD104F1E4
:10570000640000F094F8012826D1711C204600F0B6
:105710008DF908BB84F8048004F2322000F087F889
:10572000A0F52A41553917D104F1340000F074F87E
:105730001049884210D104F5067000F06DF80E494A
:10574000884209D104F5077000F066F8606104F53D
:10575000087000F061F8206105492770091F08886A
:10576000401C0880E0802046FFF764FE07E7000049
:1057700000010020525261417272416104490A687D
:105780005206FCD5024AC1B2121D116070470000DA
:10579000004C004010B504464FF0FF302268002A4C
:1057A00013D0114600E0491C0B78202B0ED33A2B66
:1057B000F9D112F8013B303B0A2B06D28A4204D1C0
:1057C000002B02D1491C1846216010BD002010BDDD
:1057D000104910B50860BFF34F8FBFF36F8F01689A
:1057E00081F30888446872B60020421E810001F1EE
:1057F000E021C1F88021C1F88022401C0828F5DB97
:10580000FCF7D6F8FBF772FC62B6A446BDE8104080
:105810006047000008ED00E0C178827842EA01218B
:105820004278007842EA012140EA0120704741783D
:10583000007840EA012070470C484FF4FA61008874
:10584000B0FBF1F201FB12010948B1F57A7F0BD2EE
:105850004FF4FA72B1FBF2F302FB1311FA2903D2EF
:1058600001220421FBF7C5BE0022FAE71400002044
:1058700000040240FBF7D0FEFFF704F9FDF7C6FD78
:10588000FDF798FDFDF798FEFDF760FEFDF7B0FD12
:10589000FDF70CFEFDF74AFE2848FAF7BBFF284843
:1058A000FDF7B0F9FAF76AFF012826D025A128A054
:1058B000FAF75AFD08212F48FBF796FE00281ED064
:1058C0002DA12FA0FAF750FD012236A13648FFF78F
:1058D000FFFD010002D035A0FAF746FD6426FBF774
:1058E0008DFE05463748FCF7A5FD0446FBF786FE0E
:1058F000401BB04205D934A00DE013A1D7E739A170
:10590000DFE70120FBF716FC072CEBD0062CE9D0D3
:10591000042C02D134A0FAF727FD40F2DC513A48BA
:1059200000F0C6F840B1384800784D2804D137A0BF
:10593000FAF71AFDFDF75CFEFEE70000DC00002030
:10594000680200204E4F542050524553454E54009B
:105950005344204361726420446574656374696FC5
:105960006E2050696E2053746174653A2025730D62
:105970000A000000000C02404849474800000000AF
:1059800053445F434152445F4445545F50696E2025
:105990004750494F204C6576656C3A2025730D0AB7
:1059A00000000000303A000088070020665F6D6F3D
:1059B000756E74206661696C65643A2025640D0A11
:1059C000000000002401002054462063617264201E
:1059D000646574656374696F6E2074696D656F7555
:1059E000740D0A004C4F57005446206361726420C6
:1059F000646574656374656420616E6420726561BA
:105A000064790D0A0D0A0000000000200D0A456EA1
:105A100074657220426F6F746C6F61646572204DA3
:105A2000656E752E2E2E0D0A0000000070B504461E
:105A3000006B0D460026A8420FD0204600F00FF85C
:105A400006000AD1607801232A4604F13401FFF7E9
:105A500017FD08B1751E01262563304670BD2DE97E
:105A6000F0410446C0780027F8B1256B04F13401F9
:105A7000607801232A468846FFF71CFD08B10127FC
:105A800013E00020E070606AE169281A88420CD2B5
:105A9000A67808E0E0690123054460782A4641467B
:105AA000FFF708FD761E022EF4D23846BDE8F081DD
:105AB0000B4610B5014601220348FDF7AFFB08B1C4
:105AC000002010BD012010BDB00200204FF040703A
:105AD000E1EE100A70470000000000000000010223
