:020000040800F2
:1000000078810120450300088BA1000809460008FB
:1000100089A10008ED2D00080DDD0008000000009A
:1000200000000000000000000000000049CE0008B1
:10003000512E000800000000BBB0000895CE00085B
:100040005F0300085F0300085F0300085F03000808
:100050005F0300085F0300085F0300085F030008F8
:100060005F0300085F0300085F0300085F030008E8
:100070005F0300085F0300085F0300085F030008D8
:100080005F0300085F0300085F0300085F030008C8
:100090005F0300085F0300085F0300085F030008B8
:1000A0005F030008B1CE00085F0300085F0300088B
:1000B0005F0300085F0300085F0300085F03000898
:1000C0005F0300085F0300085F0300085F03000888
:1000D0005F03000845D100085F0300085F030008C4
:1000E0005F0300085F0300085F0300085F03000868
:1000F0005F0300085F0300085F0300085F03000858
:100100005F030008B1B900085F0300085F0300083F
:10011000B5CF00085F0300085F0300085F03000815
:100120005F0300085F030008212E00082D2E000841
:100130005F0300085F0300085F0300085F03000817
:100140005F0300085F0300085F030008C5A1000803
:100150005F030008392E0008452E00085F030008E1
:100160005F0300085F0300085F0300085F030008E7
:100170005F0300085F0300085F0300080000000041
:100180005F0300085F03000800F002F800F0CAF8FF
:1001900014A696E8000CB244B344DA4501D100F04D
:1001A000C1F8BAE80F000FA696E83000A5EB0405E9
:1001B00004EB0607AAEB0704A7F101074FEA1515A0
:1001C0004FEA3414A4F10104AC4201D300F0AAF8C0
:1001D00013F0010F18BFFB1A43F0010300F001F800
:1001E000DBE71847B0DE010000DF01000A4410F829
:1001F000014B14F00F0508BF10F8015B240908BF7C
:1002000010F8014B6D1E05D010F8013B6D1E01F872
:10021000013BF9D1641E03D0641E01F8015BFBD1E0
:100220009142E4D370470000103A24BF78C878C1E7
:10023000FAD8520724BF30C830C144BF04680C60EC
:1002400070470000704700000023002400250026AE
:10025000103A28BF78C1FBD8520728BF30C148BF29
:100260000B6070476E2900F0FC85702900F06F82EA
:10027000662918F07F87652918F07C87672918F0B0
:100280007987612918F0788703681B0A28BF41F035
:100290008001692900F0E081642900F0DD81752981
:1002A00000F0DA816F2901F00B81782900F03B82A0
:1002B000E92901F0A580E42901F0A280F52901F0E7
:1002C0009F80EF2901F00881F82900F03A82036845
:1002D000DB0928BF41F08001632901F014807329F4
:1002E00001F01980E32901F0E986F32901F0EE8697
:1002F000002070471FB518F028FF9DE8030000F0AC
:1003000005FD01F093FC04000020002118F0CAFB59
:10031000401C60600020002118F0DAFBE0601FBD87
:1003200010B510BD01F0F6FF1146FFF7E3FF14F022
:10033000EDFD02F04DFA03B4FFF7F2FF03BCAFF39B
:10034000008000000948804709480047FEE7FEE7B3
:10035000FEE7FEE7FEE7FEE7FEE7FEE7FEE7FEE775
:1003600004480549054A064B70470000A1CE000825
:1003700089010008785101207881012078610120ED
:100380007861012070B5064600F0A0FC056806F112
:100390000B0020F00704B4429CBF002070BD2B4628
:1003A0006A68BAB11068A04210D304F1080188420B
:1003B0003CBF5068586007D35168101941601168FC
:1003C000091B016058601460101D70BD134652680F
:1003D000002AE7D12146284600F084FC0028DED11F
:1003E00070BD70B50446051F00F070FC0068002C5D
:1003F00014BF446870BD002C18BFAC423CBF2046FF
:100400006468F8D301680A18AA4218BF456003D18E
:100410002A6805461144016028684119A1421CBFA1
:100420006C6070BD6168696021680844286070BDB7
:1004300070B50D460646041F00F048FC0268BDB1C9
:10044000DEB105F10B0020F00701A9423CBF0020FE
:1004500070BD23688B4238BF506813D35A1A082ADC
:1004600036D3601840F8042B2160FFF7BAFF2FE065
:100470003046FFF7B6FF002070BD2846BDE870404B
:10048000FFF780BF002818BFA0423CBF024640686B
:10049000F8D303EB040C84451CD1D0F800C06344AE
:1004A000994217D8A3EB010CBCF1080F0DD3D0F87B
:1004B00004C06318C3F804C0D4F800C000686044E6
:1004C000401A18602160536002E023604068506069
:1004D000201D70BD2846FFF755FF050008D03146A6
:1004E0002068021F284601F042FB201DFFF779FF1C
:1004F000284670BD10B5044600F0E0FB0068005DC2
:10050000C00602D504F1200010BD204610BD000039
:100510001CB50C46064B7B4469460090204600F013
:10052000C8FE04460020694600F0D6FE20461CBDE9
:10053000BF0D00000FB4044910B503AA029800F0E3
:10054000EFFE10BC5DF814FB940C00200FB41CB53A
:10055000084B06AA7B4469460090059800F0A9FE66
:1005600004460020694600F0B7FE20461CBC5DF83A
:1005700014FB0000810D00000FB41CB50C0007AA8D
:10058000009007D04142A14202D32044401E01E026
:100590004FF0FF30074B7B4469460190069800F00E
:1005A00088FE0021002C01D0009A11701CBC5DF85F
:1005B00014FB0000490D000070B504468569006811
:1005C000C10601D5302600E02026C00707D070BD47
:1005D000D4E9012130469047206A401C20626D1EFC
:1005E000F6D570BD70B5044685690078C00707D19F
:1005F00070BDD4E9012120209047206A401C206270
:100600006D1EF6D570BD70B50C460546012A05D0A5
:100610002878800600D5EA69002302E0012305E07E
:100620005B1C934202D2E05C0028F9D1A869E6186D
:10063000C01AA861286A184428622846FFF7BCFF40
:1006400004E0D5E9012114F8010B9047B442F8D336
:100650002846FFF7C7FF70BD2DE9F041064600248C
:1006600010687529314616A510D000F08FFB0028C0
:1006700002DA404213A507E031688A0701D512A5C6
:1006800002E0490704D511A5012401E000F087FB31
:1006900000210A2206F1240709E0B0FBF2FCB0FBBE
:1006A000F2F302FB1C00303078541846491C002835
:1006B000F3D123462A463046BDE8F04100F078BB2E
:1006C000000000002D0000002B00000020000000B2
:1006D000F0B40D460188090502D5214C7C4402E0A6
:1006E0001F4C7C440E34002100F1240608E002F087
:1006F0000F071209E75D42EA03721B097754491C90
:1007000052EA0307F3D102780023120704D5702DB3
:1007100006D009B1022311342246F0BC00F048BBD8
:1007200001231034F8E770B504460D4621461068E1
:1007300000F035FB024629462046BDE87040002304
:10074000C6E7D21D22F00703D3E90023C0E7036800
:10075000126843F0200303600823C3610023B7E756
:10076000988B01002DE9F05F894604464FF0000A9E
:10077000DFF874B1FB44C0F820A02046E168884748
:10078000002874D0252806D0D4E901219047206A9A
:10079000401C2062F1E700265F462046E16888475A
:1007A0002028054607DB312D05D2781910F8200CDA
:1007B00008B10643F1E7B00701D526F00406C4F8F6
:1007C0001CA00027C4F818A02A2D09D0284618F02C
:1007D0001AF938B304EB8708303DC8F8185019E00F
:1007E00059F8041B204604EB87029161E1688847B1
:1007F000012F054618D1E069002820DA26F02006EE
:100800001DE0D8F8180000EB800005EB4000303800
:10081000C8F818002046E1688847054618F0F3F844
:100820000028EED1012F0AD02E2D08D12046E168F4
:1008300088477F1C0546022F46F02006C4DBA069CE
:10084000002803DA404246F00106A061F00701D01B
:1008500026F010066C2D0BD0682D09D04C2D39D008
:100860006A2D35D0742D35D07A2D33D016E038E08E
:10087000E1682F4620468847B842054609D16C2FCB
:1008800026D04FF48060E16806432046884705463D
:1008900004E06C2F1AD04FF4807006430DB3A5F11D
:1008A0004100192802D8203546F400664A462946F8
:1008B000204626604E46FFF7D5FC80B101280BD0BC
:1008C000F61D26F0070000F1080956E74020E4E78E
:1008D0008020D8E70020D6E706F104094DE7284636
:1008E00052E7206ABDE8F09F288B010070B50646EC
:1008F00000F0F0F90468054630460A22002101F0B4
:10090000E9F82C6070BD000001490FF021BD000026
:10091000940C002010B5044603E00FF019FD401CB4
:1009200009D014F8010B05490028F6D1BDE81040A4
:100930000A200FF00DBD4FF0FF3010BD940C0020C9
:100940000EB5054614460E4613A001F006F92846DA
:1009500001F003F916A001F000F9304601F0FDF8AE
:1009600015A001F0FAF800218DF80B100A210DF105
:100970000A008DF80A1008E094FBF1F201FB124224
:1009800094FBF1F4303200F8012D002CF4DC01F07E
:10099000E4F801F0D7F800002A2A2A206173736571
:1009A0007274696F6E206661696C65643A2000003C
:1009B0002C2066696C6520002C206C696E65200017
:1009C000401ECAB210F8011F8A4202D00029F9D194
:1009D0000020704730B503461D781DB10A4603E07C
:1009E000AC4201D1181A30BD12F8014B002CF7D1DE
:1009F0005B1CF1E710B5431E13F8014F002CFBD12F
:100A000005E011F8014B002C03F8014B03D0521EF6
:100A1000F7D20021197010BD30B503461D783DB1E5
:100A20000A4612F8014B1CB1AC42FAD15B1CF5E747
:100A3000181A30BD30B505460B462A4613F8014B4F
:100A400012F8010B08B1A042F8D01CB1002802D066
:100A50006D1CF1E7284630BD40EA010310B59B0745
:100A60000FD1042A0DD310C808C9121F9C42F8D018
:100A700020BA19BA884201D9012010BD4FF0FF30C9
:100A800010BD1AB1D30703D0521C07E0002010BDDF
:100A900010F8013B11F8014B1B1B07D110F8013B6B
:100AA00011F8014B1B1B01D1921EF1D1184610BD4C
:100AB00040EA0103024630B59B0710D14FF00134E4
:100AC00000E008C208C91D1B9D4315EAC41FF8D0E9
:100AD00013F0FF0102F8011B0DD01B0AF8E711F813
:100AE000013B002B02F8013B05D011F8013B002B24
:100AF00002F8013BF3D130BD0022CBB210F8011B4C
:100B0000994200D1421E0029F8D11046704710B515
:100B1000431C02E010F8011B71B18107FAD14FF0BC
:100B2000013202C88C1A8C4314EAC211F9D0C01ADF
:100B30000A0603D0C01E10BDC01A10BD0A0401D0A1
:100B4000801E10BD0902FCD0401E10BD40EA01030A
:100B500070B59B072ED14FF00136042A2AD308C85E
:100B600010C99D1B9D43121F15EAC61517D0D8B298
:100B7000E1B2401A50EA056110D198B2A1B2401A10
:100B800050EA05410AD123F07F4024F07F41401A0A
:100B900050EA052102D1180EA0EB146070BDA342EB
:100BA000DBD018BA21BA884201D9012070BD4FF0BC
:100BB000FF3070BD0AB9002070BD10F8013B11F87C
:100BC000014B63B1A3420AD1521E08D010F8013B79
:100BD00011F8014B1BB1A34201D1521EEDD1181BDC
:100BE00070BD10B5044610F0030F08BF11F0030FDD
:100BF00040F015804FF0013E121FC0F20E8051F8F8
:100C0000043BA3EB0E0C2CEA030C1CEACE1C08BF21
:100C100040F8043BF0D0A1F1040102F10402521E9D
:100C200008DB11F8013B00F8013B002BF7D111461E
:100C300000F0CFFF204610BD30B44FF0013C50F81B
:100C4000042B51F8043BCCFA52F4D51A20D1FCB94C
:100C500050F8042B51F8043BCCFA52F4D51A17D1B2
:100C6000B4B950F8042B51F8043BCCFA52F4D51A1D
:100C70000ED16CB950F8042B51F8043BCCFA52F465
:100C8000D51A05D1002CDAD030BC4FF000007047E7
:100C900029BAB1FA81F111F01801D1F12000844094
:100CA000F2D1CA40CB4012F0FF0213F0FF0330BC78
:100CB000D01A7047704770477047000010B500F0B9
:100CC000B5FF001D10BD00BFDD7D0100004870476D
:100CD00050020020004870474802002070477047CB
:100CE0007047704738B504460A4600206946AFF39E
:100CF0000080002808BF38BD02460099204600F059
:100D000099FF012038BD012001F0D5BAF8B5AFF345
:100D10000080054600200C460C2000BF0646A8199E
:100D2000A0420DD9324669460020AFF3008007008B
:100D300008BF01F0C0FA0098A04218BF0546C419C8
:100D4000FFF7C4FF05600746F01D20F007004619B5
:100D5000284600F00AF8B44208BFF8BDA21B31468D
:100D60003868BDE8F84000F065BF002101604160CF
:100D700070470C20704710B5FFF7ACFF006810BD3E
:100D800010B50446FFF7A6FF046010BD09684A05C8
:100D900001D540B27047C905FCD500B2704709685B
:100DA0004A0501D5C0B27047C905FCD580B270476D
:100DB0002DE9F0470D4699469246044600F1240875
:100DC0000168880604D5E06921F01001216000E087
:100DD0000120A84201DD471B00E00027A1697A1924
:100DE00002EB0900081AA0612078C00602D4204650
:100DF000FFF7E2FB002608E0D4E901211AF806001B
:100E00009047206A401C761C20624E45F4DB207817
:100E1000C0060AD52046FFF7CFFB06E0D4E9012142
:100E200030209047206A401C2062381EA7F101073D
:100E3000F4DC07E0D4E9012118F805009047206AA6
:100E4000401C2062281EA5F10105F3DC2046FFF7B7
:100E5000C9FB2078000602D50220BDE8F0870120FA
:100E6000FBE711680268006A530501D508700AE0C3
:100E7000D30501D5088006E0130603D5C217C1E9E2
:100E8000000200E00860012070472DE9FF4F0C468A
:100E90001E464FF0FF378BB0D2E90001DDF86080CD
:100EA0000A908A46C1F30A5505B93D460021084615
:100EB0004FF00000BAF1000F00F4400005DA00EB3B
:100EC00080004FF4400101EA50004FEA9059B9F117
:100ED000010F00DDB9460A9850EA4A000ED044F6E8
:100EE0001050A5F2FF3545432F14B8F1000F1ED066
:100EF0007542291E1EDDC9F100021CE0B8F1010F88
:100F00004FF0000001D0302103E0F24305E021540E
:100F1000401CB042FBDB30460022002121540B99DB
:100F2000C1F80880C1E900200FB0BDE8F08FBD1BFB
:100F30006D1CDEE74A4600DA694206A801F01AF99C
:100F400006AB93E8070003AB83E8070050460A9915
:100F500016F0C6FF8DE80700A0F500501F3800907E
:100F60000398002D0ADD42F21F014A46084400237F
:100F700003A90390684617F071FA09E0A0F5005044
:100F80004A461F38002303A90390684617F090FAD9
:100F90008DE807000004000C03D04FF0FF3041083B
:100FA00000E01046B8F1000F03D000220092154671
:100FB0001EE0751E05D400F06AFE303262556D1ECB
:100FC000F9D5B3460122084302D000227F1C04E079
:100FD0002078302801D100227F1E002A099784D072
:100FE0001DE0112D07DA00F052FE303262556D1C03
:100FF00050EA0102F5D1084302D00098C8B10EE0D2
:101000000021681E05E0235C625C63542254401E8C
:10101000491C8142F7DBAB46A81B401E099000200B
:1010200004F80B000B98099AC0F80880C0E9002B5F
:101030007AE711264FF0000857E72DE9F04F884670
:101040000446D21D22F0070191B0D1E90001CDE99B
:101050000A0117F079FB02460B98C00F01D02D2032
:1010600007E02068810701D52B2002E0202101EA5A
:10107000C000032A099001D0072A05DB0346414638
:10108000204600F0D1FF0BE12078800601D5E06911
:1010900000E00620B8F1650F814606D0B8F1660F72
:1010A00018D0B8F1670F70D131E00020B9F1110FFD
:1010B000009001DB112301E009F101030AAA01A953
:1010C0000CA8FFF7E2FEDDE90C70002609F101052E
:1010D000834647E001204B4600904FF000470AAAA4
:1010E00001A90CA8FFF7D1FEDDE90DB00C995D4612
:1010F000002610B909F101000D18B9EB050003D461
:10110000C0F1FF3609F10105A5EB09002BE0B9F1AB
:10111000010F01DA4FF001090020B9F1110F009021
:10112000484601DD112300E003460AAA01A90CA8E4
:10113000FFF7ABFEDDE90C704D46002683462078B4
:1011400000070AD4AB4500DA5D4601A8012D04DD95
:10115000411911F8011C302907D04F4502DA17F167
:10116000040F04DA012082460FE06D1EEEE7002F27
:1011700002DCED1B3E4403E0781CA84200DD7D1C30
:10118000B81B00F1010A4FF000472078000703D494
:10119000AA4501DB4FF0FF3A0021B7F1004F0DF1F6
:1011A00043088DF8431024D002202B23002F01DAAE
:1011B0007F422D230A21021EA0F1010000DC5FB155
:1011C00097FBF1FC97FBF1F201FB1C7C17460CF13D
:1011D000300C08F801CDEEE7A8F10100037021887A
:1011E000090501D5452100E06521A0F1010800F8BD
:1011F000011C09980FA9A1EB0807FF1D00B10120F0
:10120000411901EBEA70A1693844081A401EA06137
:101210002078C00602D42046FFF7CEF9099828B1FD
:10122000D4E901219047206A401C20622078C00642
:1012300022D52046FFF7C0F91EE0002E04DBB3459F
:1012400002DD01A8805D00E03020D4E90121904753
:10125000206A401C2062761CAAF101005FEA000AA5
:101260000AD100F0E3FCC0680168405CD4E90121C8
:101270009047206A401C2062281EA5F10105DCDC95
:1012800007E0D4E9012118F8010B9047206A401CBF
:101290002062381EA7F10107F3DC2046FFF7A2F910
:1012A000032011B041E6000001694A1C0261087880
:1012B000704700B58FB0CDE9013100210591054996
:1012C0007944CDE9031011466846FFF74BFA0FB099
:1012D00000BD0000E5FFFFFF0A6802F8010B0A608D
:1012E0007047D1E900239A4202D2531C0B60107060
:1012F000704710B5436913B1AFF3008001E0FFF709
:1013000082F9012010BD127800F124010A70002238
:101310004A700122EDE711684FF0FF32E9E7000063
:10132000074B70B50D467B44FFF7C3FF04462846C4
:1013300000F092FF10B14FF0FF3070BD204670BD3D
:1013400027F000002DE9FF5F15468A460446DFF8C6
:10135000AC80F8440027D8E900103E46CDE90010E3
:1013600010E03AF816106A4602A800F079FF411C16
:1013700007D02178890603D5E269391891420DD842
:101380000744761C2078800602D5E069B84205DD66
:10139000AE42E6DB3AF816000028E2D1A069C01B95
:1013A000A0612046FFF708F9D8E90010CDE9001048
:1013B000002017E03AF818106A4602A800F050FF23
:1013C000B0F1FF3F81460BD000250DF1080B05E081
:1013D000D4E901211BF8050090476D1C4D45F7D35A
:1013E00008F10100B0428046E4DB206A3844206204
:1013F0002046FFF7F7F8BDE8FF9F00005E7F010081
:101400002DE9F0418046D21D22F007020025D2E9E5
:101410000002F52915A614D0011E72F1000106DAAA
:101420000023D0EB030063EB020211A608E0D8F81A
:1014300000108B0701D50FA602E0490701D50EA6C3
:1014400001251146002408F1240704E000F01FFCE8
:1014500030323A55641C50EA0102F7D12B4632462D
:1014600021464046BDE8F041FFF7A2BC0000000065
:101470002D0000002B0000002000000030B40021EF
:1014800000F1240408E002F00705D208303542EAF2
:101490004372DB086554491C52EA0305F3D1046822
:1014A000002310A2250708D504F020040C4304D023
:1014B000C46901230CA2641EC46130BCFFF778BC70
:1014C00010B5044621461068FFF769FC0246204625
:1014D000BDE810400023D1E7D21D22F00701D1E979
:1014E0000023CBE700000000300000002DE9FF4F93
:1014F00006468BB00878FF2806D0491C2D2805D059
:1015000000244FF0000908E000200CE00124F8E777
:1015100009EB8903491C00EB43090878FF28F7D140
:1015200014B1C9F100008146107800252C46AA4666
:1015300029462D2801D02B2804D1521C2D2813D048
:10154000002082468B461078FF280FD04FF0000C09
:101550000A21521CA5FB017804FB018105FB0C113B
:10156000C5194BEB0104EEE70120EAE7002108462C
:101570004FF00000BAF1000F02D000EB80004008ED
:10158000C0F38157012F01DD4FF0FF370E9955EA67
:10159000040009EB01080BD04FF0020918F5FA7F9F
:1015A00016DA4FEACA70002F706008DD012007E0EC
:1015B0004FEACA70C6E900B00FB0BDE8F08F002056
:1015C0003060FFF787FBC0F800901821084616E04E
:1015D000B8F5FA7F18DD002F02DAF748784401E009
:1015E000F6487844D0E90010C6E9001040EACA7015
:1015F0007060FFF76FFBC0F80090142108460FB031
:10160000BDE8F04F17F0B3BD002108464FF00000D1
:10161000B8F10001099002DAC7F1000200E03A4691
:1016200001DAC8F1000106A800F0A4FD06AB93E8BA
:10163000070003AB83E8070044F23E005BEA0401C5
:101640000090584604D144F21E012C465D4600919C
:10165000210C0904014306D10099240444EA1544ED
:101660002D041039009104F07F41014306D1009907
:10167000240244EA15642D020839009104F07041F7
:10168000014306D10099240144EA15742D01091F74
:10169000009104F04041014306D10099A40044EABE
:1016A0009574AD00891E009104F00041084304D1F7
:1016B00000986D196441401E00904FF001033A46B6
:1016C0006846B8F1000FCDE9014503A902DD16F027
:1016D00004FF01E016F0D7FEBAF1000F04460D46F4
:1016E00001D084F00044002108464FF00000099921
:1016F00040F2FF77484010F00C0F07D124F0004073
:10170000284303D0C4F30A50B84212D1FFF7E2FADB
:10171000C0F80090C4F30A50B8420AD1A8487844EF
:10172000D0E90010C6E9001004F0004108437060E1
:1017300042E7C6E900543FE72DE9FF4F1F464FF04F
:10174000000A4FF0FF38454691B0D7E90146CDF881
:101750003CA000F06BFAC0680168405C1090B96969
:1017600012986D1C8847396A814688470028F6D14F
:10177000B9F1FF3F0AD0002E24F4D06411DDB9F195
:101780002B0F08D0B9F12D0F0BD102E0404615B058
:1017900013E744F48064B96912986D1C8847761E7B
:1017A0008146600504A901D52D2000E02B20002EE4
:1017B00001F1010B0DF130088DF810003FDDB9F19A
:1017C000690F08D0B9F1490F05D0B9F16E0F02D0F9
:1017D000B9F14E0F1CD13B4601A8009580E850029C
:1017E000DDE912126FF0020017F02CFDC11CCED102
:1017F0000EE0B96912986D1C884781461398761ED1
:1018000044F4007405600F98401C002E0F9016DD04
:10181000B9F1300FEDD0B9F1780F02D0B9F1580F0E
:101820000DD10F9801280AD13B46CDE90054DDE9DE
:101830001212001F029617F003FDC11CA7D11099C8
:1018400089453ED144F0800406E01399681CAAF152
:10185000010A44F400740860B9696D1C1298761E80
:10186000884730288146F0D02BE01099894505D172
:10187000200603D4761E44F0800418E0484617F092
:10188000C2F808B3761E0DF123029345A9F130008A
:1018900044F4007406D20BF8010B200607D5AAF118
:1018A000010003E0200602D40AF101008246A005EF
:1018B00002D51399681C0860B96912986D1C884795
:1018C0008146002ED1DC53E0002E51DDB9F1650FC9
:1018D00002D0B9F1450F4BD1A00549D5B9696D1CAE
:1018E0001298761E24F440748847002E81460CDD41
:1018F0002B2804D0B9F12D0F07D144F48074B969B5
:1019000012986D1C8847761E8146E00501D52D2171
:1019100000E02B2108F8011BCDF8008021E0761EA5
:101920000DF13901884544F400740CD2A9F130005E
:1019300010F0FF0088F8000002D10099884509D90D
:1019400008F1010806E0E00501D51E4801E042F279
:101950000F708246B96912986D1C884781461398AA
:101960000560002E04DD484617F04DF80028D6D15A
:10197000F96912988847FF2053468BF8000088F8D1
:10198000000000200A900B9004AA0CA90AA8FFF7F7
:10199000ADFDA00502D46FF00100F8E614F0240FAD
:1019A00012D0E0071CD13868DDE90A12031D3B6044
:1019B0000068C0E9001213E00CCB0100FECA010070
:1019C000C2C90100F1D8FFFF0AA9684617F008F85C
:1019D000E00705D13868009A011D3960006802608F
:1019E0002846D4E6426842B1016811F8013B23B1B0
:1019F000521EC0E90012184670470121C160881EBE
:101A0000704742685AB1C368016843B983688B4222
:101A100005D0491E521CC0E90012002070474FF04B
:101A2000FF3070470FB40B0010B54FF000048AB0C0
:101A30000FA900910E99CC60234C7C44234A7A4430
:101A4000CDE9064200D004236FF00042CDE9013217
:101A50001F4A7A446B4608920246002017F0EEFBBC
:101A60000AB010BC5DF814FBF0B507464FF0FF302C
:101A70001E4615460C463B4685B06A460091CDE9A8
:101A8000010131460020049004A8FFF7CBFF049920
:101A90000346601825B109B1024600E022462A60DB
:101AA00000290ED0002B02DD0099814209D03B466F
:101AB0006A463146001B0094CDE9010404A8FFF7F3
:101AC000B1FF05B0F0BD0000A7FFFFFFC1FFFFFFA2
:101AD000C30200002DE9F04791460F4680460446B8
:101AE000002614F8015B2DB1FFF7E8F80068405DAF
:101AF000C007F6D12B2D02D02D2D18D0641E4A46DA
:101B00003946204600F0E6FA27B13968A14201D1F2
:101B1000C7F800804FF0020471050BD54042002841
:101B200003DDFFF7D7F80460A007BDE8F08746F4AF
:101B30008066E4E70028F8DAFFF7CCF804606FF07D
:101B40000040F2E710B5002000F0AEFBFEF7E8FB26
:101B5000BDE8104001200CF09CB910B5044602E02D
:101B6000641C00F058F820780028F9D110BD10B599
:101B7000203AC0F00B80B1E81850A0E81850B1E846
:101B80001850A0E81850203ABFF4F5AF5FEA027C85
:101B900024BFB1E81850A0E8185044BF18C918C0B5
:101BA000BDE810405FEA827C24BF51F8043B40F856
:101BB000043B08BF7047D20728BF31F8023B48BF3B
:101BC00011F8012B28BF20F8023B48BF00F8012B79
:101BD00070474FF000020429C0F0128010F0030C8F
:101BE00000F07283CCF1040CBCF1020F18BF00F8B6
:101BF000012BA8BF20F8022BA1EB0C0100F064BB65
:101C00005FEAC17C24BF00F8012B00F8012B48BF1C
:101C100000F8012B704708B569468DF800000320D5
:101C2000ABBE08BD0048704748020020004870471E
:101C300068020020034640688C46002818BF88428E
:101C40003CBF03464068F8D318681844884207D060
:101C50000CF1030020F00700001D411A521A014642
:101C6000081D0A60FEF7BDBBB2F120030AD5C2F120
:101C7000200301FA02F120FA03F341EA030100FA1A
:101C800002F0704700FA03F14FF00000704730B5E2
:101C9000B0F10A0271F100034FEA900E4EEA817E24
:101CA000B0EB0E0061EB91014FEA101E4EEA017E8F
:101CB00010EB0E0041EB11114FEA102E4EEA016EAF
:101CC00010EB0E0041EB11214FEA104E4EEA014E8F
:101CD00010EB0E0041EB1141401841F100014FEAB9
:101CE000D00040EA41704FEAD1014FEA810444EA52
:101CF000907410EB800544EB01046D1944EB04046F
:101D0000521BA3414FF0000348BF0A3200D530BD3B
:101D1000401C41F1000130BD10B50446FEF7CEFF76
:101D20000068005D00F0010010BD00002DE9F04FDB
:101D300004460D46D21D22F0070089B0D0E9009775
:101D40004846394616F000FD0246F80F01D02D2313
:101D500007E02068810701D52B2302E0202101EA5A
:101D6000C0038DF820300BB1012000E00020032AD1
:101D7000824601D0072A04DB2946204600F054F9A8
:101D80003FE12078800601D40D2500E0E569C7F326
:101D90000A560D2D49DA00214FEA175B08464FF02D
:101DA0000000002F00F4400007DA00EB80004FF441
:101DB000400100EBD07001EA60008115012901DDCE
:101DC0004FF0FF3100224FEA850CBCF1180F06D30B
:101DD0001346ACF118004FF08052C24003E04FF4BC
:101DE000801323FA0CF30CF10C0CBCF1200F04D37C
:101DF000ACF1200C09FA0CF001E007FA0CF0002914
:101E00004FF0004801DD18B90FE00ED140450CD36A
:101E100019EB02095F4121B9404502D19F4329EAEC
:101E20000209BBEB175F00D0761C2088000502D5A5
:101E30007B48784402E07A487844193808AA30236D
:101E400002F80A30037C0AF10101002E0AF1020AAD
:101E500053546A4602DC4FF0300101E04FF031018B
:101E60004FF001088DF8001002D0A6F2FF3603E013
:101E700059EA470100D06B4E002D02DC217809079A
:101E800004D54FF002082E218DF80110C446002120
:101E90000BE0C7F303433F01C35C491C6D1E02F80E
:101EA0000830052908F1010801DA002DF1DC0021D4
:101EB0000CE000EB1973491C1B786D1E082902F811
:101EC00008304FEA091908F1010801DA002DF0DCA9
:101ED00021688B0602D516E0A8F10108E04505DD72
:101EE00002EB080313F8013C302BF5D0B8F1000FDA
:101EF00009DD02EB080313F8013C2E2B03D109077F
:101F000001D4A8F10108002D05DD3E2102F80810DA
:101F10006D1E08F10108407C002E02F8080008F14F
:101F2000010804DA2D20764202F8080002E02B2096
:101F300002F808000A214FF47A70864208F101087D
:101F40000BDB96FBF0F3303302F8083096FBF0F32E
:101F500008F1010800FB136601E0642E0CDB64202D
:101F600096FBF0F3303302F8083096FBF0F308F1FB
:101F7000010800FB136601E00A2E06DB96FBF1F078
:101F8000303002F8080008F1010896FBF1F001FB7F
:101F90001060303002F80800A16908F1010808EB70
:101FA000050202EB0A00081AA0612078C00602D4DC
:101FB0002046FEF701FB216A08AE01EB0A00206211
:101FC00004E0D4E9012116F8010B9047BAF1010AA7
:101FD000F7D22078C00602D52046FEF7EDFA6E460D
:101FE00009E016F8010B3E280FD0D4E901219047F3
:101FF000206A401C2062B8F10108F2D22046FEF7A8
:10200000F1FA09B00320BDE8F08F206A284420626D
:1020100003E0D4E90121302090476D1EEBD3F8E7AF
:102020009974010002FCFFFF2DE9F0411F460446B0
:1020300003260168072A01F4006004DB08B116A535
:1020400005E016A503E008B115A500E015A521F0EF
:1020500010002060A069C01EA0610FB1401EA061E9
:102060002046FEF7A9FA4FB1D4E90121384690473E
:10207000206A401C2062C01C206206E0206AFAE749
:10208000D4E9012115F8010B9047761EF8D22046BD
:10209000FEF7A8FABDE8F0814E414E006E616E0079
:1020A000494E4600696E660010B5436913B1AFF33F
:1020B000008001E0FFF746F9012010BD128800F111
:1020C000240182840022C2840122EDE711684FF0CE
:1020D000FF32E9E72DE9F05F824615468B4600277F
:1020E0000AF10104B9460078302801D09DB113E00F
:1020F00014F8010B0127782803D0582801D045B1E6
:102100000AE00DB1102D07D1002714F8010B10259E
:1021100002E0082500E00A250026B0460EE005FB97
:10212000080005FB06F101271FFA80F801EB1046B5
:10213000B6F5803F00D3B94614F8010B294600F0EC
:102140000EF90028EBDABBF1000F05D00FB1641EC9
:1021500000E05446CBF80040B9F1000F06D0FEF77E
:10216000B9FD02210160C81EBDE8F09F48EA0640A3
:10217000FAE700002DE9F047814616468AB0354857
:1021800078440DC88DE80D0032487844801C03ACBB
:102190000DC884E80D0041F69B300844372190FBC0
:1021A000F1F290FBF1F5A5F1800501FB12041B3C57
:1021B00002D56442012000E00020DFF898A08046AC
:1021C0000027FA44AAF1BE0A0EE0E0070AD0324620
:1021D000684607EB470101230AEB810116F068F915
:1021E0008DE8070064107F1C002CEED1194F7F444E
:1021F000AE3F19E0E80715D007EB04100DF1180AFF
:1022000090E80E008AE80E00C068F04201D19819EB
:1022100008903246012306A903A816F049F903AB3A
:1022200083E807006D10641C002DE3D14FF001031B
:1022300032466946B8F1000F03A802D016F00EF935
:1022400001E016F035F9C9E90001C9F808200AB023
:10225000BDE8F087DC710100007B00F08000704772
:102260002DE9F04116460C460546FEF727FD0368AA
:1022700093F80101012807D0FF2C12D8185D80B116
:1022800001202C70BDE8F081D3F8070132462146C9
:1022900003F20713C7182846BC46BDE8F0410023E7
:1022A00060474FF0FF30EDE710B500F09FFABDE852
:1022B000104000F096BA10B500F0B0FABDE810403A
:1022C00000F08FBA4FF0000200B5134694469646D0
:1022D000203922BFA0E80C50A0E80C50B1F1200139
:1022E000BFF4F7AF090728BFA0E80C5048BF0CC0E7
:1022F0005DF804EB890028BF40F8042B08BF704745
:1023000048BF20F8022B11F0804F18BF00F8012BB6
:10231000704770477546FFF785FCAE460500694675
:10232000534620F00700854618B020B5FEF718F890
:10233000BDE820404FF000064FF000074FF00008C6
:102340004FF0000BAC46ACE8C009ACE8C009ACE803
:10235000C009ACE8C00921F007018D4670473A2852
:1023600000D2303820F02002412A01D3A2F13700F8
:10237000884201D34FF0FF30704700002DE9FF4F36
:102380001F464FF03C0987B04FF00042DDE91410C2
:1023900001F10108DDF858A002EA40500390002046
:1023A00005908346054604460490B969461E089880
:1023B0008847AAF1010A0290BAF1000F3BDD0298AA
:1023C0002E2815D01021FFF7CAFF00282EDB4FF072
:1023D000010B0599014317D0B9F1000F0BDB4A46F9
:1023E000C117FFF741FC05430C43A9F1040905E0BF
:1023F000012004900BE008B145F001050120059093
:10240000049820B9361D02E0049800B1361FB9695E
:10241000089808F101088847BBF1000FAAF1010AEA
:102420000290C9D00999C1F80080C5E702987028C8
:1024300008D0502806D0F96908988847BBF1000FEA
:1024400014D04FE0002002900120BBF1000F049057
:1024500009D0B969089808F101088847AAF101096B
:10246000B9F1000F07DCF969089888476FF001009F
:102470000BB0BDE8F08F2B2804D02D280CD14FF0E5
:10248000FF300490B969089808F101088847A9F15C
:102490000109B9F1000FE6DD411CE4D00A21FFF784
:1024A0005EFF0028DFDB029908F1010801EB8101E2
:1024B00000EB41000290B969089888470A21FFF7AC
:1024C0004EFF099AA9F10109B9F1000FC2F8008085
:1024D00001DD0028E7DAF96908988847049902982D
:1024E00000FB016655EA040004D004F040410900F5
:1024F00002D006E0039898E0A40044EA9574AD0089
:10250000B61E04F00041080002D16D196441761E28
:10251000159810F0240F03D04FF00B095C4803E02E
:102520004FF028096FF07D008246564507DAAAEB86
:1025300006018944B9F1410F01DD4FF04109012045
:102540000021A9F10102FFF78FFB024628400B464C
:102550002140084301D0012100E00021501E0291DA
:1025600043F1FF3128402140084301D0012000E021
:1025700000200299834651EA0B014FD00021084602
:102580004FF00000039900F4400039B100EB8000E7
:102590004FF4400100EBD07001EA60008015012883
:1025A00002DD4FF0FF3000E013D0401C36D002981F
:1025B00060B3BBF1000F0CD14A4601200021FFF7A8
:1025C00053FB28402140084301D0012000E00020B7
:1025D000E0B101204A460021FFF746FB03464019BF
:1025E0000A4661412D1A8C4111D3B9F1400F09DD22
:1025F000159810F0240F02D0AAF1340603E0AAF1D6
:10260000170600E0761C00254FF0004406E05B1E34
:1026100042F1FF3220EA030521EA0204CAF1010077
:10262000B04206DA1B49039808430190002000904D
:102630000EE0039AC4F3D321E80A0A43164940EA9C
:1026400044500A433146CDE90002684616F0D1F9FC
:10265000159810F0240F0BD01598C00715D13868C5
:10266000DDE90012031D3B600068C0E900120CE0C8
:1026700002A8694616F0B4F91598C00705D1386864
:10268000029A011D3960006802604046F0E60000D1
:1026900002FCFFFF0000F07F0000F03F2DE9FF4F3C
:1026A00092461D4685B04FF00041DDE9124BDDE951
:1026B00014727F1E01EA4B50414940F0FF4940EA45
:1026C0000108002122F020004928049102D04E2860
:1026D00028D04CE03BA0012607C88DE80700A96977
:1026E0000698641C88477F1E014606D41DF8060024
:1026F00018B121F0200181420BD0E9690698884782
:10270000032E34D0082E32D06FF0010009B0BDE89E
:10271000F08F761C032E01D0082EE0D1601CCAF881
:102720000000DCE7A9690698641C88477F1E2AD44C
:1027300020F02000412826D1A9690698641C88470A
:102740007F1E20D420F020004E281CD1A9690698B5
:10275000641C88477F1E48F4002849F48009CAF8A1
:10276000004001D4282806D0E969069888475FEA26
:10277000CB7012D022E0A9690698641C88477F1E9E
:1027800001D4002803DAE96906988847BCE72928BC
:10279000F1D1641CCAF80040E9E71BF0240F07D010
:1027A00028680499031D2B600068C0E9001805E043
:1027B0002868021D2A600068C0F800902046A5E73E
:1027C0000000F07F494E46494E4954590000000030
:1027D00010B50446AFF300802046BDE81040FDF779
:1027E000AABD002801D00BF054BB704710B50021E2
:1027F00002A000F03BF8012010BD00005349474102
:102800004252543A2041626E6F726D616C20746561
:10281000726D696E6174696F6E00000010B50128F9
:1028200005D0002103A000F021F8012010BD09A16E
:10283000F8E7000053494752544D454D3A204F7533
:1028400074206F662068656170206D656D6F7279A8
:10285000000000003A2048656170206D656D6F7260
:102860007920636F727275707465640070B5054687
:102870000C460A2000E06D1CFFF7CDF935B1287831
:102880000028F8D102E0641CFFF7C5F914B12078E4
:102890000028F8D1BDE870400A20FFF7BCB970B538
:1028A000A0FB0140B4F1805170F1000024BF002072
:1028B00070BD2046FDF766FD05001CBF2146FFF7F1
:1028C00088F9284670BD53EA020C00F069802DE9B2
:1028D000F04B4FF00006002B1FBFB3FA83F503FA4D
:1028E00005F424FA05F65E4012BF1643B2FA82F5EB
:1028F00002FA05F4C5F120051EBF22FA05FC44EAE0
:102900000C04203556EA044C4FEA144418BF641CEA
:102910004FF000084FF00009904271EB030C39D3DF
:10292000002919BFB1FA81F701FA07F6B0FA80F76A
:1029300000FA07F6C7F120071EBF20FA07FC46EA97
:102940000C062037B6FBF4FCA7EB0507103F07F099
:102950001F0BCBF120062CFA06F60CFA0BFB44BF3A
:10296000B3460026202FA4BF5E464FF0000B5BEA63
:10297000060C08BF4FF0010B19EB0B0948EB0608DA
:10298000ABFB027C06FB02CC0BFB03CCC01B71EB48
:102990000C01C1E70B46024641464846BDE8F08BB4
:1029A00013B5084318BF4FF0FF300146AFF3008066
:1029B000BDE81C407047032A40F2308010F0030C41
:1029C00000F0158011F8013BBCF1020F624498BF82
:1029D00011F801CB00F8013B38BF11F8013BA2F11F
:1029E000040298BF00F801CB38BF00F8013B11F09A
:1029F00003033FF4BCA8083AC0F0088051F8043B38
:102A0000083A51F804CBA0E80810F5E7121D5CBFA6
:102A100051F8043B40F8043BAFF30080D20724BFD9
:102A200011F8013B11F801CB48BF11F8012B24BF6D
:102A300000F8013B00F801CB48BF00F8012B7047BC
:102A400002F0FF0343EA032242EA0242FFF7C3B85F
:102A50002DE9F04F91B0039000F1F0048C48019102
:102A600000210B900DAD00940198814280F00D8102
:102A70000B9C0291284610222146FFF79CFF039AE7
:102A80000E20214600F06EF90D200B9D0490687B0E
:102A9000697AAA786C79EB78697369786870A87A32
:102AA0006C727C4CAA72A870A8796971A97BA87312
:102AB000E879A9712946E870E87AE871E87BEB7358
:102AC000E872002004280CD00022042A06D011F855
:102AD0002230E35C01F822300132F6E701310130A7
:102AE000F0E704980B99039AC4B2204600F03AF933
:102AF000002C00F0B3800021102900F0AC800B986E
:102B00004FF01B080C91455606460B9008EAD5106D
:102B100080EA4503680040B2099308EAD01080EAD1
:102B20004302580040B214460A9208EAD01080EAE4
:102B3000420C0C98CDF81CC0311891F9010091F9A4
:102B4000026091F9037086EA00027A405A4008EA6E
:102B5000D01383EA400E82EA0E0282EA0403740074
:102B600008EAD61264B282EA460208EAD414059250
:102B700084EA42046340A14608944400684064B279
:102B800083EA0C0A08EAD41484EA4E034FEA4E049E
:102B900064B2069308EAD41484EA430B540064B286
:102BA0008AEA0B0308EAD41484EA490A08EAD7142B
:102BB00084EA470483EA0A0C7B005BB2620060404F
:102BC00008EAD31352B283EA440308EAD212099CFA
:102BD00082EA43088CEA0802DDE90BC90CF80920F7
:102BE00086EA0502DDF814C0DDF818907A4082EA22
:102BF0000E02DDF81CE082EA0C0282EA090282EA97
:102C00000E025A4082EA0B0282EA0A0282EA0802B3
:102C10004A7080EA06027840624080EA0C0082EA4C
:102C2000090282EA0E025A4082EA0B0282EA0A0292
:102C300082EA0802CA700A9A5040089A504080EA14
:102C40000E0080EA0B0080EA0A0080EA0800887023
:102C50000C99043150E70498013816E7009C0020D5
:102C60000DAD102806D00B9B215C1A5C5140195405
:102C70000130F6E7204629461022FFF79CFE0B980C
:102C80000299103010310B90EEE611B0BDE8F08FD4
:102C900030210020189801082DE9F04794460022C1
:102CA000202A0BD08B5C8C188354831804326578EF
:102CB0005D70A5789D70E478DC70F1E7DFF89480B2
:102CC00000F1230900230FF2900E342B3AD000EBD1
:102CD000830603F1080101F00707347F757FB27F97
:102CE00096F81FA0042F10D0BFB9C90818F80550D6
:102CF00018F8044018F80A701EF80110A24669403E
:102D000018F802503A460C4607E018F80AA018F8DE
:102D1000022018F8055018F8044019F8231CF77819
:102D200001336140B47886F820107178694086F8E4
:102D3000211084EA020186F8221087EA0A0109F8C4
:102D4000041BC2E7F03061461022BDE8F047FFF7F0
:102D500032BE00BF189901088D01020408102040FE
:102D6000801B3600B0B502EB00100022042A08BF19
:102D7000B0BD0023042B05D0C45CCD5C6C40CC54AA
:102D80000133F7E7043104300132EFE780B503483F
:102D900001F0FAF8043818BF012080BDA098002087
:102DA00081B001208DF8030005480068000744BF8A
:102DB00000208DF803009DF8030001B0704700BFAC
:102DC000100C0240E0B5009201A2FDF7D5FB8CBDCE
:102DD00025732028312D256429206F722027612733
:102DE00020746F2061626F72743A2000FEE7000069
:102DF000B0B50A490C1D25180020AC4280B204D29F
:102E000014F8011B0AF06FFFF7E700210AF06BFFCF
:102E10000021BDE8B0400AF066BF00BF280D0020C9
:102E2000014800F0E7B800BFFC920020014800F024
:102E3000E1B800BF3C920020014800F0DBB800BFC1
:102E40009C920020014800F0D5B800BF5C930020A0
:102E5000704772B6FEE70000F0B587B004466846DA
:102E600000F0DCFA174D0298E968B1F1FF3F04DC8D
:102E70001549296015492960E9682969C90703D0FE
:102E800013496960134969603A4E317E012901D1C5
:102E9000022014E040F6FF7140EA0107012030767D
:102EA00000F01AF8012C03D138B9688AB84302E05F
:102EB00018B9688A3843688200200021317607B04B
:102EC000F0BD00BF043C024023016745AB89EFCD54
:102ED0003B2A19087F6E5D4CB0B526480021E24AB6
:102EE0004CF25034C1612449D36A0D68ED0306D514
:102EF000D56AED1AA54284BF0320B0BDF5E70A6884
:102F0000D2071CBF01220A600A6812F0F20F04BF48
:102F10000020B0BD0A68D20605D5C26942F0100291
:102F2000C26110220A600A68920605D5C26942F0A1
:102F30000802C26120220A600A68520605D5C269E9
:102F400042F00402C26140220A600A68120605D5F6
:102F5000C26942F00202C26180220A600A689207D6
:102F600005D5C26942F02002C2610220086001203A
:102F7000B0BD00BF240200200C3C024043F6FF71AC
:102F800020EA010101F17841B1F5803F3CBF880B97
:102F9000704740F60101B1EB104F04BF04207047A9
:102FA0000A4A02F1006101408818B0F5202F3EBFA7
:102FB000052101EB50407047034800F530220B20FB
:102FC000914208BF0A207047000001080000FEF788
:102FD00090F83510022909D1052180F835100068D4
:102FE000016821F0010101600020704780214165E6
:102FF00001207047F8B504460020554A082100908A
:10300000D4E9166055683768814039420CD022688F
:1030100013685B0708D5136823F004031360B160DD
:10302000616D41F00101616501218140394208D0A3
:1030300022685269120604D5B160616D41F0020147
:10304000616504218140394208D0226812689207E4
:1030500004D5B160616D41F004016165102101FA90
:1030600000F23A4218D021680B681B0714D5B260F1
:103070000B680A685B0306D4D20506D40A6822F0FE
:1030800008020A6001E0110301D4216C00E0A16C88
:1030900011B120468847E06D202101FA00F23A4242
:1030A00034D021680B68DB0630D5B26094F8353037
:1030B0000A68052B16D122F016020A604A6922F02E
:1030C00080024A61226C0AB9A26C1AB10A6822F025
:1030D00008020A603F2101FA00F0B06007F07BFEB1
:1030E000216D2FE00868520308D4C0050AD408688F
:1030F00020F01000086007F06EFE03E0000301D42A
:10310000616C00E0E16B09B120468847606DF0B169
:10311000606DC00715D005214FF4165084F83510A6
:10312000B5FBF0F021680A6822F001020A60009AFB
:1031300001328242009202D80A68D207F7D107F022
:103140004AFEE16C19B12046BDE8F8400847F8BDD9
:10315000000000202DE9F0414349CB6AA8B10222CA
:1031600080F83520002280F834200268146824F0AA
:10317000010414601468E40709D0CC6AE41A052C31
:10318000F8D903252026032167E0012168E01168B2
:1031900000F1040C354B9CE8F01101EA030ED0E974
:1031A000073144EA0E042C4334433C4344EA080408
:1031B0002343446A194341EA0C03042C03D1D0E9A8
:1031C0000B1529430B431360042C516921F00701AF
:1031D00041EA040328D1D0E90A743B4324B3BCF587
:1031E000005F08D0BCF1000F14D1022F15D0012FC1
:1031F0000AD0002F10E0032F16D801254026012108
:10320000DFE807F02B0B2B02A4F1C071B1FA81F1BA
:10321000490904E0032F03D306D1C4F3006119B1B7
:1032200001254026012118E040F2FF31536122EAD6
:10323000010102F0F802103A5F2A88BF043181656B
:10324000182300260125B2FBF3F209A39A5C3F2361
:10325000C26503FA02F28A600021466580F83550A3
:103260000846BDE8F08100BFA80200203F8010F0B2
:103270000006101600061016F0B590F83440012C28
:1032800036D00124856D80F8344090F83540012C0B
:103290002BD1022480F835400024446504688668F8
:1032A000D0F840C0C06D2768402E27F480272760E3
:1032B00063600B4608BF1346A36008BF0A463F2160
:1032C000E26001FA00F0BCF1000FA860206840F055
:1032D0001600206003D0206840F0080020602068BD
:1032E00040F0010020600020F0BD002180F8341083
:1032F0000220F0BDED49CA6ACB6A9B1A8342FBD912
:10330000704700BF2DE9F843DFF8A081044698F824
:103310001800012804BF0220BDE8F8830120894677
:1033200088F81800FFF7D8FD00286FD14FF0FF3064
:10333000394FC9F800002068012813D1386920F4FA
:1033400040703861386940F004003861206939699B
:10335000000280B2084307F0AEFC396921F0040195
:1033600039612DE0A068C10005468E1CE168084463
:10337000854221D2386920F4407038612069C1B299
:10338000000203294FF4407138BF81B23869084305
:103390003861386920F07800386138693043386125
:1033A000386907F088FC396921F07A01396128B958
:1033B000A06808360135D9E7002001E0C9F80050BF
:1033C000396889050FD5396821F400713960396889
:1033D00041F400613960396821F40061396039686D
:1033E00041F400713960396849050FD5396821F415
:1033F00080613960396841F480513960396821F45D
:1034000080513960396841F480613960002188F861
:103410001810BDE8F88300BF003C02400F21016096
:103420000E494A8882604A78CC2A01D1CC2203E036
:103430004A78AA2A18BF552202610A6802F0E002FF
:103440000276097801F00C01416170470348017868
:1034500041F002010170FFF73FBD00BF143C024084
:10346000F8B5124E0546307E012804BF0220F8BD93
:10347000012014463076FFF72FFD98B90C4F3868BD
:1034800020F440703860386840F400703860386864
:1034900040F0010038602C60FFF71EFD396821F014
:1034A0000101396000213176F8BD00BF24020020FF
:1034B000103C02402DE9FE4F614A08244FF0010AFA
:1034C0004FF0000B4FF0000890425E4A08BF0724FF
:1034D0008305024443EA9222072A38BF1446009427
:1034E0000022B8F1100F08BFBDE8FE8F0F680AFA7E
:1034F00008F917EA090700F09D80D1F804C00323FA
:10350000019203FA0BF60CF0030EF243AEF1010642
:10351000012E13D88668D1F80CA00AFA0BF41640D5
:103520004FF0010A34438460CCF30014466804FA77
:1035300008F426EA09063443446005E0BEF1030FAF
:1035400002D14FF0030E21E0C4688E68144006FAE1
:103550000BF63443BEF1020FC46017D1019B03F098
:103560001C040F2303FA04FC6FF0030303EA58055D
:1035700005442E6A26EA0C0C0E6906FA04F444EAA5
:103580000C042C62D1F804C00CF0030E05680EFA8E
:103590000BF415402C4304601CF4403F019A49D0C1
:1035A000002328F003060293294B1C6844F480444E
:1035B0001C601C680F2304F48044029402F00C0485
:1035C00003FA04F5204B9C461E44029B214B9E4669
:1035D000F358AB43009D05FA04F4234346F80E303C
:1035E000DCF808304D6843EA0704EE0258BF23EACE
:1035F0000704164BCCF80840AE029E461B6843EA0F
:10360000070458BF23EA0704CEF80040AE03DCF8F5
:10361000043043EA070458BF23EA0704CCF8044007
:10362000ED03DCF8003043EA070458BF23EA07043F
:10363000CCF8004004320BF1020B08F1010850E70E
:10364000001C02400000FEBF003C01400C3C014059
:103650004438024008FCFFFF10B511494FF47A725C
:103660004968B1FBF2F14A1E0021B1EB126F13D190
:103670000C4BF0245A600C4A147099600721012405
:103680000F28196009D84FF0FF300F2100F010F813
:1036900006480472002400E00124204610BD00BF4B
:1036A0000000002010E000E023ED00E0A802002070
:1036B00010B5104A00F00F030F4C043B02442344A2
:1036C000002848BF03F10C0220684FF0FF34C0F31C
:1036D0000220C31E80F0070038BF0023042828BF43
:1036E000042004FA00F021EA000098400001107064
:1036F00010BD00BF00E400E00CED00E010B5014695
:103700004048D0F8E04469B107F057FC26D1D4F81E
:10371000B802826912B30020C4F8D4022046BDE882
:1037200010401047D4F89402032817D1B4F8603140
:10373000D4F85801984212D9D4F86421C11AD4F8A7
:10374000C8029942C4F858111A44C4F8642188BFC9
:103750000B460021BDE8104009F008BF10BD07F07E
:103760002CFC08D1D4F8B802016921B10020C4F8BA
:10377000D402204688472046BDE8104009F045BDE8
:1037800081B0204A00231168009300F00F0340B27B
:1037900003EBC303002802EB830202F5157348BF55
:1037A00002F1140318785A784001012A14D101F566
:1037B00010610A58B2F1FF3F21DC734607F01AFA94
:1037C0009E46009B01330093009B934217D80B58F1
:1037D000B3F1FF3FF5DD12E001F530610A58B2F1B7
:1037E000FF3F0CDC734607F005FA9E46009B013351
:1037F0000093009B934202D80B58002BF6D401B0E3
:10380000704700BFBC9300202DE9F84FDFF8F0347B
:10381000012493F89C24D3F8E0A48AF8AA2202F0A9
:103820001F070AF2AA2893F89DB4022F8AF8ABB2B8
:1038300093F89E9493F89F6449EA062EAAF8ACE2A6
:1038400093F9A0C493F8A1545FFA8CF141EA0520E2
:10385000AAF8AE02B3F8A234AAF8B032CAF8983285
:10386000CAF8944202F060040FD0012F21D097BB18
:10387000CCB3402C01D0202C28D1DAF8D4020AEBAA
:103880008000D0F8B80282680EE0002C47D0402CAF
:1038900001D0202C1AD10020CAF8D402DAF8B802DC
:1038A0008268002A00F02A8250464146BDE8F84F5F
:1038B00010471CB1402C01D0202C07D19AF89C0253
:1038C0000138022898BFBCF1010F44D95046BDE829
:1038D000F84F09F082BCDAF8C80202F08001BDE8B6
:1038E000F84F09F061BEBBF1090FEFD8DFE80BF02C
:1038F0000671057D0589BC05D2DFE7E79AF89C02D1
:1039000001380228E2D8022BE0D1DAF8A40203221F
:103910005146002808BF012241F80C2F9DE1BBF160
:10392000000F2DD0BBF1010F40D0BBF1030FCDD163
:103930009AF89C0203283ED1BEF1000F40F00D81A1
:10394000480600F00A81002B40F00781DAF8C8022F
:1039500009F02AFE01E1DAF8B8028268002A00F0D4
:10396000CD8100204146CAF8D40250469047BAF8AB
:10397000B012002940F0C281002800F0EE80BDE1C5
:103980009AF89C02032800F0B58002287FF49EAFCD
:1039900048067FF49BAF0AF5AA71BCF1000F48BF3F
:1039A0000AF11401002001F80E0F56E19AF89C026A
:1039B000032800F0C38002287FF488AF48063FF454
:1039C00085AFDAF8C80209F0EFFDDAF8C802802105
:1039D00085E79AF89C02013802283FF677AFBEF1DE
:1039E000010F40F08B81002008E0BEF1020F00F0D3
:1039F000B280BEF1010F7FF469AF0120CAF8A402C2
:103A0000ABE000287FF462AF002B7FF45FAFBEF124
:103A10007F0F3FF65BAF9AF89C0203283FF456AF46
:103A2000DAF8C8028AF89E9290F89414012913D00B
:103A300080F811900168D1F8002822F4FE62C1F8E4
:103A40000028002280F8942409F07F00D1F8002893
:103A500042EA0010C1F8000807F005F9B9F1000FBB
:103A600040F0DA80012001E10020ADF80200701E74
:103A7000062800F23D81DFE810F007007D00860097
:103A80003B013B0193009F00DAF8B4129AF8100052
:103A90000A6819E1012B7FF419AF9AF89C02411EC4
:103AA00002295FD20020514641F8080F5FE0954C93
:103AB000B9F1020F84F80090BFF408AF9AF89C02A5
:103AC000032800F08780022840F0A880B9F1000F99
:103AD00043D0DAF8B802CAF80490002800F0C38096
:103AE0000268504649469047002800F0BC8007F025
:103AF000B7F891E001F00F00BCF1FF3F00EB800050
:103B00000AEB8000D4BF90F8230090F863010028EE
:103B10003FF4DCAE01F07F00BCF1FF3F41F08001DB
:103B200000EB80000AEB800202F11400C8BF02F52E
:103B3000AA70802940F07A8000218BE0BEF1000F4E
:103B400040F0DC80480603D0DAF8C80209F000FC37
:103B500007F089F89FE68AF8A0525046BDE8F84F72
:103B600009F053BB03287FF4B1AE0AF104015046BB
:103B7000012274E09AF81010DAF8B802002900F077
:103B80007980C16A77E0B9F1050F00F2B180DFE812
:103B900009F00385898D9195DAF8B402426890E0C6
:103BA0009AF81000002840F0A380DAF8B802416BC0
:103BB0000DF1020088478AE09AF81000002840F0D2
:103BC0009780DAF8B802016B0DF1020088470146D0
:103BD000072055E0B9F1000F54D0DAF80400484549
:103BE000BBD0DAF8B8124A68C1B250469047DAF84A
:103BF000B80221780028CAF80410AED002685046F6
:103C000090470028A9D007F02BF8DAF8B8029AF804
:103C10000410426850469047022027E007F020F841
:103C2000DAF8B8024946426850463FE60CF07F0297
:103C3000DAF8C812BCF1000F02EBC20201EB8201FC
:103C400001F2562248BF01F11602117800293FF413
:103C500073AF0121817300F10E0150460222BDE8CD
:103C6000F84F09F0C8BA06F0FEFF03208AF89C025C
:103C7000BDE8F88F816A0DF10200884701460220F5
:103C8000487025E00220CAF8049000218AF89C02BE
:103C9000DAF8B8024268504690475EE7DAF8B402B4
:103CA00082680EE0DAF8B402C2680AE0DAF8B40218
:103CB000026906E0DAF8B402426902E0DAF8B40216
:103CC0008269AAB19AF810000DF1020190470146ED
:103CD000BAF8B02282B1BDF8020048B1904238BFB4
:103CE00002465046ADF8022009F085FABDE8F88F8B
:103CF00006F0B6FFBDE8F88F06F0B5FFBDE8F88F17
:103D0000BC930020A0C00120944989694968C1F38F
:103D10000353C1F342320270C1F3034203EB830346
:103D200002EB4302C1F30113C27001F00F0243EA38
:103D3000830302EB430282700A0AC1F30321D20615
:103D400048BF0A3141707047844989698A6A426074
:103D50000A696FF3DF3282600968C1F30213C1F3AD
:103D60008052C27001F00F0203EB830302EB4302A7
:103D7000C1F302338270C1F3032203EB830302EB2E
:103D800043024270C1F30342C1F3015141EA810190
:103D900002EB4101017070472DE9F0416F4C0221A7
:103DA00094F83420012A5DD084F83510012145783B
:103DB00084F83410E90642BF05F0EF0101F10A056D
:103DC00045702146CA2351F8182F5362532353627A
:103DD00090F800808778C678084607F029FA08B17D
:103DE000012139E009200921092E88BF31460A2224
:103DF000B1FBF2F1092D01EB8103A6EB430343EA8A
:103E000001114FF0090388BF2B46C9B2B3FBF2F38F
:103E100003EB8306A5EB460545EA0313DBB21B0261
:103E2000092F88BF384643EA0141B0FBF2F0362241
:103E300010FB027242EA001000F03F00084440EA22
:103E40004831204650F8182F516007F013FA01212D
:103E500010B984F8351000210020FF2284F83400C6
:103E6000A06942620846BDE8F08100BF2DE9F84331
:103E70003A4D0446022095F8341001296BD085F89C
:103E80003500012085F83400A8698168490659BFCA
:103E90004FF0000884F80380E1784FEA8158CA2186
:103EA00041625321416205F118002778667894F841
:103EB000029007F0BDF908B1012046E00920092170
:103EC000092F88BF39460A22B1FBF2F1092E01EB16
:103ED0008103A7EB430343EA01114FF0090388BFB5
:103EE0003346B3FBF2F303EB8307A6EB470646EA40
:103EF0000313DBB21B02B9F1090F88BF484643EA3E
:103F00000141B0FBF2F000EB8002A9EB420242EA71
:103F10000010C0B20844124940EA08000140284697
:103F200050F8182F1160916821F480219160D4E934
:103F30000313194393681943916007F09BF90146F5
:103F4000012011B985F8350000200021FF2285F8F5
:103F50003410A9694A62BDE8F88300BF1C03002041
:103F60007F7F7F00B0B5074901F144053CCD80E873
:103F70003C004A6D02618A6D4261CA6D096E8261C0
:103F8000C161B0BDA0980020B0B586B004460568F8
:103F9000006D4FF4806105910021000404914021DF
:103FA00001900D200391029001A9284607F0E2FD3F
:103FB00028460D2106F07CFF18B106F017FF0020FF
:103FC00003E020684069C0F3432006B0B0BD0000A4
:103FD000F8B5044600680268C168466915074FEAEB
:103FE000826351D001F4907706F00106BF194FD0DB
:103FF000D70705D0CF0503D5676C47F00107676485
:10400000570704D51EB1676C47F002076764920733
:1040100004D51EB1626C42F004026264002D07D523
:1040200001F02002921903D0626C42F0080262642F
:10403000626C002A59D0002B05D5890603D520468D
:1040400008F0F1FF20684069616C00F0400001F069
:104050000801401802BF00206064F8BD204608F047
:10406000BBFF2068406940063FD506F0E0FEFCD16A
:10407000E06BD0B371490165FEF7AAFFA8B3E06B0E
:10408000016DBDE8F8400847002B01D58B062DD403
:10409000236B012B03D1D30601D5CB062BD41306FA
:1040A00001D50B060BD452061FD549061DD5C16894
:1040B00021F04001C160202084F84100F8BD94F84F
:1040C0004110212911D1A168B1F5805F03D1216987
:1040D000002900F09980216A4A1C22620978416017
:1040E000E18C0139E18409047CD0F8BD2046BDE8AB
:1040F000F84008F098BF00210091016800914168E4
:1041000000910099406940061ED4E08DA18DE28D9A
:10411000002AEAD08142E8D0206850E8030F2168E5
:1041200020F4907041E80302002AF5D106F070FEF9
:10413000FCD1202084F842000020206306F05EFEBF
:10414000FCD102206063F8BDE06BA18D026852686B
:1041500093B2002B4FD08B424DD2E285C069B0F5AF
:10416000807F67D0206850E8030F216820F48070BA
:1041700041E80302002AF5D106F04AFEFCD106F020
:1041800056FEFCD1202084F842000020206306F077
:1041900035FEFCD1F24AD36AE06B816D90F8355060
:1041A000022D39D10568066C2F6827F016072F609D
:1041B0006F6927F080076F610EB9866C1EB12E689B
:1041C00026F008062E602E6826F001062E602E6866
:1041D000F60724D0D66AF61A062EF8D320214165B8
:1041E000032122E0C16821F08001C160C16841F073
:1041F0004001C160F8BD99427FF477AFC069B0F566
:10420000807F7FF472AF9CE7216A31F8022B6FF355
:104210005F222162426063E78021416507E0C26D51
:104220003F2303FA02F28A60012180F83510002151
:1042300080F8341002206063E08DF8BDC1CF000823
:104240002DE9F04F87B000285BD0044690F841007C
:104250008E4E8F4F002800F083802420BC463746C6
:1042600049F20C6584F841002668D4E90201E2694C
:10427000F36823F40053F360336923F44053194384
:1042800031612169F36808436169AB43084318430E
:104290000A231043F0607069A16920F4407008435C
:1042A00026F480617061A7F5704081427F4808BFA5
:1042B0000D2340685CF8281CD9407DA301F007015C
:1042C000595C6368C8401921A0FB0101B2F5004F99
:1042D00019D15A00DB0FFEF7F6FA774B6421B0FBD9
:1042E000F1F203F1805302FB0300322303EBC00021
:1042F000B0FBF1F04FF4F87101EA400100F0070063
:1043000014E001202AE09A009B0FFEF7DCFA6421FA
:10431000694BB0FBF1F202FB0300322303EB001008
:10432000B0FBF1F000F0F00100F00F0001EB021122
:1043300008442021B060306920F4904030617069F9
:1043400020F02A007061F06840F40050F060002016
:10435000606484F8411084F84210606306F0D3BCB6
:104360000025142184F8405002A8FDF7ABFF206817
:10437000484988422DD0484988427FF46EAF0020DA
:104380000190396941F400213961396901F4002152
:10439000019101990190396841F001013960396852
:1043A00001F001010191082106910321CDE90401E9
:1043B0000220CDE90210019802A93046FFF77AF8F1
:1043C00034200121FFF774F937484FF48011016060
:1043D00043E70195B246786940F01000786178694A
:1043E00000F01000019001980195386840F001003C
:1043F0003860386800F00100019007200690032023
:10440000CDE90450022003904FF4C060029001985F
:1044100002A93046FFF74EF8204E21484FF00069C0
:104420004FF4806814218346C6E9000906F11400A0
:10443000C6E90255C6F81080FDF744FF3046FEF786
:1044400089FE00BBB463E663164E002040210BF1E9
:104450007802C6E9021006F114001421C6E9002909
:10446000C6F81080FDF72EFF3046FEF773FE50B9F8
:1044700025200021B463A663FFF71AF90A4820211A
:1044800056460160E9E6FEF7E4FC00BF000002408A
:104490003038024000100140004C0040FC920020E7
:1044A000406402405C93002004E100E00000002032
:1044B00000000000010203049CFFFF0F2DE9F04102
:1044C000044690F8420020281CBF0220BDE8F0817D
:1044D000A1B11D4600202223606484F8423020638D
:1044E0004848A285C66AE285A068B0F5805F01D120
:1044F000206930B14FF000080F4604E00120BDE80C
:10450000F08100278846E08D08B32046202106F080
:1045100043FDF0B95FB1A068B0F5805F0FD008B976
:10452000206960B12068406800F07F0009E02068E1
:10453000002740686FF35F2028F8020B03E0206833
:10454000406807F8010BE08D0138E085DBE70020CB
:1045500000E00320202184F84210BDE8F08100BF74
:10456000A80200202DE9F041044690F841002028DF
:104570001CBF0220BDE8F081A1B19AB100201D4608
:104580006064212084F841001E48A284C66AE28447
:10459000A068B0F5805F01D1206930B14FF000080C
:1045A0000F4604E00120BDE8F08100278846E08C3A
:1045B000A8B12046802106F0EFFCE0B927B117F83A
:1045C000010B2168486006E038F8021B20680027CC
:1045D0006FF35F214160E08C0138E084E7E720461B
:1045E000402106F0D9FC202184F84110002818BF92
:1045F0000320BDE8F081202084F841000320BDE8BD
:10460000F08100BFA8020020FEE70000F0B50D4ACF
:1046100000264FF00A0C0A24002594B1B1FBF2F7F2
:1046200007F1300307FB1211B2FBFCF28355FBB21A
:104630002B431F461CBF771C01231D44013C3E46F3
:10464000EBE7F0BD00CA9A3B70B501310023372477
:1046500072B1060F01F8023B04EB1075B0F1204F68
:1046600038BF06F1300501F8035C013A0001EFE7BD
:1046700070BD0332013092086AB10B68013A00F84C
:10468000013C0B681B0A03704B884370CB780431E4
:1046900083700430F0E770472DE9F04FD5B0D0E9D2
:1046A00000868568D0F80CE00790002215AB402A00
:1046B00003D08C589C500432F9E705EA060215989D
:1046C0002EEA0601169CDDF85CC00A95DDF86090C4
:1046D0000896CDF824E0CDF818804244DDF88880B3
:1046E0001144FC4A0C9474441390CDF850C0CDF89A
:1046F000409001441998CDF80480114406EB716292
:104700000E9025EA020302EA06016544DDF86CC05A
:1047100023441944F04BCDF814C0194402EB315432
:1047200026EA040304EA02014E442B441944EB4BED
:10473000194404EBF13322EA030503EA04010244BD
:104740001A9835442944E64D0B90294403EBB121D6
:1047500024EA010601EA030504441C9832442A4471
:10476000E04D04902A4401EB726223EA020602EA59
:104770000105634434442C44DB4D2C4402EB345695
:1047800021EA060506EA020401441D982B4423444D
:10479000D64C0D90234406EBF33E209B22EA0E05F7
:1047A0000EEA060402441E98294412932144D04C78
:1047B000119021440EEBB12126EA010501EA0E0415
:1047C0002A4485191F982244CA4C0F90224401EBB9
:1047D000726B2EEA0B040BEA01022C4400EB0E056F
:1047E0001846DDF82CE02244C34C22440BEB325A2D
:1047F00021EA0A040AEA0B02194408EB0A062C44CF
:1048000022444AF24F44121B0AEBF2392BEA090404
:1048100009EA0A0221441144B84A1144219A09EBD9
:10482000B1252AEA050402EB0B0705EA0901029209
:10483000239ADDF830B0DDF838A03C442144B04C78
:1048400002EB0903214405EB716429EA040704EA39
:1048500005019146249A3E44CDF800903144A94E7A
:104860000392314404EB315725EA070607EA0401B5
:10487000154433441944A44B194407EBF13324EA9B
:10488000030103EA07065C442944A04D314423EAAE
:1048900007062944344403EBB12101EA070521EA64
:1048A000030667442C449A4D3E442C4401EBF464C7
:1048B00004EA0305034424EA010713983544954E9E
:1048C0003B44354404EBF55505EA0106014425EA6D
:1048D00004070F983344904E3944334405EBB343F7
:1048E00003EA040623EA050774443144FC4E3C44C1
:1048F000314403EB313101EA0506054421EA03079F
:1049000011983444F74E3D44344401EBF46404EA16
:104910000306134424EA01074A463544F24E3B4459
:10492000354404EBF55505EA010625EA0407514430
:104930003344EE4E3944334405EBB34303EA0406F3
:10494000044423EA050710983144E94E3C443144BD
:1049500003EB313101EA05064D4421EA0307DDF896
:1049600010903444E34E3D44344401EBF46404EAD3
:104970000306034424EA01070D983544DE4E3B4408
:10498000354404EBF55505EA010625EA0407014420
:104990003344DA4E3944334405EBB34303EA0406A7
:1049A00023EA050744443144D54E3C44314403EBEB
:1049B000313101EA050621EA03073444D14E34447B
:1049C000149E01EBF464354404EA030CCE4E4B44D0
:1049D0003D4424EA010765443B44DDF808C0354402
:1049E00004EBF55505EA010625EA04076144334462
:1049F000C64E3944334405EBB34303EA040674441A
:104A0000DDF83CE03144C24E314403EB313181EA00
:104A1000030686EA0507054412983C44BD4F03444B
:104A200014983C44674601EB347466403544BA4EF2
:104A3000354484EA01061144139A04EB75556E401F
:104A40003344B64E334485EA04065C44DDF840B096
:104A500005EB33435E403144B14E314483EA0506F1
:104A60005544DDF844A003EB71214E403444AD4E73
:104A7000344481EA03064B4401EB34746640354408
:104A8000A94E354484EA0106714404EB75556E4025
:104A90003344A64E334485EA04064444DDF81480CA
:104AA00005EB33435E403144A14E314483EA0506B1
:104AB000154403EB71214E4034449E4E344481EA48
:104AC00003065B4401EB3474664035449A4E35442A
:104AD00000F024B878A46AD756B7C7E8DB70202462
:104AE000EECEBDC1AF0F7CF52AC68747134630A86E
:104AF000019546FDD8988069AFF7448BBED75C8995
:104B00002211906B937198FD8E4379A62108B449C8
:104B100062251EF640B340C0515A5E2684EA010663
:104B2000414404EB75556E403344844E334485EA6A
:104B30000406544405EB33435E403144804E314417
:104B400083EA05066544DDF80CC003EB71214E4095
:104B500034447C4E344481EA0306634401EB3474EC
:104B600066403544784E354484EA01060144009895
:104B700004EB75556E403344744E334485EA0406A5
:104B8000144405EB33435E403144714E314403EB32
:104B9000712161EA05064D445E4034446D4E344453
:104BA00001EBB46464EA030603440B983A194E40DF
:104BB0003544694E354404EBB55565EA01060144B8
:104BC0000C9866403344654E334405EB734363EA07
:104BD0000406644C6E403144614E314403EBF121D4
:104BE00061EA05065D445E403244129E224401EBB8
:104BF000B26262EA030473444C402C445A4D2C4484
:104C000002EBB45464EA010501440D9855402B446D
:104C1000564D2B4404EB734363EA020502440198AA
:104C200065402944524D294403EBF12161EA040512
:104C300064445D402A444F4D2A4401EBB26262EA6B
:104C4000030543444D402C444B4D2C4402EBB454DB
:104C500064EA010501440E9855402B44474D2B440E
:104C600004EB734363EA0205024406986540294455
:104C7000434D294403EBF12161EA04053444149EB9
:104C80005D402A443F4D2A4401EBB2621518079853
:104C9000056062EA030533444D402C443A4D2C44F0
:104CA000099D02EBB4542544C56064EA01055144F2
:104CB00055402B44354D2B440A9D04EB734363EA66
:104CC00002021D4462408560089D1144304A1D4423
:104CD000114405EBF121416055B0BDE8F08F00BFF4
:104CE000AAC7B6E95D102FD65314440281E6A1D8B5
:104CF000C8FBD3E7E6CDE121D60737C3870DD5F44E
:104D0000ED145A4505E9E3A9F8A3EFFCD9026F6752
:104D10008A4C2A8D4239FAFF81F6718722619D6D96
:104D20000C38E5FD44EABEA4A9CFDE4B604BBBF6D0
:104D300070BCBFBEC67E9B28FA27A1EA8530EFD49F
:104D4000051D880439D0D4D9E599DBE6F87CA21F8B
:104D50006556ACC4442229F497FF2A43A72394AB99
:104D600039A093FCC3595B6592CC0C8F7DF4EFFFA7
:104D7000D15D84854F7EA86FE0E62CFE144301A32D
:104D8000A111084E827E53F735F23ABDBBD2D72A25
:104D900091D386EB2DE9F0478A468046D0E90001A1
:104DA0001446630F10EBC202C0F3C5005941C0F1B5
:104DB0004006A642C8E9002101D9002618E008F102
:104DC0001809514632464844FDF7F5FD08F108053B
:104DD00049462846FFF760FC06F14007A74206D87F
:104DE0000AEB06012846FFF757FC3E46F4E7002091
:104DF00040440AEB0601A21B1830BDE8F047FDF75E
:104E0000DABDB0B505F046FF10D095F81C0470B1BE
:104E100006F01AF8687A022808D106F015F8D4F8D6
:104E2000C8020121BDE8B04008F0BEBBB0BDD5F856
:104E300018040028ECD0687A0028E9D105F0D2FEE9
:104E4000E6E70000B0B505F025FF18D00C4885F85E
:104E50003C1405F5866281210D23C5F8300400203D
:104E60002872D4F8C80208F0F3FBD4F8C80205F59C
:104E7000826201211F23BDE8B04008F077BBB0BDBE
:104E800055534253ADF6781DDFF8C84D0020DFF8CA
:104E9000C86D8DF877002046B047DFF8C00DB047E9
:104EA000DFF8BC5D2846B047DFF8B80DB0472846AC
:104EB000B047DFF8B40DB0472046B0470FF6AC500E
:104EC000B0470DF59E62DFF8AC8D02F1200007902F
:104ED0003FAF07F148000A9002F108000B900DF572
:104EE0001260083006900DF23C4000F169010C910F
:104EF00000F148013030089109907FA800F10801C5
:104F000000F5A07500F1200B129100F582711C953F
:104F1000CDF868B00D9100F184010F91011D0E9143
:104F200002F11601159102F110011191811C1091ED
:104F300000F13F01189100F11C011B9100F14001AB
:104F4000DFF8340D1991DC4938300590C868B0F1AC
:104F5000FF3F04DCD9480860D9480860C8687FA8CA
:104F60000C46FEF75BFAE06840F6FF7140F0004047
:104F7000E060DFF8084D81986FF31F30401A18BFCA
:104F8000012040006061DFF8F80CB047DFF8F40C56
:104F9000B047DFF8F40CB047DFF8F00CB047DFF8AB
:104FA000F00CB0476069DFF8EC1C0028DFF8E80C73
:104FB00008BF0846B047DFF8E40CB047DFF8E00C64
:104FC000B047DFF8E00CB0470FF6DC40B0470FF613
:104FD0001850B047DFF8500DB047DFF8500D05F01E
:104FE00098FE0DF17701FFF769FA9DF87710A1F1AE
:104FF0003100102800F2FF83DFE810F01100DD140B
:105000007415D0140415B51AD81AF71A1415CC143F
:10501000CC14CC14CC14CC14CC14CC14000400202C
:105020008DF87800AAE300208DF8F004DFF8000D79
:1050300007F020FFDFF8446CDFF8F80C012206F1DE
:105040003809494609F078FFF8B10446DFF8E80C62
:10505000DFF8046CB0477FAD21462846FFF7D6FA4B
:1050600028461C9D4FE0DFF8D40C07F003FF85E3D2
:1050700000208DF82007DFF8C80C05F0CBFF58B3EF
:10508000DFF8C00C07F0F6FE78E3DFF8BC0C07F0A1
:10509000F1FE12F0C5FA7078002800F0B880DFF851
:1050A000AC5CDFF8AC0CDFF8B06B012407F0E2FE7B
:1050B000DFF8C80B4278601E904229D20DF5FE7AC7
:1050C000DFF8902C8021234600955046FBF754FAD8
:1050D000013480355046E9E7DFF87C0C07F0CAFE62
:1050E0000DF59E6630460FF001FD002800F0968019
:1050F0000446DFF8680CDFF8606BB04761427FACB4
:1051000005F04EFF2046B047DFF8540CB04735E3BA
:105110007FACDFF8503C05F0B5FF05F0B5FEDFF8D9
:105120000C0C0024006840681C9DDFF8000C0DF595
:105130009E6105F007FD9DF8F00440F02001612913
:1051400060D0A0F131013038C9B20829DFF82C1B3A
:1051500005D84978C2B204468A4201D810E049789D
:105160000A29E2D3C2B2092ADFD804EB8402002460
:1051700000EB42000206D8D0C2B204468A42D4D81C
:10518000DFF8C81BC0B20DF5FE7ADFF8DC2B05F0A6
:10519000CEFE504605F0D9FD05F039FFDFF8CC0B07
:1051A00007F068FEDFF8C85BDFF8880B21467F2236
:1051B000686005F18800FBF714FD4248DFF8B41B76
:1051C000C5F80801002085F80701DFF8AC0B08F0EE
:1051D0007BFE04460028DFF8A40BDFF8A45B0AD0AE
:1051E000DFF8A00B07F046FE61425046FFF70EFACB
:1051F000DFF86C5B504607F03DFE284605F0BAFD2F
:105200001C9DBBE2DFF8800B05F0B4FDB6E2DFF8D1
:105210007C0B05F0AFFDDFF8406AAFE2DFF8280B4A
:1052200007F028FE304612F0BBF9DFF8500A40784C
:10523000002800F0A980DFF8145BDFF8140BDFF81A
:10524000186A012407F016FEDFF8300A4278601E63
:10525000904209D20DF5FE79DFF8F82A05F016FF25
:10526000013480354846EDE77FACDFF8F83A05F0C9
:1052700009FF05F009FEDFF8B40A00240068406861
:105280001C9DDFF8A80A0DF5E46105F05BFC9DF8B4
:10529000200740F0200161296DD0A0F131013038A4
:1052A000C9B20829DFF8D4190ED84978C2B2044629
:1052B0008A420AD819E000BF043C02402301674536
:1052C000AB89EFCD0000020849780A29D9D3C2B2D0
:1052D000092AD6D804EB8402002400EB420002061F
:1052E000CFD0C2B204468A42CBD8DFF8601AC0B22F
:1052F0000DF5FE79DFF8702A05F019FE484605F035
:1053000024FD484607F0B6FDDFF8600A07F0B2FD5D
:10531000DFF85C5A0DF59E6021467F22286005F17A
:105320000800FBF75EFCD048DFF8481AC5F8080112
:10533000002085F88700DFF8580A08F0C5FD04460C
:105340000028DFF8380ADFF8385A0AD0DFF8340AC4
:1053500007F090FD61424846FFF758F9DFF8005A20
:10536000484607F087FD05F005FE0DF59E600CF040
:105370007DF81C9D02E2DFF8100A07F07BFD0DF5B9
:105380009E600CF073F8F9E1DFF8080A07F072FD8F
:1053900030460CF06BF8DFF8C068EFE1284340F0CE
:1053A000C08100210120169117910025C00700F04F
:1053B000B681002D40F0B3817FADDFF87009012286
:1053C00041F288332946FFF779F810B14FF0000910
:1053D00031E09DF8FC21012A70D0612A0AD0042A0C
:1053E0000AD0182A0CD0412A04D0022A1DD14FF429
:1053F000806965E0022019E04FF00009002017E005
:10540000DFF828092946012241F28833FFF756F8D0
:105410009DF8FC2182F018010843B0FA80F118BF12
:10542000012049094FEA410902E001204FF000093B
:10543000DFF864190A7002280ED000286CD1B9F187
:10544000000F00F05981B9F1020F0ED105F0E2FB17
:10545000022500270120A9E7182007F0F7FC1820F3
:1054600007F0F4FC02250120A0E7DFF82C19179AB9
:105470008978D0B2814240F04481002A62D0DFF8BE
:10548000FC074FEA99080027856A474580F0B180FC
:105490007648854200F2AD80DFF8FC08002300EB7F
:1054A000870428466268FDF7DBFF002844D1606866
:1054B0002968814240D101370435E6E74FF0800981
:1054C000DFF8D4B849F00405DFF8600841F288330A
:1054D000594601F8022B2A46FEF7F0FF10B1DDF81D
:1054E00068B073E79BF803109BF8020081F0FF019E
:1054F00088420FD1DFF8A02849F00501505D515CCA
:1055000041EA00254846FDF773FC854202D1DDF8EB
:1055100068B094E7DDF868B0002C18BF0137062F9B
:1055200004D3182007F092FC182000E0432007F075
:105530008DFC0025012039E71820182407F086FC8F
:1055400004255DE0DFF850080079002800F0DF80D6
:105550003FACDFF84828139F00210DF23C4540B1D5
:105560003F2906D85054DFF830080844013140790B
:10557000F5E700205054DFF82028114405310A5C7B
:10558000202A06D00F2804D80DF59E631A54013046
:10559000F5E700210DF59E6211549DF8F0043028C6
:1055A00034D19DF8F10440F0200078282ED100235A
:1055B00002200B285CD00DF59E61095C00295BD0B0
:1055C000A1F14102062A02D26FF036020CE0A1F1ED
:1055D0006102062A02D26FF0560205E0A1F1300204
:1055E000092A48D86FF02F021144013001EB031350
:1055F000DFE7DFF8881600250624886A48448862B9
:10560000DFF85466DFF86C86179F6CE000200022FC
:105610000A2830D8012A2ED00DF59E62125C1AB1EC
:105620006B2A04D130B926E001220F4605E030B1E3
:105630004B2A04D18F02012239460130E8E76D2A56
:1056400001D118B917E018B14D2A01D10F05F2E7C1
:10565000A2F13003092B0ED801EB810102EB4101CD
:1056600000223039E9E700BF00000208FBFF0F0805
:105670009DF8FB0400B13B46D6481493834214D3F3
:10568000DFF8A8761820294601224FF480138DF800
:105690003C043846FEF766FF3846294601224FF49F
:1056A0008013FEF75FFF052500E00025CA49179F1C
:1056B000C868B0F1FF3F04DCC8480860C84808600B
:1056C000C868F320886002202146CDE982000520C9
:1056D000819000207F907FA8FDF714FE05F09AFAD4
:1056E000149843241390204607F0B0FB01370120A3
:1056F00001241797002759E605F08CFA00200027AF
:1057000053E6152007F0A2FB002701204DE605F027
:1057100081FA0121002000271691002144E6169805
:105720003CE6052D21D8DFF87806DFE805F0031EFA
:105730001B1E212305F05BFADFF86806B047DFF88F
:105740005C06B0470DF5E464149905F029FCDFF818
:105750005806B0472046B047DFF85006B047DFF89C
:10576000500607E0DFF84C0604E0DFF84C0601E0E5
:10577000DFF8480607F07EFB3FAF1C9DDFF84006D0
:10578000B047DFF84006B047DFF83C06B047DFF827
:105790003C06B047DFF83806B047DFF88C05B04765
:1057A000DFF8880505F0B5FA1EA9FEF787FE9DF81B
:1057B0007800303803283FF656ACDFE800F06F067B
:1057C0000402FFF755BCFFF72EBC00200021149007
:1057D000DFF80006CDF82717CDF82417CDF82017ED
:1057E00007F048FB7F48DFF89414002700240025C9
:1057F00088620020D2E5612942F0CC8000208DF83B
:10580000FB00DFF8D405B047DFF8D005B047DFF87C
:10581000D005B047DFF8CC05B047DFF8CC05B0477E
:10582000DFF8C805B047DFF8C805B047DFF8C405A2
:10583000B047DFF8C405B047DFF8C005B047DFF870
:10584000C005B047DFF8BC05B047DFF8BC05B0477E
:10585000DFF8B805B047DFF8D40405F05AFA0DF1C7
:10586000FB01FEF72BFE9DF8FB00A0F13001122991
:1058700067D8DFE811F0130017007E0A590B3B0BC5
:10588000470B750AEE0B500B8A0A720A720A720AEB
:10589000720A720A720A720A6B0A6C00DFF87005EB
:1058A00003F016BFDFF86C0507F0E4FADFF86805CF
:1058B000FBF730F8DFF86405FBF72CF808F05AFF27
:1058C000002844F0DB83DFF85805FBF723F808F0E5
:1058D000C1FF002801F0D383DFF84805FBF71AF871
:1058E000DFF84405DFF8441505F0FBF918B1DFF8DF
:1058F0004005FBF70FF8DFF83C05DFF8301505F041
:10590000F0F918B1DFF83005FBF704F87FACDFF8E9
:105910002C15DFF82C25DFF82C352046FAF716FE7B
:10592000DFF82415204642F2107209F07FF90028B2
:1059300044F0AB8308F08EFF002801F0AB8304F045
:10594000ABBB612801F00282622841F00682DFF8D9
:10595000FC9400208DF8BC04DFF8F404B047DFF8B5
:10596000F404B047DFF8F004B047DFF8F004B047C4
:10597000DFF8EC04B047DFF8EC04B047DFF8E804E8
:10598000B047DFF8E804B047DFF8E404B047DFF8D9
:10599000E404B047DFF8E004B047DFF8E004B047C4
:1059A000DFF8880305F0B5F90DF2BC41FEF786FD7E
:1059B0009DF8BC043038092800F21C87DFE810F09D
:1059C000CA091400A3037C02AE024F000004900633
:1059D0004D03AA0602000E00043C02402301674565
:1059E000AB89EFCD00000208DFF8940407F042FA1B
:1059F000DFF89004DFF8903400214FF480520DF569
:105A0000E467815293E8070007C7187B0DF5E4614E
:105A10008DF82C07DFF8740409F02EF9804F002F61
:105A200000F0F28609F046F9A8B1DFF864140546E3
:105A3000FBF700F8002841F05C80DFF85814284696
:105A4000FAF7F8FF002841F06780DFF838040021FA
:105A50004FF48052815205F0EDFA0137DFE7DFF8AD
:105A6000380407F007FA7FA86C21FCF72BFCDFF85D
:105A70002C0407F0FFF9DFF828140DF23C4005F084
:105A8000F6F9AA4800250DF2BC46006840680020DF
:105A90000446A648314605F055F89DF8BC04082890
:105AA00016D00A281ED07F2812D00D281AD0E1B2B5
:105AB0001E29EED8A0F120025E2AEAD80DF23C425F
:105AC00005F09DFA9948314605F045FA601CDFE77C
:105AD00020064FF00000DBD0DFF8C80307F0CAF95A
