:020000040800F2
:100000005086012045030008DB570008FD46000824
:10001000D95700085D2E00085D810008000000002F
:10002000000000000000000000000000BD79000892
:10003000C12E0008000000007F670008C179000899
:100040005F0300085F0300085F0300085F03000808
:100050005F0300085F0300085F0300085F030008F8
:100060005F0300085F0300085F0300085F030008E8
:100070005F0300085F0300085F0300085F030008D8
:100080005F0300085F0300085F0300085F030008C8
:100090005F0300085F0300085F0300085F030008B8
:1000A0005F030008DD7900085F0300085F030008B4
:1000B0005F0300085F0300085F0300085F03000898
:1000C0005F0300085F0300085F0300085F03000888
:1000D0005F030008657C00085F0300085F030008F9
:1000E0005F0300085F0300085F0300085F03000868
:1000F0005F0300085F0300085F0300085F03000858
:100100005F030008596900085F0300085F030008E7
:10011000E57A00085F0300085F0300085F0300083A
:100120005F0300085F030008612E00086D2E0008C1
:100130005F0300085F0300085F0300085F03000817
:100140005F0300085F0300085F03000815580008FC
:100150005F030008792E0008852E00085F03000861
:100160005F0300085F0300085F0300085F030008E7
:100170005F0300085F0300085F0300080000000041
:100180005F0300085F03000800F002F800F0CAF8FF
:1001900014A696E8000CB244B344DA4501D100F04D
:1001A000C1F8BAE80F000FA696E83000A5EB0405E9
:1001B00004EB0607AAEB0704A7F101074FEA1515A0
:1001C0004FEA3414A4F10104AC4201D300F0AAF8C0
:1001D00013F0010F18BFFB1A43F0010300F001F800
:1001E000DBE71847A0ED0100F0ED01000A4410F82C
:1001F000014B14F00F0508BF10F8015B240908BF7C
:1002000010F8014B6D1E05D010F8013B6D1E01F872
:10021000013BF9D1641E03D0641E01F8015BFBD1E0
:100220009142E4D370470000103A24BF78C878C1E7
:10023000FAD8520724BF30C830C144BF04680C60EC
:1002400070470000704700000023002400250026AE
:10025000103A28BF78C1FBD8520728BF30C148BF29
:100260000B6070476E2900F01486702900F07F82C1
:1002700066291AF06F8365291AF06C8367291AF0D2
:10028000698361291AF0688303681B0A28BF41F05B
:100290008001692900F0F081642900F0ED81752961
:1002A00000F0EA816F2901F02381782900F04B8268
:1002B000E92901F0BD80E42901F0BA80F52901F0B7
:1002C000B780EF2901F02081F82900F04A82036805
:1002D000DB0928BF41F08001632901F02C807329DC
:1002E00001F03180E32901F02587F32901F02A8705
:1002F000002070471FB51AF018FB9DE8030000F0BE
:100300001DFD01F0CFFC04000020002119F0BAFF10
:10031000401C60600020002119F0CAFFE0601FBD92
:1003200010B510BD02F032F81146FFF7E3FF15F0EB
:1003300031FD02F089FA03B4FFF7F2FF03BCAFF31B
:10034000008000000948804709480047FEE7FEE7B3
:10035000FEE7FEE7FEE7FEE7FEE7FEE7FEE7FEE775
:1003600004480549054A064B70470000CD7900084E
:100370008901000850560120508601205066012056
:100380005066012070B5064600F0B8FC056806F11D
:100390000B0020F00704B4429CBF002070BD2B4628
:1003A0006A68BAB11068A04210D304F1080188420B
:1003B0003CBF5068586007D35168101941601168FC
:1003C000091B016058601460101D70BD134652680F
:1003D000002AE7D12146284600F09CFC0028DED107
:1003E00070BD70B50446051F00F088FC0068002C45
:1003F00014BF446870BD002C18BFAC423CBF2046FF
:100400006468F8D301680A18AA4218BF456003D18E
:100410002A6805461144016028684119A1421CBFA1
:100420006C6070BD6168696021680844286070BDB7
:1004300070B50D460646041F00F060FC0268BDB1B1
:10044000DEB105F10B0020F00701A9423CBF0020FE
:1004500070BD23688B4238BF506813D35A1A082ADC
:1004600036D3601840F8042B2160FFF7BAFF2FE065
:100470003046FFF7B6FF002070BD2846BDE870404B
:10048000FFF780BF002818BFA0423CBF024640686B
:10049000F8D303EB040C84451CD1D0F800C06344AE
:1004A000994217D8A3EB010CBCF1080F0DD3D0F87B
:1004B00004C06318C3F804C0D4F800C000686044E6
:1004C000401A18602160536002E023604068506069
:1004D000201D70BD2846FFF755FF050008D03146A6
:1004E0002068021F284601F07DFB201DFFF779FFE1
:1004F000284670BD1CB50C46064B7B4469460090EF
:10050000204600F0EEFE04460020694600F0FCFEA6
:1005100020461CBD0B0E00007CB51D4616460C0087
:10052000009007D04142A14202D32044401E01E086
:100530004FF0FF30064B7B442A4669460190304617
:1005400000F0CFFE002C02D0009A002111707CBD7B
:10055000D90D00000FB4044910B503AA029800F0A9
:10056000F7FE10BC5DF814FBF00400200FB41CB5BE
:10057000084B06AA7B4469460090059800F0B1FE3E
:1005800004460020694600F0BFFE20461CBC5DF812
:1005900014FB0000910D00000FB41CB50C0007AA5D
:1005A000009007D04142A14202D32044401E01E006
:1005B0004FF0FF30074B7B4469460190069800F0EE
:1005C00090FE0021002C01D0009A11701CBC5DF837
:1005D00014FB0000590D000070B5044685690068E1
:1005E000C10601D5302600E02026C00707D070BD27
:1005F000D4E9012130469047206A401C20626D1EDC
:10060000F6D570BD70B5044685690078C00707D17E
:1006100070BDD4E9012120209047206A401C20624F
:100620006D1EF6D570BD70B50C460546012A05D085
:100630002878800600D5EA69002302E0012305E05E
:100640005B1C934202D2E05C0028F9D1A869E6184D
:10065000C01AA861286A184428622846FFF7BCFF20
:1006600004E0D5E9012114F8010B9047B442F8D316
:100670002846FFF7C7FF70BD2DE9F041064600246C
:1006800010687529314616A510D000F097FB002898
:1006900002DA404213A507E031688A0701D512A5A6
:1006A00002E0490704D511A5012401E000F08FFB09
:1006B00000210A2206F1240709E0B0FBF2FCB0FB9E
:1006C000F2F302FB1C00303078541846491C002815
:1006D000F3D123462A463046BDE8F04100F080BB06
:1006E000000000002D0000002B0000002000000092
:1006F000F0B40D460188090502D5214C7C4402E086
:100700001F4C7C440E34002100F1240608E002F066
:100710000F071209E75D42EA03721B097754491C6F
:1007200052EA0307F3D102780023120704D5702D93
:1007300006D009B1022311342246F0BC00F050BBB0
:1007400001231034F8E770B504460D4621461068C1
:1007500000F03DFB024629462046BDE870400023DC
:10076000C6E7D21D22F00703D3E90023C0E70368E0
:10077000126843F0200303600823C3610023B7E736
:1007800058A301002DE9F05F894604464FF0000AA6
:10079000DFF874B1FB44C0F820A02046E168884728
:1007A000002874D0252806D0D4E901219047206A7A
:1007B000401C2062F1E700265F462046E16888473A
:1007C0002028054607DB312D05D2781910F8200CBA
:1007D00008B10643F1E7B00701D526F00406C4F8D6
:1007E0001CA00027C4F818A02A2D09D0284619F00B
:1007F000FAFC38B304EB8708303DC8F8185019E00C
:1008000059F8041B204604EB87029161E168884790
:10081000012F054618D1E069002820DA26F02006CD
:100820001DE0D8F8180000EB800005EB40003038E0
:10083000C8F818002046E1688847054619F0D3FC3F
:100840000028EED1012F0AD02E2D08D12046E168D4
:1008500088477F1C0546022F46F02006C4DBA069AE
:10086000002803DA404246F00106A061F00701D0FB
:1008700026F010066C2D0BD0682D09D04C2D39D0E8
:100880006A2D35D0742D35D07A2D33D016E038E06E
:10089000E1682F4620468847B842054609D16C2FAB
:1008A00026D04FF48060E16806432046884705461D
:1008B00004E06C2F1AD04FF4807006430DB3A5F1FD
:1008C0004100192802D8203546F400664A462946D8
:1008D000204626604E46FFF7C5FC80B101280BD0AC
:1008E000F61D26F0070000F1080956E74020E4E76E
:1008F0008020D8E70020D6E706F104094DE7284616
:1009000052E7206ABDE8F09FE8A2010070B50646F4
:1009100000F0F8F90468054630460A22002101F08B
:10092000F1F82C6070BD000001490FF049BD0000D6
:10093000F004002010B5044603E00FF041FD401C18
:1009400009D014F8010B05490028F6D1BDE8104084
:100950000A200FF035BD4FF0FF3010BDF00400202D
:100960000EB5054614460E4613A001F00EF92846B2
:1009700001F00BF916A001F008F9304601F005F975
:1009800015A001F002F900218DF80B100A210DF1DC
:100990000A008DF80A1008E094FBF1F201FB124204
:1009A00094FBF1F4303200F8012D002CF4DC01F05E
:1009B000ECF801F0DFF800002A2A2A206173736541
:1009C0007274696F6E206661696C65643A2000001C
:1009D0002C2066696C6520002C206C696E652000F7
:1009E000014A01F0DDB8000000000020401ECAB23C
:1009F00010F8011F8A4202D00029F9D10020704767
:100A000030B503461D781DB10A4603E0AC4201D162
:100A1000181A30BD12F8014B002CF7D15B1CF1E71E
:100A200010B5431E13F8014F002CFBD105E011F85F
:100A3000014B002C03F8014B03D0521EF7D20021CA
:100A4000197010BD30B503461D783DB10A4612F845
:100A5000014B1CB1AC42FAD15B1CF5E7181A30BD52
:100A600030B505460B462A4613F8014B12F8010B28
:100A700008B1A042F8D01CB1002802D06D1CF1E7EB
:100A8000284630BD40EA010310B59B070FD1042A68
:100A90000DD310C808C9121F9C42F8D020BA19BA49
:100AA000884201D9012010BD4FF0FF3010BD1AB1AE
:100AB000D30703D0521C07E0002010BD10F8013B03
:100AC00011F8014B1B1B07D110F8013B11F8014B2A
:100AD0001B1B01D1921EF1D1184610BD40EA010343
:100AE000024630B59B0710D14FF0013400E008C238
:100AF00008C91D1B9D4315EAC41FF8D013F0FF0160
:100B000002F8011B0DD01B0AF8E711F8013B002B7E
:100B100002F8013B05D011F8013B002B02F8013B24
:100B2000F3D130BD0022CBB210F8011B994200D1A5
:100B3000421E0029F8D11046704710B5431C02E050
:100B400010F8011B71B18107FAD14FF0013202C8D0
:100B50008C1A8C4314EAC211F9D0C01A0A0603D0C9
:100B6000C01E10BDC01A10BD0A0401D0801E10BDE9
:100B70000902FCD0401E10BD40EA010370B59B077E
:100B80002ED14FF00136042A2AD308C810C99D1B64
:100B90009D43121F15EAC61517D0D8B2E1B2401A0C
:100BA00050EA056110D198B2A1B2401A50EA05414D
:100BB0000AD123F07F4024F07F41401A50EA0521FA
:100BC00002D1180EA0EB146070BDA342DBD018BA9E
:100BD00021BA884201D9012070BD4FF0FF3070BDAD
:100BE0000AB9002070BD10F8013B11F8014B63B148
:100BF000A3420AD1521E08D010F8013B11F8014B54
:100C00001BB1A34201D1521EEDD1181B70BD10B50E
:100C1000044610F0030F08BF11F0030F40F01580D9
:100C20004FF0013E121FC0F20E8051F8043BA3EBBF
:100C30000E0C2CEA030C1CEACE1C08BF40F8043B47
:100C4000F0D0A1F1040102F10402521E08DB11F8F8
:100C5000013B00F8013B002BF7D1114600F0F4FFF7
:100C6000204610BD0000000030B44FF0013C50F8A9
:100C7000042B51F8043BCCFA52F4D51A20D1FCB91C
:100C800050F8042B51F8043BCCFA52F4D51A17D182
:100C9000B4B950F8042B51F8043BCCFA52F4D51AED
:100CA0000ED16CB950F8042B51F8043BCCFA52F435
:100CB000D51A05D1002CDAD030BC4FF000007047B7
:100CC00029BAB1FA81F111F01801D1F12000844064
:100CD000F2D1CA40CB4012F0FF0213F0FF0330BC48
:100CE000D01A7047704770477047000010B500F089
:100CF000D9FF001D10BD00BF8D9501000048704751
:100D000028C001200048704720C00120704770476C
:100D10007047704738B504460A4600206946AFF36D
:100D20000080002808BF38BD02460099204600F028
:100D3000BDFF012038BD012001F0F9BAF8B5AFF3CD
:100D40000080054600200C460C2000BF0646A8196E
:100D5000A0420DD9324669460020AFF3008007005B
:100D600008BF01F0E4FA0098A04218BF0546C41974
:100D7000FFF7C4FF05600746F01D20F00700461985
:100D8000284600F00AF8B44208BFF8BDA21B31465D
:100D90003868BDE8F84000F089BF0021016041607B
:100DA00070470C20704710B5FFF7ACFF006810BD0E
:100DB00010B50446FFF7A6FF046010BD09684A0598
:100DC00001D540B27047C905FCD500B2704709682B
:100DD0004A0501D5C0B27047C905FCD580B270473D
:100DE0002DE9F0470D4699469246044600F1240845
:100DF0000168880604D5E06921F01001216000E057
:100E00000120A84201DD471B00E00027A1697A19F3
:100E100002EB0900081AA0612078C00602D420461F
:100E2000FFF7DAFB002608E0D4E901211AF80600F2
:100E30009047206A401C761C20624E45F4DB2078E7
:100E4000C0060AD52046FFF7C7FB06E0D4E901211A
:100E500030209047206A401C2062381EA7F101070D
:100E6000F4DC07E0D4E9012118F805009047206A76
:100E7000401C2062281EA5F10105F3DC2046FFF787
:100E8000C1FB2078000602D50220BDE8F0870120D2
:100E9000FBE711680268006A530501D508700AE093
:100EA000D30501D5088006E0130603D5C217C1E9B2
:100EB000000200E00860012070472DE9FF4F0C465A
:100EC0001E464FF0FF378BB0D2E90001DDF860809D
:100ED0000A908A46C1F30A5505B93D4600210846E5
:100EE0004FF00000BAF1000F00F4400005DA00EB0B
:100EF00080004FF4400101EA50004FEA9059B9F1E7
:100F0000010F00DDB9460A9850EA4A000ED044F6B7
:100F10001050A5F2FF3545432F14B8F1000F1ED035
:100F20007542291E1EDDC9F100021CE0B8F1010F57
:100F30004FF0000001D0302103E0F24305E02154DE
:100F4000401CB042FBDB30460022002121540B99AB
:100F5000C1F80880C1E900200FB0BDE8F08FBD1BCB
:100F60006D1CDEE74A4600DA694206A801F03EF948
:100F700006AB93E8070003AB83E8070050460A99E5
:100F800018F09CFB8DE80700A0F500501F3800907A
:100F90000398002D0ADD42F21F014A46084400234F
:100FA00003A90390684618F047FE09E0A0F5005039
:100FB0004A461F38002303A90390684618F066FECE
:100FC0008DE807000004000C03D04FF0FF3041080B
:100FD00000E01046B8F1000F03D000220092154641
:100FE0001EE0751E05D400F08EFE303262556D1E77
:100FF000F9D5B3460122084302D000227F1C04E049
:101000002078302801D100227F1E002A099784D041
:101010001DE0112D07DA00F076FE303262556D1CAE
:1010200050EA0102F5D1084302D00098C8B10EE0A1
:101030000021681E05E0235C625C63542254401E5C
:10104000491C8142F7DBAB46A81B401E09900020DB
:1010500004F80B000B98099AC0F80880C0E9002B2F
:101060007AE711264FF0000857E72DE9F04F884640
:101070000446D21D22F0070191B0D1E90001CDE96B
:101080000A0118F04FFF02460B98C00F01D02D2027
:1010900007E02068810701D52B2002E0202101EA2A
:1010A000C000032A099001D0072A05DB0346414608
:1010B000204600F0F5FF0BE12078800601D5E069BD
:1010C00000E00620B8F1650F814606D0B8F1660F42
:1010D00018D0B8F1670F70D131E00020B9F1110FCD
:1010E000009001DB112301E009F101030AAA01A923
:1010F0000CA8FFF7E2FEDDE90C70002609F10105FE
:10110000834647E001204B4600904FF000470AAA73
:1011100001A90CA8FFF7D1FEDDE90DB00C995D46E1
:10112000002610B909F101000D18B9EB050003D430
:10113000C0F1FF3609F10105A5EB09002BE0B9F17B
:10114000010F01DA4FF001090020B9F1110F0090F1
:10115000484601DD112300E003460AAA01A90CA8B4
:10116000FFF7ABFEDDE90C704D4600268346207884
:1011700000070AD4AB4500DA5D4601A8012D04DD65
:10118000411911F8011C302907D04F4502DA17F137
:10119000040F04DA012082460FE06D1EEEE7002FF7
:1011A00002DCED1B3E4403E0781CA84200DD7D1C00
:1011B000B81B00F1010A4FF000472078000703D464
:1011C000AA4501DB4FF0FF3A0021B7F1004F0DF1C6
:1011D00043088DF8431024D002202B23002F01DA7E
:1011E0007F422D230A21021EA0F1010000DC5FB125
:1011F00097FBF1FC97FBF1F201FB1C7C17460CF10D
:10120000300C08F801CDEEE7A8F101000370218849
:10121000090501D5452100E06521A0F1010800F88C
:10122000011C09980FA9A1EB0807FF1D00B10120BF
:10123000411901EBEA70A1693844081A401EA06107
:101240002078C00602D42046FFF7C6F9099828B1D5
:10125000D4E901219047206A401C20622078C00612
:1012600022D52046FFF7B8F91EE0002E04DBB34577
:1012700002DD01A8805D00E03020D4E90121904723
:10128000206A401C2062761CAAF101005FEA000A75
:101290000AD100F007FDC0680168405CD4E9012173
:1012A0009047206A401C2062281EA5F10105DCDC65
:1012B00007E0D4E9012118F8010B9047206A401C8F
:1012C0002062381EA7F10107F3DC2046FFF79AF9E8
:1012D000032011B041E6000001694A1C0261087850
:1012E000704700B58FB0CDE9013100210591054966
:1012F0007944CDE9031011466846FFF743FA0FB071
:1013000000BD0000E5FFFFFF0A6802F8010B0A605C
:101310007047D1E900239A4202D2531C0B6010702F
:10132000704710B5436913B1AFF3008001E0FFF7D8
:101330007AF9012010BD127800F124010A70002210
:101340004A700122EDE711684FF0FF32E9E7000033
:10135000074B70B50D467B44FFF7C3FF0446284694
:1013600000F0B6FF10B14FF0FF3070BD204670BDE9
:1013700067F000002DE9FF5F15468A460446DFF856
:10138000AC80F8440027D8E900103E46CDE90010B3
:1013900010E03AF816106A4602A800F09DFF411CC2
:1013A00007D02178890603D5E269391891420DD812
:1013B0000744761C2078800602D5E069B84205DD36
:1013C000AE42E6DB3AF816000028E2D1A069C01B65
:1013D000A0612046FFF700F9D8E90010CDE9001020
:1013E000002017E03AF818106A4602A800F074FFCF
:1013F000B0F1FF3F81460BD000250DF1080B05E051
:10140000D4E901211BF8050090476D1C4D45F7D329
:1014100008F10100B0428046E4DB206A38442062D3
:101420002046FFF7EFF8BDE8FF9F00000E97010090
:101430002DE9F0418046D21D22F007020025D2E9B5
:101440000002F52915A614D0011E72F1000106DA7A
:101450000023D0EB030063EB020211A608E0D8F8EA
:1014600000108B0701D50FA602E0490701D50EA693
:1014700001251146002408F1240704E000F043FC94
:1014800030323A55641C50EA0102F7D12B463246FD
:1014900021464046BDE8F041FFF7A2BC0000000035
:1014A0002D0000002B0000002000000030B40021BF
:1014B00000F1240408E002F00705D208303542EAC2
:1014C0004372DB086554491C52EA0305F3D10468F2
:1014D000002310A2250708D504F020040C4304D0F3
:1014E000C46901230CA2641EC46130BCFFF778BC40
:1014F00010B5044621461068FFF769FC02462046F5
:10150000BDE810400023D1E7D21D22F00701D1E948
:101510000023CBE700000000300000002DE9FF4F62
:1015200006468BB00878FF2806D0491C2D2805D028
:1015300000244FF0000908E000200CE00124F8E747
:1015400009EB8903491C00EB43090878FF28F7D110
:1015500014B1C9F100008146107800252C46AA4636
:1015600029462D2801D02B2804D1521C2D2813D018
:10157000002082468B461078FF280FD04FF0000CD9
:101580000A21521CA5FB017804FB018105FB0C110B
:10159000C5194BEB0104EEE70120EAE700210846FC
:1015A0004FF00000BAF1000F02D000EB80004008BD
:1015B000C0F38157012F01DD4FF0FF370E9955EA37
:1015C000040009EB01080BD04FF0020918F5FA7F6F
:1015D00016DA4FEACA70002F706008DD012007E0BC
:1015E0004FEACA70C6E900B00FB0BDE8F08F002026
:1015F0003060FFF787FBC0F800901821084616E01E
:10160000B8F5FA7F18DD002F02DAF748784401E0D8
:10161000F6487844D0E90010C6E9001040EACA70E4
:101620007060FFF76FFBC0F80090142108460FB000
:10163000BDE8F04F19F08BB9002108464FF00000CB
:10164000B8F10001099002DAC7F1000200E03A4661
:1016500001DAC8F1000106A800F0C8FD06AB93E866
:10166000070003AB83E8070044F23E005BEA040195
:101670000090584604D144F21E012C465D4600916C
:10168000210C0904014306D10099240444EA1544BD
:101690002D041039009104F07F41014306D10099D7
:1016A000240244EA15642D020839009104F07041C7
:1016B000014306D10099240144EA15742D01091F44
:1016C000009104F04041014306D10099A40044EA8E
:1016D0009574AD00891E009104F00041084304D1C7
:1016E00000986D196441401E00904FF001033A4686
:1016F0006846B8F1000FCDE9014503A902DD18F0F5
:10170000DAFA01E018F0ADFABAF1000F04460D461E
:1017100001D084F00044002108464FF000000999F0
:1017200040F2FF77484010F00C0F07D124F0004042
:10173000284303D0C4F30A50B84212D1FFF7E2FAAB
:10174000C0F80090C4F30A50B8420AD1A8487844BF
:10175000D0E90010C6E9001004F0004108437060B1
:1017600042E7C6E900543FE72DE9FF4F1F464FF01F
:10177000000A4FF0FF38454691B0D7E90146CDF851
:101780003CA000F08FFAC0680168405C1090B96915
:1017900012986D1C8847396A814688470028F6D11F
:1017A000B9F1FF3F0AD0002E24F4D06411DDB9F165
:1017B0002B0F08D0B9F12D0F0BD102E0404615B028
:1017C00013E744F48064B96912986D1C8847761E4B
:1017D0008146600504A901D52D2000E02B20002EB4
:1017E00001F1010B0DF130088DF810003FDDB9F16A
:1017F000690F08D0B9F1490F05D0B9F16E0F02D0C9
:10180000B9F14E0F1CD13B4601A8009580E850026B
:10181000DDE912126FF0020019F004F9C11CCED1FB
:101820000EE0B96912986D1C884781461398761EA0
:1018300044F4007405600F98401C002E0F9016DDD4
:10184000B9F1300FEDD0B9F1780F02D0B9F1580FDE
:101850000DD10F9801280AD13B46CDE90054DDE9AE
:101860001212001F029619F0DBF8C11CA7D11099C3
:1018700089453ED144F0800406E01399681CAAF122
:10188000010A44F400740860B9696D1C1298761E50
:10189000884730288146F0D02BE01099894505D142
:1018A000200603D4761E44F0800418E0484618F061
:1018B0009AFC08B3761E0DF123029345A9F130007E
:1018C00044F4007406D20BF8010B200607D5AAF1E8
:1018D000010003E0200602D40AF101008246A005BF
:1018E00002D51399681C0860B96912986D1C884765
:1018F0008146002ED1DC53E0002E51DDB9F1650F99
:1019000002D0B9F1450F4BD1A00549D5B9696D1C7D
:101910001298761E24F440748847002E81460CDD10
:101920002B2804D0B9F12D0F07D144F48074B96984
:1019300012986D1C8847761E8146E00501D52D2141
:1019400000E02B2108F8011BCDF8008021E0761E75
:101950000DF13901884544F400740CD2A9F130002E
:1019600010F0FF0088F8000002D10099884509D9DD
:1019700008F1010806E0E00501D51E4801E042F249
:101980000F708246B96912986D1C8847814613987A
:101990000560002E04DD484618F025FC0028D6D14D
:1019A000F96912988847FF2053468BF8000088F8A1
:1019B000000000200A900B9004AA0CA90AA8FFF7C7
:1019C000ADFDA00502D46FF00100F8E614F0240F7D
:1019D00012D0E0071CD13868DDE90A12031D3B6014
:1019E0000068C0E9001213E0CCD90100BED90100A3
:1019F00082D80100F1D8FFFF0AA9684618F0E0FB81
:101A0000E00705D13868009A011D3960006802605E
:101A10002846D4E6426842B1016811F8013B23B17F
:101A2000521EC0E90012184670470121C160881E8D
:101A3000704742685AB1C368016843B983688B42F2
:101A400005D0491E521CC0E90012002070474FF01B
:101A5000FF3070470FB40B0010B54FF000048AB090
:101A60000FA900910E99CC60234C7C44234A7A4400
:101A7000CDE9064200D004236FF00042CDE90132E7
:101A80001F4A7A446B4608920246002018F0C6FFAF
:101A90000AB010BC5DF814FBF0B507464FF0FF30FC
:101AA0001E4615460C463B4685B06A460091CDE978
:101AB000010131460020049004A8FFF7CBFF0499F0
:101AC0000346601825B109B1024600E022462A60AB
:101AD00000290ED0002B02DD0099814209D03B463F
:101AE0006A463146001B0094CDE9010404A8FFF7C3
:101AF000B1FF05B0F0BD0000A7FFFFFFC1FFFFFF72
:101B00000B0300002DE9F04791460F46804604463E
:101B1000002614F8015B2DB1FFF7E8F80068405D7E
:101B2000C007F6D12B2D02D02D2D18D0641E4A46A9
:101B30003946204600F00AFB27B13968A14201D19D
:101B4000C7F800804FF0020471050BD54042002811
:101B500003DDFFF7D7F80460A007BDE8F08746F47F
:101B60008066E4E70028F8DAFFF7CCF804606FF04D
:101B70000040F2E710B5002000F0D2FBFEF7D0FBEA
:101B8000BDE81040012006F08EBB10B5044602E00F
:101B9000641C00F07BF820780028F9D110BD00000B
:101BA0002DE9F04115460E46040002D12C6804B917
:101BB0000BA42046FEF746FF0444207870B1274668
:101BC00031463846FEF71CFF0444207810B100204F
:101BD00004F8010B38462C60BDE8F0810027F9E7D6
:101BE0000000000010B5203AC0F00B80B1E818509A
:101BF000A0E81850B1E81850A0E81850203ABFF4F7
:101C0000F5AF5FEA027C24BFB1E81850A0E8185095
:101C100044BF18C918C0BDE810405FEA827C24BFE9
:101C200051F8043B40F8043B08BF7047D20728BF77
:101C300031F8023B48BF11F8012B28BF20F8023BC6
:101C400048BF00F8012B70474FF000020429C0F094
:101C5000128010F0030C00F07383CCF1040CBCF183
:101C6000020F18BF00F8012BA8BF20F8022BA1EB30
:101C70000C0100F065BB5FEAC17C24BF00F8012BBA
:101C800000F8012B48BF00F8012B704708B56946E2
:101C90008DF800000320ABBE08BD0000004870476F
:101CA00020C001200048704740C001200346406822
:101CB0008C46002818BF88423CBF03464068F8D3D2
:101CC00018681844884207D00CF1030020F0070080
:101CD000001D411A521A0146081D0A60FEF781BB19
:101CE000B2F120030AD5C2F1200301FA02F120FA71
:101CF00003F341EA030100FA02F0704700FA03F12E
:101D00004FF00000704730B5B0F10A0271F10003E6
:101D10004FEA900E4EEA817EB0EB0E0061EB91012E
:101D20004FEA101E4EEA017E10EB0E0041EB11113E
:101D30004FEA102E4EEA016E10EB0E0041EB11211E
:101D40004FEA104E4EEA014E10EB0E0041EB1141EE
:101D5000401841F100014FEAD00040EA41704FEADB
:101D6000D1014FEA810444EA907410EB800544EB02
:101D700001046D1944EB0404521BA3414FF000030E
:101D800048BF0A3200D530BD401C41F1000130BDD2
:101D900010B50446FEF7AAFF0068005D00F00100E0
:101DA00010BD00002DE9F04F04460D46D21D22F073
:101DB000070089B0D0E900974846394618F0B2F8D4
:101DC0000246F80F01D02D2307E02068810701D5D6
:101DD0002B2302E0202101EAC0038DF820300BB153
:101DE000012000E00020032A824601D0072A04DBFC
:101DF0002946204600F054F93FE12078800601D4BE
:101E00000D2500E0E569C7F30A560D2D49DA0021DA
:101E10004FEA175B08464FF00000002F00F4400027
:101E200007DA00EB80004FF4400100EBD07001EACC
:101E300060008115012901DD4FF0FF3100224FEADA
:101E4000850CBCF1180F06D31346ACF118004FF007
:101E50008052C24003E04FF4801323FA0CF30CF1DC
:101E60000C0CBCF1200F04D3ACF1200C09FA0CF0DF
:101E700001E007FA0CF000294FF0004801DD18B925
:101E80000FE00ED140450CD319EB02095F4121B997
:101E9000404502D19F4329EA0209BBEB175F00D0FE
:101EA000761C2088000502D57B48784402E07A48F9
:101EB0007844193808AA302302F80A30037C0AF162
:101EC0000101002E0AF1020A53546A4602DC4FF067
:101ED000300101E04FF031014FF001088DF80010A2
:101EE00002D0A6F2FF3603E059EA470100D06B4E5C
:101EF000002D02DC2178090704D54FF002082E21BD
:101F00008DF80110C44600210BE0C7F303433F01E5
:101F1000C35C491C6D1E02F80830052908F1010850
:101F200001DA002DF1DC00210CE000EB1973491CF3
:101F30001B786D1E082902F808304FEA091908F1CC
:101F4000010801DA002DF0DC21688B0602D516E0CD
:101F5000A8F10108E04505DD02EB080313F8013C98
:101F6000302BF5D0B8F1000F09DD02EB080313F8B0
:101F7000013C2E2B03D1090701D4A8F10108002D43
:101F800005DD3E2102F808106D1E08F10108407CB5
:101F9000002E02F8080008F1010804DA2D2076422C
:101FA00002F8080002E02B2002F808000A214FF492
:101FB0007A70864208F101080BDB96FBF0F33033B0
:101FC00002F8083096FBF0F308F1010800FB1366F5
:101FD00001E0642E0CDB642096FBF0F3303302F852
:101FE000083096FBF0F308F1010800FB136601E0EE
:101FF0000A2E06DB96FBF1F0303002F8080008F1FB
:10200000010896FBF1F001FB1060303002F8080087
:10201000A16908F1010808EB050202EB0A00081AA1
:10202000A0612078C00602D42046FEF7D5FA216AC6
:1020300008AE01EB0A00206204E0D4E9012116F8A1
:10204000010B9047BAF1010AF7D22078C00602D5F9
:102050002046FEF7C1FA6E4609E016F8010B3E284D
:102060000FD0D4E901219047206A401C2062B8F1CA
:102070000108F2D22046FEF7C5FA09B00320BDE8F8
:10208000F08F206A2844206203E0D4E90121302047
:1020900090476D1EEBD3F8E7018C010002FCFFFFB7
:1020A0002DE9F0411F46044603260168072A01F482
:1020B000006004DB08B116A505E016A503E008B131
:1020C00015A500E015A521F010002060A069C01E34
:1020D000A0610FB1401EA0612046FEF77DFA4FB10E
:1020E000D4E9012138469047206A401C2062C01C78
:1020F000206206E0206AFAE7D4E9012115F8010B15
:102100009047761EF8D22046FEF77CFABDE8F081B3
:102110004E414E006E616E00494E4600696E66008B
:1021200010B5436913B1AFF3008001E0FFF722F966
:10213000012010BD128800F1240182840022C28493
:102140000122EDE711684FF0FF32E9E72DE9F05F7A
:10215000824615468B4600270AF10104B9460078ED
:10216000302801D09DB113E014F8010B0127782825
:1021700003D0582801D045B10AE00DB1102D07D188
:10218000002714F8010B102502E0082500E00A25BD
:102190000026B0460EE005FB080005FB06F101270E
:1021A0001FFA80F801EB1046B6F5803F00D3B94620
:1021B00014F8010B294600F00EF90028EBDABBF108
:1021C000000F05D00FB1641E00E05446CBF800406C
:1021D000B9F1000F06D0FEF795FD02210160C81E7F
:1021E000BDE8F09F48EA0640FAE700002DE9F04715
:1021F000814616468AB0354878440DC88DE80D00F2
:1022000032487844801C03AC0DC884E80D0041F6C8
:102210009B300844372190FBF1F290FBF1F5A5F1DA
:10222000800501FB12041B3C02D56442012000E042
:102230000020DFF898A080460027FA44AAF1BE0AE1
:102240000EE0E0070AD03246684607EB470101235B
:102250000AEB810117F01AFD8DE8070064107F1C5E
:10226000002CEED1194F7F44AE3F19E0E80715D09E
:1022700007EB04100DF1180A90E80E008AE80E0032
:10228000C068F04201D1981908903246012306A98E
:1022900003A817F0FBFC03AB83E807006D10641C78
:1022A000002DE3D14FF0010332466946B8F1000F2B
:1022B00003A802D017F0C0FC01E017F0E7FCC9E961
:1022C0000001C9F808200AB0BDE8F0874489010080
:1022D000007B00F0800070472DE9F04116460C4667
:1022E0000546FEF703FD036893F80101012807D0B6
:1022F000FF2C12D8185D80B101202C70BDE8F08150
:10230000D3F807013246214603F20713C7182846BF
:10231000BC46BDE8F041002360474FF0FF30EDE7D9
:1023200010B500F09FFABDE8104000F096BA10B565
:1023300000F0B0FABDE8104000F08FBA4FF0000294
:1023400000B5134694469646203922BFA0E80C50AB
:10235000A0E80C50B1F12001BFF4F7AF090728BF86
:10236000A0E80C5048BF0CC05DF804EB890028BF02
:1023700040F8042B08BF704748BF20F8022B11F02B
:10238000804F18BF00F8012B704770477546FFF764
:1023900085FCAE4605006946534620F00700854699
:1023A00018B020B5FDF7DCFFBDE820404FF0000677
:1023B0004FF000074FF000084FF0000BAC46ACE8C0
:1023C000C009ACE8C009ACE8C009ACE8C00921F01C
:1023D00007018D4670473A2800D2303820F020029D
:1023E000412A01D3A2F13700884201D34FF0FF30D8
:1023F000704700002DE9FF4F1F464FF03C0987B0A2
:102400004FF00042DDE9141001F10108DDF858A099
:1024100002EA40500390002005908346054604469A
:102420000490B969461E08988847AAF1010A0290EB
:10243000BAF1000F3BDD02982E2815D01021FFF7CE
:10244000CAFF00282EDB4FF0010B0599014317D07E
:10245000B9F1000F0BDB4A46C117FFF741FC0543FA
:102460000C43A9F1040905E0012004900BE008B138
:1024700045F0010501200590049820B9361D02E0C1
:10248000049800B1361FB969089808F10108884717
:10249000BBF1000FAAF1010A0290C9D00999C1F855
:1024A0000080C5E70298702808D0502806D0F96946
:1024B00008988847BBF1000F14D04FE0002002902D
:1024C0000120BBF1000F049009D0B969089808F108
:1024D00001088847AAF10109B9F1000F07DCF96981
:1024E000089888476FF001000BB0BDE8F08F2B28EB
:1024F00004D02D280CD14FF0FF300490B969089812
:1025000008F101088847A9F10109B9F1000FE6DDDA
:10251000411CE4D00A21FFF75EFF0028DFDB0299AF
:1025200008F1010801EB810100EB41000290B9695B
:10253000089888470A21FFF74EFF099AA9F1010977
:10254000B9F1000FC2F8008001DD0028E7DAF9696F
:10255000089888470499029800FB016655EA040030
:1025600004D004F04041090002D006E0039898E04E
:10257000A40044EA9574AD00B61E04F000410800C2
:1025800002D16D196441761E159810F0240F03D006
:102590004FF00B095C4803E04FF028096FF07D0015
:1025A0008246564507DAAAEB06018944B9F1410F84
:1025B00001DD4FF0410901200021A9F10102FFF7DF
:1025C0008FFB024628400B462140084301D00121E1
:1025D00000E00021501E029143F1FF3128402140CC
:1025E000084301D0012000E000200299834651EA0F
:1025F0000B014FD0002108464FF00000039900F472
:10260000400039B100EB80004FF4400100EBD07086
:1026100001EA60008015012802DD4FF0FF3000E084
:1026200013D0401C36D0029860B3BBF1000F0CD120
:102630004A4601200021FFF753FB28402140084370
:1026400001D0012000E00020E0B101204A46002135
:10265000FFF746FB034640190A4661412D1A8C419B
:1026600011D3B9F1400F09DD159810F0240F02D0F5
:10267000AAF1340603E0AAF1170600E0761C002553
:102680004FF0004406E05B1E42F1FF3220EA0305F2
:1026900021EA0204CAF10100B04206DA1B4903989C
:1026A00008430190002000900EE0039AC4F3D32168
:1026B000E80A0A43164940EA44500A433146CDE944
:1026C0000002684617F085FD159810F0240F0BD016
:1026D0001598C00715D13868DDE90012031D3B606D
:1026E0000068C0E900120CE002A8694617F068FD16
:1026F0001598C00705D13868029A011D3960006835
:1027000002604046F0E6000002FCFFFF0000F07FA0
:102710000000F03F2DE9FF4F92461D4685B04FF077
:102720000041DDE9124BDDE914727F1E01EA4B50D6
:10273000414940F0FF4940EA0108002122F0200011
:102740004928049102D04E2828D04CE03BA0012615
:1027500007C88DE80700A9690698641C88477F1E92
:10276000014606D41DF8060018B121F0200181426F
:102770000BD0E96906988847032E34D0082E32D052
:102780006FF0010009B0BDE8F08F761C032E01D078
:10279000082EE0D1601CCAF80000DCE7A9690698A1
:1027A000641C88477F1E2AD420F02000412826D1AF
:1027B000A9690698641C88477F1E20D420F0200059
:1027C0004E281CD1A9690698641C88477F1E48F4CE
:1027D000002849F48009CAF8004001D4282806D00E
:1027E000E969069888475FEACB7012D022E0A969B0
:1027F0000698641C88477F1E01D4002803DAE96923
:1028000006988847BCE72928F1D1641CCAF8004023
:10281000E9E71BF0240F07D028680499031D2B60FB
:102820000068C0E9001805E02868021D2A600068F9
:10283000C0F800902046A5E70000F07F494E4649C9
:102840004E4954590000000010B50446AFF3008013
:102850002046BDE81040FDF76EBD002801D005F010
:1028600022BD704710B5002102A000F03BF8012006
:1028700010BD0000534947414252543A2041626E14
:102880006F726D616C207465726D696E6174696FD1
:102890006E00000010B5012805D0002103A000F053
:1028A00021F8012010BD09A1F8E700005349475263
:1028B000544D454D3A204F7574206F662068656110
:1028C00070206D656D6F7279000000003A204865D8
:1028D0006170206D656D6F727920636F72727570B3
:1028E0007465640070B505460C460A2000E06D1C56
:1028F000FFF7CCF935B128780028F8D102E0641C44
:10290000FFF7C4F914B120780028F8D1BDE8704071
:102910000A20FFF7BBB970B5A0FB0140B4F18051AC
:1029200070F1000024BF002070BD2046FDF72AFD95
:1029300005001CBF2146FFF787F9284670BD53EA02
:10294000020C00F069802DE9F04B4FF00006002BDF
:102950001FBFB3FA83F503FA05F424FA05F65E40C7
:1029600012BF1643B2FA82F502FA05F4C5F120054A
:102970001EBF22FA05FC44EA0C04203556EA044C3A
:102980004FEA144418BF641C4FF000084FF00009D0
:10299000904271EB030C39D3002919BFB1FA81F7CA
:1029A00001FA07F6B0FA80F700FA07F6C7F1200738
:1029B0001EBF20FA07FC46EA0C062037B6FBF4FCE3
:1029C000A7EB0507103F07F01F0BCBF120062CFAF1
:1029D00006F60CFA0BFB44BFB3460026202FA4BF1B
:1029E0005E464FF0000B5BEA060C08BF4FF0010B90
:1029F00019EB0B0948EB0608ABFB027C06FB02CC8B
:102A00000BFB03CCC01B71EB0C01C1E70B4602466C
:102A100041464846BDE8F08B13B5084318BF4FF058
:102A2000FF300146AFF30080BDE81C407047032A29
:102A300040F2308010F0030C00F0158011F8013BDB
:102A4000BCF1020F624498BF11F801CB00F8013BC2
:102A500038BF11F8013BA2F1040298BF00F801CB86
:102A600038BF00F8013B11F003033FF4BBA8083A5C
:102A7000C0F0088051F8043B083A51F804CBA0E8B4
:102A80000810F5E7121D5CBF51F8043B40F8043B09
:102A9000AFF30080D20724BF11F8013B11F801CB3E
:102AA00048BF11F8012B24BF00F8013B00F801CB0F
:102AB00048BF00F8012B704702F0FF0343EA0322EE
:102AC00042EA0242FFF7C2B82DE9F04F91B00390FD
:102AD00000F1F0048C48019100210B900DAD0094A1
:102AE0000198814280F00D810B9C029128461022B2
:102AF0002146FFF79CFF039A0E20214600F06EF955
:102B00000D200B9D0490687B697AAA786C79EB782C
:102B1000697369786870A87A6C727C4CAA72A87024
:102B2000A8796971A97BA873E879A9712946E87029
:102B3000E87AE871E87BEB73E872002004280CD097
:102B40000022042A06D011F82230E35C01F822307A
:102B50000132F6E701310130F0E704980B99039A4E
:102B6000C4B2204600F03AF9002C00F0B3800021F6
:102B7000102900F0AC800B984FF01B080C914556C3
:102B800006460B9008EAD51080EA4503680040B27B
:102B9000099308EAD01080EA4302580040B2144674
:102BA0000A9208EAD01080EA420C0C98CDF81CC0BA
:102BB000311891F9010091F9026091F9037086EAE8
:102BC00000027A405A4008EAD01383EA400E82EAB3
:102BD0000E0282EA0403740008EAD61264B282EAA2
:102BE000460208EAD414059284EA42046340A146EE
:102BF00008944400684064B283EA0C0A08EAD414DA
:102C000084EA4E034FEA4E0464B2069308EAD414F1
:102C100084EA430B540064B28AEA0B0308EAD41432
:102C200084EA490A08EAD71484EA470483EA0A0CCA
:102C30007B005BB26200604008EAD31352B283EAC1
:102C4000440308EAD212099C82EA43088CEA08028B
:102C5000DDE90BC90CF8092086EA0502DDF814C08D
:102C6000DDF818907A4082EA0E02DDF81CE082EA74
:102C70000C0282EA090282EA0E025A4082EA0B0240
:102C800082EA0A0282EA08024A7080EA0602784072
:102C9000624080EA0C0082EA090282EA0E025A408F
:102CA00082EA0B0282EA0A0282EA0802CA700A9ADF
:102CB0005040089A504080EA0E0080EA0B0080EAFB
:102CC0000A0080EA080088700C99043150E70498E3
:102CD000013816E7009C00200DAD102806D00B9B94
:102CE000215C1A5C514019540130F6E72046294610
:102CF0001022FFF79CFE0B980299103010310B90B8
:102D0000EEE611B0BDE8F08F44150020CCB6010806
:102D10002DE9F04794460022202A0BD08B5C8C18BA
:102D200083548318043265785D70A5789D70E478CB
:102D3000DC70F1E7DFF8948000F1230900230FF243
:102D4000900E342B3AD000EB830603F1080101F01A
:102D50000707347F757FB27F96F81FA0042F10D02D
:102D6000BFB9C90818F8055018F8044018F80A70D7
:102D70001EF80110A246694018F802503A460C4667
:102D800007E018F80AA018F8022018F8055018F8FB
:102D9000044019F8231CF77801336140B47886F8B1
:102DA00020107178694086F8211084EA020186F8C3
:102DB000221087EA0A0109F8041BC2E7F0306146D5
:102DC0001022BDE8F047FFF732BE00BFECB70108A4
:102DD0008D01020408102040801B3600B0B502EBC4
:102DE00000100022042A08BFB0BD0023042B05D028
:102DF000C45CCD5C6C40CC540133F7E70431043043
:102E00000132EFE7B0B50B4901F144053CCD80E854
:102E10003C004A6D02618A6D4261CA6D096E826131
:102E2000C161B0BD80B5034801F06AF9043818BF2C
:102E3000012080BDD4A0002081B001208DF80300C6
:102E400005480068000744BF00208DF803009DF886
:102E5000030001B0704700BF100C0240FEE7000005
:102E6000014800F0FBB800BF909B0020014800F033
:102E7000F5B800BF28C40120014800F0EFB800BF3A
:102E8000309B0020014800F0E9B800BF88C4012051
:102E9000026840F2FF3122EA010102F0F802103A22
:102EA0005F2A88BF043181651823B2FBF3F202A3C5
:102EB0009A5CC26508467047000610160006101698
:102EC000704772B6FEE70000B0B526480021F94A07
:102ED0004CF25034C1612449936B0D68ED0306D563
:102EE000956BED1AA54284BF0320B0BDF5E70A68D3
:102EF000D2071CBF01220A600A6812F0F20F04BF59
:102F00000020B0BD0A68D20605D5C26942F01002A1
:102F1000C26110220A600A68920605D5C26942F0B1
:102F20000802C26120220A600A68520605D5C269F9
:102F300042F00402C26140220A600A68120605D506
:102F4000C26942F00202C26180220A600A689207E6
:102F500005D5C26942F02002C2610220086001204A
:102F6000B0BD00BF00C001200C3C024070B5F64A65
:102F7000936B816D90F83540022C21D10468056C6B
:102F8000266826F016062660666926F080066661C9
:102F90000DB9856C1DB1256825F0080525602568EB
:102FA00025F0010525602568ED070DD0956BED1A1C
:102FB000062DF8D320214165032180F835100CE05F
:102FC00080214165012108E0C26D3F2303FA02F22E
:102FD0008A60012180F835100021002280F8342019
:102FE000084670BD90F83510022908D1052180F8F7
:102FF00035100068016821F0010103F0DDB980217E
:1030000041650120704738B370B5044690F835002B
:1030100002281FD020680026016821F0010101600C
:103020002121066046608660C660066141612046D7
:10303000FFF72EFF054604F13C001821FFF77EF94B
:10304000E06D3F2101FA00F0A860666584F8346005
:1030500084F83560BDE8704070470000F8B504465C
:103060000020554A08210090D4E916605568376859
:10307000814039420CD0226813685B0708D5136879
:1030800023F004031360B160616D41F001016165DB
:1030900001218140394208D022685269120604D5C4
:1030A000B160616D41F002016165042181403942E6
:1030B00008D022681268920704D5B160616D41F0B2
:1030C00004016165102101FA00F23A4218D021682A
:1030D0000B681B0714D5B2600B680A685B0306D443
:1030E000D20506D40A6822F008020A6001E0110342
:1030F00001D4216C00E0A16C11B120468847E06D3D
:10310000202101FA00F23A4234D021680B68DB0634
:1031100030D5B26094F835300A68052B16D122F00C
:1031200016020A604A6922F080024A61226C0AB9DA
:10313000A26C1AB10A6822F008020A603F2101FA63
:1031400000F0B06003F0E7F9216D2FE0086852034A
:1031500008D4C0050AD4086820F01000086003F005
:10316000DAF903E0000301D4616C00E0E16B09B11E
:1031700020468847606DF0B1606DC00715D005210D
:103180004FF4165084F83510B5FBF0F021680A684A
:1031900022F001020A60009A01328242009202D8B3
:1031A0000A68D207F7D103F0B6F9E16C19B12046ED
:1031B000BDE8F8400847F8BD040000202DE9F041C3
:1031C00004466148826BACB1022184F835100021BD
:1031D00084F8341021680B6823F001030B600B683E
:1031E000DB0709D0836B9B1A052BF8D90325202612
:1031F00003205AE003F086B8086804F1040C2E4A54
:103200009CE8E81100EA020ED4E9072043EA0E0325
:103210002B4333433B4343EA08031A43636A104397
:1032200040EA0C02042B03D1D4E90B0528430243E6
:103230000A60042B486920F0070040EA030228D105
:10324000D4E90A733A4323B3BCF5005F08D0BCF15C
:10325000000F14D1022F15D0012F0AD0002F10E03B
:10326000032F16D8012540260120DFE807F01E0BAA
:103270001E02A3F1C070B0FA80F0400904E0032FF1
:1032800003D306D1C3F3006018B101254026012005
:103290000BE020464A61FFF7FBFDE16D3F2200266F
:1032A000012502FA01F181600020666584F835503D
:1032B000BDE8F08180C001203F8010F0F0B590F8AB
:1032C0003440012C36D00124856D80F8344090F8CC
:1032D0003540012C2BD1022480F835400024446570
:1032E00004688668D0F840C0C06D2768402E27F477
:1032F0008027276063600B4608BF1346A36008BFA2
:103300000A463F21E26001FA00F0BCF1000FA8601C
:10331000206840F01600206003D0206840F00800CC
:103320002060206840F0010020600020F0BD0021F6
:1033300080F834100220F0BD03498A6B8B6B9B1A16
:103340008342FBD9704700BF80C001202DE9F843BC
:10335000DFF8A081044698F81800012804BF022075
:10336000BDE8F8830120894688F81800FFF7ACFD16
:1033700000286FD14FF0FF30394FC9F800002068A6
:10338000012813D1386920F440703861386940F061
:103390000400386120693969000280B2084302F0F4
:1033A000F8FF396921F0040139612DE0A068C100FE
:1033B00005468E1CE1680844854221D2386920F414
:1033C000407038612069C1B2000203294FF4407196
:1033D00038BF81B2386908433861386920F0780015
:1033E0003861386930433861386902F0D2FF396991
:1033F00021F07A01396128B9A06808360135D9E78A
:10340000002001E0C9F80050396889050FD53968F6
:1034100021F400713960396841F40061396039681C
:1034200021F400613960396841F40071396039680C
:1034300049050FD5396821F480613960396841F454
:1034400080513960396821F480513960396841F41C
:1034500080613960002188F81810BDE8F88300BF4A
:10346000003C02400F2101600E494A8882604A7880
:10347000CC2A01D1CC2203E04A78AA2A18BF5522CF
:1034800002610A6802F0E0020276097801F00C019C
:10349000416170470348017841F002010170FFF774
:1034A00013BD00BF143C0240F8B5124E0546307EF5
:1034B000012804BF0220F8BD012014463076FFF732
:1034C00003FD98B90C4F386820F4407038603868B4
:1034D00040F400703860386840F0010038602C60BB
:1034E000FFF7F2FC396821F00101396000213176E3
:1034F000F8BD00BF00C00120103C02400548C16873
:10350000B1F1FF3F00DD70470349016003490160ED
:10351000C0687047043C024023016745AB89EFCD8A
:103520002DE9F04F954980462E484FF0000B4FF0A3
:10353000010C4FF00F094FF0030E00230025A1F5F9
:103540007E7A102D08BFBDE8F08F0CFA05F616EA5A
:10355000080242D025F0030103F00C075AF80110CD
:1035600009FA07F739421CD1844C4FEA950ED4F87A
:1035700000C02CEA020121606168914361608049CA
:103580008C4609689143CCF800104FF0010CA168FB
:103590009143A1605AF82E10B9434AF82E104FF00B
:1035A000030E02680EFA0BF16FF0030404EA5507EC
:1035B0008A430744026003F01C023C6A09FA02F2E3
:1035C00024EA02023A62C2688A43C2604268B24395
:1035D0004260826822EA010181600BF1020B043330
:1035E0000135AEE7000002402DE9FE4F614A082494
:1035F0004FF0010A4FF0000B4FF0000890425E4A76
:1036000008BF07248305024443EA9222072A38BFF1
:10361000144600940022B8F1100F08BFBDE8FE8FD9
:103620000F680AFA08F917EA090700F09D80D1F837
:1036300004C00323019203FA0BF60CF0030EF243CD
:10364000AEF10106012E13D88668D1F80CA00AFA53
:103650000BF416404FF0010A34438460CCF300149D
:10366000466804FA08F426EA09063443446005E093
:10367000BEF1030F02D14FF0030E21E0C4688E6843
:10368000144006FA0BF63443BEF1020FC46017D1A2
:10369000019B03F01C040F2303FA04FC6FF00303E7
:1036A00003EA580505442E6A26EA0C0C0E6906FA50
:1036B00004F444EA0C042C62D1F804C00CF0030EAC
:1036C00005680EFA0BF415402C4304601CF4403FCF
:1036D000019A49D0002328F003060293294B1C6865
:1036E00044F480441C601C680F2304F4804402945A
:1036F00002F00C0403FA04F5204B9C461E44029B86
:10370000214B9E46F358AB43009D05FA04F4234336
:1037100046F80E30DCF808304D6843EA0704EE0244
:1037200058BF23EA0704164BCCF80840AE029E4669
:103730001B6843EA070458BF23EA0704CEF8004099
:10374000AE03DCF8043043EA070458BF23EA070459
:10375000CCF80440ED03DCF8003043EA070458BF1E
:1037600023EA0704CCF8004004320BF1020B08F105
:10377000010850E7001C02400000FEBF003C014071
:103780000C3C01404438024008FCFFFF10B51149D1
:103790004FF47A724968B1FBF2F14A1E0021B1EB95
:1037A000126F13D10C4BF0245A600C4A14709960BC
:1037B000072101240F28196009D84FF0FF300F218D
:1037C00000F010F806480473002400E001242046AD
:1037D00010BD00BF0400002010E000E023ED00E079
:1037E00080C0012010B5104A00F00F030F4C043BBD
:1037F00002442344002848BF03F10C0220684FF024
:10380000FF34C0F30220C31E80F0070038BF00233E
:10381000042828BF042004FA00F021EA00009840A0
:103820000001107010BD00BF00E400E00CED00E0EE
:1038300010B501464148D0F8E04471B194F89C02BB
:10384000032825D1D4F8B80282690AB30020C4F84D
:10385000D4022046BDE810401047D4F89402032853
:1038600016D1B4F86021D4F85801904211D9D4F897
:103870006411831AD4F8C802C4F858319342114431
:10388000C4F8641188BF1A46BDE8104004F0A0BA1D
:1038900010BD94F89C02032808D1D4F8B80201693D
:1038A00021B10020C4F8D402204688472046BDE854
:1038B000104004F035BA00BF81B0204A00231168DF
:1038C000009300F00F0340B203EBC303002802EBA8
:1038D000830202F5157348BF02F1140318785A7871
:1038E0004001012A14D101F510610A58B2F1FF3FDD
:1038F00021DC734602F0A9FC9E46009B0133009335
:10390000009B934217D80B58B3F1FF3FF5DD12E04F
:1039100001F530610A58B2F1FF3F0CDC734602F04A
:1039200094FC9E46009B01330093009B934202D877
:103930000B58002BF6D401B0704700BFF09B00205D
:103940002DE9F84FDFF87C35012493F89C24D3F857
:10395000E0A48AF8AA2202F01F070AF2AA2893F824
:103960009DB4022F8AF8ABB293F89E9493F89F54BB
:1039700049EA052EAAF8ACE293F9A0C493F8A16431
:103980005FFA8CF141EA0620AAF8AE02B3F8A2343D
:10399000AAF8B032CAF89832CAF8944202F0600429
:1039A0000FD0012F21D097BBCCB3402C01D0202CBD
:1039B00028D1DAF8D4020AEB8000D0F8B802826885
:1039C0000EE0002C47D0402C01D0202C1AD1002032
:1039D000CAF8D402DAF8B8028268002A00F05882E5
:1039E00050464146BDE8F84F10471CB1402C01D06D
:1039F000202C07D19AF89C020138022898BFBCF10C
:103A0000010F44D95046BDE8F84F04F071B9DAF817
:103A1000C80202F08001BDE8F84F04F0EDB9BBF137
:103A2000090FEFD8DFE80BF00671057D0589BC05AD
:103A3000D2DFE7E79AF89C0201380228E2D8022B8D
:103A4000E0D1DAF8A40203225146002808BF01227F
:103A500041F80C2FADE1BBF1000F2DD0BBF1010FF0
:103A600040D0BBF1030FCDD19AF89C0203283ED180
:103A7000BEF1000F40F01D81480600F01A81002BB6
:103A800040F01781DAF8C80204F0B6F911E1DAF86B
:103A9000B8028268002A00F0FB8100204146CAF883
:103AA000D40250469047BAF8B012002940F0F08195
:103AB000002800F0FE80EBE19AF89C02032800F059
:103AC000B58002287FF49EAF48067FF49BAF0AF5CD
:103AD000AA71BCF1000F48BF0AF11401002001F8DF
:103AE0000E0F66E19AF89C02032800F0C3800228BA
:103AF0007FF488AF48063FF485AFDAF8C80204F0D7
:103B00007BF9DAF8C802802185E79AF89C0201382F
:103B100002283FF677AFBEF1010F40F0B9810020D7
:103B200008E0BEF1020F00F0C280BEF1010F7FF489
:103B300069AF0120CAF8A402BBE000287FF462AF9D
:103B4000002B7FF45FAFBEF17F0F3FF65BAF9AF8BB
:103B50009C0203283FF456AFDAF8C8028AF89E9216
:103B600090F89414012913D080F811900168D1F8CD
:103B7000002822F4FE62C1F80028002280F8942474
:103B800009F07F00D1F8002842EA0010C1F80008CF
:103B900002F0A8FBB9F1000F40F0EA80012011E12A
:103BA0000020ADF80200681E062800F26B81DFE8F5
:103BB00010F007008D00960069016901A300AF00B5
:103BC000DAF8B4129AF810000A6847E1012B7FF482
:103BD00019AF9AF89C02411E02296FD2002051466B
:103BE00041F8080F6FE0B84CB9F1020F84F800906B
:103BF000BFF408AF9AF89C02032800F097800228CF
:103C000040F0B880B9F1000F53D0DAF8B802CAF822
:103C10000490002800F0D38002685046494690473F
:103C2000002800F0CC8002F05AFBA1E001F00F0068
:103C3000BCF1FF3F00EB80000AEB8000D4BF90F89E
:103C4000230090F8630100283FF4DCAE01F07F0010
:103C5000BCF1FF3F41F0800100EB80000AEB8002E5
:103C600002F11400C8BF02F5AA70802940F08A80D2
:103C700000219BE0BEF1000F40F00A81480600F0F1
:103C80001D81DAF8C8120CF00F020879824200F2A6
:103C9000158102EBC200BCF1FF3F01EB800040F355
:103CA000A980002380F8553200F51570A5E08AF848
:103CB000A0625046BDE8F84F04F032B803287FF404
:103CC000A1AE0AF104015046012274E09AF81010E6
:103CD000DAF8B802002900F07980C16A77E0B9F11A
:103CE000050F00F2CF80DFE809F003A3A7ABAFB365
:103CF000DAF8B4024268AEE09AF81000002840F00A
:103D0000C180DAF8B802416B0DF102008847A8E0E3
:103D10009AF81000002840F0B580DAF8B802016B7C
:103D20000DF1020088470146072055E0B9F1000F68
:103D300054D0DAF804004845BBD0DAF8B8124A6823
:103D4000C1B250469047DAF8B80221780028CAF884
:103D50000410AED00268504690470028A9D002F067
:103D6000BEFADAF8B8029AF8041042685046904752
:103D7000022027E002F0B3FADAF8B80249464268B6
:103D800050462FE60CF07F02DAF8C812BCF1000FA3
:103D900002EBC20201EB820101F2562248BF01F19F
:103DA0001602117800293FF463AF0121817300F1FD
:103DB0000E0150460222BDE8F84F03F0A7BF02F003
:103DC00091FA03208AF89C02BDE8F88F816A0DF110
:103DD0000200884701460220487043E00220CAF8EA
:103DE000049000218AF89C02DAF8B8024268504632
:103DF00090475EE7012343751430002302708370FF
:103E000091F89434012B59D00B68447852011A442C
:103E1000012C3FD1D2F8003923F40013C2F8003945
:103E2000007900F0FE00022845D102F510603EE066
:103E3000DAF8B40282680EE0DAF8B402C2680AE086
:103E4000DAF8B402026906E0DAF8B402426902E084
:103E5000DAF8B4028269AAB19AF810000DF10201F1
:103E600090470146BAF8B02282B1BDF8020048B1CD
:103E7000904238BF02465046ADF8022003F046FF9C
:103E8000BDE8F88F02F02BFABDE8F88F02F02AFAAD
:103E9000BDE8F88FD2F8003B23F40013C2F8003BD2
:103EA000007900F0FE00022805D102F530600268BA
:103EB00042F080520260002081F8940402F012FA6D
:103EC00085E500BFF09B0020EC04002000684068FE
:103ED000C0F30353C0F342320A70C0F3034203EB52
:103EE000830302EB4302C0F30113CA7000F00F0218
:103EF00043EA830302EB43028A70020AC0F3032001
:103F0000D20648BF0A30487070470068826A4A602B
:103F100002696FF3DF328A600068C0F30213C0F3F6
:103F20008052CA7000F00F0203EB830302EB4302DE
:103F3000C0F302338A70C0F3032203EB830302EB66
:103F400043024A70C0F30342C0F3015040EA8000CC
:103F500002EB4000087070472DE9F041027F0446F3
:103F60000220012A57D0607701204D782077E8069B
:103F700042BF05F0EF0000F10A054D702068CA222B
:103F8000426253224262204691F800808F78CE78B8
:103F900002F090FC08B1012038E009200921092E27
:103FA00088BF31460A22B1FBF2F1092D01EB8103F2
:103FB000A6EB430343EA01114FF0090388BF2B46E8
:103FC000C9B2B3FBF2F303EB8306A5EB460545EA62
:103FD0000313DBB21B02092F88BF384643EA0141B5
:103FE000B0FBF2F0362210FB027242EA001000F041
:103FF0003F000844216840EA48304860204602F00B
:104000007BFC0146012009B9607700200021FF22D6
:10401000217721684A62BDE8F08100002DE9F8436C
:104020000D46017F04460220012965D060770120FA
:10403000207720688168490659BF4FF0000885F84D
:104040000380E9784FEA8158CA21416253214162D5
:1040500020462F786E7895F8029002F02BFC08B17C
:10406000012044E009200921092F88BF39460A228E
:10407000B1FBF2F1092E01EB8103A7EB430343EA05
:1040800001114FF0090388BF3346B3FBF2F303EB92
:104090008307A6EB470646EA0313DBB21B02B9F11E
:1040A000090F88BF484643EA0141B0FBF2F000EB3C
:1040B0008002A9EB420242EA0010C0B208440F4954
:1040C00040EA0800084021680860886820F48020E1
:1040D0008860D5E9030210438A681043886020464F
:1040E00002F00AFC0146012009B960770020002196
:1040F000FF22217721684A62BDE8F8837F7F7F0035
:10410000B0B586B004460568006D4FF48061059136
:10411000002100040491402101900D2003910290A0
:1041200001A902F0E2F828460D2102F062F918B167
:1041300002F073FA002003E020684069C0F34320D6
:1041400006B0B0BDF8B5044600680268C1684669AB
:1041500015074FEA826351D001F4907706F001060B
:10416000BF194FD0D70705D0CF0503D5676C47F0EF
:1041700001076764570704D51EB1676C47F0020753
:104180006764920704D51EB1626C42F00402626457
:10419000002D07D501F02002921903D0626C42F085
:1041A00008026264626C002A58D0002B05D589068B
:1041B00003D5204603F0C7FC20684069616C00F01D
:1041C000400001F00801401802BF00206064F8BD03
:1041D000204603F091FC2068406940063ED502F07D
:1041E000A1FAFCD1E06BC8B354490165FEF7FAFEB1
:1041F000A0B3E06B016DBDE8F8400847002B01D586
:104200008B062CD4236B012B03D1D30601D5CB060F
:104210002AD4130601D50B060BD452061ED5490627
:104220001CD5C16821F04001C160202084F8410004
:10423000F8BD94F84110212910D1A168B1F5805F33
:1042400002D12169002970D0216A4A1C22620978B2
:104250004160E18C0139E184090454D0F8BD204665
:10426000BDE8F84003F06FBC0021009101680091A7
:10427000416800910099406940061AD4E08DA18DF3
:10428000E28D002AEAD08142E8D001F0ECFF20F470
:10429000907041E80302002AF7D102F003FAFCD142
:1042A000202084F842000020206302F0C1F9FCD1F4
:1042B00038E0E06BA18D0268526893B263B38B4221
:1042C0002AD2E285C069B0F5807F18D001F0CBFF1B
:1042D00020F4807041E80302002AF7D102F0E2F9ED
:1042E000FCD102F01FFAFCD1202084F8420000200B
:1042F000206302F09DF9FCD1E06BFEF737FE02204F
:104300006063E08DF8BDC16821F08001C160C168C3
:1043100041F04001C160F8BD99429FD1C069B0F53C
:10432000807F9BD102206063F8BD216A31F8022BA7
:104330006FF35F22216242608BE700BFF17A0008D1
:104340002DE9F04F87B000285BD0044690F841007B
:104350008E4E8F4F002800F083802420BC463746C5
:1043600049F20C6584F841002668D4E90201E2694B
:10437000F36823F40053F360336923F44053194383
:1043800031612169F36808436169AB43084318430D
:104390000A231043F0607069A16920F4407008435B
:1043A00026F480617061A7F5704081427F4808BFA4
:1043B0000D2340685CF8281CD9407DA301F007015B
:1043C000595C6368C8401921A0FB0101B2F5004F98
:1043D00019D15A00DB0FFEF7B2FA774B6421B0FB1C
:1043E000F1F203F1805302FB0300322303EBC00020
:1043F000B0FBF1F04FF4F87101EA400100F0070062
:1044000014E001202AE09A009B0FFEF798FA64213D
:10441000694BB0FBF1F202FB0300322303EB001007
:10442000B0FBF1F000F0F00100F00F0001EB021121
:1044300008442021B060306920F4904030617069F8
:1044400020F02A007061F06840F40050F060002015
:10445000606484F8411084F84210606301F0EDBF9D
:104460000025142184F8405002A8FDF767FF20685A
:10447000484988422DD0484988427FF46EAF0020D9
:104480000190396941F400213961396901F4002151
:10449000019101990190396841F001013960396851
:1044A00001F001010191082106910321CDE90401E8
:1044B0000220CDE90210019802A93046FFF794F8D6
:1044C00034200121FFF78EF937484FF48011016045
:1044D00043E70195B246786940F010007861786949
:1044E00000F01000019001980195386840F001003B
:1044F0003860386800F00100019007200690032022
:10450000CDE90450022003904FF4C060029001985E
:1045100002A93046FFF768F8204E21484FF00069A5
:104520004FF4806814218346C6E9000906F114009F
:10453000C6E90255C6F81080FDF700FF3046FEF7C9
:104540003DFE00BBB463E663164E002040210BF134
:104550007802C6E9021006F114001421C6E9002908
:10456000C6F81080FDF7EAFE3046FEF727FE50B988
:1045700025200021B463A663FFF734F90A482021FF
:1045800056460160E9E6FEF79CFC00BF00000240D1
:104590003038024000100140004C0040909B002049
:1045A0004064024088C4012004E100E004000020CF
:1045B00000000000010203049CFFFF0F2DE9F04101
:1045C000044690F8420020281CBF0220BDE8F0817C
:1045D000A1B11D4600202223606484F8423020638C
:1045E0004548A285866BE285A068B0F5805F01D161
:1045F000206928B14FF000080F4603E001F082BEA9
:1046000000278846E08D08B32046202102F078F884
:10461000F0B95FB1A068B0F5805F0FD008B920692C
:1046200060B12068406800F07F0009E02068002742
:1046300040686FF35F2028F8020B03E020684068B1
:1046400007F8010BE08D0138E085DBE7002000E092
:104650000320202184F84210BDE8F0812DE9F041CB
:10466000044690F8410020281CBF0220BDE8F081DC
:10467000A1B19AB100201D466064212084F8410058
:104680001D48A284866BE284A068B0F5805F01D1EA
:10469000206928B14FF000080F4603E001F032BE58
:1046A00000278846E08CA8B12046802102F028F837
:1046B000E0B927B117F8010B2168486006E038F827
:1046C000021B206800276FF35F214160E08C0138F6
:1046D000E084E7E72046402102F012F8202184F828
:1046E0004110002818BF0320BDE8F081202084F885
:1046F00041000320BDE8F08180C00120FEE70332C5
:10470000013092086AB10B68013A00F8013C0B686D
:104710001B0A03704B884370CB78043183700430DC
:10472000F0E770472DE9F04FD5B0D0E900868568F5
:10473000D0F80CE00790002215AB402A03D08C582B
:104740009C500432F9E705EA060215982EEA0601A4
:10475000169CDDF85CC00A95DDF860900896CDF8EF
:1047600024E0CDF818804244DDF888801144FC4AEA
:104770000C9474441390CDF850C0CDF8409001448F
:104780001998CDF80480114406EB71620E9025EA69
:10479000020302EA06016544DDF86CC023441944B3
:1047A000F04BCDF814C0194402EB315426EA04034F
:1047B00004EA02014E442B441944EB4B194404EB28
:1047C000F13322EA030503EA040102441A9835444E
:1047D0002944E64D0B90294403EBB12124EA01065C
:1047E00001EA030504441C9832442A44E04D049035
:1047F0002A4401EB726223EA020602EA01056344DD
:1048000034442C44DB4D2C4402EB345621EA06059B
:1048100006EA020401441D982B442344D64C0D9013
:10482000234406EBF33E209B22EA0E050EEA060423
:1048300002441E98294412932144D04C11902144E3
:104840000EEBB12126EA010501EA0E042A4485197E
:104850001F982244CA4C0F90224401EB726B2EEA3F
:104860000B040BEA01022C4400EB0E051846DDF8A0
:104870002CE02244C34C22440BEB325A21EA0A04B6
:104880000AEA0B02194408EB0A062C4422444AF2B5
:104890004F44121B0AEBF2392BEA090409EA0A0217
:1048A00021441144B84A1144219A09EBB1252AEA5E
:1048B000050402EB0B0705EA09010292239ADDF8D1
:1048C00030B0DDF838A03C442144B04C02EB090381
:1048D000214405EB716429EA040704EA05019146C5
:1048E000249A3E44CDF800903144A94E03923144BD
:1048F00004EB315725EA070607EA0401154433445F
:104900001944A44B194407EBF13324EA030103EAE9
:1049100007065C442944A04D314423EA0706294494
:10492000344403EBB12101EA070521EA0306674499
:104930002C449A4D3E442C4401EBF46404EA0305F4
:10494000034424EA010713983544954E3B4435440B
:1049500004EBF55505EA0106014425EA04070F9822
:104960003344904E3944334405EBB34303EA040621
:1049700023EA050774443144FC4E3C44314403EBC4
:10498000313101EA0506054421EA03071198344450
:10499000F74E3D44344401EBF46404EA0306134447
:1049A00024EA01074A463544F24E3B44354404EBC1
:1049B000F55505EA010625EA040751443344EE4E55
:1049C0003944334405EBB34303EA0406044423EAC1
:1049D000050710983144E94E3C44314403EB313132
:1049E00001EA05064D4421EA0307DDF8109034443E
:1049F000E34E3D44344401EBF46404EA030603440B
:104A000024EA01070D983544DE4E3B44354404EB5F
:104A1000F55505EA010625EA040701443344DA4E58
:104A20003944334405EBB34303EA040623EA05079C
:104A300044443144D54E3C44314403EB313101EA26
:104A4000050621EA03073444D14E3444149E01EB99
:104A5000F464354404EA030CCE4E4B443D4424EA4E
:104A6000010765443B44DDF808C0354404EBF555C7
:104A700005EA010625EA040761443344C64E394479
:104A8000334405EBB34303EA04067444DDF83CE029
:104A90003144C24E314403EB313181EA030686EAE8
:104AA0000507054412983C44BD4F034414983C4408
:104AB000674601EB347466403544BA4E354484EAA7
:104AC00001061144139A04EB75556E403344B64EFB
:104AD000334485EA04065C44DDF840B005EB33431B
:104AE0005E403144B14E314483EA05065544DDF859
:104AF00044A003EB71214E403444AD4E344481EA6E
:104B000003064B4401EB347466403544A94E3544EA
:104B100084EA0106714404EB75556E403344A64E99
:104B2000334485EA04064444DDF8148005EB33433E
:104B30005E403144A14E314483EA0506154403EB3F
:104B400071214E4034449E4E344481EA03065B4456
:104B500001EB3474664035449A4E354400F024B875
:104B600078A46AD756B7C7E8DB702024EECEBDC163
:104B7000AF0F7CF52AC68747134630A8019546FD3E
:104B8000D8988069AFF7448BBED75C892211906BAF
:104B9000937198FD8E4379A62108B44962251EF6CB
:104BA00040B340C0515A5E2684EA0106414404EBFA
:104BB00075556E403344844E334485EA04065444AC
:104BC00005EB33435E403144804E314483EA0506B1
:104BD0006544DDF80CC003EB71214E4034447C4E3B
:104BE000344481EA0306634401EB3474664035447F
:104BF000784E354484EA01060144009804EB75556B
:104C00006E403344744E334485EA0406144405EB85
:104C100033435E403144714E314403EB712161EA0C
:104C200005064D445E4034446D4E344401EBB4649B
:104C300064EA030603440B983A194E403544694E22
:104C4000354404EBB55565EA010601440C9866400D
:104C50003344654E334405EB734363EA0406644C06
:104C60006E403144614E314403EBF12161EA0506A7
:104C70005D445E403244129E224401EBB26262EA1D
:104C8000030473444C402C445A4D2C4402EBB4545E
:104C900064EA010501440D9855402B44564D2B44C0
:104CA00004EB734363EA020502440198654029441A
:104CB000524D294403EBF12161EA040564445D404F
:104CC0002A444F4D2A4401EBB26262EA0305434491
:104CD0004D402C444B4D2C4402EBB45464EA010586
:104CE00001440E9855402B44474D2B4404EB73432D
:104CF00063EA02050244069865402944434D29446D
:104D000003EBF12161EA04053444149E5D402A441A
:104D10003F4D2A4401EBB26215180798056062EA1C
:104D2000030533444D402C443A4D2C44099D02EB7D
:104D3000B4542544C56064EA0105514455402B44F0
:104D4000354D2B440A9D04EB734363EA02021D4474
:104D500062408560089D1144304A1D44114405EBB2
:104D6000F121416055B0BDE8F08F00BFAAC7B6E998
:104D70005D102FD65314440281E6A1D8C8FBD3E7B7
:104D8000E6CDE121D60737C3870DD5F4ED145A459A
:104D900005E9E3A9F8A3EFFCD9026F678A4C2A8DD5
:104DA0004239FAFF81F6718722619D6D0C38E5FD6D
:104DB00044EABEA4A9CFDE4B604BBBF670BCBFBEBD
:104DC000C67E9B28FA27A1EA8530EFD4051D88040A
:104DD00039D0D4D9E599DBE6F87CA21F6556ACC47E
:104DE000442229F497FF2A43A72394AB39A093FCCC
:104DF000C3595B6592CC0C8F7DF4EFFFD15D848548
:104E00004F7EA86FE0E62CFE144301A3A111084ECB
:104E1000827E53F735F23ABDBBD2D72A91D386EBC7
:104E20002DE9F0478A468046D0E900011446630F19
:104E300010EBC202C0F3C5005941C0F14006A642C2
:104E4000C8E9002101D9002618E008F118095146E7
:104E500032464844FDF7EBFD08F10805494628466F
:104E6000FFF760FC06F14007A74206D80AEB0601EF
:104E70002846FFF757FC3E46F4E7002040440AEB83
:104E80000601A21B1830BDE8F047FDF7D0BD0000B9
:104E90002DE9F04FC9B0DFF80C4841F2346141F21E
:104EA0003468201DFDF74AFA41F231674FF00130B6
:104EB0000A21FF22E051DFF8F00784F80C110FF20D
:104EC000F0713C302060DFF8E407C4F81001C4F84A
:104ED000080141F2305020440390FBF798FEDFF8C0
:104EE000E017DFF8E0672046B047DFF8DC17204620
:104EF000B047DFF8D85720462946B047DFF8D0172B
:104F00002046B04720462946B047DFF8C81720465C
:104F1000B047DFF8C4172046B047DFF8C017204677
:104F2000B047D4F80801002800F0B983DFF87427EF
:104F300041F2280141F23069012041F2326A0DF15B
:104F4000220B0026114402F80900019141F22C3194
:104F50001144029141F2303111440791002800F0D0
:104F60009E83DFF8404714F80A00002800F0F18023
:104F7000204659468DF8226011F078FD60B39DF807
:104F8000221049B3DFF85887DFF81857049041F230
:104F900033602E5C284601F0A9FADFF8481750224A
:104FA0002846002E08BF3222069211F0A0FE2846A5
:104FB00001F09CFA2A20002E08BF1E20059095F8CB
:104FC000200180B105EB8000D0F80C0188B1426867
:104FD00028460FF214710AE0DFF8C8060FF28C7150
:104FE00011F0BAFEB1E0039A28460FF2047111F0F5
:104FF0008FFEDFF8F016069A284611F078FEDFF8EB
:10500000FC1601F09CFB049C4FF0000900269DF863
:105010002200814579D209EBC90004EB800A57468A
:1050200017F80D0FC0076DD1D3461BF80C0F0228DF
:1050300006D1069A28460FF2307111F058FE5EE054
:10504000DAF80020002A5DD028460FF2FC6111F04A
:105050005FFEDAF804804046FBF76FFD06460598D0
:105060008642A8BF0646B8F1000F11D0012E0FDB13
:10507000DFF83006006858B1016849B1D1F808C0BE
:10508000BCF1000F04D0B2B241464FF47A73E0474E
:10509000DFF8105641F23360285CD8B10598DFF88C
:1050A00040860FF2AC64861B2EB12846214611F0D3
:1050B00006FE013EF8E75AF8080F40B128460FF205
:1050C000946111F0FCFDDAF8001001F038FB9BF858
:1050D000000003E09BF80000DFF8048600260128AA
:1050E000049C04D128460FF2706111F0E8FD387875
:1050F000800704D528460FF2646111F0E0FD2846D0
:1051000001F0F4F909F1010981E7284601F0EEF90F
:10511000DFF8D015069A284611F0E9FDDFF8DC1516
:1051200001F00DFB41F2346815F80800002828460C
:105130000CBF0FF2E0510FF2C85111F0C0FD41F267
:10514000316741F2306941F2326ADFF858450DF1BA
:10515000220B01F0C5F914F80800E0B38DF82060C7
:10516000204608A94FF0FF3211F09BFC002840F0C8
:105170009E81DFF83005C15D41B19DF820108DF8AA
:1051800023608DF82210594611F0E6FD9DF82000AD
:105190003F2800F06581442800F06C81482800F029
:1051A0005F8151280ED0532800F07281642800F0EE
:1051B0006181682800F05481732800F069817128AA
:1051C00040F0B281DFF8DC44DFF8CC1500F0DCFF02
:1051D00004F809606BE141F228110020002514F861
:1051E00001B0A4F80401FE2800F2CF80DFF8B40477
:1051F0000068002800F0C3800168002900F0BF802B
:10520000CE68002E00F0BB8008A901224FF0FF33CA
:10521000B047002840F0B3809DF82000082823D034
:105220001B282ED07F281FD00D2800F044810A288B
:1052300000F04181A0F120015E2942D8DFF86434FA
:105240000DF12202B3F804115054481CA3F80401D4
:10525000D85DB0B31868A0B3016891B38E6886B307
:1052600008A901F05DF82CE0DFF83804B0F804116B
:1052700039B30139A0F80411DFF8241511F01FFD2E
:105280001FE0DFF820040068D8B10168C9B1CE681A
:10529000BEB10DF2231101220A23B04788B99DF84F
:1052A00023015B280DD1DFF8FC03006848B10168D9
:1052B00039B1CE682EB10DF5917101220A23B047A4
:1052C00020B1DFF8E003B0F804018CE79DF822116B
:1052D0004FFA8BF0422910D04129F2D10128F0DB9E
:1052E000DFF8C043B4F80401E0B10138DFF8B014CE
:1052F000A4F8040101F077F8F4E7DFF8A82341F2FD
:105300002811565C711E81420FDDDFF89843B4F816
:105310000401C0B10138DFF88814A4F8040101F0D9
:1053200062F8F4E7ABF1010B0FE0CAD1DFF8744388
:10533000B4F80401D8B10138DFF86414A4F804010A
:1053400001F051F8F4E70BF1010B4FFA8BF00DF17E
:10535000220604EB002000F594713046FBF7BEFBFB
:10536000FBF7EBFBA4F804012046314686E700205A
:105370000025B346A4F804018DF82200A1E70DF141
:10538000220B002641F2316791E00DF122063554DF
:1053900002984FF40171FCF7D1FFDFF80814304692
:1053A000FBF71EFBBF4CB3460146002641F22C37EB
:1053B000E059C9B1072817DC079D3F2241F22C377D
:1053C00005EB8010FBF723FCB64CDFF8D813E0594F
:1053D00005EB801080F83F60E0590130E05100207B
:1053E000FBF7FEFA0146E3E7002841F23037C9D067
:1053F000AC4CE05B712837D0E05B512834D0079883
:10540000DFF8A41301F03FF970B30798DFF89C139D
:1054100001F039F940B3E05B682800F09A80E05B66
:10542000482800F09680E05B3F2800F092800798C3
:10543000DFF87C1301F027F9002800F08A80079834
:10544000DFF870130622FBF71DFB20B1E559DA489F
:10545000854240F0AA80DFF87C1300F0C4FFF6E03C
:10546000904811F085FC22E0CB4900F08DFE04F855
:10547000096087E78B4841F23363C25C82F0010127
:10548000002AC24AC154C04908BF0A46C1490CE0BB
:10549000844810F8082082F00101002ABB4A00F875
:1054A0000810B94908BF0A46B94911F031FC7D48D6
:1054B00010F8090052E57B4C0DF122068849B4F83A
:1054C0000401355400F08FFFB4F8040100283FF4C4
:1054D0005FAF9DF8220000283FF45AAF714941F2B6
:1054E000281011F800B0BBF1000F36D001EB0B20F3
:1054F0000DF1220628303146FBF7B6FB00283FF4B9
:1055000047AFBBF1100F2AD300250026B5F5706F09
:1055100039D06448411901F5947001F50A71FBF71F
:10552000DDFA05F58075F1E7A0F161018DF82360E2
:10553000C9B21A2938BF20388DF822005946594877
:1055400011F0E0FA0028B2D19DF820205548934987
:10555000ABE7204611F00CFC14E74FF0000B514C68
:105560000DF12201FF2204F5947606EB0B20FBF7E8
:105570004EFB41F22812A15C481C06EB0121A0540D
:1055800081F8FF500BE001980DF1220100F0EDFED3
:10559000444C41F22710265441F22810205C41F27D
:1055A00029110DF122066054F2E6E05B642840D038
:1055B000E05B44283DD00798804901F064F8C0B30F
:1055C000E05B732846D0E05B532843D007987C49C2
:1055D0000722FBF757FAE8B3079C7A4905222046D1
:1055E000FBF750FA002840D07749204601F04BF8ED
:1055F000002847D0A5F161008DF821608DF820507A
:10560000C0B2192898BF15F47F4004BFA5F120004F
:105610008DF8200008A9234811F074FA41F231678F
:1056200020B920486949079A11F072FB0DF1220B4D
:105630003DE741F23362A05C80F00101002852484E
:10564000A154524A534908BF024601F087F80DF1B0
:10565000220B97E614F808004C4A80F0010100285C
:10566000494804F808104A49EDE70E4C0DF1220BA9
:1056700094F8200100283FF485AE0A4C204611F032
:1056800003FBF5E7074811F0FFFA00280DF1220BA4
:105690007FF478AE03484E4911F05EFB72E649B0E4
:1056A000BDE8F08FF84A00208801002060B30108AF
:1056B00053544D333246347878204941500000002D
:1056C00056DC0108596D01087FDB0108F1DA010899
:1056D000C6DB010838DB010858DC010857EC01087B
:1056E00024C501089DDC0108202025730D0A000057
:1056F00020202573204D656E750D0A002CBB010816
:10570000456E7465722073656C656374696F6E3A7B
:1057100020000000456E7465722073656C656374CB
:10572000696F6E20286F722027682720666F7220AD
:1057300068656C702C2027712720746F2071756943
:1057400074293A200000000020205B25735D2000B2
:10575000200000002D200000203E3E00202864692B
:105760007361626C656429002D0000004E6F206D2E
:10577000656E75206974656D7320617661696C6111
:10578000626C652E0000000096DD010887DD0108CF
:10579000E2C10108F8C1010828D9010875BB010858
:1057A000E8B90108ECB90108D2EA0108D7EA010812
:1057B000DEE5010810E60108636C730086DE01086F
:1057C0005DE0010811E1010851E401089DBB0108F9
:1057D00082D901088BDD0108FEE7FEE70349487323
:1057E00003A151F8201005A0FAF7B4BE80C0012033
:1057F0001EE3010868D50108A4D501084F54413AB9
:10580000207461726765742073657420746F20253D
:10581000730D0A002DE9F04F87B0DFF80CA9DAF814
:105820000090D9F81400C00740F0618400F0F6FC45
:10583000014200F05C84D9F80808C0F30D20CAF8D2
:10584000D40400F0EBFC0840800705D5D9F814001B
:1058500000F00200C9F8140000F0E0FC09F5006B4C
:105860000840C00648463FD5D9F8180020F010007F
:10587000C9F81800D9F82050C5F3434005F00F04CB
:1058800006281AD0022848462AD147F6F07015EAB1
:105890000006484624D004EBC40035090AEB800713
:1058A00048462A46D7F8601202F01BFCD7F860027F
:1058B00000EB1610C7F8600207E00AF29C41484668
:1058C000082202F00EFCC5F30A1504EBC4000AEB33
:1058D0008000D0F868122944C0F86812DAF8000095
:1058E000816941F01001816141698269CDF808B098
:1058F0001140090340F1D280D0F81818D0F81C08E4
:105900000AF51D784FF430674FF0000B0840040C87
:10591000002C00F0BF80E00700F0B180DAF8000052
:1059200039188A68D0F8143803EA0206F20751D011
:1059300009EB070201239360036C8A689AF806500A
:10594000012D21D115072BD4950641D412F0280F33
:1059500040D1D94DAB4201D9120426D4D8F8002049
:1059600009696FF3DF41511AB7F5306F48F80C1C25
:1059700029D1DAF86422002A00F08880DAF860027F
:105980000844CAF860021EE0CB4D05F58075AB42B5
:105990000ED1100409D4900644BF2020886012E084
:1059A000C548834216D9100414D54FF4004010E0C6
:1059B000B7F5306F07D1DAF8641221B90AF29C42C8
:1059C000002102F083FA5FFA8BF0FDF731FF01E06E
:1059D0002020886030071DD509EB07000821B64B51
:1059E0008160DAF8001078180A6C81689A420FD941
:1059F000090444BF4FF400418160FDF7A1FF9AF80C
:105A00000600012806D1DAF8000000F0FFFB01E0F3
:105A1000FDF796FFF00642BF09EB070010218160F9
:105A2000B0071FD5D9F81400000604D502994868BC
:105A300040F48060486018F81D0C01280ED1002049
:105A400008F81D0C00F07FFD08D090F89C22032A76
:105A500004D14A6A12B15FFA8BF1904709EB070053
:105A600002218160B00642BF09EB0700202181605E
:105A7000B00442BF09EB07004FF40051816008F108
:105A80002408203764080BF1010B41E70AF29C421D
:105A9000012196E7DAF80000DDF808B000F0ADFC6F
:105AA000490340F14481D0F81818D0F81C08084088
:105AB00083B209F5106004900020CDE90590002B19
:105AC00000F03381D80700F02981DAF80000D0F81F
:105AD0001018069CD0F8342804F00F076501FA402E
