:020000040800F2
:10000000901F0020790200085F490008FD3E0008AB
:100010005D49000863080008C9820008000000006C
:10002000000000000000000000000000E161000886
:100030007509000800000000DB4A00081D65000883
:10004000930200089302000893020008930200083C
:10005000930200089302000893020008930200082C
:10006000930200089302000893020008930200081C
:10007000930200089302000893020008930200080C
:1000800093020008930200089302000893020008FC
:1000900093020008930200089302000893020008EC
:1000A00093020008CD65000893020008930200083F
:1000B00093020008930200089302000893020008CC
:1000C00093020008930200089302000893020008BC
:1000D00093020008930200089302000893020008AC
:1000E000930200089302000893020008930200089C
:1000F000930200089302000893020008930200088C
:1001000093020008015700089302000893020008B8
:100110001567000893020008930200089302000884
:10012000930200089302000893020008E108000807
:10013000930200089302000893020008930200084B
:100140009302000893020008930200086149000826
:1001500093020008ED0800089302000893020008CB
:10016000930200089302000893020008930200081B
:1001700093020008930200089302000800000000A8
:10018000930200089302000800F002F800F064F8FF
:100190000AA090E8000C82448344AAF10107DA45E2
:1001A00001D100F059F8AFF2090EBAE80F0013F0D0
:1001B000010F18BFFB1A43F001031847CC8E000053
:1001C000EC8E00000A444FF0000C10F8013B13F0D5
:1001D000070408BF10F8014B1D1108BF10F8015BA0
:1001E000641E05D010F8016B641E01F8016BF9D193
:1001F00013F0080F1EBF10F8014BAD1C0C1B09D1EA
:100200006D1E58BF01F801CBFAD505E014F8016B5B
:1002100001F8016B6D1EF9D59142D6D370470000ED
:100220000023002400250026103A28BF78C1FBD8FF
:10023000520728BF30C148BF0B607047642900F0E7
:100240001D81732900F03F82002070471FB508F020
:1002500001FE1FBD10B510BD00F068FA1146FFF792
:10026000F5FF08F0CBFC00F086FA03B4FFF7F2FFCD
:1002700003BC08F069FA00000948804709480047B4
:10028000FEE7FEE7FEE7FEE7FEE7FEE7FEE7FEE746
:10029000FEE7FEE704480549054A064B70470000A3
:1002A000BD6500088901000890190020901F0020FA
:1002B000901B0020901B002053EA020C00F0698084
:1002C0002DE9F04B4FF00006002B1FBFB3FA83F56A
:1002D00003FA05F424FA05F65E4012BF1643B2FA9B
:1002E00082F502FA05F4C5F120051EBF22FA05FCCD
:1002F00044EA0C04203556EA044C4FEA144418BF73
:10030000641C4FF000084FF00009904271EB030CA1
:1003100039D3002919BFB1FA81F701FA07F6B0FA0B
:1003200080F700FA07F6C7F120071EBF20FA07FC86
:1003300046EA0C062037B6FBF4FCA7EB0507103F96
:1003400007F01F0BCBF120060CFA0BFB2CFA06F67C
:1003500044BFB3460026202FA4BF5E464FF0000BDB
:100360005BEA060C08BF4FF0010B19EB0B09ABFB66
:10037000027C48EB0608C01B06FB02CC0BFB03CC3F
:1003800071EB0C01C1E70B46024641464846BDE809
:10039000F08B13B54FF000004FF00001AFF3008079
:1003A000BDE81C40704700000FB4044910B503AA13
:1003B000029800F08DF910BC5DF814FB04000020D9
:1003C0002DE9F0410E460446002020622046E168F7
:1003D000884730B3252805D0D4E901219047206A09
:1003E000401CF2E7E168204600278847050018D046
:1003F000A5F14100192802D820354FF40067324694
:10040000294620462760FFF719FF40B1012804D094
:10041000F61D26F007060836D8E7361DD6E728462B
:10042000DAE7206ABDE8F08170B50C460546012A7E
:1004300005D02878800600D5EA69002302E0012370
:1004400005E05B1C934202D2E05C0028F9D1A86968
:10045000E618C01AA861286A184428622846AFF333
:10046000008004E0D5E9012114F8010B9047B44263
:10047000F8D32846AFF3008070BD00002DE9F041AD
:100480000646002410687529314616A510D0AFF332
:100490000080002802DA404213A507E031688A078D
:1004A00001D512A502E0490704D511A5012401E0F8
:1004B000AFF3008000210A2206F1240709E0B0FB17
:1004C000F2FCB0FBF2F302FB1C003030785418460B
:1004D000491C0028F3D123462A463046BDE8F041A6
:1004E00000F086B8000000002D0000002B00000086
:1004F0002000000010B5203AC0F00B80B1E8185081
:10050000203AA0E81850B1E81850A0E81850BFF4FD
:10051000F5AF5FEA027C24BFB1E81850A0E818509C
:1005200044BF18C918C0BDE810405FEA827C24BFF0
:1005300051F8043B40F8043B08BF7047D20728BF7E
:1005400031F8023B48BF11F8012B28BF20F8023BCD
:1005500048BF00F8012B70474FF000020429C0F09B
:10056000128010F0030C00F01B80CCF1040CBCF1E5
:10057000020F18BF00F8012BA8BF20F8022BA1EB37
:100580000C0100F00DB85FEAC17C24BF00F8012B1C
:1005900000F8012B48BF00F8012B70474FF0000214
:1005A00000B5134694469646203922BFA0E80C5069
:1005B000A0E80C50B1F12001BFF4F7AF090728BF44
:1005C000A0E80C5048BF0CC05DF804EB890028BFC0
:1005D00040F8042B08BF704748BF20F8022B11F0E9
:1005E000804F18BF00F8012B704770477047704765
:1005F0002DE9F0470D4699469246044600F124083D
:100600000168880604D5E06921F01001216000E04E
:100610000120A84201DD471B00E00027A1697A19EB
:1006200002EB0900081AA0612078C00602D4204617
:10063000AFF30080002608E0D4E901211AF8060093
:100640009047206A401C761C20624E45F4DB2078DF
:10065000C0060AD52046AFF3008006E0D4E90121A8
:1006600030209047206A401C2062381EA7F1010705
:10067000F4DC07E0D4E9012118F805009047206A6E
:10068000401C2062281EA5F10105F3DC2046AFF3D3
:1006900000802078000602D50220BDE8F087012006
:1006A000FBE710B5436913B1AFF3008001E0FFF73A
:1006B000BBFE012010BD127800F124010A70002257
:1006C0004A700122EDE711684FF0FF32E9E70000C0
:1006D000074B70B50D467B4400F011F804462846E0
:1006E00000F020F810B14FF0FF3070BD204670BD13
:1006F0002B84000001694A1C02610878704700B52C
:100700008FB0CDE901310021059105497944CDE94A
:10071000031011466846FFF753FE0FB000BD0000FE
:10072000E5FFFFFF007B00F080007047754600F09A
:100730002BF8AE4605006946534620F00700854673
:1007400018B020B5FFF7A6FDBDE820404FF0000629
:100750004FF000074FF000084FF0000B21F00701A9
:10076000AC46ACE8C009ACE8C009ACE8C009ACE8EC
:10077000C0098D46704710B50446AFF3008020468F
:10078000BDE81040FFF771BD004870472C190020EC
:1007900010B501240821034800F00AFF00B100242D
:1007A000204610BD000C0240704700000146014881
:1007B00002F04EBB0C02002010B5044802F05AFBB8
:1007C000042801D0012010BD002010BD0C02002023
:1007D00010B500F015F8012801D0012010BD074820
:1007E00002F062FC040006D14FF40061034802F0FD
:1007F000D5F900B10124204610BD00000C020020F4
:1008000008B501208DF80000FFF7C2FF10B90020E5
:100810008DF800009DF8000008BD000038B50024E8
:10082000009313460A460146034802F037FD00B123
:100830000124204638BD00000C0200207047000053
:1008400038B50024009313460A460146034802F0D7
:100850001DFE00B10124204638BD00000C0200201E
:100860007047FEE730B504460020651804E000BF7D
:1008700014F8011B07F018FDAC42F9D3002107F072
:1008800013FDBDE83040002107F00EBD70B52622F3
:1008900011491248FFF72EFE0F4CE08C0F4DE884F3
:1008A000A06AA862A08DA885E08DE885206B2863EA
:1008B000606B6863092204F1380105F13800FFF725
:1008C00019FE94F8410085F8410094F8420085F83B
:1008D0004200606C686470BD98030020E003002053
:1008E000014800F0ADBA000090020020014800F07D
:1008F000A7BA0000F002002001681823CAB2103A1B
:10090000B2FBF3F2054B6FF30901032A9B5CC3654D
:1009100000D9091D8165084670470000768E0008E1
:1009200010B5014600208B698A6A4FF0C07453B13C
:10093000B3F5005F15D072B1012A0CD0022A0AD09B
:10094000032A09D104E01AB1012A06D0022A03D1F0
:10095000C96AC90100D5012010BDC96AA142FAD0F7
:1009600010BD002AF7D0012AF2D0022AF3D0032AC0
:10097000F3D010BD704772B6FEE70022AFF30080DF
:1009800030B50E4B054601205C7A002C14D1587A04
:100990001C54587A03EB800045605D7A03F108002F
:1009A0002A54587A421C5A72303008703A204870E3
:1009B0002F208870CC70002030BD00000819002066
:1009C000002229B101291AD002291BD04FF440720C
:1009D0000E490B6823F440730B600B6813430B60E4
:1009E0000A6822F078020A600A68022303EBC0005A
:1009F00002430A60086840F48030086070474FF492
:100A00008072E5E74FF40072E2E70000103C02401C
:100A10001348016889050FD5016821F40071016050
:100A2000016841F400610160016821F40061016026
:100A3000016841F400710160016849050FD5016842
:100A400021F480610160016841F480510160016816
:100A500021F480510160016841F4806101607047B8
:100A6000003C024000B587B000F02AF8094800F0C9
:100A70002DF902900A200390002102200091049099
:100A800005A9684600F04CFB002800D0012007B003
:100A900000BD00000080000810B588B040F6FF746B
:100AA00000F078FC684600F087FB00F00BFC029831
:100AB000844302D0022008B010BD0020FBE70000F4
:100AC00010B500F067FC0249F320086010BD00007B
:100AD0000C3C02402DE9F0411646884605460024AC
:100AE0000D4F13E058F8242000232946022000F07F
:100AF00013FC10B10320BDE8F08158F824002968E8
:100B0000814201D00220F6E7641C2D1DB44201D2BF
:100B1000BD42E7D90020EEE7FBFF0F0830B58FB0EC
:100B2000044640F6FF7507A800F046FB0120CDE91A
:100B30000004AA200490099C9DF834008DF8180048
:100B40002C4300F027FC00F0D3FB6846029400F031
:100B500053FB0FB030BD000008490A6822F4407210
:100B60000A600A6842F004020A600A684FF480339F
:100B700043EA002002430A6070470000103C024034
:100B8000064A136823F440731360136813601368F4
:100B900043F001031360017070470000103C0240F5
:100BA000094910B50C6824F440740C600C6844F4D6
:100BB00040740C600C6844F001040C600260BFF3E8
:100BC0006F8F436010BD0000103C0240074A13685D
:100BD00023F440731360136843F480731360136845
:100BE00043F001031360018070470000103C024095
:100BF000074A136823F440731360136843F40073C7
:100C00001360136843F00103136001607047000034
:100C1000103C024017490868C206174805D5C2694A
:100C200042F01002C26110220A600A68920605D5DD
:100C3000C26942F00802C26120220A600A685206B4
:100C400005D5C26942F00402C26140220A600A6806
:100C5000120605D5C26942F00202C26180220A6012
:100C60000A68920705D5C26942F02002C2610220DB
:100C7000086070470C3C02401800002070B5114914
:100C800004460020C86100F09DFC06460E4D09E0B8
:100C9000601C07D024B100F095FC801BA04201D954
:100CA000032070BD2868C003F2D42868C00701D0B3
:100CB00001202860286810F0F200F2D0FFF7AAFFA8
:100CC000012070BD180000200C3C02400021A0F162
:100CD00000634FF4804293423FD321490144914243
:100CE00001D2012139E01F490144914201D2022180
:100CF00033E01D490144914201D203212DE01B49FB
:100D00000144B1F5803F01D2042126E01849421880
:100D10004FF400318A4201D205211EE0154A0244F7
:100D20008A4201D2062118E0134A02448A4201D2C3
:100D3000072112E0114A02448A4201D208210CE044
:100D40000F4A02448A4201D2092106E00D4A1044AA
:100D5000884201D20A2100E00B21084670470000BA
:100D600000C0FFF70080FFF70040FFF70000FFF72B
:100D70000000FEF70000FCF70000FAF70000F8F7AB
:100D80000000F6F70000F4F72DE9F0410446876D06
:100D900000F018FC064694F835000025022806D01D
:100DA0008020606584F834500120BDE8F08120681F
:100DB000016821F0160101602068416921F080017D
:100DC0004161206C08B9A06C20B12068016821F055
:100DD000080101602068016821F0010101600CE058
:100DE00000F0F0FB801B052807D920206065032058
:100DF00084F8350084F83450D7E720680068C007CD
:100E0000EED194F85C103F208840B860012084F84F
:100E1000350084F834500020C7E790F835100229D7
:100E200003D08021416501207047052180F83510ED
:100E30000068016821F00101016000207047000096
:100E40002DE9F84304464FF00009CDF800906348BF
:100E50004FF41651A56D0068B0FBF1F72E6894F8B9
:100E60005C10082000FA01F131420FD021680A68B5
:100E700052070BD50A6822F004020A6094F85C104D
:100E80008840A860606D40F00100606594F85C10D7
:100E90004FF0010808FA01F0304208D02168496992
:100EA000090604D5A860606D40F00200606594F802
:100EB0005C1004208840304208D021680968890706
:100EC00004D5A860606D40F00400606594F85C1083
:100ED00010208840304218D021680968090714D5CD
:100EE000A86020680168490304D50068000308D59C
:100EF000A16C07E00168C90503D4016821F008016D
:100F00000160216C09B12046884794F85C102020CC
:100F10008840304231D021680968C9062DD5A860C3
:100F200094F8350005282068016806D0490347D5A4
:100F3000006800031DD4616C1CE021F01601016003
:100F40002068416921F080014161206C08B9A06CE2
:100F500020B12068016821F00801016094F85C105C
:100F60003F208840A86084F8358084F83490216D53
:100F70001FE0E16B09B120468847606D00282BD047
:100F8000606DC00714D0052084F835002068016822
:100F900021F0010101600098401C0090B84203D884
:100FA00020680068C007F6D184F8358084F8349052
:100FB000E16C002910D001B02046BDE8F04308479D
:100FC0000168C905D5D4016821F01001016084F8D9
:100FD000358084F83490CCE7BDE8F8830800002021
:100FE0002DE9F041044600F0EDFA06465CB102201E
:100FF00084F83500002584F834502068016821F019
:10100000010101600DE00120BDE8F08100F0DAFA95
:10101000801B052805D920206065032084F8350051
:10102000F2E720680068C007F0D122681168204804
:101030000140D4E901031843D4E90336334318438C
:1010400063691843A3691843E3691843236A184383
:101050000843616A042903D1D4E90B1319430843F7
:10106000106020684069666A20F0070130460E4330
:10107000012704280CD1A06A0643E06A40B120464B
:10108000FFF74EFC20B14020606584F83570BAE768
:10109000206846612046FFF72FFC94F85C203F2132
:1010A00091408160656584F835700020ACE70000F0
:1010B0003F8010F00E4910B50C4808600020086011
:1010C000091D0C4A0A60086009490B4A10390A6078
:1010D0000860C122091D0A6008600122091D0A601A
:1010E000086000F0B7FA002010BD0000FFC9FEF64E
:1010F0002038024033797704FF11602270B504462E
:1011000000F060FA0546601C02D0044800780444F0
:1011100000F058FA401BA042FAD370BD38000020FE
:101120002DE9F047044622480F46017E01290AD0E6
:101130000121804601764CF250394846FFF79EFD6A
:10114000020003D02FE00220BDE8F0874FF0FF300F
:1011500038602068174D012801D0A6681CE0207C6B
:101160006168FFF7F9FC4846FFF788FD02462868EA
:1011700020F00400286014E0217C3046FFF720FCBA
:101180004846FFF77BFD0200286820F07A002860BF
:1011900001D03E6005E0761CD4E902100844B0425C
:1011A000EAD8FFF735FC002188F818101046CBE785
:1011B00018000020103C02400F2101600D490988F1
:1011C00081600C4AAA21521E1378CC2B0FD01278C2
:1011D000AA2A00D0552101610649891E0A6802F039
:1011E000E0020276097801F00C0141617047CC21E0
:1011F000F1E70000163C02402DE9F0472E49044675
:1012000001200A7E012A11D0012288460A7621781F
:101210004CF2503AC90715D06068284D0128A668DD
:10122000504606D0FFF72AFD48B10BE00220BDE88A
:10123000F087FFF723FD28B92988B14301E0298809
:10124000314329802178890707D5257C5046FFF74F
:1012500015FD10B91949491E0D702178DFF860900D
:10126000490713D5207E00F0200700F0400500F06C
:1012700080065046FFF702FD40B999F8002002F0C1
:101280001F02154335433D4389F8005021784FF044
:10129000000209070CD5207D99F8003023F00C03DB
:1012A00089F8003099F80030034389F8003010467F
:1012B00088F81820BBE7000018000020163C024008
:1012C000143C02400348016841F0004101600020E5
:1012D00070470000103C02400448017841F00201D0
:1012E00001704CF25030FFF7C9BC0000143C0240C2
:1012F00006480068C00707D0044805490C3801605B
:10130000044901600020704701207047143C0240EE
:101310003B2A19087F6E5D4C2DE9F0471B4E0546B0
:101320001446307E1F468946012808D001203076B9
:101330004CF250384046FFF7A1FC18B114E00220EF
:10134000BDE8F0879DB1012D16D0022D19D022469F
:101350003B464846FFF724FC4046FFF78FFC0C490C
:101360000A6822F001020A6000213176E8E7E1B262
:101370004846FFF705FCEFE7A1B24846FFF726FC19
:10138000EAE721464846FFF733FCE5E7180000206E
:10139000103C0240074900200A68002A09DA054A81
:1013A000054B0C3A1360054B13600968002900DAFD
:1013B00001207047103C024023016745AB89EFCD07
:1013C0002DE9F84FDFF8BCA10022012503264FF0DC
:1013D0000F090AF1040BAAF1040E00BF0B6805FA0D
:1013E00002F42340A34270D10F7907F00307012FC5
:1013F00001D0022F16D187684FEA420806FA08FC8E
:1014000027EA0C07D1F80CC00CFA08FC4CEA070CD0
:10141000C0F808C04768A7430C79C4F3001494408F
:101420003C4344600C79E443A4070AD0C4684FEA03
:10143000420C06FA0CF7BC438F6807FA0CF72743F7
:10144000C7600C7904F00304022C12D1D40800EB1D
:10145000840CDCF820405707FF0E09FA07F824EA4D
:101460000804D1F8108008FA07F848EA0408CCF814
:10147000208004684FEA420C06FA0CF7BC430F794F
:1014800007F0030707FA0CF7274307604C6814F4CA
:10149000403F70D03C4C276847F480472760246861
:1014A00022F0030704F480440094384C07EB040C4A
:1014B000DCF8084897074FEA177809FA08F7BC43A1
:1014C000334FB84202D1002724E054E0314FB842F4
:1014D00001D101271EE0304FB84201D1022719E0A7
:1014E0002E4FB84201D1032714E02D4FB84201D14D
:1014F00004270FE02B4FB84201D105270AE02A4FFD
:10150000B84201D1062705E0284FB84201D107278C
:1015100000E0082707FA08F72743CCF80878DAF83C
:1015200000405746D1F804C09C435FEACC2C00D55C
:101530001C433C60DBF800405F46D1F804C09C438C
:101540005FEA8C2C00D51C433C60DEF800407746F7
:10155000D1F804C09C435FEA8C3C00D51C433C603E
:10156000084F083F3C68D1F804C09C435FEACC3C7C
:1015700000D51C433C60521C102AFFF42FAFBDE87D
:10158000F88F0000083C0140443802400030014020
:10159000000002400004024000080240000C02402B
:1015A000001002400014024000180240001C0240DB
:1015B0000069084000D0012070470AB1816170477E
:1015C0000904FBE7014880687047000038000020EC
:1015D0000248816802781144816070473800002019
:1015E0000B4810B5016841F400710160016841F4D5
:1015F00080610160016841F480710160032000F0A6
:1016000071F80F2000F006F800F026F8002010BD59
:10161000003C024070B50D4D04464FF47A712878B5
:10162000B1FBF0F00A490968B1FBF0F002F006F8EE
:1016300048B9102C07D200222146501E00F032F883
:1016400000206C6070BD012070BD000038000020DB
:1016500008000020704700000A4808B5016841F4FE
:1016600080410160006800F4804000900548001F40
:10167000016841F080510160006800F080500090E6
:1016800008BD000044380240002809DB00F01F02BA
:10169000012191404009800000F1E020C0F80011D4
:1016A00070470000F0B40E4B1B680C46C3F30223D6
:1016B000C3F10705042D00D90425191D072901D2FE
:1016C000002300E0DB1E012606FA05F1491E214039
:1016D00099409E40761E16403143F0BC07F024B876
:1016E0000CED00E0064900F0070208684FF6FF0322
:1016F000184040EA0220034A104308607047000087
:101700000CED00E00000FA0570470068416200201F
:101710007047F0B50368586A39B19C6A4FF4827615
:1017200000EB144400204D1E0AE040EA024098629B
:101730000FE006EB8007DF59401C04EB1744C0B2F2
:10174000A842F6D344EA02404FF4807202EB8101D2
:1017500058500020F0BDD0F8E00405F08EBB01EB3E
:10176000C10200EB8202D0F8E004126A05F0DFBA91
:1017700001EBC10200EB8202D0F8E004D2F8602253
:1017800005F031BBD0F8E00405F079BB0A0601F0A2
:101790000F0101EBC10100EB810101D5143101E022
:1017A00001F51571006806F0CDBB70B504460B0657
:1017B00001F00F0000EBC00104EB81014FF00102CA
:1017C0004FF0000502D54A75143103E081F85552F7
:1017D00001F51571087094F89404012808D084F874
:1017E0009424206806F0C8F884F89454002070BD52
:1017F000022070BD70B5044601F00F0022799042BE
:1018000001D9012070BD0B0601F00F0101EBC101F0
:1018100004EB81014FF001024FF0000502D54A753B
:10182000143103E081F8555201F515718D7008707F
:1018300094F89404012808D084F89424206806F0D1
:101840000DFA84F89454002070BD022070BD10B5CC
:10185000044690F8940401280AD0012084F89404E6
:10186000080607D501F00F01206806F0DCFB04E054
:10187000022010BD206806F0BAFB002084F8940412
:1018800010BD01F00F0101EBC10100EB8100D0F8A8
:10189000680270472DE9F04104460F0601F00F0081
:1018A00000EBC00104EB81014FF001064FF0000591
:1018B00002D54E75143103E081F8555201F51571CA
:1018C000C2F30A0208708A600B714A7802B1488339
:1018D000022B00D14D7194F89404012809D084F8AA
:1018E0009464206805F096FF284684F89454BDE877
:1018F000F0810220FBE710B501F00F0404EBC401F6
:1019000000EB8101C1E998230023C1F8683281F816
:10191000553281F85442837901F51571012B00D1BC
:10192000CA618279006806F0F1F9002010BD70B537
:1019300004460D4601F00F002179884201D90120AB
:1019400070BD29064FF000064FF0010206D500EBEE
:10195000C00104EB81014A75143107E005EBC501B4
:1019600004EB810181F8556201F515718A700870E8
:1019700094F89404012807D084F89424206806F091
:1019800099F9280702D007E0022070BDA17904F27E
:101990009C42206806F036F984F89464002070BDFB
:1019A00010B501F00F0404EBC40100EB8101C1E9A3
:1019B000082300238B6201234B7501F8144F8379B0
:1019C000012B00D1CA618279006806F09FF90020DE
:1019D00010BD00002DE9FC5F05680446284606F0AE
:1019E0004DFB00287DD1206806F074FB002878D0DC
:1019F000D5F80808C0F30D20C4F8D404206806F018
:101A000069FB800704D52068416901F0020141614A
:101A1000206806F05FFBC10604F29C40009034D5BC
:101A20002068816921F0100181612F6A07F00F00A1
:101A300000EBC00004EB8006C7F3434006F51576C3
:101A4000022802D0062811D01AE047F6F0700742AB
:101A500016D0C7F30A1217462846F16806F03EFB77
:101A6000F0683844F0607069384408E0082228467D
:101A7000009906F033FB7069C7F30A1108447061DE
:101A80002068816941F010018161206806F022FB25
:101A900000034FF0080B4FF0000A4FF001097CD50E
:101AA0000026206806F0F5FA074674E0F80770D0C3
:101AB000F1B2206806F006FB8046C00707D005EBB0
:101AC0004611C1F8089B3146204602F04FFF5FEAFD
:101AD000087024D505EB4611C1F808BB2068016CDD
:101AE00000E023E200EB46100191D0F8082BFB4BFD
:101AF000994205D9110403D54FF40041C0F8081BE1
:101B0000204600F0F6FAF5490198884207D9A079F5
:101B1000012804D120680121009A06F073F85FEAD9
:101B2000C86004D505EB46111020C1F8080B5FEA28
:101B300088701DD56869000605D5D5F8040840F4FD
:101B40008061C5F8041806EBC60004EB800090F82D
:101B5000571200F51570012905D180F803A0F1B2E4
:101B6000204600F0E9F905EB46110220C1F8080B08
:101B70005FEA886004D505EB46102021C0F8081BF9
:101B80005FEA884005D505EB46104FF40051C0F8D8
:101B9000081B7F08761C002F88D1206806F09AFA6F
:101BA00040036ED5206806F06DFA0746002666E011
:101BB000F80762D0F1B2206806F072FA8046C007DA
:101BC00023D006F00F01D5F8342809FA01F18A4331
:101BD000C5F8342805EB4611C1F80899A079012809
:101BE0000FD106EBC60004EB8000D0E907211144B9
:101BF000016236B9606A20B920680121009A06F0B6
:101C000001F8F1B22046FFF7AAFD5FEA087003D59C
:101C100005EB4611C1F808B95FEAC86004D505EBC9
:101C200046111020C1F808095FEA486004D505EBA9
:101C300046104021C0F808195FEA887016D5314671
:101C4000284606F0F0F906EBC60004EB8000C17DE3
:101C50001430012905D180F803A0F1B2204600F02C
:101C600067F905EB46110220C1F808095FEA086030
:101C700003D53146204602F0DFFE7F08761C002F98
:101C800096D1206806F026FA002811DAD5F8040863
:101C900020F00101C5F8041894F8CC0401282BD0D9
:101CA000204600F00BFA2068416901F000414161D3
:101CB000206806F00FFA00050BD5D5F80808C00714
:101CC00002D0204600F03EFA2068416901F400612C
:101CD0004161206806F0FEF9C00467D5D5F8040814
:101CE00020F00100C5F804081021206806F09BF9D7
:101CF00000214FF67F3220E084F8CCA4002120465A
:101D0000FFF702FDCFE700BF05EB4110C0F808293F
:101D1000D0F8003923F40013C0F80039C0F8082BBC
:101D2000D0F8003B23F40013C0F8003BD0F8003B90
:101D300043F00063C0F8003B491C20798842E3D897
:101D4000D5F81C0840F00111C5F81C18E07B0028EC
:101D500028460DD0D0F8840840F00B01C5F884184F
:101D6000D5F8440840F00B012846C5F844180DE0AA
:101D7000D0F8140842F22B010843C5F81408D5F82E
:101D8000100840F00B012846C5F81018D0F80008DC
:101D900020F4FE61C5F80018A1792068009A05F0CA
:101DA00031FF2068416901F480514161206806F0EB
:101DB00091F9800415D5206805F06CFD206806F0C7
:101DC00050F9E07100F0A8FB0146E279206806F0C6
:101DD000E3F9204600F05CF92068416901F4005104
:101DE0004161206806F076F9000707D5204600F02B
:101DF00069F92068416901F008014161206806F035
:101E000069F9000616D5A86920F08001A9610126AC
:101E10000DE000BF06EBC60004EB800090F857020F
:101E2000012803D1F1B22046FFF7B0FC761C2079DF
:101E3000B042EFD8206806F04DF9C0021FD5012648
:101E40004F4614E005EB4610D0F8000906EBC6013A
:101E500004EB81010A7E012A08D1002806DACF7539
:101E6000F0B240F080012046FFF790FC761C20790C
:101E7000B042E7D82068416901F4801141612068CF
:101E800006F028F9800234D501204A4629E000BF37
:101E900005EB4011D1F8001B00EBC00304EB8303FA
:101EA00093F85862012E1BD1002919DA94F8D464F2
:101EB000C1F3004106F001068E4211D183F857228A
:101EC000A96941F08003AB616969090608D4D5F8B6
:101ED000040840F40070C5F8040805E00A30544FC7
:101EE000401C21798142D3D82068416901F4001156
:101EF0004161206806F0EEF8400007D52046FFF764
:101F00002AFC2068416901F080414161206806F0A7
:101F1000E1F840070AD520684568680702D52046E1
:101F2000FFF730FC2068416829434160BDE8FC9F11
:101F3000D0F8E00404F0FFBFD0F8E00405F00FB8DB
:101F4000F8B5040005D094F895042668002510B172
:101F500006E00120F8BD84F89454204600F056F8BD
:101F6000032084F89504B6F1A04F00D1A571206834
:101F700005F042FE207C8DF8000094E80F0005F08B
:101F800097FC0226B8BB0021206806F0C6F890BB7B
:101F9000002001270DE000BF00EBC00104EB810130
:101FA0004F750875C8850D76CD610D62401CC0B2B5
:101FB0004D6221798142EFD8002011E000EBC00191
:101FC00004EB810181F8555281F8540281F858528E
:101FD000C1F85C52C1F86052401CC0B2C1F86452F2
:101FE00021798142EAD8207C8DF8000094E80F0026
:101FF00005F044FD10B184F89564AAE7657484F88F
:102000009574206805F02CFD0020F8BD10B586B051
:10201000044614216846FEF7C1FA2068B0F1A04FCB
:102020002FD119480021026842F0010202600068C5
:1020300000F0010005904FF4C05000900220CDE95F
:102040000101032003900A20049069460F48FFF71E
:10205000B7F90D48001D016841F0800101600A4890
:102060001430016841F4804101600068002200F4EE
:102070008040059011464320FFF714FB4320FFF7F3
:1020800003FB06B010BD00003038024000000240E3
:1020900070B50446C079012570B1022801D0FEF761
:1020A0006AFC2946D4F8E00404F0C8FFD4F8E00440
:1020B000BDE8704004F07CBF0025F2E7D0F8E004F2
:1020C00004F0A5BFD0F8E00404F0ABBF10B504469F
:1020D00090F8940401280AD0012084F894046174D3
:1020E000206806F048F8002084F8940410BD02200F
:1020F00010BDD0F8E02400F29C41104604F0AABFC5
:1021000010B50446006894F89414012909D00121FF
:1021100084F89414C168490609D5617B012902D06D
:1021200005E0022010BD816B41F48031816320689D
:1021300005F057FF206805F085FC002084F8940422
:1021400010BD000010B50446D0F8E00404F0C4FF50
:102150002068D0F8001E41F00101C0F8001EE07AAE
:10216000002804D00248016841F00601016010BD5A
:1021700010ED00E02DE9F843054600684FF0010935
:10218000C1074FF0000601D1400727D5DFF80C81C9
:10219000C8F86860FFF716FA0746414C05E000BF33
:1021A000FFF710FAC01B022857D820680001F7D4A7
:1021B00068688101287A41EA0070394984310860F1
:1021C000C8F86890FFF7FEF9074604E0FFF7FAF950
:1021D000C01B022841D820680001F7D52878800765
:1021E00052D52F484030016841F0805101600068AD
:1021F0002C4C00F080500090206840F480702060EB
:10220000FFF7E0F9074604E0FFF7DCF9C01B0228FE
:1022100023D82068C005F7D5214C7034206810F40D
:10222000407020D0A98901F4407181421BD0206800
:102230001D4920F44070C1F800900E6020602068B5
:10224000C00710D0FFF7BEF9064641F2883707E015
:10225000FFF7B8F9801BB84202D90320BDE8F88324
:1022600020688007F4D5E9680D48C1F301220830E1
:10227000032A0BD0016821F4F81101602068A989B4
:10228000C1F30B01084320600020E7E70268074B19
:1022900022F4F81219400A430260EFE700004742B7
:1022A0000038024000700040400E4742FFFCFF0F24
:1022B0002DE9F0470E46050065D0DFF81481D8F807
:1022C0000000F7B200F00700B04207D288F80070B3
:1022D000D8F8000000F00700B04254D128683D4C07
:1022E000810712D5400703D5206840F4E0502060F4
:1022F0002878000703D5206840F4604020602068FB
:10230000A96820F0F000084320602878C0072DD08D
:10231000304968680839012812D0022813D00328F0
:1023200011D00968890700292DDA216821F00301FD
:1023300001432160FFF746F9814641F2883A0EE0F9
:1023400009688903EFE709688901ECE7FFF73AF9C3
:10235000A0EB0901514502D90320BDE8F0872068B0
:10236000696800F00C00B0EB810FEFD1D8F80010D5
:10237000404601F00701B14207D90770006800F03C
:102380000700B04201D00120E7E72878400705D5D3
:102390002068E96820F4E0500843206028780007AE
:1023A00006D52068296920F4604040EAC100206019
:1023B00000F0D8F82168084AC1F30311515CC84005
:1023C0000649086006480068FFF724F90020C4E7C2
:1023D000003C0240083802405E8E000808000020E1
:1023E0003C0000202DE9F041FFF7ECF8444C054695
:1023F000206840F00100206005E000BFFFF7E2F830
:10240000401B022847D820688007F7D5206840F095
:1024100080002060FFF7D6F80546394E00200836C8
:10242000306041F2883704E0FFF7CCF8401BB84237
:1024300031D8306810F00C0FF6D1FFF7C3F805461D
:10244000206820F45020206005E000BFFFF7BAF8B4
:10245000401B64281FD820688003F7D4FFF7B2F828
:102460000546206820F08070206004E0FFF7AAF89D
:10247000401B02280FD820688001F7D4FFF7A2F88C
:102480000546206820F08060206007E0FFF79AF89A
:10249000401B022802D90320BDE8F081206800011A
:1024A000F4D417491748091D0860154916488431A6
:1024B000086013480C30016821F4F851016001688C
:1024C00021F400510160016841F41F0101600168BD
:1024D00041F4001101600A487430016821F00101E3
:1024E0000160016841F08071016009490748086096
:1024F00008480068FFF78EF80028CDD00120CBE710
:102500000038024010300004003000200024F400A5
:10251000080000203C0000200148006870470000CF
:10252000080000200448054900680968044AC1F30E
:102530008221515CC84070470800002008380240E2
:102540006E8E00080448054900680968044AC1F312
:102550004231515CC84070470800002008380240F2
:102560006E8E0008154810B5006810F00C02144873
:1025700013D04110042A0FD0082A0ED10F4C241F6B
:102580002268236802F03F025B0207D52068C0F38F
:102590008810A0FB010106E0084610BD2168C1F3C8
:1025A0008811A1FB00010023FDF786FE2168C1F31D
:1025B0000141491C4900B0FBF1F010BD0838024050
:1025C0000024F4002DE9F84F04006ED02078DFF8E5
:1025D0004C93C007A9F104054AD009F10400016831
:1025E000C1F38101012908D00068C0F381000228ED
:1025F0000AD1D9F80000400206D52868800337D5F3
:1026000060680028E1D033E06068B0F5803F10D00A
:10261000B0F5A02F286810D020F4803028602868FA
:1026200020F4802028606068A8B1FEF7CBFF064642
:102630000DE0286840F48030F4E740F48020286002
:10264000F7E700BFFEF7BEFF801B642873D8286839
:102650008003F7D50CE0FEF7B5FF064605E000BFA6
:10266000FEF7B0FF801B6428F0D828688003F7D4F9
:102670002078DFF8AC8280074FF0000A3ED5A748EB
:10268000001D016811F00C0F08D00068C0F3810034
:1026900002280BD1D9F80000400207D4286880072F
:1026A00016D5E068012800D112E033E1E068B8B146
:1026B0000120C8F80000FEF785FF064605E000BFD0
:1026C000FEF780FF801B0228C0D828688007F7D556
:1026D0002868216920F0F80040EAC10028600DE078
:1026E000C8F800A0FEF76EFF064604E0FEF76AFF9A
:1026F000801B02281FD828688007F7D4207800079D
:1027000022D5864F87486169703771B10121016018
:10271000FEF758FF064604E0FEF754FF801B022830
:1027200009D838688007F7D50EE0C0F800A0FEF79A
:1027300049FF064605E082E0FEF744FF801B0228C1
:102740007DD838688007F7D42078400768D5DFF84F
:10275000CCB100270BF13C0BDBF80000C0000BD420
:10276000DBF8001041F08051CBF80010DBF80000DE
:10277000012700F0805000906B4E3068C00510D4E7
:10278000306840F480703060FEF71CFF009005E078
:10279000FEF718FF0099401A022850D83068C0058B
:1027A000F6D55E4EA0686C3601280FD0052830683B
:1027B00010D020F001003060306820F0040030605C
:1027C000A068B8B1FEF7FEFE00900FE0306840F060
:1027D0000100F4E740F004003060F7E7FEF7F2FE96
:1027E0000099411A41F28830814266D830688007EA
:1027F000F4D50EE0FEF7E6FE009007E0FEF7E2FEFD
:102800000099411A41F28830814256D830688007D9
:10281000F4D42FB1DBF8001021F08051CBF8001078
:10282000A069C8B33D49091D0968C1F381010229A6
:102830004AD00228504607D0C8F8600000E03CE0CB
:10284000FEF7C0FE04463BE04746C8F86000FEF7CE
:10285000B9FE064605E000BFFEF7B4FE801B022865
:102860002BD828688001F7D4D4E907010843A16A6E
:102870002E4A490802EB0141626A41EA821108438B
:1028800094F82C1040EA0161C9F800100120386664
:10289000FEF798FE044606E03EE000BFFEF792FE1B
:1028A000001B022809D828688001F7D534E000BF52
:1028B000FEF788FE001B022802D90320BDE8F88F2E
:1028C00028688001F4D427E00128F7D0D9F8000067
:1028D000E26900F4800191421CD1226A00F03F01BC
:1028E000914217D147F6C071626A0140B1EB821F75
:1028F00010D1A26A4FF0FF3300F4403103EB5202D3
:10290000B1EB024F06D194F82C1000F07060B0EBE0
:10291000016F01D00120D1E70020CFE70438024049
:1029200000004742800E4742007000400000FFFF59
:1029300010B5040002D0607F10B106E0012010BD88
:1029400000202077204600F041F8022060772068C0
:10295000C168C943C90632D5CA21416221685320E2
:102960004862204602F0C6F820BB20688168164AFB
:10297000114081602168886862681043D4E90423AB
:102980001A43104388602168E06808612068016983
:10299000228941EA02410161204602F0CFF848B99C
:1029A00021680A6C22F480220A6421680A6CA369F7
:1029B0001A430A642268FF21516208B110BD002049
:1029C0000121617710BD0000BFFF8FFF1FB50021FF
:1029D00000910191029103910068084988420CD14D
:1029E00002200090C00103906846FFF7C3FB08B1C6
:1029F000FDF7C1FF0249012008601FBD002800400B
:102A00003C0E474270B50446007F0B46012819D0A2
:102A10000126267702206077B2B19878D97840EA0B
:102A2000014558781978000240EA41300543216891
:102A3000CA204862216853204862204602F05AF8B2
:102A4000D0B122E0022070BD5878C10603D500F055
:102A5000EF000A305870D87802F040F80204587835
:102A600002F03CF842EA0022987802F037F802437C
:102A7000187842EA4035DAE70748054020684560A3
:102A8000204602F05BF800B966772268FF215162A8
:102A90000021217770BD00003FFFFF002DE9F041CC
:102AA0000446007F0D46012823D04FF0010884F82A
:102AB0001C80022060772068002780684FEA406011
:102AC000D2B1002800DBEF70A878297840EA0146EF
:102AD0006878E978000240EA815006432168CA20FC
:102AE0004862216853204862204602F003F8B8B1DA
:102AF0002CE00220BDE8F081002800DBEF70287890
:102B000001F0ECFF0204687801F0E8FF42EA0022DD
:102B1000A87801F0E3FF0243E87842EA8056DDE757
:102B20000D480640206806602068816821F48021F5
:102B30008160D5E90301084321688A6810438860F1
:102B4000204601F0FBFF08B984F81D802268FF21B0
:102B500051622777CEE700007F7F7F0070B5044683
:102B60000B482168C860FEF72DFD05464FF47A76C4
:102B700007E000BFFEF726FD401BB04201D903204D
:102B800070BD2068C0688006F4D5002070BD0000CC
:102B90005F7F010010B5FDF707FE10BD2DE9FE4374
:102BA0000446002603200D4684F83400606C032898
:102BB0005ED0B5F5805F5BD04FF4006700204FF02A
:102BC0008068BD421FD1814600900190002120689D
:102BD00002F092FD800113D46946204603F014F9F7
:102BE00007000DD10198400334D5B4F8500001041A
:102BF000206802F0B9FD070002D10221206823E01D
:102C0000A06B384328E01DB1A06B40F0006023E0CA
:102C10008146009001900021206802F06DFD800146
:102C2000EED46946204603F0EFF80700E8D101989A
:102C3000C0030FD5B4F850000104206802F094FDE1
:102C40000700DDD10021206802F0DBFD0700D7D1AD
:102C50004F46D5E74746D3E7A063A06B144F4FF02C
:102C6000010848B12068876384F8348001260EE0AB
:102C7000A06B40F08050EFE7211DD4E9050C0EC990
:102C8000CDE90050CDF808C0206802F03FFD4FF4B8
:102C90000071206802F09CFD28B121688F63A16B50
:102CA0000143A163012684F834803046BDE8FE83E9
:102CB000FF05400070470000F0B5426E920F0A70A9
:102CC000426EC2F383624A70426EC2F301628A703E
:102CD000426E120CCA70B0F86420120A0A7190F8A1
:102CE00064204A71826E120DCA80826EC2F3034262
:102CF0000A72B0F86820C2F3C0324A72B0F8682095
:102D0000C2F380328A72B0F86820C2F34032CA72CD
:102D1000B0F86820C2F300320A7300264E73426C8A
:102D20004FF40075012462B1012A3AD00268474984
:102D30009163816B41F08051816380F834400120C0
:102D4000F0BDB0F86820C36E9205120D42EA93728E
:102D50000A61C26EC2F3C2620A75C26EC2F3026237
:102D60004A75C26EC2F342528A75C26EC2F3824283
:102D7000CA75C26EC2F3C2320A760A69521C426533
:102D80000B7E03F007039B1C9A4042650B7A03F00D
:102D90000F0704FA07F383655B0A5A43C0E9172556
:102DA0000EE090F86820C36E9206920A42EA13423F
:102DB0000A610A69521C92024265C0E91652056610
:102DC00030F86C2FC2F3803201F8192F0288C2F359
:102DD000C6124A70027802F07F028A704268D20FEF
:102DE000CA704268C2F341720A714268C2F38262D9
:102DF0004A714268C2F383528A714268C2F34052F8
:102E0000CA710E724268C2F300424A728288C2F3EB
:102E1000C0328A728288C2F38032CA728288C2F358
:102E200040320A738288C2F300324A738288C2F346
:102E300081228A738288C2F30122CA730079C0F3A7
:102E4000460008744C740020F0BD0000FF054000EF
:102E5000426C0A60826C4A60C26C8A60026DCA6011
:102E6000426D0A61826D4A61C26D8A61006EC861FD
:102E70000020704770B50446B0F8500000250104EA
:102E8000206802F0A6FD18B1A16B0143A16304E024
:102E90000021206802F030FC0546C5F3432070BDD8
:102EA000F8B5056B04460068416B09041BD529077A
:102EB00019D5D4E90A56002E14D00027206802F054
:102EC0003BFC05F8010B010A05F8011B010C05F894
:102ED000021B000E361F7F1C05F8010C082FEDD3D6
:102EE000C4E90A56F8BD416B4FF00006C9054FF022
:102EF000010744D5390281632068C16B4CF23A3234
:102F00009143C1632068C16A21F00101C1622807B1
:102F10001DD515F0220F09D0206802F08BFD28B1D5
:102F2000A16B0143A1632046FFF7C4FE216840F274
:102F30003A50886384F834702663A80703D020468B
:102F400000F09CFAF8BD204600F09CFAF8BD280677
:102F5000FCD5A80609D5206802F06CFD28B1A16B4C
:102F60000143A1632046FFF7A5FEA807EED1206824
:102F7000C16A21F00801C16284F83470E3E7416B53
:102F8000490424D5290722D5D4E90856002EDDD0DE
:102F90005FF0000715F8010B009015F8011B361FB4
:102FA00040EA0120009015F8021B40EA0140009021
:102FB00015F8011C40EA016000906946206802F0A3
:102FC000CEFB7F1C082FE5D3C4E90856F8BD416B42
:102FD00040F23A221142F9D0416B890703D5A16B27
:102FE00041F00201A163416B090703D5A16B41F0D8
:102FF0000801A163416B890603D5A16B41F0200153
:10300000A163416BC90603D5A16B41F01001A16317
:10301000416B890503D5A16B41F00801A16340F222
:103020003A7181632068C16B40F23A329143C163C7
:10303000206802F0FFFCA16B0843A063280706D5B7
:1030400084F8347026632046FFF734FEF8BD280666
:10305000FCD515F0300F0CD0E16B11480865E06B22
:10306000FDF7DBFE0028F1D0E06BBDE8F84002F090
:10307000A9BEA8070CD0216C0A480865206CFDF792
:10308000CCFE0028E2D0206CBDE8F84002F078BE0B
:10309000A66384F8347026632046FFF77BFDF8BDF5
:1030A000C55D0008815D000870B504000ED094F87D
:1030B0003400002518B92577204600F04DF803208C
:1030C00084F83400204600F00BF808B1012070BDF0
:1030D000A5632563012084F83400002070BD000042
:1030E000FEB50025044676200095CDE901502B461B
:1030F0002A462946206802F009FB154E46F8A05FD3
:10310000206802F015FB012535600220FDF7F6FF6F
:10311000204602F061FF28B184F83450A16B0143CE
:10312000A16313E0204602F0DFFE0028F4D14FF443
:103130000071206802F04CFB002808D02268054985
:103140009163A16B0143A16384F834500120FEBD5B
:1031500000802542FF0540002DE9F04F87B005466D
:1031600014216846FDF71AFA4649286888427DD13D
:1031700045480068444940F400600860086800F46D
:10318000006005904048143800683F4940F0040052
:1031900014390860086800F004000590086840F0E1
:1031A000080008600868032600F0080005904FF446
:1031B000F8500090022001900020CDE902060C2476
:1031C000694604943148FEF7FBF804270220CDE954
:1031D00000700020CDE90206694604942C48FEF7F1
:1031E000EFF82D4C2B484FF00068C4E90008002090
:1031F000A060E06038022061C4E90976800004F133
:1032000014014FF480494FF0200A4FF4403B81E80D
:10321000010EC60247022046C4E90B67FDF7E0FE37
:1032200008B1FDF7A8FB2C64A5631B4C194860345A
:103230004830C4E900084020A0600020E0604FF45E
:103240008060206104F11401800081E8010E0420F7
:1032500060621431032081E8C1002046FDF7C0FE02
:1032600008B1FDF788FBEC63002200E007E00121D4
:103270003120A563FEF716FA3120FEF705FA07B0F4
:10328000BDE8F08F002C01404438024000080240A5
:10329000000C024058640240900200202DE9F04FDB
:1032A00087B09B4616460D460446FEF78BF9009004
:1032B0003DB194F83400012807D0A06B40F00050D5
:1032C0000DE0A06B40F0006009E00020A063E26D1B
:1032D00006EB0B01914204D9A06B40F00070A06393
:1032E0008AE0032184F834102168C862616C0129E6
:1032F00000D076024FF0FF3101914FEA4B2102914D
:103300004FF0010803AA902102278146CDF81880CA
:1033100082E8820201A9206802F0D8F9BBF1010F0E
:1033200005D927633146206802F0C4FA05E0C4F8E5
:1033300030803146206802F0D6FADFF83CA130B187
:103340002268C2F838A0A16B0143A16350E0029E3D
:103350001FE0406B000413D596B10027206802F0EF
:10336000EBF905F8010B010A05F8011B010C05F842
:10337000021B000E361F7F1C05F8010C082FEDD331
:10338000FEF720F901460098091A1098814220D2D0
:10339000F8B12068426B40F22A310A42D9D0416B21
:1033A000C90509D5BBF1010F06D9616C032903D00A
:1033B00002F040FB0028C3D12068416B090702D40A
:1033C000416B89051AD5C0F838A0A06B40F0080001
:1033D00050E02168C1F838A0A06B40F00040A06325
:1033E00084F83480C4F83090032007B0BDE8F08F33
:1033F00084F83480C4F830900120F6E7416B8907E7
:1034000005D5C0F838A0A06B40F0020032E0416B57
:1034100089061BD5C0F838A0A06B40F0200029E039
:1034200002F08AF905F8010B010A05F8011B010CED
:1034300005F8021B000E05F8010C361FFEF7C2F856
:103440000099411A109881420ED268B12068416BF0
:10345000890201D5002EE3D1216840F23A508863F9
:1034600084F834800020C0E72168C1F838A0A06B40
:1034700040F00040A063BBE7FF05400010B5FDF73A
:10348000DDF910BD10B5FDF7EBF910BD2DE9F04FDA
:103490008DB09B4616460D460446FEF793F80A90FB
:1034A0003DB194F83400012807D0A06B40F00050E3
:1034B0000DE0A06B40F0006009E00020A063E26D29
:1034C00006EB0B01914204D9A06B40F00070A063A1
:1034D0007AE0032184F834102168C862616C012904
:1034E00000D076024FF0FF3103914FEA4B21049157
:1034F0009021CDE905104FF00109CDE90709824679
:1035000003A9206802F0E2F8BBF1010F06D92020E0
:1035100020633146206802F0A7FA05E010202063FE
:103520003146206802F0B9FA5FEA000806D0216847
:1035300041488863A06B40EA080074E0049E27E0DD
:10354000406B40041CD5DEB15FF0000715F8010B9D
:10355000009015F8011B361F40EA0120009015F875
:10356000021B40EA0140009015F8011C40EA01608E
:1035700000906946206802F0F2F87F1C082FE5D31E
:10358000FEF720F80A99411A1698814220D2F8B124
:103590002068416B40F21A321142D1D0416BC9050B
:1035A00023D5BBF1010F20D9616C03291DD002F096
:1035B00041FAD0B1226820499163A16B0143A16314
:1035C00084F83490C4F830A001200DB0BDE8F08F2D
:1035D000216819488863A06B40EA0800A06384F85A
:1035E0003490C4F830A00320EFE72068416B09074E
:1035F00002D4416B890505D50F498163A06B40F06A
:10360000080010E0416B890705D50B498163A06B69
:1036100040F0020007E0416BC90606D50649816308
:10362000A06B40F01000A063CAE740F23A518163FA
:1036300084F834900020C8E7FF05400010B5401E14
:10364000B0F1807F01D3012010BD4FF0E024606114
:103650000F21601705F068F80020A06107202061A5
:10366000002010BD7047704770B590F83C20012ACB
:1036700032D0012480F83C40022280F83D200368CB
:103680005A689D6822F070060A6832435A60134BEC
:1036900002689A4214D0B2F1804F11D0104B9A4276
:1036A0000ED0104B9A420BD00F4B9A4208D00F4BC2
:1036B0009A4205D00E4B9A4202D00E4B9A4204D148
:1036C000496825F080031943916080F83D4000214E
:1036D00080F83C10084670BD022070BD000001401B
:1036E0000004004000080040000C004000040140BD
:1036F000004001400018004010B5040003D094F8C9
:103700003D0010B107E0012010BD002084F83C000E
:10371000204600F01FF8022084F83D00211D20689B
:1037200002F05AFF012084F8460084F83E0084F835
:103730003F0084F8400084F8410084F8420084F897
:10374000430084F8440084F8450084F83D000020DC
:1037500010BD000008B500680B49884212D10B4823
:10376000016841F0010101600068002200F00100E1
:10377000009011461920FDF795FFBDE8084019207B
:10378000FDF782BF08BD0000000001404438024040
:1037900090F83D10012901D001207047022180F8E6
:1037A0003D100168CA6842F00102CA600068114910
:1037B000884214D0B0F1804F11D00F4988420ED00A
:1037C0000E4988420BD00E49884208D00D498842E4
:1037D00005D00D49884202D00C49884204D1816845
:1037E00001F00701062903D0016841F001010160E1
:1037F0000020704700000140000400400008004025
:10380000000C00400004014000400140001800404E
:1038100070B5044690F83C000025012817D0012619
:1038200084F83C60022084F83D002068826822F021
:10383000770222F47F4282600868502838D00DDC7D
:1038400020284FD005DC90B3102811D14AE0022087
:1038500070BD302846D040280AD13BE060282FD0E8
:1038600070280DD0B0F5805F03D0B0F5005F12D0A6
:10387000012584F83D60002084F83C00284670BD96
:10388000CB68D1E90121206802F00EFF2068816831
:1038900041F0770109E0CB68D1E90121206802F00D
:1038A00003FF2068816841F480418160E1E719E00D
:1038B000CA684968206802F009FF5021206806E0C4
:1038C000CA684968206802F012FF6021206802F08F
:1038D000F5FECEE7CA684968206802F0F7FE40218D
:1038E0002068F4E7226801461046F0E770472DE9AA
:1038F000F04104460068C66805694FF00007A90753
:1039000013D5B10711D5F91E016101202077206878
:1039100080698007204602D0FFF7E8FF04E000F04E
:103920007EF8204600F07CF82777680716D57007E8
:1039300014D521686FF00400086102202077206808
:10394000806910F4407F204602D0FFF7CFFF04E0EB
:1039500000F065F8204600F063F82777280715D5B2
:10396000300713D521686FF0080008610420207724
:103970002068C0698007204602D0FFF7B7FF04E047
:1039800000F04DF8204600F04BF82777E80616D5F2
:10399000F00614D521686FF0100008610820207728
:1039A0002068C06910F4407F204602D0FFF79EFFD8
:1039B00004E000F034F8204600F032F82777E807FA
:1039C00008D0F00706D021686FF00100086120469A
:1039D00000F028F8280608D5300606D521686FF0D3
:1039E000800008612046FFF73DFE680608D5700696
:1039F00006D521686FF040000861204600F022F8EB
:103A0000A8060AD5B00608D521686FF02000086125
:103A10002046BDE8F041FFF726BEBDE8F0817047C3
:103A20007047000000680549884205D104490888AC
:103A3000401C088005F0C4B8704700000000014039
:103A4000140000207047704770470000F8B5016807
:103A500004460868CA684B6910F00F0F4FF0000564
:103A600059D003F0010602F49077374365D0C107BF
:103A700005D0D10503D5616C41F0010161644107B6
:103A800005D5D90703D0616C41F00201616481075B
:103A900005D5D90703D0616C41F0040161640107C9
:103AA00007D502F02001314303D0616C41F00801D9
:103AB0006164616C00293AD0800604D5900602D575
:103AC000204602F05BFE20684069616CC0F3801004
:103AD000090700D460B3204602F029FE206840693F
:103AE000400621D52068143050E8001F21F0400125
:103AF00040E80012002AF5D1E06BA8B172490165D7
:103B0000E06BFDF78AF9002811D0E06B016D01B080
:103B1000BDE8F040084783060FD593060DD5204633
:103B2000BDE8F84002F02ABE2046FFF78DFFF8BD41
:103B30002046FFF789FF6564F8BD266B2023012E20
:103B40007ED1C6067CD5D6067AD50868486800902E
:103B500048694FF0020640064DD5E26B1068406898
:103B60004FF480770004000C3AD0A18D814237D900
:103B7000E085D069B8422DD020680C3050E8001F95
:103B800021F4807140E80012002AF5D12068143039
:103B900050E8001F21F0010140E80012002AF5D191
:103BA0002068143050E8001F21F0400140E8001266
:103BB000002AF5D184F84230256320680C3050E8A3
:103BC000001F21F0100140E80012002AF5D1E06B3F
:103BD000FDF7DAF86663A08DE18D401A81B206E048
:103BE000A18D8142A8D1D069B842A5D16663204693
:103BF000FFF729FFF8BDA08DE18D401A81B2E08D5D
:103C00000028F7D00029F5D020680C3050E8002FAC
:103C100022F4907240E80027002FF5D1206814307C
:103C200050E8002F22F0010240E80027002FF5D1D4
:103C300084F84230256320680C3050E8002F00E003
:103C400006E022F0100240E80023002BF3D1CDE77C
:103C500005062BD5150629D594F841002128C9D190
:103C6000A068B0F5805F01D12069B0B1206A411C25
:103C70002162216800784860E08C401E0004000C3E
:103C8000E084B7D12068C16821F08001C16020685C
:103C9000C16841F04001C160F8BD206A0088C0F3EE
:103CA00008004860206A801C2062E5E74006F3D5E2
:103CB0005006F1D5CA68204622F04002CA6084F856
:103CC000413000F01AF9F8BD2167000870B5040012
:103CD00004D094F84100002510B106E0012070BD29
:103CE00084F84050204600F023F8242084F8410056
:103CF0002068C16821F40051C160204602F0A0FD97
:103D00002068016921F4904101612068416921F036
:103D10002A0141612068C16841F40051C1606564B5
:103D2000202084F8410084F842006563002070BDC3
:103D300010B586B0044614216846FCF72FFC1749DD
:103D40002068884227D116480021026842F40022E8
:103D50000260006800F400200590114810380268E5
:103D600042F0010202600068022200F001000590AA
:103D70000320CDE90210CDE9000208200490694635
:103D80000848FDF71DFB002201213420FDF78AFCC5
:103D90003420FDF779FC06B010BD0000004C004057
:103DA00040380240000002402DE9F84F044690F8E8
:103DB00042009A4616460D46202802D00220BDE851
:103DC000F88FB5B1AEB100206064222184F84210B2
:103DD0002063FDF7F7FBA6858146E685A0684FF4D2
:103DE00080582027404501D1206920B12E4600256A
:103DF00029E00120E3E7002625E04B4600222021B0
:103E00002046CDF800A002F0A1FD18B184F8427060
:103E10000320D4E726B1A06840451AD038B108E0A5
:103E200020684068C0F3080025F8020B08E020690C
:103E300078B12068406800F07F0000BF06F8010BF1
:103E4000E08D401EE085E08D0028D6D184F84270D8
:103E5000B5E720684068F1E770472DE9F84304466C
:103E600090F84100984616460D46202802D00220C0
:103E7000BDE8F88385B17EB100206064212084F81C
:103E80004100FDF79FFBA6848146E684A0682027B9
:103E9000B0F5805F02D003E00120E9E7206910B1AE
:103EA0002E4600250EE000260CE08021204602F080
:103EB0004DFDA8B9C6B116F8010B21684860E08C29
:103EC000401EE084E08C4B464FF00002CDF80080AD
:103ED0000028EAD14FF04001204602F037FD40B102
:103EE00084F841700320C3E735F8020BC0F30800E3
:103EF000E3E784F841700020BAE77047FEE700006E
:103F0000F0B500220D4B154614460A27B1FBF3F617
:103F100030368654B1FBF3F603FB1611B3FBF7F30F
:103F2000521C861816F8016C302E00D125B16D1C7C
:103F3000641C0A2CEAD3F0BD0022F9E700CA9A3BC0
:103F4000F0B500230A24302537261F4611E000BFB4
:103F5000B4EB107F02D905EB107C01E006EB107C7E
:103F600001F813C001EB430C00015B1C8CF80170DD
:103F7000DBB29342ECD3F0BD2DE9F0410546D0F819
:103F8000D40205EB8000D0F8C042002C1ED094F87B
:103F90001C040F4E40B9D4F8180428B1607A18B93F
:103FA0003178284603F086F80A4F2846397803F01E
:103FB00081F8607A022809D13978284603F07AF826
:103FC00031782846BDE8F04103F074B8BDE8F081CF
:103FD0009D0100209C01002070B50546D0F8D40258
:103FE00005EB8000D0F8C042002C66D0D4F8140451
:103FF000C4F83404D4F81804C4F838042F480178FD
:10400000284602F054FF1F280ED12D49D4F8100481
:10401000884209D194F81D142068814204D894F88C
:104020001E0408B1102809D994F81D142023052274
:10403000284601F0F7F90220607209E004F21F42FD
:10404000284600F047FE0028207A08DA052804D028
:104050002846BDE87040FFF78FBF012128E0022805
:104060002BD0012829D0032827D0E668FEB1D5F847
:10407000D412284605EB810104F11002D1F8C012D8
:1040800000291AD0D1F81834B34200D33346D1F8FE
:104090003844A41BC1F83844002481F83C4404246B
:1040A0000C7208490978BDE8704003F022B800217D
:1040B0002846BDE8704000F0DBB870BD9D010020CF
:1040C000555342439C01002010B50446D0F8D40259
:1040D00004EB8000D0F8C002002818D0407A0228F3
:1040E00009D0090613D5012811D02046BDE810409B
:1040F000012100F0BDB806480178204602F0DAFF41
:10410000044801782046BDE8104002F0D3BF10BD3E
:104110009C0100209D01002010B50446D0F8D40277
:1041200004EB8000D0F8C022002A17D0107A0228B1
:1041300005D0032801D0042810D1002109E092F80D
:104140001D14204602F21F4200F0C4FD002805DACB
:1041500001212046BDE8104000F08AB810BD10B51E
:104160000446D0F8D40204EB8000D0F8C022002A24
:1041700017D0107A80B1012813D192F81D1420466F
:1041800002F21F4200F0A6FD00280ADA2046BDE830
:104190001040012100F06CB82046BDE81040FFF748
:1041A0001BBF10BDD0F8D41200EB8100D0F8C002C4
:1041B000002801D0002101727047000070B505464B
:1041C000D0F8D40205EB8000D0F8C042002C24D0F7
:1041D00000202072607284F8610484F8600484F81E
:1041E0006204D5F8D40205EB8000D0F8C40201685F
:1041F00000208847094E2846317802F04FFE0848D3
:104200000178284602F04AFE04F582623178284699
:10421000BDE870401F2302F0C2BE70BD9D010020AA
:104220009C01002070B50546D0F8D40205EB800053
:10423000D0F8C042002C16D00020207201206072FD
:1042400009480178284602F060FD084E284631787A
:1042500002F05BFD04F5826231782846BDE87040CB
:104260001F2302F09CBE70BD9C0100209D01002018
:1042700070B50546D0F8D40205EB8000D0F8C042F6
:10428000002C18D00C48C4F8300484F83C140020EA
:1042900020720A480D2304F586620178284602F050
:1042A00028FF074804F582621F2301782846BDE8ED
:1042B000704002F074BE70BD555342539C01002003
:1042C0009D0100200D4808B5016841F4800101609E
:1042D0000068002200F48000009002213B20FDF7DE
:1042E000E1F93B20FDF7D0F9002202214520FDF73E
:1042F000D9F9BDE808404520FDF7C6B9303802407D
:1043000010B504490448FCF738FB0249491E0870FF
:1043100010BD0000E2000020808E000870B586B05D
:1043200014216846FCF73AF921480024016841F05D
:1043300004010160016801F004010591016841F088
:1043400080010160016801F080010591016841F080
:1043500001010160016801F001010591016841F06E
:1043600002010160016801F002010591016841F05C
:104370000801016000680F4E00F00800059000225F
:1043800004213046FDF719F9042000900125CDE9FC
:104390000154694630460394FDF712F808208DE871
:1043A000310069460448FDF70BF806B070BD000007
:1043B0003038024000040240000C024010B586B0C4
:1043C00014216846FCF7EAF81B48002419490594B3
:1043D000C0E900147F218160FF21C0E9031444611A
:1043E0008461FEF7A5FA08B1FCF7C5FA8DF8004024
:1043F0008DF801408DF802400394012269460E4871
:104400000494FEF74BFB08B1FCF7B5FA01208DF8D8
:1044100014008DF815008DF8160002468DF817402F
:1044200005A90548FEF7EEFA002801D0FCF7A3FA2B
:1044300006B010BD00280040EC01002006480549E8
:104440000160002141608160C16001614161816161
:1044500070470000002C01400C02002010B586B00F
:10446000002418480094019402940394049414497D
:10447000059401605321C0E9011440F2CF71C0E9F5
:1044800003148021C0E90541FFF736F908B1FCF7B4
:1044900072FA4FF48050009069460A48FFF7B8F965
:1044A00008B1FCF768FA049404A906480594FFF7DC
:1044B000DBF8002801D0FCF75EFA06B010BD000062
:1044C00000000140500300200C4810B50A4901606B
:1044D0004FF4E1314160002181600C22C160C0E9EC
:1044E00004128161C161FFF7F1FB002803D0BDE830
:1044F0001040FCF740BA10BD004C0040980300206B
:1045000010B500220F49104802F0ECFB08B1FCF78F
:1045100032FA0E490C4802F06FFF08B1FCF72BFA93
:104520000B49094802F0D6FE08B1FCF724FA064808
:1045300002F0E6FF002803D0BDE81040FCF71BBAEC
:1045400010BD0000E8000020A00A00206401002047
:104550003801002008B500208DF800003D4801F02A
:1045600073FF3D4801F070FF3C4801F06DFF3C488F
:1045700001F06AFF394801F067FF3A4801F064FF33
:10458000344801F061FF38A001F05EFF384D4FF074
:10459000FF36384CFCF780FA206037A001F054FF5A
:1045A00045A001F051FF54A001F04EFF62A001F0C0
:1045B0004BFF206808B170A000E07FA001F044FF2D
:1045C0008DA001F041FF286840683346012269460A
:1045D0002748FFF7E9FB9DF80000312807D0322873
:1045E00008D0332809D034280FD093A014E001F06C
:1045F000FDFDCFE701F0B0FECCE79FA001F024FF66
:10460000A649D1E900018847C4E7206890B100209D
:10461000FCF784FA18B1A2A001F016FFBAE7ACA02B
:1046200001F012FFB2A001F00FFFFCF755FEFCF7FE
:10463000B1FEAFE70120FCF771FA08B1B4A0EBE7D7
:10464000BEA001F001FFAAA001F0FEFEFCF744FEAF
:10465000A0E700003C900008A48F00080C8F000821
:10466000F08F0008588F00080D0A0D0A00000000A6
:10467000E00300200C0000200D0A3D3D3D3D3D3D86
:104680003D3D3D3D3D3D3D3D3D3D3D3D3D204D6143
:10469000696E204D656E75203D3D3D3D3D3D3D3D86
:1046A0003D3D3D3D3D3D3D3D3D3D3D3D3D3D3D3D3A
:1046B0003D3D3D3D0D0A0A002020446F776E6C6F32
:1046C000616420696D61676520746F20746865207E
:1046D000696E7465726E616C20466C617368202D22
:1046E0002D2D2D2D2D2D2D2D2D2D2D2D2D2D2D2DFA
:1046F00020310D0A0A000000202055706C6F6164A3
:1047000020696D6167652066726F6D207468652031
:10471000696E7465726E616C20466C617368202DE1
:104720002D2D2D2D2D2D2D2D2D2D2D2D2D2D2D2DB9
:1047300020320D0A0A000000202045786563757458
:104740006520746865206C6F6164656420617070B9
:104750006C69636174696F6E202D2D2D2D2D2D2DAB
:104760002D2D2D2D2D2D2D2D2D2D2D2D2D2D2D2D79
:1047700020330D0A0A000000202044697361626C36
:1047800065207468652077726974652070726F7433
:10479000656374696F6E202D2D2D2D2D2D2D2D2DE2
:1047A0002D2D2D2D2D2D2D2D2D2D2D2D2D2D2D2D39
:1047B00020340D0A0A0000002020456E61626C65FD
:1047C000207468652077726974652070726F7465F3
:1047D0006374696F6E202D2D2D2D2D2D2D2D2D2DDA
:1047E0002D2D2D2D2D2D2D2D2D2D2D2D2D2D2D2DF9
:1047F00020340D0A0A0000003D3D3D3D3D3D3D3D5C
:104800003D3D3D3D3D3D3D3D3D3D3D3D3D3D3D3DD8
:104810003D3D3D3D3D3D3D3D3D3D3D3D3D3D3D3DC8
:104820003D3D3D3D3D3D3D3D3D3D3D3D3D3D3D3DB8
:104830003D3D0D0A0A000000496E76616C696420F6
:104840004E756D6265722021203D3D3E20546865A5
:10485000206E756D6265722073686F756C6420627E
:10486000652065697468657220312C20322C2033F4
:10487000206F7220340D00005374617274207072C6
:104880006F6772616D20657865637574696F6E2EF0
:104890002E2E2E2E2E0D0A0A0000000044000020AD
:1048A0004572726F723A20466C6173682077726944
:1048B000746520756E2D70726F74656374696F6EA8
:1048C000206661696C65642E2E2E0D0A00000000C2
:1048D00057726974652050726F74656374696F6E86
:1048E0002064697361626C65642E2E2E0D0A0000CF
:1048F00053797374656D2077696C6C206E6F7720C7
:10490000726573746172742E2E2E0D0A0000000001
:104910004572726F723A20466C61736820777269D3
:1049200074652070726F74656374696F6E20666160
:10493000696C65642E2E2E0D0A0000005772697492
:10494000652050726F74656374696F6E20656E6167
:10495000626C65642E2E2E0D0A000000FEE7FEE755
:104960000148FDF737B80000041400202DE9F0419C
:1049700003680D4604461E6C03EB4511D1F8080B85
:1049800094F806E04FF400474FF0200C04F29C42EC
:10499000BEF1010F09D0DFF898E0764539D1020465
:1049A00032D500BFC1F8087B3FE0224B5FEA007EB2
:1049B00004D59E4239D90004F4D436E05FEA806E13
:1049C00002D5C1F808CB30E010F0280F2DD19E425F
:1049D00001D90004E6D405EBC50004EB8000D1F852
:1049E000101BD0F87432C1F31201591AC0F86812C2
:1049F00000F51570ADB903691BB1C2681144C160FF
:104A00000FE0012120680AE080060AD5C1F808CB32
:104A100007E035B9D4F8640218B90021184603F04C
:104A2000F1F8E9B22046FCF7A3FE0020BDE8F081D2
:104A30000A31544F0A30544F2DE9F84F0E4601EB1E
:104A4000C60100EB810481460568D4E909101434DD
:104A5000884202D90120BDE8F88F081AA168814276
:104A600000D20846C01C870805EB46181BE000BFB3
:104A7000A0EB010AA068504500D282460AF103006B
:104A8000870899F8060000901FFA8AF3F2B22846C8
:104A9000E16803F0F5FBE16801EB0A00E0606169A1
:104AA00001EB0A006061D8F8180980B2B84205D35A
:104AB000D4E90401814201D20028D9D1D4E904010A
:104AC000884208D806F00F0101208840D5F8341834
:104AD0008143C5F834180020BDE77047002102E08B
:104AE0000A38C0B2491C0A28FAD2090740EA116004
:104AF000704700002DE9F041044600680025C168B8
:104B0000490618D4C16841F08001C160FCF75AFD24
:104B100006464FF47A78042707E000BFFCF752FD01
:104B2000801B404501D9677701252068C068400691
:104B300001D4002DF2D02846BDE8F08170B50446BE
:104B400000680025C16821F08001C160206880688C
:104B5000800606D42046FEF701F810B104206077E5
:104B60000125284670BD00002DE9F84300240F46BA
:104B70000646904613460C60012269462848FFF716
:104B800013F9050020D19DF80000182820D006DC7C
:104B900001280BD002280BD0042804D104E04128BE
:104BA00027D0612825D0012530700DE0802401E058
:104BB0004FF480643070221D4346B11C1848FFF743
:104BC000F3F8050017D0002428463C60BDE8F883C0
:104BD0004346012269461248FFF7E6F818B99DF8E6
:104BE0000000182803D001259DF80000DCE702240E
:104BF000DAE70225D8E7F178B07881F0FF01884242
:104C00000AD130190179407900EB01282146301D85
:104C1000FBF728FE4045D7D000240125D4E700004B
:104C2000E003002070B5D0F8D4424FF0FF3600EB1F
:104C30008404D4F8C05205EB011404F264443DB17D
:104C40001A4463689A4205D92123052200F0EAFB41
:104C5000304670BD002070BD70B50446D0F8D40257
:104C6000134604EB80024FF0FF35D2F8C00280B14A
:104C7000D0F818647EB15E78F60716D0997871B1D5
:104C800080290FD090F81D1424230522204600F01F
:104C9000C9FB284670BD90F81D142023F5E70622B5
:104CA0000A490FE008220A490CE0D2F8C42201EBBD
:104CB000C1011B79D26902EB81010A79521D93422D
:104CC00000D81A4600F004FC002070BDCA01002084
:104CD000D00100202DE9F0411646D0F8D4224FF043
:104CE000FF3500EB8202D2F8C082B8F1000F51D03C
:104CF00033786F4F0024252B71D011DC1B2B32D061
:104D000007DC0BB3032B24D0122B27D01A2B19D17D
:104D10004AE01C2B70D01E2B3DD0232B12D17EE0FD
:104D20009E2B6AD008DC282B68D02A2B67D02F2B2B
:104D300071D05A2B06D153E0A02B6DD0A82B6CD08C
:104D4000AA2B6BD0202322E03246BDE8F04100F0D0
:104D50008FBB3246BDE8F04100F020BB3246BDE8D3
:104D6000F041FFF779BF98F86224012A04D1327923
:104D700002F00302022A7CD0317901F003000128FD
:104D80000FD002280AD0C84380070AD07BE0052252
:104D900000F048FB75E0307918B1012088F8620412
:104DA00071E088F862446EE00846D2F8C412042527
:104DB000C968884728B13F48817841F080018170F7
:104DC00003E0B87820F08000B8703079042800D86B
:104DD00005462A4637491CE02046BDE8F08123E01D
:104DE0000846D2F8C4120825C96888470028F87810
:104DF00006D040F0800005E04DE01AE01EE027E01C
:104E000020F08000F870307A082800D8054628493C
:104E10002A46404649E025E038E014E01DE03246ED
:104E2000BDE8F04100F048BA3246BDE8F04100F07C
:104E3000A4B93246BDE8F04100F0E2B93246BDE81F
:104E4000F04100F0E5B83246BDE8F04100F038B975
:104E50003246BDE8F04100F04BBB3246BDE8F041C0
:104E600000F0B8BB737808EB011202F264429B07B2
:104E700001D524238BE7D3689268FFF7D3FE00287F
:104E800001DA2846A9E7C8F80C40A5E73246BDE894
:104E9000F04100F055BAB6F8031040464ABA002A6D
:104EA0009AD0082A00D90822034900F011FB93E7A1
:104EB000DC010020D8010020E40100202DE9F047AA
:104EC0000746D0F8D402894607EB80004FF0FF3840
:104ED000D0F8C06206EB091404F26444E6B12188FC
:104EE000E5684FF480624D43954200D31546B5FB0B
:104EF000F1F1D0F8C4028BB206F11001D0F810C065
:104F0000A2688A464846E047002808DA11230422AE
:104F10004946384600F086FA4046BDE8F0870F481B
:104F20002B4652460178384602F0E3F82088A16803
:104F3000B5FBF0F00844A0602088E168B5FBF0F014
:104F4000081AE060D6F83804401BC6F83804E06858
:104F500008B9032030720020DFE700009C01002028
:104F60002DE9F05F8A46D0F8D412804600EB81002C
:104F70004FF0FF39D0F8C06206EB0A1404F2644423
:104F8000E6B12188E5684FF480674D43BD4200D308
:104F90003D46B5FBF1F1D0F8C4028BB206F1100129
:104FA000D0F814C0A2688B465046E047002808DAC3
:104FB000032304225146404600F034FA4846BDE837
:104FC000F09F2088A168B5FBF0F00844A06020881D
:104FD000E168B5FBF0F0081AE060D6F83804401B31
:104FE000C6F83804E36863B120884343BB4200D36A
:104FF0003B4606485A460178404601F0D0FF002063
:10500000DDE700214046FFF733F9F8E79D01002076
:105010002DE9F0470746D0F8D402884607EB800018
:105020001646D0F8C0424FF0FF3904EB081505F2E0
:10503000644554B3217AB9BB94F81C1409062ED5E3
:1050400094F86214022905D0D0F8C4028168404661
:10505000884730B13A2302224146384600F0E2F94F
:1050600013E07088317940BA000440EA0120717978
:105070000843A860B6F80700414643BAEB603846DB
:10508000AA68FFF7CFFD002802DA4846BDE8F0879E
:105090002988E8684843D4F81814884205D02023AA
:1050A00094F81D140522D8E701E0022020724FF485
:1050B0008060E06041463846BDE8F047FFF7FEBE3D
:1050C0002DE9F0470746D0F8D402884607EB800068
:1050D0001646D0F8C0424FF0FF3904EB081505F230
:1050E00064457CB3217A81BB94F81C14090634D53D
:1050F00094F86214022905D0D0F8C40281684046B1
:10510000884730B13A2302224146384600F08AF9F6
:1051100018E07088317940BA000440EA01207179C2
:105120000843A860F088317A40BA000440EA0123BD
:10513000707A41460343EB603846AA68FFF772FD78
:10514000002803DA4846BDE8F0870DE02988E868C2
:105150004843D4F81814884204D0202394F81D142E
:105160000522D2E7022020724FF48060E0604146C1
:105170003846BDE8F047FFF7A1BE2DE9F0410646ED
:10518000D0F8D402884606EB80004FF0FF37D0F805
:10519000C04204EB081505F2644544B1D0F8C402DE
:1051A0002A46291D43684046984710BB02E038460E
:1051B000BDE8F08194F8620402281AD06868401EA5
:1051C000000E20746868401E000C6074A888401EA1
:1051D000000AA0742879401EE074002020756075D4
:1051E0002888000AA0752878E0750820E060002073
:1051F000DEE73A2302224146304600F013F9D6E7B3
:105200002DE9F0470746D0F8D402894607EB800025
:105210001646D0F8C0424FF0FF3804EB091505F2EE
:10522000644544B1D0F8C4022A46291D4368484663
:10523000984798B902E04046BDE8F08794F86204C8
:1052400002280BD07089317B40BA000440EA01206B
:10525000717B0843E0600020014609E03A23022206
:105260004946384600F0DEF8E5E72218401C117484
:10527000E2688242F9D86868401E000E20756868AE
:10528000401E000C6075A888401E000AA075287991
:10529000401EE075217661762888000AA07628787D
:1052A000E0767089317B40BA000440EA0120717BCE
:1052B0000843E0600020BFE72DE9FC410546D0F837
:1052C000D4020F4605EB80004FF0FF36D0F8C04205
:1052D00044B1D0F8C4026A4601A9436838469847E9
:1052E00030BB02E03046BDE8FC8194F8620402283D
:1052F0001ED0002001462218401C80B211740C28D8
:10530000F9D30820E0740198401E020E2275020CA9
:105310006275020AA275E075022020766176BDF8FA
:105320000000010AA176E0760C20E0600020DAE7B8
:105330003A2302223946284600F074F8D2E70000EA
:1053400010B5D0F8D41200EB8100D0F8C04284B17F
:1053500018211148FBF700F920680F4BC1000831F4
:10536000080E1870080C5870080A9870D97000223E
:1053700007E04FF0FF3010BD03EBC2004272521C39
:10538000D2B220689042F7D208318AB20249204650
:1053900000F09EF8002010BD1419002030B5D0F8A0
:1053A000D4124FF0FF3400EB8101D1F8C01231B3B9
:1053B000D1F818342BB3002004460B18401CC0B29F
:1053C0001C741228F9D3702008740C20C87591F849
:1053D000600491F8613498421CD001EBC003401C7A
:1053E00093F840548D7493F844540D7793F84534F2
:1053F000C0B24B7781F86004042809D00AE0204647
:1054000030BD91F81D142023052200F00BF8F6E7BB
:1054100081F860441220C8601079122800D8C86052
:10542000002030BDD0F8D41200EB8100D0F8C002CB
:1054300000281CD090F8611400EBC10181F84024D1
:1054400090F8611400EBC10181F8443490F86124B4
:10545000002100EBC20282F8451490F86124521C2E
:10546000D2B280F86124042A01D180F86114704717
:105470002DE9F0410546D0F8D402884605EB8000BE
:105480004FF0FF37D0F8C042E4B1D4F8181439B166
:1054900094F81D14202305222846FFF7C3FF11E0CE
:1054A00094F862140526022905D0D0F8C402816858
:1054B0004046884748B13A23022241462846FFF732
:1054C000B1FF26723846BDE8F0810020E060FAE7BF
:1054D00010B508B1C26007E04FF0FF3010BD521E9A
:1054E00092B284188B5C2374002AF8D1002010BD7E
:1054F0002DE9F0470646D0F8D402894606EB800035
:105500001746D0F8C0424FF0FF3804EB091505F2FA
:105510006445E4B3217A29B149463046BDE8F047F5
:10552000FFF71EBDD4F81814A1B394F81C14090693
:1055300038D4D0F8C40281684846884728B13A2355
:105540000EE03046FFF76EFF21E0D6F8D40206EBFE
:105550008000D0F8C402C1684846884718B12723A4
:1055600002224946EDE77888397940BA000440EADA
:10557000012079790843A860B7F80700494643BA83
:10558000EB603046AA68FFF74DFB002803DA40467F
:10559000BDE8F08706E02888EB684343D4F8180498
:1055A000984204D0202394F81D140522C9E74FF433
:1055B0008060834200D3034601202072044804F136
:1055C00010020178304601F0EAFC0020E0E700001C
:1055D0009D0100202DE9F0470746D0F8D4028A4605
:1055E00007EB80001646D0F8C0424FF0FF3904EBBD
:1055F0000A1505F2644594B3217A29B1514638461B
:10560000BDE8F047FFF7ACBCD4F8181419B194F812
:105610001C14090607D594F81D14202305223846CA
:10562000FFF700FF35E0D0F8C40281685046884794
:105630004FF0050808B13A230AE0D7F8D40207EB87
:105640008000D0F8C402C1685046884740B1272383
:10565000022251463846FFF7E5FE84F8088018E03C
:105660007088317940BA000440EA0120717908431A
:10567000A860F088317A40BA000440EA0123707AC9
:1056800051460343EB603846AA68FFF7CBFA00287F
:1056900002DA4846BDE8F0872888EB684343D4F82F
:1056A00018049842B7D14FF48060834200D3034678
:1056B00001202072044804F110020178384601F0FC
:1056C0006EFC0020E6E700009D0100200A684262AF
:1056D0004A688262D1E902231A43D1E904310B43BB
:1056E000C16A1A4321F0F7011143C16200207047DB
:1056F000006800F0030070470844406970470000EC
:105700000148FDF7CDBB00000C02002070B50DF183
:10571000100C11439CE8700023431943294342684D
:10572000314347F6FF639A430A434260002070BD4D
:105730000321016000207047D0F8800070470A689C
:105740008260D1E901231A43D1E903310B43C168D7
:105750001A436FF30B011143C160002070470968C1
:10576000C0F880100020704710B585B0044637207F
:10577000CDE9001040200290002003904FF480609B
:10578000049069462046FFF7DAFF41F2883237215C
:10579000204600F09BF905B010BD000010B504468E
:1057A0000A4885B001432920CDE90010402002902D
:1057B000002003904FF48060049069462046FFF774
:1057C000BEFF204600F03AFA05B010BD0000108080
:1057D00010B585B004461020CDE90010402002909D
:1057E000002003904FF48060049069462046FFF744
:1057F000A6FF41F288321021204600F067F905B07B
:1058000010BD10B585B004460620CDE9001040203B
:105810000290002003904FF4806004906946204677
:10582000FFF78DFF41F288320621204600F04EF945
:1058300005B010BD30B585B0002405460094019434
:105840004FF480600294CDE9034069462846FFF793
:1058500076FF0B484FF4FA510068B0FBF1F041F2CB
:1058600088314843401E03D24FF0004005B030BDA0
:10587000696B0906F6D5C520A8632046F6E7000047
:105880000800002010B585B004464FF4D570009094
:105890000820019040200290002003904FF4806087
:1058A000049069462046FFF74AFF204600F02CFA94
:1058B00005B010BD10B585B004461220CDE900102A
:1058C00040200290002003904FF4806004906946CD
:1058D0002046FFF734FF41F288321221204600F0C3
:1058E000F5F805B010BD10B585B004461120CDE91E
:1058F000001040200290002003904FF4806004903C
:1059000069462046FFF71BFF41F2883211212046ED
:1059100000F0DCF805B010BD10B585B004460720D6
:10592000CDE9002040200290002003904FF48060D9
:10593000049069462046FFF702FF41F288320721B2
:10594000204600F0C3F805B010BD10B585B0044680
:1059500000210220CDE90010C020CDE902014FF462
:105960008060049069462046FFF7E9FE204600F07B
:105970003DF905B010BD10B585B004460920CDE94C
:105980000010C0200290002003904FF4806004902B
:1059900069462046FFF7D3FE204600F027F905B000
:1059A00010BD10B585B0044600213320CDE90010AC
:1059B0004020CDE902010001049069462046FFF72E
:1059C000BEFE41F288323321204600F07FF805B058
:1059D00010BD10B585B004460D20CDE90010402063
:1059E0000290002003904FF48060049069462046A6
:1059F000FFF7A5FE41F288320D21204600F066F83F
:105A000005B010BD30B585B00C4605460021032019
:105A1000CDE900104020CDE9020100010490694663
:105A20002846FFF78CFE22460321284600F028F97D
:105A300005B030BD10B585B0044600210C20CDE97D
:105A400000104020CDE90201000104906946204683
:105A5000FFF775FE034A0C21204600F037F805B029
:105A600010BD000000E1F50510B585B00446192011
:105A7000CDE9001040200290002003904FF4806098
:105A8000049069462046FFF75AFE41F288321921F8
:105A9000204600F01BF805B010BD10B585B00446D7
:105AA0001820CDE9001040200290002003904FF410
:105AB0008060049069462046FFF741FE41F288323B
:105AC0001821204600F002F805B010BD454B10B576
:105AD0001B684FF4FA54B3FBF4F353435B1E02D23A
