:020000040800F2
:10000000F09001208D0200081B78000801650008AF
:1000100019780008E910000851C700080000000026
:10002000000000000000000000000000059A000829
:100030003D1200080000000097790008A5A90008FB
:10004000A7020008A7020008A7020008A7020008EC
:10005000A7020008A7020008A7020008A7020008DC
:10006000A7020008A7020008A7020008A7020008CC
:10007000A7020008A7020008A7020008A7020008BC
:10008000A7020008A7020008A7020008A7020008AC
:10009000A7020008A7020008A7020008A70200089C
:1000A000A702000855AA0008A7020008A702000836
:1000B000A7020008A7020008A7020008A70200087C
:1000C000A7020008A7020008A7020008A70200086C
:1000D000A7020008A7020008A7020008A70200085C
:1000E000A7020008A7020008A7020008A70200084C
:1000F000A7020008A7020008A7020008A70200083C
:10010000A702000805890008A7020008A702000846
:100110009DAB0008A7020008A7020008A70200087C
:10012000A7020008A7020008A70200088111000822
:10013000A7020008A7020008A7020008A7020008FB
:10014000A7020008A7020008A70200081D780008FF
:10015000A70200088D110008A7020008A7020008E6
:10016000A7020008A7020008A7020008A7020008CB
:10017000A7020008A7020008A7020008000000006C
:10018000A7020008A702000800F002F800F06EF8CD
:100190000AA090E8000C82448344AAF10107DA45E2
:1001A00001D100F063F8AFF2090EBAE80F0013F0C6
:1001B000010F18BFFB1A43F001031847205201003A
:1001C000605201000A444FF0000C10F8013B13F09C
:1001D000070408BF10F8014B1D1108BF10F8015BA0
:1001E000641E05D010F8016B641E01F8016BF9D193
:1001F00013F0080F1EBF10F8014BAD1C0C1B09D1EA
:100200006D1E58BF01F801CBFAD505E014F8016B5B
:1002100001F8016B6D1EF9D59142D6D370470000ED
:100220000023002400250026103A28BF78C1FBD8FF
:10023000520728BF30C148BF0B607047642900F0E7
:100240008981752900F08681782900F0BF817329A2
:1002500000F0A385002070471FB514F078FA9DE8E0
:10026000030000F0D3FC1FBD10B510BD00F0FCFD75
:100270001146FFF7F1FF13F02DFD00F01AFE03B455
:10028000FFF7F2FF03BC0CF03BFE0000094880477B
:1002900009480047FEE7FEE7FEE7FEE7FEE7FEE768
:1002A000FEE7FEE7FEE7FEE704480549054A064B80
:1002B0007047000045AA000889010008F06001208D
:1002C000F0900120F0700120F070012070B506461A
:1002D00000F080FC056806F10B0020F00704B44232
:1002E0009CBF002070BD2B466A68BAB11068A0425E
:1002F00010D304F1080188423CBF5068586007D30E
:100300005168101941601168091B01605860146040
:10031000101D70BD13465268002AE7D121462846B9
:1003200000F060FC0028DED170BD70B50446051FEA
:1003300000F050FC0068002C14BF446870BD002C15
:1003400018BFAC423CBF20466468F8D301680A1865
:10035000AA4218BF456003D12A68054611440160CE
:1003600028684119A1421CBF6C6070BD616869605A
:1003700021680844286070BD53EA020C00F06980CF
:100380002DE9F04B4FF00006002B1FBFB3FA83F5A9
:1003900003FA05F424FA05F65E4012BF1643B2FADA
:1003A00082F502FA05F4C5F120051EBF22FA05FC0C
:1003B00044EA0C04203556EA044C4FEA144418BFB2
:1003C000641C4FF000084FF00009904271EB030CE1
:1003D00039D3002919BFB1FA81F701FA07F6B0FA4B
:1003E00080F700FA07F6C7F120071EBF20FA07FCC6
:1003F00046EA0C062037B6FBF4FCA7EB0507103FD6
:1004000007F01F0BCBF120060CFA0BFB2CFA06F6BB
:1004100044BFB3460026202FA4BF5E464FF0000B1A
:100420005BEA060C08BF4FF0010B19EB0B09ABFBA5
:10043000027C48EB0608C01B06FB02CC0BFB03CC7E
:1004400071EB0C01C1E70B46024641464846BDE848
:10045000F08B13B54FF000004FF00001AFF30080B8
:10046000BDE81C40704700000FB4044910B503AA52
:10047000029800F097FC10BC5DF814FB00C001204E
:100480000FB41CB50C0007AA009001D02044401EF8
:10049000074B7B4469460190069800F04CFC002C09
:1004A00003D06946002000F059FC1CBC5DF814FB29
:1004B000D108000070B5044685690068C10601D501
:1004C000302600E02026C00707D070BDD4E9012106
:1004D00030469047206A401C20626D1EF6D570BDE4
:1004E00070B5044685690078C00707D170BDD4E9AE
:1004F000012120209047206A401C20626D1EF6D505
:1005000070BD70B50C460546012A05D028788006D6
:1005100000D5EA69002302E0012305E05B1C934259
:1005200002D2E05C0028F9D1A869E618C01AA861D7
:10053000286A184428622846FFF7BCFF04E0D5E982
:10054000012114F8010B9047B442F8D32846FFF775
:10055000C7FF70BD2DE9F0410646002410687529DB
:10056000314616A510D0AFF30080002802DA4042D1
:1005700013A507E031688A0701D512A502E04907F3
:1005800004D511A5012401E0AFF3008000210A2267
:1005900006F1240709E0B0FBF2FCB0FBF2F302FB2A
:1005A0001C00303078541846491C0028F3D12346EB
:1005B0002A463046BDE8F04100F05EBB0000000076
:1005C0002D0000002B0000002000000070B5044644
:1005D0000D4621461068AFF300802188090502D539
:1005E0000F4A7A4402E00E4A7A440E32002104F1A6
:1005F000240305E000F00F060009965D5E54491CD7
:100600000028F7D120780023000704D5702D02D0F0
:1006100009B1022311322046BDE8704000F02CBB26
:10062000594B01002DE9F05F894604464FF0000A5E
:10063000DFF874B1FB44C0F820A02046E168884789
:10064000002874D0252806D0D4E901219047206ADB
:10065000401C2062F1E700265F462046E16888479B
:100660002028054607DB312D05D2781910F8200C1B
:1006700008B10643F1E7B00701D526F00406C4F837
:100680001CA00027C4F818A02A2D09D028460CF079
:10069000EBFB38B304EB8708303DC8F8185019E07D
:1006A00059F8041B204604EB87029161E1688847F2
:1006B000012F054618D1E069002820DA26F020062F
:1006C0001DE0D8F8180000EB800005EB4000303842
:1006D000C8F818002046E168884705460CF0C4FBBE
:1006E0000028EED1012F0AD02E2D08D12046E16836
:1006F00088477F1C0546022F46F02006C4DBA06910
:10070000002803DA404246F00106A061F00701D05C
:1007100026F010066C2D0BD0682D09D04C2D39D049
:100720006A2D35D0742D35D07A2D33D016E038E0CF
:10073000E1682F4620468847B842054609D16C2F0C
:1007400026D04FF48060E16806432046884705467E
:1007500004E06C2F1AD04FF4807006430DB3A5F15E
:100760004100192802D8203546F400664A46294639
:10077000204626604E46FFF761FD80B101280BD070
:10078000F61D26F0070000F1080956E74020E4E7CF
:100790008020D8E70020D6E706F104094DE7284677
:1007A00052E7206ABDE8F09F2F4B010010B50020F2
:1007B00000F00AFBFFF758FDBDE8104001200CF0E7
:1007C0009FBB401ECAB210F8011F8A4202D0002906
:1007D000F9D10020704730B503461D781DB10A4697
:1007E00003E0AC4201D1181A30BD12F8014B002CC5
:1007F000F7D15B1CF1E710B5431E13F8014F002C35
:10080000FBD105E011F8014B002C03F8014B03D09C
:10081000521EF7D20021197010BD30B503461D7865
:100820003DB10A4612F8014B1CB1AC42FAD15B1C37
:10083000F5E7181A30BD30B505460B462A4613F8C1
:10084000014B12F8010B08B1A042F8D01CB10028EE
:1008500002D06D1CF1E7284630BD40EA010310B517
:100860009B070FD1042A0DD310C808C9121F9C4240
:10087000F8D020BA19BA884201D9012010BD4FF032
:10088000FF3010BD1AB1D30703D0521C07E000207F
:1008900010BD10F8013B11F8014B1B1B07D110F8DC
:1008A000013B11F8014B1B1B01D1921EF1D11846DF
:1008B00010BD40EA0103024630B59B0710D14FF04E
:1008C000013400E008C208C91D1B9D4315EAC41F7E
:1008D000F8D013F0FF0102F8011B0DD01B0AF8E756
:1008E00011F8013B002B02F8013B05D011F8013B48
:1008F000002B02F8013BF3D130BD0022CBB210F83F
:10090000011B994200D1421E0029F8D110467047C0
:1009100010B5431C02E010F8011B71B18107FAD138
:100920004FF0013202C88C1A8C4314EAC211F9D07C
:10093000C01A0A0603D0C01E10BDC01A10BD0A049A
:1009400001D0801E10BD0902FCD0401E10BD421E09
:1009500012F8013F002BFBD111F8013B002B02F8EC
:10096000013BF9D17047032A40F2308010F0030CAC
:1009700000F0158011F8013BBCF1020F624498BFF2
:1009800011F801CB00F8013B38BF11F8013BA2F18F
:10099000040298BF00F801CB38BF00F8013B11F00A
:1009A000030300F02580083AC0F0088051F8043BAA
:1009B000083A51F804CBA0E80810F5E7121D5CBF17
:1009C00051F8043B40F8043BAFF30080D20724BF4A
:1009D00011F8013B11F801CB48BF11F8012B24BFDE
:1009E00000F8013B00F801CB48BF00F8012B70472D
:1009F00010B5203AC0F00B80B1E81850203AA0E8BA
:100A00001850B1E81850A0E81850BFF4F5AF5FEAED
:100A1000027C24BFB1E81850A0E8185044BF18C9A0
:100A200018C0BDE810405FEA827C24BF51F8043B47
:100A300040F8043B08BF7047D20728BF31F8023B9B
:100A400048BF11F8012B28BF20F8023B48BF00F82F
:100A5000012B704702F0FF0343EA032242EA0242FD
:100A600000F002B84FF000020429C0F0128010F02C
:100A7000030C00F01B80CCF1040CBCF1020F18BF7A
:100A800000F8012BA8BF20F8022BA1EB0C0100F00D
:100A90000DB85FEAC17C24BF00F8012B00F8012BE0
:100AA00048BF00F8012B70474FF0000200B5134615
:100AB00094469646203922BFA0E80C50A0E80C507E
:100AC000B1F12001BFF4F7AF090728BFA0E80C502F
:100AD00048BF0CC05DF804EB890028BF40F8042B28
:100AE00008BF704748BF20F8022B11F0804F18BF95
:100AF00000F8012B704710B5044610F0030F08BF33
:100B000011F0030F40F015804FF0013E121FC0F2AC
:100B10000E8051F8043BA3EB0E0C2CEA030C1CEAEC
:100B2000CE1C08BF40F8043BF0D0A1F1040102F153
:100B30000402521E08DB11F8013B002B00F8013BB8
:100B4000F7D11146FFF78EFF204610BD4FF0013C54
:100B500050F8042B51F8043B9A4221D1A2EB0C032C
:100B6000934313EACC1317D150F8042B51F8043BEC
:100B70009A4215D1A2EB0C03934313EACC130BD189
:100B800050F8042B51F8043B9A4209D1A2EB0C0314
:100B9000934313EACC13DBD04FF00000704700BF43
:100BA000D01A01BAB1FA81F101F0180122FA01F06C
:100BB000CB40C1F12001DBB2C0B2C01A2CFA01F364
:100BC000D11A914311EAC311E6D1704770477047BB
:100BD000704700000048704788D001207047704778
:100BE0007047704738B504460A4600206946AFF39F
:100BF0000080002808BF38BD02460099204600F05A
:100C0000EFF8012038BD012000F026B9F8B5AFF3A8
:100C10000080054600200C46102000BF0646A8199B
:100C2000A0420DD9324669460020AFF3008007008C
:100C300008BF00F011F90098A04218BF0546C4197A
:100C4000FFF7C8FF05600746F01D20F007004619B2
:100C5000284600F00AF8B44208BFF8BDA21B31468E
:100C60003868BDE8F84000F0BBB800210160C0E979
:100C700001107047102070472DE9F0470D46994646
:100C80009246044600F124080168880604D5E0690C
:100C900021F01001216000E00120A84201DD471B86
:100CA00000E00027A1697A1902EB0900081AA06187
:100CB0002078C00602D42046FFF7FCFB002608E09F
:100CC000D4E901211AF806009047206A401C761CDE
:100CD00020624E45F4DB2078C0060AD52046FFF797
:100CE000E9FB06E0D4E9012130209047206A401C4E
:100CF0002062381EA7F10107F4DC07E0D4E90121E6
:100D000018F805009047206A401C2062281EA5F1B3
:100D10000105F3DC2046FFF7E3FB2078000602D54F
:100D20000220BDE8F0870120FBE7000001694A1CB2
:100D300002610878704700B58FB0CDE9013100211C
:100D4000059105497944CDE9031011466846FFF73E
:100D500069FC0FB000BD0000E5FFFFFF0A6802F864
:100D6000010B0A607047D1E900239A4202D2531C5A
:100D70000B601070704710B5436913B1AFF300807A
:100D800001E0FFF7BEFB012010BD127800F1240145
:100D90000A7000224A700122EDE711684FF0FF321D
:100DA000E9E70000074B70B50D467B44FFF7C3FF32
:100DB0000446284600F02EF810B14FF0FF3070BD09
:100DC000204670BD57E0000010B500F02DF8BDE8DA
:100DD000104000F023B800000048704780D0012088
:100DE000034640688C46002818BF88423CBF034633
:100DF0004068F8D318681844884207D00CF1030003
:100E000020F00700001D411A521A0146081D0A6011
:100E1000FFF78BBA007B00F080007047002801D0FC
:100E20000CF06EB87047000010B5002102A000F071
:100E300049F8012010BD0000534947414252543A3D
:100E40002041626E6F726D616C207465726D696EA7
:100E50006174696F6E00000010B500F04DF8BDE8D8
:100E60001040FFF7DBBF70477546FFF7B5FFAE4692
:100E700005006946534620F00700854618B020B5A6
:100E8000FFF712FABDE820404FF000064FF00007D0
:100E90004FF000084FF0000B21F00701AC46ACE822
:100EA000C009ACE8C009ACE8C009ACE8C0098D468F
:100EB000704710B50446AFF300802046BDE81040EF
:100EC000FFF7DDB970B505460C460A2000E06D1C41
:100ED00000F03AF835B128780028F8D102E0641C17
:100EE00000F032F814B120780028F8D1BDE8704045
:100EF0000A2000F029B8000010B5012805D0002113
:100F000003A0FFF7DFFF012010BD09A1F8E70000F3
:100F100053494752544D454D3A204F7574206F66E2
:100F20002068656170206D656D6F7279000000004A
:100F30003A2048656170206D656D6F727920636F2E
:100F4000727275707465640008B569468DF80000AA
:100F50000320ABBE08BD2DE9FF4117460E46804673
:100F6000002400F1F00513E0102231466846FFF737
:100F7000FAFC4146304605F029FC294630460BF084
:100F80008DFC102269462846FFF7EDFC1034103620
:100F9000BC42E9D3BDE8FF8170B51546044605F0B3
:100FA0002BFE294604F1F000BDE870401022FFF747
:100FB000DABCF0B50024002304EB800601EB8405C5
:100FC00003EB860CEF5C12F80CC087EA0C07EF54B9
:100FD0005B1CDBB2042BF3D3641CE4B2042CEAD315
:100FE000F0BD000010B501240821034801F02EFFD8
:100FF00000B10024204610BD000C024070470000E4
:101000000146014803F0BEBBFC80002010B5044837
:1010100003F0CAFB042801D0012010BD002010BD40
:10102000FC80002010B500F015F8012801D0012047
:1010300010BD074803F0D2FC040006D14FF4006154
:10104000034803F045FA00B10124204610BD00001A
:10105000FC80002008B501208DF80000FFF7C2FFDA
:1010600010B900208DF800009DF8000008BD0000B8
:10107000134610B50A4601460024034803F098FEC3
:1010800000B10124204610BDFC8000200149012050
:101090008860704728000020134610B50A460146B4
:1010A0000024034803F0F6FF00B10124204610BDE0
:1010B000FC80002001490120486070472800002082
:1010C00008B5009201A2FFF7DBF908BD25732028BF
:1010D000312D256429206F722027612720746F200D
:1010E00061626F72743A2000FEE7000030B504467A
:1010F0000020651804E000BF14F8011B0BF018FB7A
:10110000AC42F9D300210BF013FBBDE830400021C5
:101110000BF00EBB70B500282AD0164901601649A5
:10112000D1F894204260D1F88C4026222146134801
:10113000FFF75EFCE08C114DE884A06AA862A08DE8
:10114000A885E08DE885206B2863606B686304F1F7
:101150003801092205F13800FFF74AFC94F84100F4
:1011600085F8410094F8420085F84200606C68649C
:1011700070BD00004082002028C00120CCC10120A9
:10118000014801F073BA000080810020014801F09D
:101190006DBA0000E081002001681823CAB2103A3D
:1011A000B2FBF3F2054B6FF30901032A9B5CC365A5
:1011B00000D9091D8165084670470000D047010825
:1011C00010B5014600208B698A6A4FF0C07453B194
:1011D000B3F5005F15D072B1012A0CD0022A0AD0F3
:1011E000032A09D104E01AB1012A06D0022A03D148
:1011F000C96AC90100D5012010BDC96AA142FAD04F
:1012000010BD002AF7D0012AF2D0022AF3D0032A17
:10121000F3D010BD30B50468256825F4802525601D
:10122000046863608368402B036803D0996000689A
:10123000C26030BD9A600068C16030BD7047000078
:101240002DE9F04FADF50F7D4FF000098DF8349288
:1012500030227E4981A8FFF7CBFB7DA008F00CFD72
:101260000122824982480CF077FF040010D081A04F
:1012700008F002FD214601A805F06CFA01A808F06B
:10128000FBFC87A008F0F8FC0DF50F7DBDE8F08FA2
:1012900084A008F0F1FC12F085FF00242546DFF859
:1012A00028828A4F4FF4807B21E000BF08EB851035
:1012B0000646FFF72DFB082817D33044083882462E
:1012C00083A1FFF743FC20B184A15046FFF73EFC09
:1012D00058B9631C84A2594601A80096FFF7D0F8BC
:1012E00001A808F0C9FC641CE4B26D1CEDB23878AA
:1012F0008542DBD334B37FA32246594601A8FFF7CA
:10130000DFFE01A808F0B8FC8348006840684FF091
:10131000FF352B4601228DA97F4804F08BFC9DF8F8
:101320003402612810D041280ED0A0F131010829E3
:10133000EFD8303810F0FF06EBD0A642E9D80024F1
:10134000254626E075A000E07EA008F095FC00226E
:10135000464910460CF000FF96E700BF08EB8510E9
:101360008246FFF7D5FA082811D350440838824640
:1013700057A1FFF7EBFB20B158A15046FFF7E6FB62
:1013800028B9641CE4B2B44201D12E4604E06D1CBD
:10139000EDB238788542E1D308EB861423466FA27C
:1013A0005D46594601A8FFF76BF801A808F064FCF8
:1013B00023466FA2802161A8FFF762F87F2261A90E
:1013C00041A8FFF798FB4C468DF8839140A141A8B6
:1013D000FFF731FA20B941A141A8FFF72CFA10B16B
:1013E000047065A100E066A141A8FFF7B0FA41AB27
:1013F00066A2294601A8FFF743F801A808F03CFCC3
:1014000067A008F039FC81AB41AA61A918480BF02C
:1014100079FD041E0DDD69A008F02EFC234671A2A3
:10142000294601A8FFF72CF801A808F025FC74A0B4
:101430008BE77BA008F020FC614201A805F08AF947
:1014400001A808F019FC16A07FE70000704701080A
:101450000D0A496E697469616C697A696E67205416
:101460004620636172642E2E2E0D0A003500002086
:10147000EC4D01204572726F723A20534420636133
:101480007264206D6F756E74206661696C6564218D
:10149000204572726F7220636F64653A200000000D
:1014A0000D0A00005363616E6E696E6720666F728D
:1014B000202E62696E2E6165732066696C65732EDD
:1014C0002E2E0D0A0D0A0000C88200200400002004
:1014D0002E62696E2E616573000000002E42494E37
:1014E0002E4145530000000020205B25645D20252F
:1014F000730D0A000D0A506C656173652073656C8D
:1015000065637420612066696C6520746F20646572
:101510006372797074000000CCC101204E6F202EE0
:1015200062696E2E6165732066696C657320666FF3
:10153000756E64206F6E2053442063617264210DC8
:101540000A0000000D0A41626F72746564206279BE
:1015500020757365722E0D0A000000000D0A536598
:101560006C65637465643A2025730D0A0000000001
:10157000303A2F25730000002E62696E00000000D3
:101580002E64656372797074656400004F757470C1
:1015900075742066696C653A2025730D0A00000099
:1015A0000D0A5374617274696E67206465637279A1
:1015B0007074696F6E2E2E2E0D0A00000D0A4465A0
:1015C0006372797074696F6E20636F6D706C65748F
:1015D0006564207375636365737366756C6C7921DC
:1015E0000D0A000044656372797074656420736944
:1015F0007A653A2025642062797465730D0A0000CB
:101600004F75747075742066696C652073617665BA
:101610006420746F20534420636172642E0D0A00AD
:101620000D0A44656372797074696F6E2066616932
:101630006C656421204572726F7220636F64653A35
:10164000200000002DE9F04FADF50F7D00208DF852
:1016500034023022864981A8FFF7CAF985A008F034
:101660000BFB94A008F008FBA2A008F005FBB1A0BA
:1016700008F002FBBFA008F0FFFADFF83883D8F8C3
:10168000000040684FF0FF3A534601228DA94046C2
:1016900004F0D0FA9DF83402302809D0C64CC74F68
:1016A0004FF48079312805D0322871D0C4A0C1E22E
:1016B000D1A0BFE2D7A008F0DFFA0122DC49DD4863
:1016C0000CF04AFD05000BD0DBA008F0D5FA294646
:1016D00001A805F03FF801A808F0CEFACCA0A9E2D5
:1016E000E0A008F0C9FA12F05DFD00263546BB46C1
:1016F00021E000BF04EB85100746FFF709F9082831
:1017000017D338440838E0A10090FFF71FFA20B142
:10171000E0A10098FFF71AFA58B9731CE0A24946F5
:1017200001A80097FEF7ACFE01A808F0A5FA761C08
:10173000F6B26D1CEDB29BF800005F468542D9D32E
:101740003EB3DAA33246CB46494601A8FFF7B8FCC0
:1017500001A808F091FAD8F8000040685346012229
:101760008DA9944804F066FA9DF83402612813D0DC
:10177000412811D0A0F131010829EFD8303810F0FC
:10178000FF05EBD0B542E9D84FF0000846462CE003
:1017900065E0FFE7D1A000E0DAA008F06DFA0022D2
:1017A000A34910460CF0D8FC0DF50F7DBDE8F08F75
:1017B00004EB86108146FFF7ABF8082813D34844A2
:1017C00008388146B0A1FFF7C1F920B1B1A1484660
:1017D000FFF7BCF938B908F1010000F0FF08A8458F
:1017E00001D1354604E0761CF6B238788642DFD364
:1017F00004EB85142346C9A25D46594601A8FEF7AD
:101800003FFE01A808F038FA2346C9A2802161A84A
:10181000FEF736FEC8A008F02FFA81ABD04A61A9C6
:1018200084480BF02BFC041E0DDDCEA008F024FA3A
:101830002346D9A2294601A8FEF722FE01A808F0F6
:101840001BFADCA0A9E7E5A008F016FA614201A89E
:1018500004F080FF01A808F00FFA6DA09DE7E8A052
:1018600008F00AFA11F0F4FF00B1D9E1DAE1000062
:10187000A04701080D0A3D3D3D3D3D3D3D3D3D3DFF
:101880003D3D3D3D204465637279707420616E6416
:1018900020446F776E6C6F6164204D656E75203DDE
:1018A0003D3D3D3D3D3D3D3D3D3D3D3D3D3D3D3D68
:1018B0000D0A0A00202044656372797074206672F4
:1018C0006F6D205344206361726420616E642064F4
:1018D0006F776E6C6F616420746F20466C61736803
:1018E000202D2D2D2D2D2D2D2D2D2D2D20310D0A81
:1018F0000A000000202044656372797074206672CB
:101900006F6D2053504920466C61736820616E648E
:1019100020646F776E6C6F616420746F20466C6119
:101920007368202D2D2D2D2D2D2D2D2D20320D0ABE
:101930000A000000202052657475726E20746F20BA
:101940004D61696E204D656E75202D2D2D2D2D2D2F
:101950002D2D2D2D2D2D2D2D2D2D2D2D2D2D2D2DB7
:101960002D2D2D2D2D2D2D2D2D2D2D2D20300D0AF4
:101970000A0000003D3D3D3D3D3D3D3D3D3D3D3D81
:101980003D3D3D3D3D3D3D3D3D3D3D3D3D3D3D3D87
:101990003D3D3D3D3D3D3D3D3D3D3D3D3D3D3D3D77
:1019A0003D3D3D3D3D3D3D3D3D3D3D3D3D3D3D0D97
:1019B0000A0A0000CCC10120C882002004000020D7
:1019C000496E76616C6964204E756D626572202186
:1019D000203D3D3E20546865206E756D6265722025
:1019E00073686F756C6420626520302C2031206F25
:1019F0007220320D000000000D0A52657475726E7F
:101A000020746F204D61696E204D656E752E2E2EEF
:101A10000D0A00000D0A496E697469616C697A6982
:101A20006E6720544620636172642E2E2E0D0A00CC
:101A300035000020EC4D01204572726F723A205340
:101A4000442063617264206D6F756E7420666169F5
:101A50006C656421204572726F7220636F64653A11
:101A6000200000005363616E6E696E6720666F72BE
:101A7000202E62696E2E6165732066696C65732E17
:101A80002E2E0D0A0D0A00002E62696E2E616573FE
:101A9000000000002E42494E2E4145530000000038
:101AA00020205B25645D2025730D0A000D0A506C13
:101AB000656173652073656C656374206120666978
:101AC0006C6520746F206465637279707420616E38
:101AD0006420646F776E6C6F616400004E6F202E1F
:101AE00062696E2E6165732066696C657320666F2E
:101AF000756E64206F6E2053442063617264210D03
:101B00000A0000000D0A41626F72746564206279F8
:101B100020757365722E0D0A000000000D0A5365D2
:101B20006C65637465643A2025730D0A000000003B
:101B3000303A2F25730000000D0A537461727469E6
:101B40006E672064656372797074696F6E20616E70
:101B50006420646F776E6C6F61642E2E2E0D0A0008
:101B6000000002080D0A44656372797074696F6E33
:101B700020616E6420646F776E6C6F616420636FA8
:101B80006D706C65746564207375636365737366EB
:101B9000756C6C79210D0A005772697474656E203A
:101BA00073697A653A2025642062797465730D0A39
:101BB00000000000596F752063616E206E6F772002
:101BC0006578656375746520746865206170706CF4
:101BD00069636174696F6E2E0D0A00000D0A446519
:101BE0006372797074696F6E206661696C656421D7
:101BF000204572726F7220636F64653A20000000A6
:101C00000D0A496E697469616C697A696E6720535F
:101C1000504920466C6173682E2E2E0D0A0000007C
:101C200066A007E070A008F027F841A811F020FE98
:101C300018B173A008F020F8B6E5AFF2D81008F09C
:101C40001BF841A812F058FA00252E46BB4623E0A7
:101C500004EB86100746FEF75BFE08281AD33844CB
:101C60000838AFF2DC110090FEF770FF28B1AFF238
:101C7000DC110098FEF76AFF60B96B1CAFF2E0124E
:101C8000494601A80097FEF7FBFB01A807F0F4FF07
:101C90006D1CEDB2761CF6B29BF800005F468642E2
:101CA000D6D33DB3AFF2FC132A46CB46494601A832
:101CB000FFF706FA01A807F0DFFFD8F80000406838
:101CC000534601228DA9564803F0B4FF9DF8340213
:101CD000612811D041280FD0A0F131010829EFD897
:101CE000303810F0FF06EBD0AE42E9D84FF00008D4
:101CF000454628E04BA001E0AFF2F81007F0BCFF2A
:101D000041A811F025FE4FE504EB85108146FEF752
:101D1000FFFD082815D3484408388146AFF29821C2
:101D2000FEF714FF28B1AFF294214846FEF70EFFEC
:101D300038B908F1010000F0FF08B04501D12E4686
:101D400004E06D1CEDB238788542DDD304EB8614D7
:101D50002346AFF238225D46594601A8FEF790FBB4
:101D600001A807F089FFAFF2302007F085FF214678
:101D700081AB364A41A80BF04DFA041E10DDAFF2DC
:101D80001C2007F079FF2346AFF2F412294601A880
:101D9000FEF776FB01A807F06FFFAFF2E810ADE7A2
:101DA000AFF2C81007F068FF614201A804F0D2FC4E
:101DB00001A807F061FF11A0A0E700004572726F53
:101DC000723A2053504920466C61736820696E69ED
:101DD0007469616C697A6174696F6E206661696C9F
:101DE0006564210D0A0000004D6F756E74696E67A1
:101DF000204C6974746C6546532E2E2E0D0A00001B
:101E00004572726F723A204C6974746C6546532047
:101E10006D6F756E74206661696C6564210D0A00D2
:101E2000CCC101204E6F202E62696E2E6165732039
:101E300066696C657320666F756E64206F6E2053E3
:101E4000504920466C617368210D0A0000000208A9
:101E500038B5044600208DF800001AA007F00CFFEA
:101E600026A007F009FF3148006840684FF0FF33B3
:101E7000012269462D4803F0DDFE9DF80000792817
:101E800003D0592801D02AA018E02FA007F0F4FEB3
:101E9000204611F01BFF10B135A007F0EDFE3F49C1
:101EA000204610F05BFC08B13DA007E03B4920460E
:101EB00011F0B7F908B140A000E046A007F0DCFE41
:101EC00038BD00000D0A5741524E494E473A205442
:101ED0006869732077696C6C2064656C6574652033
:101EE000414C4C2066696C657320696E20535049E3
:101EF00020466C617368210D0A0000005072657302
:101F0000732027792720746F20636F6E6669726D66
:101F10002C20616E79206F74686572206B65792062
:101F2000746F2061626F72743A200000CCC101208E
:101F30000D0A41626F727465642062792075736561
:101F4000722E0D0A000000000D0A466F726D61745A
:101F500074696E672053504920466C61736820662F
:101F6000696C652073797374656D2E2E2E0D0A00D1
:101F70005761726E696E673A20556E6D6F756E743B
:101F8000206661696C65642C20636F6E74696E7580
:101F9000696E672E2E2E0D0A000000007C4E01088F
:101FA0004572726F723A20466F726D61742066617D
:101FB000696C6564210D0A004572726F723A205295
:101FC000656D6F756E74206661696C6564210D0ABC
:101FD0000000000046696C652073797374656D209C
:101FE000666F726D61747465642073756363657385
:101FF0007366756C6C79210D0A000000F0B5A3B012
:10200000064600208DF88400304612F075F82E4DFB
:10201000287828B12DA007F02FFE0024324F0FE0C2
:1020200032A048E007EB84100090631C37A28021A7
:1020300001A8FEF725FA01A807F01EFE641CE4B211
:1020400028788442EED3C2B233A3802101A8FFF7DF
:1020500037F801A807F010FE3448006840684FF0D8
:10206000FF342346012221A9304803F0E3FD9DF807
:102070008400612823D0412821D0A0F13101082912
:10208000EFD8303810F0FF00EBD029788842E8D83C
:1020900007EB8011A1F14004234625A2802101A86D
:1020A000FEF7EEF901A807F0E7FD2146304611F0F2
:1020B0003AFB30B123A007F0DFFD23B0F0BD2AA02A
:1020C000F9E72FA0F7E70000040000200D0A536590
:1020D0006C65637420696D61676520746F20646549
:1020E0006C6574653A0D0A00C88200200D0A4E6FB7
:1020F00020696D6167657320666F756E6420746F0B
:102100002064656C657465210D0A000020205B2544
:10211000645D2025730D0A000D0A456E74657220FA
:1021200073656C656374696F6E000000CCC101203B
:102130000D0A44656C6574696E673A2025730D0A53
:10214000000000004572726F723A204661696C654A
:102150006420746F2064656C65746520696D6167C7
:1021600065210D0A000000000D0A41626F7274655E
:102170006420627920757365722E0D0A00000000DC
:10218000496D6167652064656C657465642073756D
:10219000636365737366756C6C79210D0A000000CA
:1021A00072B6FEE7002200F001B8000030B50E4B19
:1021B000054601205C7A002C14D1587A1C54587AB8
:1021C00003EB800045605D7A03F108002A54587AD9
:1021D000421C5A72303008703A2048702F208870A4
:1021E000CC70002030BD000014C20120002229B1B3
:1021F00001291AD002291BD04FF440720E490B68F6
:1022000023F440730B600B6813430B600A6822F0E1
:1022100078020A600A68022303EBC00002430A60E6
:10222000086840F48030086070474FF48072E5E73A
:102230004FF40072E2E70000103C024013480168CE
:1022400089050FD5016821F400710160016841F42E
:1022500000610160016821F400610160016841F4DE
:1022600000710160016849050FD5016821F48061A2
:102270000160016841F480510160016821F48051DE
:102280000160016841F4806101607047003C0240D8
:1022900000B587B000F028F8084800F02BF902904C
:1022A0000220002100910390049005A9684600F0E7
:1022B00085FB002800D0012007B000BD0000020807
:1022C00010B588B040F6FF7400F0B2FC684600F02C
:1022D000C1FB00F045FC0298844302D0022008B004
:1022E00010BD0020FBE7000010B500F0A1FC024982
:1022F000F320086010BD00000C3C02402DE9F041C5
:1023000016468846054600240D4F13E058F8242051
:1023100000232946022000F04DFC10B10320BDE847
:10232000F08158F824002968814201D00220F6E7A4
:10233000641C2D1DB44201D2BD42E7D90020EEE756
:10234000FBFF0F0830B58FB0044640F6FF7507A8B5
:1023500000F080FB0120CDE90004AA200490099C34
:102360009DF834008DF818002C4300F061FC00F05B
:102370000DFC6846029400F08DFB0FB030BD0000EC
:1023800008490A6822F440720A600A6842F00402AE
:102390000A600A684FF4803343EA002002430A606F
:1023A00070470000103C0240064A136823F4407353
:1023B000136013681360136843F001031360017026
:1023C00070470000103C0240094910B50C6824F425
:1023D00040740C600C6844F440740C600C6844F069
:1023E00001040C600260BFF36F8F436010BD0000FA
:1023F000103C0240074A136823F4407313601368CB
:1024000043F480731360136843F001031360018089
:1024100070470000103C0240074A136823F44073E1
:102420001360136843F400731360136843F00103EF
:102430001360016070470000103C024017490868B3
:10244000C206174805D5C26942F01002C2611022C7
:102450000A600A68920605D5C26942F00802C261A4
:1024600020220A600A68520605D5C26942F00402B9
:10247000C26140220A600A68120605D5C26942F0AC
:102480000202C26180220A600A68920705D5C26909
:1024900042F02002C2610220086070470C3C0240FA
:1024A00008C0012070B5114904460020C86100F041
:1024B000D7FC06460E4D09E0601C07D024B100F0A1
:1024C000CFFC801BA04201D9032070BD2868C00347
:1024D000F2D42868C00701D001202860286810F0D5
:1024E000F200F2D0FFF7AAFF012070BD08C0012062
:1024F0000C3C02400021A0F100634FF48042934263
:102500003FD321490144914201D2012139E01F49C1
:102510000144914201D2022133E01D49014491421C
:1025200001D203212DE01B490144B1F5803F01D2C6
:10253000042126E0184942184FF400318A4201D2A2
:1025400005211EE0154A02448A4201D2062118E004
:10255000134A02448A4201D2072112E0114A02447E
:102560008A4201D208210CE00F4A02448A4201D279
:10257000092106E00D4A1044884201D20A2100E0F8
:102580000B2108467047000000C0FFF70080FFF7EE
:102590000040FFF70000FFF70000FEF70000FCF727
:1025A0000000FAF70000F8F70000F6F70000F4F773
:1025B0002DE9F0410446876D00F052FC064694F880
:1025C00035000025022806D08020606584F834504C
:1025D0000120BDE8F0812068016821F0160101604A
:1025E0002068416921F080014161206C08B9A06C2C
:1025F00020B12068016821F00801016020680168AD
:1026000021F0010101600CE000F02AFC801B05288C
:1026100007D920206065032084F8350084F8345001
:10262000D7E720680068C007EED194F85C103F201F
:102630008840B860012084F8350084F834500020C8
:10264000C7E790F83510022903D0802141650120A9
:102650007047052180F835100068016821F00101FC
:10266000016000207047406D704700002DE9F8437D
:1026700004464FF00009CDF8009063484FF416511E
:10268000A56D0068B0FBF1F72E6894F85C10082087
:1026900000FA01F131420FD021680A6852070BD5C8
:1026A0000A6822F004020A6094F85C108840A8606E
:1026B000606D40F00100606594F85C104FF0010817
:1026C00008FA01F0304208D021684969090604D5AA
:1026D000A860606D40F00200606594F85C10042012
:1026E0008840304208D021680968890704D5A8606D
:1026F000606D40F00400606594F85C101020884024
:10270000304218D021680968090714D5A8602068EC
:102710000168490304D50068000308D5A16C07E0EF
:102720000168C90503D4016821F008010160216C2A
:1027300009B12046884794F85C1020208840304238
:1027400031D021680968C9062DD5A86094F83500F4
:1027500005282068016806D0490347D500680003B2
:102760001DD4616C1CE021F01601016020684169F4
:1027700021F080014161206C08B9A06C20B1206873
:10278000016821F00801016094F85C103F20884046
:10279000A86084F8358084F83490216D1FE0E16BE7
:1027A00009B120468847606D00282BD0606DC007B6
:1027B00014D0052084F835002068016821F001015B
:1027C00001600098401C0090B84203D8206800685F
:1027D000C007F6D184F8358084F83490E16C002984
:1027E00010D001B02046BDE8F04308470168C90594
:1027F000D5D4016821F01001016084F8358084F897
:102800003490CCE7BDE8F88304C001202DE9F04105
:10281000044600F025FB06465CB1022084F8350032
:10282000002584F834502068016821F0010101601E
:102830000DE00120BDE8F08100F012FB801B0528AF
:1028400005D920206065032084F83500F2E7206870
:102850000068C007F0D12268116820480140D4E91F
:1028600001031843D4E9033633431843636918431B
:10287000A3691843E3691843236A18430843616A4C
:10288000042903D1D4E90B131943084310602068CD
:102890004069666A20F0070130460E43012704288C
:1028A0000CD1A06A0643E06A40B12046FEF788FCDE
:1028B00020B14020606584F83570BAE72068466131
:1028C0002046FEF769FC94F85C203F21914081602E
:1028D000656584F835700020ACE700003F8010F09B
:1028E0002DE9F0410446866D90F83400002501285A
:1028F0000DD0012084F8340094F835700020012FA9
:1029000007D084F8340002252846BDE8F081022073
:10291000FBE7022784F8357060652046FEF77AFCF5
:1029200094F85C103F208840B0602068016841F056
:1029300016010160206C20B12068016841F0080197
:1029400001602068016841F001010160DCE70000DE
:102950000E4910B50C48086000200860091D0C4A9B
:102960000A60086009490B4A10390A600860C122F0
:10297000091D0A6008600122091D0A60086000F054
:10298000B7FA002010BD0000FFC9FEF62038024053
:1029900033797704FF11602270B5044600F060FAC5
:1029A0000546601C02D004480078044400F058FA40
:1029B000401BA042FAD370BD1C0000202DE9F04757
:1029C000044622480F46017E01290AD00121804693
:1029D00001764CF250394846FFF764FD020003D0FF
:1029E0002FE00220BDE8F0874FF0FF30386020680C
:1029F000174D012801D0A6681CE0207C6168FFF714
:102A0000BFFC4846FFF74EFD0246286820F0040050
:102A1000286014E0217C3046FFF7E8FB4846FFF7CA
:102A200041FD0200286820F07A00286001D03E6055
:102A300005E0761CD4E902100844B042EAD8FFF75A
:102A4000FDFB002188F818101046CBE708C00120D4
:102A5000103C02400F2101600D49098881600C4A39
:102A6000AA21521E1378CC2B0FD01278AA2A00D09C
:102A7000552101610649891E0A6802F0E0020276CA
:102A8000097801F00C0141617047CC21F1E70000A9
:102A9000163C02402DE9F0472E49044601200A7EEB
:102AA000012A11D0012288460A7621784CF2503A48
:102AB000C90715D06068284D0128A668504606D081
:102AC000FFF7F0FC48B10BE00220BDE8F087FFF70C
:102AD000E9FC28B92988B14301E0298831432980DC
:102AE0002178890707D5257C5046FFF7DBFC10B914
:102AF0001949491E0D702178DFF86090490713D5F8
:102B0000207E00F0200700F0400500F080065046CF
:102B1000FFF7C8FC40B999F8002002F01F021543E6
:102B200035433D4389F8005021784FF000020907F2
:102B30000CD5207D99F8003023F00C0389F8003083
:102B400099F80030034389F80030104688F81820BF
:102B5000BBE7000008C00120163C0240143C0240C4
:102B60000348016841F00041016000207047000007
:102B7000103C02400448017841F0020101704CF21F
:102B80005030FFF78FBC0000143C0240064800683C
:102B9000C00707D0044805490C38016004490160AA
:102BA0000020704701207047143C02403B2A19085E
:102BB0007F6E5D4C2DE9F0471B4E05461446307E76
:102BC0001F468946012808D0012030764CF2503843
:102BD0004046FFF767FC18B114E00220BDE8F0871B
:102BE0009DB1012D16D0022D19D022463B464846F4
:102BF000FFF7EAFB4046FFF755FC0C490A6822F054
:102C000001020A6000213176E8E7E1B24846FFF7A9
:102C1000CBFBEFE7A1B24846FFF7ECFBEAE7214622
:102C20004846FFF7F9FBE5E708C00120103C0240E9
:102C3000074900200A68002A09DA054A054B0C3AC0
:102C40001360054B13600968002900DA0120704702
:102C5000103C024023016745AB89EFCD2DE9F84FC9
:102C6000DFF8BCA10022012503264FF00F090AF16D
:102C7000040BAAF1040E00BF0B6805FA02F423400E
:102C8000A34270D10F7907F00307012F01D0022F63
:102C900016D187684FEA420806FA08FC27EA0C07B3
:102CA000D1F80CC00CFA08FC4CEA070CC0F808C0BC
:102CB0004768A7430C79C4F3001494403C43446034
:102CC0000C79E443A4070AD0C4684FEA420C06FA20
:102CD0000CF7BC438F6807FA0CF72743C7600C79E1
:102CE00004F00304022C12D1D40800EB840CDCF8AD
:102CF00020405707FF0E09FA07F824EA0804D1F824
:102D0000108008FA07F848EA0408CCF82080046824
:102D10004FEA420C06FA0CF7BC430F7907F00307A1
:102D200007FA0CF7274307604C6814F4403F70D053
:102D30003C4C276847F480472760246822F003074B
:102D400004F480440094384C07EB040CDCF8084889
:102D500097074FEA177809FA08F7BC43334FB84290
:102D600002D1002724E054E0314FB84201D10127BD
:102D70001EE0304FB84201D1022719E02E4FB84271
:102D800001D1032714E02D4FB84201D104270FE0F1
:102D90002B4FB84201D105270AE02A4FB84201D192
:102DA000062705E0284FB84201D1072700E0082791
:102DB00007FA08F72743CCF80878DAF800405746B6
:102DC000D1F804C09C435FEACC2C00D51C433C6086
:102DD000DBF800405F46D1F804C09C435FEA8C2CCE
:102DE00000D51C433C60DEF800407746D1F804C0B3
:102DF0009C435FEA8C3C00D51C433C60084F083F75
:102E00003C68D1F804C09C435FEACC3C00D51C432D
:102E10003C60521C102AFFF42FAFBDE8F88F000071
:102E2000083C0140443802400030014000000240AC
:102E30000004024000080240000C02400010024062
:102E40000014024000180240001C024000690840C3
:102E500000D0012070470AB1816170470904FBE787
:102E600001488068704700001C000020024881680B
:102E700002781144816070471C0000200B4810B597
:102E8000016841F400710160016841F480610160F2
:102E9000016841F480710160032000F071F80F2097
:102EA00000F006F800F026F8002010BD003C0240BB
:102EB00070B50D4D04464FF47A712878B1FBF0F0EF
:102EC0000A490968B1FBF0F002F0FEFA48B9102C8B
:102ED00007D200222146501E00F032F800206C601C
:102EE00070BD012070BD00001C00002004C0012046
:102EF000704700000A4808B5016841F4804101604C
:102F0000006800F4804000900548001F016841F00F
:102F100080510160006800F08050009008BD000002
:102F200044380240002809DB00F01F0201219140D3
:102F30004009800000F1E020C0F800117047000057
:102F4000F0B40E4B1B680C46C3F30223C3F1070514
:102F5000042D00D90425191D072901D2002300E002
:102F6000DB1E012606FA05F1491E214099409E40CC
:102F7000761E16403143F0BC09F0CABE0CED00E0ED
:102F8000064900F0070208684FF6FF03184040EAC0
:102F90000220034A10430860704700000CED00E077
:102FA0000000FA0570470068416200207047F0B5E4
:102FB0000368586A39B19C6A4FF4827600EB144476
:102FC00000204D1E0AE040EA024098620FE006EB46
:102FD0008007DF59401C04EB1744C0B2A842F6D367
:102FE00044EA02404FF4807202EB81015850002005
:102FF000F0BDD0F8E00408F084B901EBC10200EBA9
:103000008202D0F8E004126A08F0D5B801EBC102E0
:1030100000EB8202D0F8E004D2F8602208F027B971
:10302000D0F8E00408F06FB90A0601F00F0101EBD7
:10303000C10100EB810101D5143101E001F51571E9
:10304000006809F0C3B970B504460B0601F00F0023
:1030500000EBC00104EB81014FF001024FF00005CD
:1030600002D54A75143103E081F8555201F5157106
:10307000087094F89404012808D084F894242068F7
:1030800008F0BEFE84F89454002070BD022070BD8C
:1030900070B5044601F00F002279904201D9012059
:1030A00070BD0B0601F00F0101EBC10104EB8101C2
:1030B0004FF001024FF0000502D54A75143103E0CC
:1030C00081F8555201F515718D70087094F89404CB
:1030D000012808D084F89424206809F003F884F8C3
:1030E0009454002070BD022070BD10B5044690F8C5
:1030F000940401280AD0012084F89404080607D516
:1031000001F00F01206809F0D2F904E0022010BD9F
:10311000206809F0B0F9002084F8940410BD01F093
:103120000F0101EBC10100EB8100D0F8680270478C
:103130002DE9F04104460F0601F00F0000EBC0013D
:1031400004EB81014FF001064FF0000502D54E75EA
:10315000143103E081F8555201F51571C2F30A02EA
:1031600008708A600B714A7802B14883022B00D143
:103170004D7194F89404012809D084F8946420686F
:1031800008F08CFD284684F89454BDE8F0810220B4
:10319000FBE710B501F00F0404EBC40100EB810163
:1031A000C1E998230023C1F8683281F8553281F8CB
:1031B0005442837901F51571012B00D1CA618279DE
:1031C000006808F0E7FF002010BD70B504460D460A
:1031D00001F00F002179884201D9012070BD290634
:1031E0004FF000064FF0010206D500EBC00104EBE2
:1031F00081014A75143107E005EBC50104EB81013B
:1032000081F8556201F515718A70087094F894047C
:10321000012807D084F89424206808F08FFF28073D
:1032200002D007E0022070BDA17904F29C42206820
:1032300008F02CFF84F89464002070BD10B501F0F4
:103240000F0404EBC40100EB8101C1E90823002352
:103250008B6201234B7501F8144F8379012B00D148
:10326000CA618279006808F095FF002010BD000057
:103270002DE9FC5F05680446284609F043F900285B
:103280007DD1206809F06AF9002878D0D5F80808BF
:10329000C0F30D20C4F8D404206809F05FF980075A
:1032A00004D52068416901F002014161206809F0FC
:1032B00055F9C10604F29C40009034D5206881691C
:1032C00021F0100181612F6A07F00F0000EBC000B0
:1032D00004EB8006C7F3434006F51576022802D0BA
:1032E000062811D01AE047F6F070074216D0C7F34F
:1032F0000A1217462846F16809F034F9F068384494
:10330000F0607069384408E008222846009909F006
:1033100029F97069C7F30A1108447061206881694E
:1033200041F010018161206809F018F900034FF0A5
:10333000080B4FF0000A4FF001097CD500262068E9
:1033400009F0EBF8074674E0F80770D0F1B2206896
:1033500009F0FCF88046C00707D005EB4611C1F81C
:10336000089B3146204604F05FFA5FEA087024D5D6
:1033700005EB4611C1F808BB2068016C00E023E2B0
:1033800000EB46100191D0F8082BFB4B994205D970
:10339000110403D54FF40041C0F8081B204600F08B
:1033A000F6FAF5490198884207D9A079012804D195
:1033B00020680121009A08F069FE5FEAC86004D520
:1033C00005EB46111020C1F8080B5FEA88701DD587
:1033D0006869000605D5D5F8040840F48061C5F891
:1033E000041806EBC60004EB800090F8571200F5B5
:1033F0001570012905D180F803A0F1B2204600F034
:10340000E9F905EB46110220C1F8080B5FEA886074
:1034100004D505EB46102021C0F8081B5FEA884060
:1034200005D505EB46104FF40051C0F8081B7F0886
:10343000761C002F88D1206809F090F840036ED5E3
:10344000206809F063F80746002666E0F80762D0B6
:10345000F1B2206809F068F88046C00723D006F072
:103460000F01D5F8342809FA01F18A43C5F8342848
:1034700005EB4611C1F80899A07901280FD106EB98
:10348000C60004EB8000D0E907211144016236B97F
:10349000606A20B920680121009A08F0F7FDF1B2B6
:1034A0002046FFF7AAFD5FEA087003D505EB461139
:1034B000C1F808B95FEAC86004D505EB46111020D1
:1034C000C1F808095FEA486004D505EB46104021C1
:1034D000C0F808195FEA887016D53146284608F00A
:1034E000E6FF06EBC60004EB8000C17D1430012925
:1034F00005D180F803A0F1B2204600F067F905EB92
:1035000046110220C1F808095FEA086003D5314678
:10351000204604F0EFF97F08761C002F96D1206832
:1035200009F01CF8002811DAD5F8040820F0010190
:10353000C5F8041894F8CC0401282BD0204600F0DC
:103540000BFA2068416901F000414161206809F0EF
:1035500005F800050BD5D5F80808C00702D02046AD
:1035600000F03EFA2068416901F400614161206881
:1035700008F0F4FFC00467D5D5F8040820F0010076
:10358000C5F804081021206808F091FF00214FF6CB
:103590007F3220E084F8CCA400212046FFF702FD12
:1035A000CFE700BF05EB4110C0F80829D0F800397B
:1035B00023F40013C0F80039C0F8082BD0F8003B02
:1035C00023F40013C0F8003BD0F8003B43F0006345
:1035D000C0F8003B491C20798842E3D8D5F81C0884
:1035E00040F00111C5F81C18E07B002828460DD0DA
:1035F000D0F8840840F00B01C5F88418D5F84408C9
:1036000040F00B012846C5F844180DE0D0F8140826
:1036100042F22B010843C5F81408D5F8100840F011
:103620000B012846C5F81018D0F8000820F4FE61F8
:10363000C5F80018A1792068009A08F027FD2068D5
:10364000416901F480514161206808F087FF8004DE
:1036500015D5206808F062FB206808F046FFE0718D
:1036600000F0A8FB0146E279206808F0D9FF204667
:1036700000F05CF92068416901F400514161206863
:1036800008F06CFF000707D5204600F069F92068B4
:10369000416901F008014161206808F05FFF000600
:1036A00016D5A86920F08001A96101260DE000BFB0
:1036B00006EBC60004EB800090F85702012803D106
:1036C000F1B22046FFF7B0FC761C2079B042EFD86B
:1036D000206808F043FFC0021FD501264F4614E0C2
:1036E00005EB4610D0F8000906EBC60104EB81019A
:1036F0000A7E012A08D1002806DACF75F0B240F020
:1037000080012046FFF790FC761C2079B042E7D874
:103710002068416901F480114161206808F01EFFB2
:10372000800234D501204A4629E000BF05EB401154
:10373000D1F8001B00EBC00304EB830393F858623D
:10374000012E1BD1002919DA94F8D464C1F3004189
:1037500006F001068E4211D183F85722A96941F083
:103760008003AB616969090608D4D5F8040840F400
:103770000070C5F8040805E00A30544F401C217958
:103780008142D3D82068416901F400114161206869
:1037900008F0E4FE400007D52046FFF72AFC206829
:1037A000416901F080414161206808F0D7FE40077F
:1037B0000AD520684568680702D52046FFF730FC27
:1037C0002068416829434160BDE8FC9FD0F8E004CF
:1037D00007F0F5BDD0F8E00407F005BEF8B5040029
:1037E00005D094F895042668002510B106E0012064
:1037F000F8BD84F89454204600F056F8032084F86D
:103800009504B6F1A04F00D1A571206808F038FCEE
:10381000207C8DF8000094E80F0008F08DFA022655
:10382000B8BB0021206808F0BCFE90BB0020012737
:103830000DE000BF00EBC00104EB81014F7508757E
:10384000C8850D76CD610D62401CC0B24D622179F4
:103850008142EFD8002011E000EBC00104EB8101B0
:1038600081F8555281F8540281F85852C1F85C52DF
:10387000C1F86052401CC0B2C1F864522179814243
:10388000EAD8207C8DF8000094E80F0008F03AFB9D
:1038900010B184F89564AAE7657484F8957420687B
:1038A00008F022FB0020F8BD10B586B004461421B4
:1038B0006846FDF7F9F82068B0F1A04F2FD11948FC
:1038C0000021026842F001020260006800F001007D
:1038D00005904FF4C05000900220CDE90101032073
:1038E00003900A20049069460F48FFF7B7F90D4886
:1038F000001D016841F0800101600A481430016830
:1039000041F4804101600068002200F4804005908D
:1039100011464320FFF714FB4320FFF703FB06B0DB
:1039200010BD0000303802400000024070B504466F
:10393000C079012570B1022801D0FEF731FC29467B
:10394000D4F8E00407F0BEFDD4F8E004BDE8704010
:1039500007F072BD0025F2E7D0F8E00407F09BBD48
:10396000D0F8E00407F0A1BD10B5044690F8940427
:1039700001280AD0012084F894046174206808F0BA
:103980003EFE002084F8940410BD022010BDD0F843
:10399000E02400F29C41104607F0A0BD10B504469B
:1039A000006894F89414012909D0012184F8941432
:1039B000C168490609D5617B012902D005E00220D2
:1039C00010BD816B41F480318163206808F04DFDAA
:1039D000206808F07BFA002084F8940410BD0000F1
:1039E00010B50446D0F8E00407F0BAFD2068D0F81E
:1039F000001E41F00101C0F8001EE07A002804D04A
:103A00000248016841F00601016010BD10ED00E0C0
:103A10002DE9F843054600684FF00109C1074FF052
:103A2000000601D1400727D5DFF80C81C8F868608F
:103A3000FFF716FA0746414C05E000BFFFF710FA02
:103A4000C01B022857D820680001F7D4686881019C
:103A5000287A41EA0070394984310860C8F86890D2
:103A6000FFF7FEF9074604E0FFF7FAF9C01B02284A
:103A700041D820680001F7D52878800752D52F4813
:103A80004030016841F08051016000682C4C00F02A
:103A900080500090206840F480702060FFF7E0F9CB
:103AA000074604E0FFF7DCF9C01B022823D8206892
:103AB000C005F7D5214C7034206810F4407020D038
:103AC000A98901F4407181421BD020681D4920F46E
:103AD0004070C1F800900E6020602068C00710D0D0
:103AE000FFF7BEF9064641F2883707E0FFF7B8F95D
:103AF000801BB84202D90320BDE8F8832068800704
:103B0000F4D5E9680D48C1F301220830032A0BD02F
:103B1000016821F4F81101602068A989C1F30B0143
:103B2000084320600020E7E70268074B22F4F81200
:103B300019400A430260EFE70000474200380240A4
:103B400000700040400E4742FFFCFF0F2DE9F04798
:103B50000E46050065D0DFF81481D8F80000F7B2F2
:103B600000F00700B04207D288F80070D8F80000D3
:103B700000F00700B04254D128683D4C810712D5AF
:103B8000400703D5206840F4E05020602878000703
:103B900003D5206840F4604020602068A96820F0C8
:103BA000F000084320602878C0072DD030496868AD
:103BB0000839012812D0022813D0032811D009682F
:103BC000890700292DDA216821F0030101432160D2
:103BD000FFF746F9814641F2883A0EE00968890309
:103BE000EFE709688901ECE7FFF73AF9A0EB090173
:103BF000514502D90320BDE8F0872068696800F0CC
:103C00000C00B0EB810FEFD1D8F80010404601F066
:103C10000701B14207D90770006800F00700B04201
:103C200001D00120E7E72878400705D52068E9683A
:103C300020F4E050084320602878000706D520686B
:103C4000296920F4604040EAC100206000F0D8F803
:103C50002168084AC1F30311515CC8400649086055
:103C600006480068FFF724F90020C4E7003C024042
:103C7000083802405847010804C0012020000020F5
:103C80002DE9F041FFF7ECF8444C0546206840F080
:103C90000100206005E000BFFFF7E2F8401B0228AA
:103CA00047D820688007F7D5206840F08000206062
:103CB000FFF7D6F80546394E00200836306041F24D
:103CC000883704E0FFF7CCF8401BB84231D83068A1
:103CD00010F00C0FF6D1FFF7C3F80546206820F46A
:103CE0005020206005E000BFFFF7BAF8401B6428B1
:103CF0001FD820688003F7D4FFF7B2F80546206884
:103D000020F08070206004E0FFF7AAF8401B022832
:103D10000FD820688001F7D4FFF7A2F80546206885
:103D200020F08060206007E0FFF79AF8401B02282F
:103D300002D90320BDE8F08120680001F4D41749BE
:103D40001748091D08601549164884310860134852
:103D50000C30016821F4F8510160016821F4005130
:103D60000160016841F41F010160016841F4001124
:103D700001600A487430016821F0010101600168A6
:103D800041F08071016009490748086008480068EF
:103D9000FFF78EF80028CDD00120CBE70038024095
:103DA00010300004003000200024F40004C0012082
:103DB00020000020014800687047000004C0012076
:103DC0000448054900680968044AC1F38221515C2E
:103DD000C840704704C00120083802406847010805
:103DE0000448054900680968044AC1F34231515C3E
:103DF000C840704704C001200838024068470108E5
:103E0000154810B5006810F00C02144813D041108A
:103E1000042A0FD0082A0ED10F4C241F22682368D1
:103E200002F03F025B0207D52068C0F38810A0FBB8
:103E3000010106E0084610BD2168C1F38811A1FB0D
:103E400000010023FCF798FA2168C1F30141491CE5
:103E50004900B0FBF1F010BD083802400024F40026
:103E60002DE9F84F04006ED02078DFF84C93C0079E
:103E7000A9F104054AD009F104000168C1F38101E8
:103E8000012908D00068C0F3810002280AD1D9F8BE
:103E90000000400206D52868800337D560680028F6
:103EA000E1D033E06068B0F5803F10D0B0F5A02FCE
:103EB000286810D020F480302860286820F4802002
:103EC00028606068A8B1FEF7CBFF06460DE02868C1
:103ED00040F48030F4E740F480202860F7E700BF2A
:103EE000FEF7BEFF801B642873D828688003F7D5CF
:103EF0000CE0FEF7B5FF064605E000BFFEF7B0FF99
:103F0000801B6428F0D828688003F7D42078DFF875
:103F1000AC8280074FF0000A3ED5A748001D01681B
:103F200011F00C0F08D00068C0F3810002280BD1FB
:103F3000D9F80000400207D42868800716D5E06849
:103F4000012800D112E033E1E068B8B10120C8F8DF
:103F50000000FEF785FF064605E000BFFEF780FF84
:103F6000801B0228C0D828688007F7D528682169F7
:103F700020F0F80040EAC10028600DE0C8F800A079
:103F8000FEF76EFF064604E0FEF76AFF801B02287C
:103F90001FD828688007F7D42078000722D5864FDD
:103FA00087486169703771B101210160FEF758FFE0
:103FB000064604E0FEF754FF801B022809D8386843
:103FC0008007F7D50EE0C0F800A0FEF749FF0646CF
:103FD00005E082E0FEF744FF801B02287DD83868A8
:103FE0008007F7D42078400768D5DFF8CCB10027E8
:103FF0000BF13C0BDBF80000C0000BD4DBF8001029
:1040000041F08051CBF80010DBF80000012700F0F0
:10401000805000906B4E3068C00510D4306840F47A
:1040200080703060FEF71CFF009005E0FEF718FF7F
:104030000099401A022850D83068C005F6D55E4E67
:10404000A0686C3601280FD00528306810D020F009
:1040500001003060306820F004003060A068B8B122
:10406000FEF7FEFE00900FE0306840F00100F4E73C
:1040700040F004003060F7E7FEF7F2FE0099411AC5
:1040800041F28830814266D830688007F4D50EE06E
:10409000FEF7E6FE009007E0FEF7E2FE0099411A07
:1040A00041F28830814256D830688007F4D42FB16D
:1040B000DBF8001021F08051CBF80010A069C8B3E4
:1040C0003D49091D0968C1F3810102294AD002282E
:1040D000504607D0C8F8600000E03CE0FEF7C0FEA4
:1040E00004463BE04746C8F86000FEF7B9FE0646C6
:1040F00005E000BFFEF7B4FE801B02282BD828681D
:104100008001F7D4D4E907010843A16A2E4A49087F
:1041100002EB0141626A41EA8211084394F82C10D3
:1041200040EA0161C9F8001001203866FEF798FEE8
:10413000044606E03EE000BFFEF792FE001B0228A8
:1041400009D828688001F7D534E000BFFEF788FE63
:10415000001B022802D90320BDE8F88F28688001DF
:10416000F4D427E00128F7D0D9F80000E26900F480
:10417000800191421CD1226A00F03F01914217D187
:1041800047F6C071626A0140B1EB821F10D1A26A8A
:104190004FF0FF3300F4403103EB5202B1EB024F1A
:1041A00006D194F82C1000F07060B0EB016F01D0D4
:1041B0000120D1E70020CFE7043802400000474249
:1041C000800E4742007000400000FFFF10B50068FD
:1041D0000B4641680D480140080CD870C1F3042417
:1041E0005C7001F03F049C70C1F34231197052B908
:1041F00003F0D2FBD870587803F0CEFB5870987853
:1042000003F0CAFB9870002010BD00003FFFFF00C4
:1042100010B50B460168896A596001680969C1F3E4
:104220000E019960006801680D480140C1F3054026
:104230001870C1F306245C7001F07F049C70890D36
:10424000D97052B903F0A8FB1870587803F0A4FB9A
:104250005870987803F0A0FB9870002010BD000003
:104260007F7F7F0010B5040002D0607F10B106E0B0
:10427000012010BD00202077204600F041F80220E8
:1042800060772068C168C943C90632D5CA21416236
:10429000216853204862204603F092FB20BB20682F
:1042A0008168164A114081602168886862681043FD
:1042B000D4E904231A43104388602168E068086148
:1042C00020680169228941EA02410161204603F028
:1042D0009BFB48B921680A6C22F480220A64216899
:1042E0000A6CA3691A430A642268FF21516208B16B
:1042F00010BD00200121617710BD0000BFFF8FFFBE
:104300001FB50021009101910291039100680849B5
:1043100088420CD102200090C00103906846FFF74C
:1043200077FB08B1FDF73CFF0249012008601FBD83
:10433000002800403C0E474270B50446007F0B4603
:10434000012819D00126267702206077B2B198782B
:10435000D97840EA014558781978000240EA41309E
:1043600005432168CA2048622168532048622046DC
:1043700003F026FBD0B122E0022070BD5878C106C0
:1043800003D500F0EF000A305870D87803F00DFB29
:104390000204587803F009FB42EA0022987803F0FF
:1043A00004FB0243187842EA4035DAE70748054043
:1043B00020684560204603F027FB00B96677226835
:1043C000FF2151620021217770BD00003FFFFF00F7
:1043D0002DE9F0410446007F0D46012823D04FF01F
:1043E000010884F81C80022060772068002780681C
:1043F0004FEA4060D2B1002800DBEF70A87829783E
:1044000040EA01466878E978000240EA81500643B4
:104410002168CA204862216853204862204603F080
:10442000CFFAB8B12CE00220BDE8F081002800DB13
:10443000EF70287803F0B9FA0204687803F0B5FA4F
:1044400042EA0022A87803F0B0FA0243E87842EA90
:104450008056DDE70D4806402068066020688168C8
:1044600021F480218160D5E90301084321688A682D
:1044700010438860204603F0C7FA08B984F81D800D
:104480002268FF2151622777CEE700007F7F7F00FF
:1044900070B504460B482168C860FEF7E1FC05468C
:1044A0004FF47A7607E000BFFEF7DAFC401BB0421B
:1044B00001D9032070BD2068C0688006F4D50020B3
:1044C00070BD00005F7F010010B5FCF797FD10BDC7
:1044D0002DE9FE430446002603200D4684F83400EF
:1044E000606C03285ED0B5F5805F5BD04FF4006749
:1044F00000204FF08068BD421FD18146009001909E
:104500000021206804F0FAF9800113D4694620469E
:1045100004F0E8FD07000DD10198400334D5B4F84C
:1045200050000104206804F021FA070002D10221A2
:10453000206823E0A06B384328E01DB1A06B40F059
:10454000006023E08146009001900021206804F083
:10455000D5F98001EED46946204604F0C3FD07007A
:10456000E8D10198C0030FD5B4F8500001042068C9
:1045700004F0FCF90700DDD10021206804F043FAC3
:104580000700D7D14F46D5E74746D3E7A063A06BD6
:10459000144F4FF0010848B12068876384F83480D5
:1045A00001260EE0A06B40F08050EFE7211DD4E91A
:1045B000050C0EC9CDE90050CDF808C0206804F004
:1045C000A7F94FF40071206804F004FA28B12168BB
:1045D0008F63A16B0143A163012684F834803046C8
:1045E000BDE8FE83FF05400070470000F0B5426E55
:1045F000920F0A70426EC2F383624A70426EC2F337
:1046000001628A70426E120CCA70B0F86420120AFD
:104610000A7190F864204A71826E120DCA80826E0F
:10462000C2F303420A72B0F86820C2F3C0324A7281
:10463000B0F86820C2F380328A72B0F86820C2F302
:104640004032CA72B0F86820C2F300320A73002602
:104650004E73426C4FF40075012462B1012A3AD0C6
:10466000026847499163816B41F08051816380F812
:1046700034400120F0BDB0F86820C36E9205120DE1
:1046800042EA93720A61C26EC2F3C2620A75C26ED6
:10469000C2F302624A75C26EC2F342528A75C26E9A
:1046A000C2F38242CA75C26EC2F3C2320A760A6986
:1046B000521C42650B7E03F007039B1C9A40426527
:1046C0000B7A03F00F0704FA07F383655B0A5A437A
:1046D000C0E917250EE090F86820C36E9206920A92
:1046E00042EA13420A610A69521C92024265C0E919
:1046F0001652056630F86C2FC2F3803201F8192F7C
:104700000288C2F3C6124A70027802F07F028A70F1
:104710004268D20FCA704268C2F341720A7142689D
:10472000C2F382624A714268C2F383528A7142685C
:10473000C2F34052CA710E724268C2F300424A721A
:104740008288C2F3C0328A728288C2F38032CA720F
:104750008288C2F340320A738288C2F300324A73FD
:104760008288C2F381228A738288C2F30122CA73CB
:104770000079C0F3460008744C740020F0BD0000BE
:10478000FF054000426C0A60826C4A60C26C8A601D
:10479000026DCA60426D0A61826D4A61C26D8A61B2
:1047A000006EC8610020704770B50446B0F8500034
:1047B00000250104206804F00EFA18B1A16B014332
:1047C000A16304E00021206804F098F80546C5F3D1
:1047D000432070BDF8B5056B04460068416B0904C1
:1047E0001BD5290719D5D4E90A56002E14D0002765
:1047F000206804F0A3F805F8010B010A05F8011B75
:10480000010C05F8021B000E361F7F1C05F8010C79
:10481000082FEDD3C4E90A56F8BD416B4FF00006EE
:10482000C9054FF0010744D5390281632068C16B87
:104830004CF23A329143C1632068C16A21F0010110
:10484000C16228071DD515F0220F09D0206804F099
:10485000F3F928B1A16B0143A1632046FFF7C4FE21
:10486000216840F23A50886384F834702663A807C0
:1048700003D0204600F02EFBF8BD204600F02EFBB2
:10488000F8BD2806FCD5A80609D5206804F0D4F99F
:1048900028B1A16B0143A1632046FFF7A5FEA8073D
:1048A000EED12068C16A21F00801C16284F8347039
:1048B000E3E7416B490424D5290722D5D4E90856FA
:1048C000002EDDD05FF0000715F8010B009015F801
:1048D000011B361F40EA0120009015F8021B40EA38
:1048E0000140009015F8011C40EA01600090694603
:1048F000206804F036F87F1C082FE5D3C4E9085679
:10490000F8BD416B40F23A221142F9D0416B890760
:1049100003D5A16B41F00201A163416B090703D5E7
:10492000A16B41F00801A163416B890603D5A16B1E
:1049300041F02001A163416BC90603D5A16B41F091
:104940001001A163416B890503D5A16B41F00801FA
:10495000A16340F23A7181632068C16B40F23A3240
:104960009143C163206804F067F9A16B0843A06319
:10497000280706D584F8347026632046FFF734FEF6
:10498000F8BD2806FCD515F0300F0CD0E16B1148AE
:104990000865E06BFDF755FE0028F1D0E06BBDE83F
:1049A000F84004F07DBBA8070CD0216C0A480865CC
:1049B000206CFDF746FE0028E2D0206CBDE8F840F0
:1049C00004F045BBA66384F8347026632046FFF7E5
:1049D0007BFDF8BDA19000084F90000870B5040061
:1049E0000ED094F83400002518B92577204600F041
:1049F0004DF8032084F83400204600F00BF808B18D
:104A0000012070BDA5632563012084F834000020D7
:104A100070BD0000FEB50025044676200095CDE966
:104A200001502B462A462946206803F071FF154E97
:104A300046F8A05F206803F07DFF01253560022065
:104A4000FDF7AAFF204604F035FC28B184F8345065
:104A5000A16B0143A16313E0204604F0B3FB0028DF
:104A6000F4D14FF40071206803F0B4FF002808D09F
:104A7000226805499163A16B0143A16384F8345016
:104A80000120FEBD00802542FF0540002DE9F04FCA
:104A900087B0054614216846FCF706F846492868A1
:104AA00088427DD145480068444940F40060086070
:104AB000086800F4006005904048143800683F49D9
:104AC00040F0040014390860086800F00400059004
:104AD000086840F0080008600868032600F0080035
:104AE00005904FF4F8500090022001900020CDE98D
:104AF00002060C24694604943148FEF7AFF80427F7
:104B00000220CDE900700020CDE902066946049438
:104B10002C48FEF7A3F82D4C2B484FF00068C4E951
:104B200000080020A060E06038022061C4E9097636
:104B3000800004F114014FF480494FF0200A4FF433
:104B4000403B81E8010EC60247022046C4E90B67DC
:104B5000FDF75CFE08B1FDF723FB2C64A5631B4C3D
:104B6000194860344830C4E900084020A0600020A3
:104B7000E0604FF48060206104F11401800081E85E
:104B8000010E042060621431032081E8C100204638
:104B9000FDF73CFE08B1FDF703FBEC63002200E0EB
:104BA00007E001213120A563FEF7CAF93120FEF7A5
:104BB000B9F907B0BDE8F08F002C0140443802403D
:104BC00000080240000C024058640240808100202E
:104BD0002DE9F04F87B09B4616460D460446FEF77A
:104BE0003FF900903DB194F83400012807D0A06B44
:104BF00040F000500DE0A06B40F0006009E00020A4
:104C0000A063E26D06EB0B01914204D9A06B40F06A
:104C10000070A0638AE0032184F834102168C86220
:104C2000616C012900D076024FF0FF3101914FEA0B
:104C30004B2102914FF0010803AA902102278146DF
:104C4000CDF8188082E8820201A9206803F040FEB6
:104C5000BBF1010F05D927633146206803F02CFF13
:104C600005E0C4F830803146206803F03EFFDFF8ED
:104C70003CA130B12268C2F838A0A16B0143A16306
:104C800050E0029E1FE0406B000413D596B1002750
:104C9000206803F053FE05F8010B010A05F8011B1B
:104CA000010C05F8021B000E361F7F1C05F8010CD5
:104CB000082FEDD3FEF7D4F801460098091A109892
:104CC000814220D2F8B12068426B40F22A310A4278
:104CD000D9D0416BC90509D5BBF1010F06D9616C6B
:104CE000032903D003F0A8FF0028C3D12068416B3B
:104CF000090702D4416B89051AD5C0F838A0A06B0A
:104D000040F0080050E02168C1F838A0A06B40F0E6
:104D10000040A06384F83480C4F83090032007B0CA
:104D2000BDE8F08F84F83480C4F830900120F6E7B5
:104D3000416B890705D5C0F838A0A06B40F0020090
:104D400032E0416B89061BD5C0F838A0A06B40F05B
:104D5000200029E003F0F2FD05F8010B010A05F837
:104D6000011B010C05F8021B000E05F8010C361F93
:104D7000FEF776F80099411A109881420ED268B178
:104D80002068416B890201D5002EE3D1216840F2F1
:104D90003A50886384F834800020C0E72168C1F865
:104DA00038A0A06B40F00040A063BBE7FF054000C7
:104DB0002DE9F04786B01F460446154639B194F8F0
:104DC0003400012807D0022006B0BDE8F087A06BB0
:104DD00040F0006008E00020A063E36DEA199A4209
:104DE00004D9A06B40F00070A06369E0032284F84E
:104DF000342022688146D0622268D36B40F22A3682
:104E00003343D363236C2F4ADA63236C2E4ADA646C
:104E1000226C1065226C9060206C0068026822F0A1
:104E2000C002026020680A46266C4FEA472800F15B
:104E300080014FEA98033046FDF752FDDFF88CA061
:104E4000012670B12068C16B21F49571C16321689E
:104E5000C1F838A0A06B40F08040A06384F83460B3
:104E60002EE01B480660606C012800D06D024FF0F8
:104E7000FF30CDE900089020029002200596CDE990
:104E800003096946206803F023FD012F06D982201B
:104E900020632946206803F00FFE05E0812020638F
:104EA0002946206803F021FE00288DD02268C2F830
:104EB00038A0A16B0143A16384F83460C4F830903A
:104EC000012081E70D900008A98F0008FF05400030
:104ED0008C85254210B5FCF7D9F810BD10B5FCF74C
:104EE000E9F810BD2DE9F04F8DB09B4616460D46F2
:104EF0000446FDF7B5FF0A903DB194F8340001284F
:104F000007D0A06B40F000500DE0A06B40F00060B7
:104F100009E00020A063E26D06EB0B01914204D989
:104F2000A06B40F00070A0637AE0032184F8341095
:104F30002168C862616C012900D076024FF0FF3110
:104F400003914FEA4B2104919021CDE905104FF0D8
:104F50000109CDE90709824603A9206803F0B8FCDE
:104F6000BBF1010F06D9202020633146206803F0F1
:104F70007DFE05E0102020633146206803F08FFE9F
:104F80005FEA000806D0216841488863A06B40EAC8
:104F9000080074E0049E27E0406B40041CD5DEB19D
:104FA0005FF0000715F8010B009015F8011B361F84
:104FB00040EA0120009015F8021B40EA01400090F1
:104FC00015F8011C40EA016000906946206803F072
:104FD000C8FC7F1C082FE5D3FDF742FF0A99411A50
:104FE0001698814220D2F8B12068416B40F21A3203
:104FF0001142D1D0416BC90523D5BBF1010F20D996
:10500000616C03291DD003F017FED0B1226820493E
:105010009163A16B0143A16384F83490C4F830A07C
:1050200001200DB0BDE8F08F216819488863A06B9E
:1050300040EA0800A06384F83490C4F830A003204C
:10504000EFE72068416B090702D4416B890505D55C
:105050000F498163A06B40F0080010E0416B8907A5
:1050600005D50B498163A06B40F0020007E0416B5E
:10507000C90606D506498163A06B40F01000A06305
:10508000CAE740F23A51816384F834900020C8E7BF
:10509000FF0540002DE9F04F5FEA010B87B01E4687
:1050A0000446114607D094F83400012807D00220A6
:1050B00007B0BDE8F08FA06B40F0006008E000256D
:1050C000A563E26D8819904204D9A06B40F000708E
:1050D000A06356E0032084F834002068C56220688D
:1050E000C26B40F21A2942EA0902C263E26B2D4800
:1050F000D063E26B2C48D064E06B0565606C0128DE
:1051000000D049024FF09008012E05D9A02020635D
:10511000206803F0ABFD04E0C4F83080206803F0A1
:10512000BEFDDFF888A0012730B12268C2F838A0A0
:10513000A16B0143A16321E01D480760E16B4020A2
:105140008860E06B0068016821F0C00141F0400117
:10515000016022687602B30859468032E06BFDF7A1
:10516000BFFB80B12068C16B21EA0901C1632168DE
:10517000C1F838A0A06B40F08040A06384F8347080
:105180002563012094E74FF0FF30CDE90006CDE91B
:105190000285CDE904576946206803F099FB002099
:1051A00086E7000093900008A98F0008FF054000E3
:1051B0008C85254270B5040009D0606A002540B195
:1051C00025616561A56294F8510040B10CE00120B1
:1051D00070BD6068B0F5827FF4D0E561F2E784F8D5
:1051E0005050204600F044F8022084F85100206816
:1051F000016821F040010160A088218900F48270DB
:1052000001F404410843A18901F400610843217CB1
:1052100001F002010843217D01F001010843218BC7
:1052200001F400710843217F01F03801084394F82C
:10523000201001F080010843218D01F40051084342
:1052400021680860A069042101EA104094F8241044
:1052500001F010010843216848602068C16921F409
:105260000061C1616565012084F85100002070BDB6
:1052700010B586B0044614216846FBF715FC1349A7
:105280002068884220D112480021026842F48052EE
:105290000260006800F4805005900D4814380268E0
:1052A00042F001020260006800F001000590E02079
:1052B00000900220CDE90101032003900520049015
:1052C00069460448FDF7CAFC06B010BD0030014035
:1052D00044380240000002402DE9FF4F81B01D46D6
:1052E000934604464FF001090E9EFDF7B9FD0746AF
:1052F00094F851006168012806D0B1F5827F3CD155
:10530000A168C9BB042838D10298002871D0BBF12C
:10531000000FFBD0002DF9D094F8500001282CD0BC
:105320004FF0010A84F850A094F85100042802D0EC
:10533000052084F851004FF00008C4F85480C4F8E8
:1053400038B0E587A58702992163E586A586C4F86C
:105350004080C4F8448020680168490603D401688D
:1053600041F040010160E068B0F5006F606808D06E
:10537000F0B3012D49D081E0FFE7022005B0BDE880
:10538000F08F08B1012D39D1206B21680088C860E9
:10539000206B801C2063E08E401EE0862EE020689B
:1053A000816889070FD5E18E69B1B9F1010F0AD182
:1053B000216B0988C160206B801C2063E08E401E39
:1053C000E0864FF0000920688168C9070CD0E18FA2
:1053D00051B1C068A16B0880A06B801CA063E08FF6
:1053E000401EE0874FF00109FDF73AFDC01B01E0C8
:1053F0000BE067E0B04201D3701C50D1E08E002872
:10540000CDD1E08F0028CAD13EE0206B2168007822
:105410000873206B401C2063E08E401EE0862DE068
:105420002068816889070FD5E18E69B1B9F1010F54
:105430000AD1216B09780173206B401C2063E08E38
:10544000401EE0864FF0000920688168C9070CD033
:10545000E18F51B1C068A16B0870A06B401CA063C4
:10546000E08F401EE0874FF00109FDF7F9FCC01BFB
:10547000B04202D3701C01D011E086B1E08E00284A
:10548000CED1E08F0028CBD13A463146204604F0F9
:10549000DDF950B12020606584F8508012E084F876
:1054A00051A084F85080032068E7A06818B92068EC
:1054B000C1688068009084F851A084F85080606DC5
:1054C0000028F1D0012059E710B5401EB0F1807FCF
:1054D00001D3012010BD4FF0E02460610F2160175F
:1054E00007F016FC0020A06107202061002010BDFD
:1054F0007047704770B590F83C20012A32D00124E3
:1055000080F83C40022280F83D2003685A689D687C
:1055100022F070060A6832435A60134B02689A42BE
:1055200014D0B2F1804F11D0104B9A420ED0104BD4
:105530009A420BD00F4B9A4208D00F4B9A4205D09B
:105540000E4B9A4202D00E4B9A4204D1496825F084
:1055500080031943916080F83D40002180F83C10A1
:10556000084670BD022070BD0000014000040040EC
:1055700000080040000C00400004014000400140D1
:105580000018004010B5040003D094F83D0010B19D
:1055900007E0012010BD002084F83C00204600F008
:1055A0001FF8022084F83D00211D206805F058FAFC
:1055B000012084F8460084F83E0084F83F0084F817
:1055C000400084F8410084F8420084F8430084F8E5
:1055D000440084F8450084F83D00002010BD000020
:1055E00008B500680B49884212D10B48016841F0A8
:1055F000010101600068002200F0010000901146E6
:105600001920FDF79DFCBDE808401920FDF78ABC74
:1056100008BD0000000001404438024090F83D10F1
:10562000012901D001207047022180F83D10016856
:10563000CA6842F00102CA6000681149884214D069
:10564000B0F1804F11D00F4988420ED00E498842E8
:105650000BD00E49884208D00D49884205D00D492B
:10566000884202D00C49884204D1816801F00701C8
:10567000062903D0016841F0010101600020704754
:10568000000001400004004000080040000C004001
:1056900000040140004001400018004070B504467D
:1056A00090F83C000025012817D0012684F83C60C2
:1056B000022084F83D002068826822F0770222F4FC
:1056C0007F4282600868502838D00DDC20284FD0F7
:1056D00005DC90B3102811D14AE0022070BD3028BB
:1056E00046D040280AD13BE060282FD070280DD04A
:1056F000B0F5805F03D0B0F5005F12D0012584F8CB
:105700003D60002084F83C00284670BDCB68D1E99C
:105710000121206805F00CFA2068816841F07701CA
:1057200009E0CB68D1E90121206805F001FA206881
:10573000816841F480418160E1E719E0CA68496805
:10574000206805F007FA5021206806E0CA68496819
:10575000206805F010FA6021206805F0F3F9CEE723
:10576000CA684968206805F0F5F940212068F4E727
:10577000226801461046F0E770472DE9F0410446E3
:105780000068C66805694FF00007A90713D5B1077F
:1057900011D5F91E016101202077206880698007FA
:1057A000204602D0FFF7E8FF04E000F07EF8204634
:1057B00000F07CF82777680716D5700714D52168A4
:1057C0006FF004000861022020772068806910F4DF
:1057D000407F204602D0FFF7CFFF04E000F065F8DD
:1057E000204600F063F82777280715D5300713D532
:1057F00021686FF008000861042020772068C069E4
:105800008007204602D0FFF7B7FF04E000F04DF814
:10581000204600F04BF82777E80616D5F00614D599
:1058200021686FF010000861082020772068C069A7
:1058300010F4407F204602D0FFF79EFF04E000F006
:1058400034F8204600F032F82777E80708D0F00750
:1058500006D021686FF001000861204600F028F8AA
:10586000280608D5300606D521686FF0800008614B
:105870002046FFF73DFE680608D5700606D521686C
:105880006FF040000861204600F022F8A8060AD513
:10589000B00608D521686FF0200008612046BDE8F9
:1058A000F041FFF726BEBDE8F08170477047000069
:1058B00000680549884205D104490888401C0880D1
:1058C00009F0A0BE70470000000001401800002051
:1058D0007047704770470000F8B5016804460868D3
:1058E000CA684B6910F00F0F4FF0000559D003F054
:1058F000010602F49077374365D0C10705D0D10582
:1059000003D5616C41F001016164410705D5D907F8
:1059100003D0616C41F002016164810705D5D907AC
:1059200003D0616C41F004016164010707D502F006
:105930002001314303D0616C41F008016164616C66
:1059400000293AD0800604D5900602D5204605F0FD
:1059500059F920684069616CC0F38010090700D4D0
:1059600060B3204605F027F920684069400621D53C
:105970002068143050E8001F21F0400140E8001278
:10598000002AF5D1E06BA8B172490165E06BFCF724
:1059900058FE002811D0E06B016D01B0BDE8F04069
:1059A000084783060FD593060DD52046BDE8F8407D
:1059B00005F028B92046FFF78DFFF8BD2046FFF718
:1059C00089FF6564F8BD266B2023012E7ED1C606B3
:1059D0007CD5D6067AD508684868009048694FF0AB
:1059E000020640064DD5E26B106840684FF48077A0
:1059F0000004000C3AD0A18D814237D9E085D069EE
:105A0000B8422DD020680C3050E8001F21F480717E
:105A100040E80012002AF5D12068143050E8001F39
:105A200021F0010140E80012002AF5D1206814306D
:105A300050E8001F21F0400140E80012002AF5D193
:105A400084F84230256320680C3050E8001F21F0B4
:105A5000100140E80012002AF5D1E06BFCF7A8FD28
:105A60006663A08DE18D401A81B206E0A18D81426E
:105A7000A8D1D069B842A5D166632046FFF729FFB7
:105A8000F8BDA08DE18D401A81B2E08D0028F7D0DD
:105A90000029F5D020680C3050E8002F22F49072D5
:105AA00040E80027002FF5D12068143050E8002F7F
:105AB00022F0010240E80027002FF5D184F842309F
:105AC000256320680C3050E8002F00E006E022F04B
:105AD000100240E80023002BF3D1CDE705062BD5BB
