:020000040800F2
:10000000F8720120290300083F4C00088D410008C8
:100010003D4C0008B52900080174000800000000EC
:10002000000000000000000000000000F16B00086C
:10003000192A000800000000AD5A0008156C0008DD
:100040004303000843030008430300084303000878
:100050004303000843030008430300084303000868
:100060004303000843030008430300084303000858
:100070004303000843030008430300084303000848
:100080004303000843030008430300084303000838
:100090004303000843030008430300084303000828
:1000A00043030008316C00084303000843030008C1
:1000B0004303000843030008430300084303000808
:1000C00043030008430300084303000843030008F8
:1000D00043030008B96E0008430300084303000807
:1000E00043030008430300084303000843030008D8
:1000F00043030008430300084303000843030008C8
:1001000043030008695C0008430300084303000838
:10011000396D000843030008430300084303000847
:100120004303000843030008B9290008C529000853
:100130004303000843030008430300084303000887
:10014000430300084303000843030008414C000830
:1001500043030008D1290008DD29000843030008F3
:100160004303000843030008430300084303000857
:100170004303000843030008430300080000000095
:10018000430300084303000800F002F800F0BCF845
:1001900014A696E8000CB244B344DA4501D100F04D
:1001A000B3F8BAE80F000FA696E83000A5EB0405F7
:1001B00004EB0607AAEB0704A7F101074FEA1515A0
:1001C0004FEA3414A4F10104AC4201D300F09CF8CE
:1001D00013F0010F18BFFB1A43F0010300F001F800
:1001E000DBE7184710D9010030D901000A4410F8A4
:1001F000014B14F00F0508BF10F8015B240908BF7C
:1002000010F8014B6D1E05D010F8013B6D1E01F872
:10021000013BF9D1641E03D0641E01F8015BFBD1E0
:100220009142E4D37047000070470000002300248F
:1002300000250026103A28BF78C1FBD8520728BFF6
:1002400030C148BF0B6070476E2900F0C985702926
:1002500000F0AF82662919F05880652919F05580A1
:10026000672919F05280612919F0518003681B0A2F
:1002700028BF41F08001692900F08A81642900F0DB
:100280008781752900F084816F2900F03D827829EB
:1002900000F07B82E92901F02980E42901F0268021
:1002A000F52901F02380EF2900F03A82F82900F0C7
:1002B0007A820368DB0928BF41F08001632900F0DE
:1002C000E087732900F0E587E32901F00380F32933
:1002D00001F00880002070471FB519F001F89DE873
:1002E000030000F0EFFC01F077FB04000020002188
:1002F00018F0D8FD401C60600020002118F0E8FDD7
:10030000E0601FBD10B510BD01F046FE1146FFF7BD
:10031000E3FF15F0FBF902F0A7F803B4FFF7F2FFD3
:1003200003BCAFF30080000009488047094800473C
:10033000FEE7FEE7FEE7FEE7FEE7FEE7FEE7FEE795
:10034000FEE7FEE704480549054A064B70470000F2
:10035000216C000889010008F8420120F872012090
:10036000F8520120F852012070B5064600F08AFCD0
:10037000056806F10B0020F00704B4429CBF002082
:1003800070BD2B466A68BAB11068A04210D304F160
:10039000080188423CBF5068586007D35168101963
:1003A00041601168091B016058601460101D70BD28
:1003B00013465268002AE7D12146284600F06EFC19
:1003C0000028DED170BD70B50446051F00F05AFC50
:1003D0000068002C14BF446870BD002C18BFAC42EC
:1003E0003CBF20466468F8D301680A18AA4218BFC7
:1003F000456003D12A680546114401602868411907
:10040000A1421CBF6C6070BD6168696021680844CE
:10041000286070BD1CB50C46064B7B4469460090B5
:10042000204600F004FF04460020694600F012FF59
:1004300020461CBD370E00007CB51D4616460C003C
:10044000009007D04142A14202D32044401E01E067
:100450004FF0FF30064B7B442A46694601903046F8
:1004600000F0E5FE002C02D0009A002111707CBD46
:10047000050E00000FB4044910B503AA029800F05D
:100480000DFF10BC5DF814FB080600200FB41CB56E
:100490000C0007AA009007D04142A14202D3204499
:1004A000401E01E04FF0FF30074B7B44694601904E
:1004B000069800F0BCFE0021002C01D0009A1170BB
:1004C0001CBC5DF814FB0000B10D000070B50446C3
:1004D00085690068C10601D5302600E02026C007E6
:1004E00007D070BDD4E9012130469047206A401CF6
:1004F00020626D1EF6D570BD70B504468569007822
:10050000C00707D170BDD4E9012120209047206A9F
:10051000401C20626D1EF6D570BD09684A0501D5E4
:1005200040B27047C905FCD500B2704709684A055A
:1005300001D5C0B27047C905FCD580B2704770B50F
:100540000C460546012A05D02878800600D5EA69C0
:10055000002302E0012305E05B1C934202D2E05C31
:100560000028F9D1A869E618C01AA861286A1844B9
:1005700028622846FFF7AAFF04E0D5E9012114F814
:10058000010B9047B442F8D32846FFF7B5FF70BD82
:100590002DE9F0410646002410687529314616A55C
:1005A00010D0FFF7BAFF002802DA404213A507E097
:1005B00031688A0701D512A502E0490704D511A5C3
:1005C000012401E0FFF7B2FF00210A2206F124070F
:1005D00009E0B0FBF2FCB0FBF2F302FB1C00303090
:1005E00078541846491C0028F3D123462A46304641
:1005F000BDE8F04100F09BBB000000002D000000B2
:100600002B000000200000002DE9FF5F15468A4600
:100610000446DFF8AC80F8440027D8E900103E46D5
:10062000CDE9001010E03AF816106A4602A801F071
:1006300017F9411C07D02178890603D5E2693918DA
:1006400091420DD80744761C2078800602D5E069D7
:10065000B84205DDAE42E6DB3AF816000028E2D1EA
:10066000A069C01BA0612046FFF730FFD8E9001049
:10067000CDE90010002017E03AF818106A4602A8E9
:1006800001F0EEF8B0F1FF3F81460BD000250DF1EF
:10069000080B05E0D4E901211BF8050090476D1C0B
:1006A0004D45F7D308F10100B0428046E4DB206AF3
:1006B000384420622046FFF71FFFBDE8FF9F00007F
:1006C000F68D010030B4002100F1240408E002F0AE
:1006D0000705D208303542EA4372DB086554491CED
:1006E00052EA0305F3D10468002310A2250708D5B8
:1006F00004F020040C4304D0C46901230CA2641E3E
:10070000C46130BC00F013BB10B50446214610682C
:10071000FFF70CFF02462046BDE810400023D1E75A
:10072000D21D22F00701D1E90023CBE70000000031
:1007300030000000F0B40D460188090502D5214CB7
:100740007C4402E01F4C7C440E34002100F124065E
:1007500008E002F00F071209E75D42EA03721B0985
:100760007754491C52EA0307F3D102780023120799
:1007700004D5702D06D009B1022311342246F0BCF5
:1007800000F0D5BA01231034F8E770B504460D46E1
:1007900021461068FFF7CAFE024629462046BDE8FA
:1007A00070400023C6E7D21D22F00703D3E90023DF
:1007B000C0E70368126843F0200303600823C361A5
:1007C0000023B7E7D48C01002DE9F05F8946044689
:1007D0004FF0000ADFF874B1FB44C0F820A02046B7
:1007E000E1688847002874D0252806D0D4E9012183
:1007F0009047206A401C2062F1E700265F462046B1
:10080000E16888472028054607DB312D05D2781995
:1008100010F8200C08B10643F1E7B00701D526F027
:100820000406C4F81CA00027C4F818A02A2D09D07B
:10083000284618F0E8FA38B304EB8708303DC8F8CA
:10084000185019E059F8041B204604EB8702916107
:10085000E1688847012F054618D1E069002820DAB1
:1008600026F020061DE0D8F8180000EB800005EB0C
:1008700040003038C8F818002046E168884705462F
:1008800018F0C1FA0028EED1012F0AD02E2D08D180
:100890002046E16888477F1C0546022F46F0200667
:1008A000C4DBA069002803DA404246F00106A061DB
:1008B000F00701D026F010066C2D0BD0682D09D062
:1008C0004C2D39D06A2D35D0742D35D07A2D33D0BA
:1008D00016E038E0E1682F4620468847B8420546D2
:1008E00009D16C2F26D04FF48060E1680643204682
:1008F0008847054604E06C2F1AD04FF480700643F9
:100900000DB3A5F14100192802D8203546F4006640
:100910004A462946204626604E46FFF795FC80B1A0
:1009200001280BD0F61D26F0070000F1080956E754
:100930004020E4E78020D8E70020D6E706F104094C
:100940004DE7284652E7206ABDE8F09F648C01001D
:1009500010B5044603E00DF0A9FE401C09D014F8C0
:10096000010B05490028F6D1BDE810400A200DF022
:100970009DBE4FF0FF3010BD080600200EB50546A5
:1009800014460E4613A000F09AFF284600F097FF89
:1009900016A000F094FF304600F091FF15A000F083
:1009A0008EFF00218DF80B100A210DF10A008DF841
:1009B0000A1008E094FBF1F201FB124294FBF1F4FF
:1009C000303200F8012D002CF4DC00F078FF00F04C
:1009D0006BFF00002A2A2A20617373657274696FA5
:1009E0006E206661696C65643A2000002C2066699F
:1009F0006C6520002C206C696E652000014A00F0B7
:100A000069BF000000000020401ECAB210F8011F9C
:100A10008A4202D00029F9D10020704730B5034640
:100A20001D781DB10A4603E0AC4201D1181A30BD51
:100A300012F8014B002CF7D15B1CF1E710B5431EF7
:100A400013F8014F002CFBD105E011F8014B002CED
:100A500003F8014B03D0521EF7D20021197010BDCC
:100A600030B503461D783DB10A4612F8014B1CB162
:100A7000AC42FAD15B1CF5E7181A30BD30B505461B
:100A80000B462A4613F8014B12F8010B08B1A0429D
:100A9000F8D01CB1002802D06D1CF1E7284630BD0B
:100AA00040EA010310B59B070FD1042A0DD310C8EB
:100AB00008C9121F9C42F8D020BA19BA884201D93D
:100AC000012010BD4FF0FF3010BD1AB1D30703D085
:100AD000521C07E0002010BD10F8013B11F8014B3B
:100AE0001B1B07D110F8013B11F8014B1B1B01D157
:100AF000921EF1D1184610BD40EA0103024630B5FE
:100B00009B0710D14FF0013400E008C208C91D1B3B
:100B10009D4315EAC41FF8D013F0FF0102F8011B32
:100B20000DD01B0AF8E711F8013B002B02F8013B3E
:100B300005D011F8013B002B02F8013BF3D130BD89
:100B40000022CBB210F8011B994200D1421E0029AD
:100B5000F8D11046704710B5431C02E010F8011B95
:100B600071B18107FAD14FF0013202C88C1A8C435F
:100B700014EAC211F9D0C01A0A0603D0C01E10BD73
:100B8000C01A10BD0A0401D0801E10BD0902FCD09D
:100B9000401E10BD10B5044610F0030F08BF11F041
:100BA000030F40F015804FF0013E121FC0F20E807F
:100BB00051F8043BA3EB0E0C2CEA030C1CEACE1CF0
:100BC00008BF40F8043BF0D0A1F1040102F1040297
:100BD000521E08DB11F8013B00F8013B002BF7D156
:100BE000114600F0CBFE204610BD000000000000C2
:100BF00030B44FF0013C50F8042B51F8043BCCFAD0
:100C000052F4D51A20D1FCB950F8042B51F8043B0A
:100C1000CCFA52F4D51A17D1B4B950F8042B51F8C4
:100C2000043BCCFA52F4D51A0ED16CB950F8042B0F
:100C300051F8043BCCFA52F4D51A05D1002CDAD085
:100C400030BC4FF00000704729BAB1FA81F111F0C1
:100C50001801D1F120008440F2D1CA40CB4012F0FB
:100C6000FF0213F0FF0330BCD01A70477047704783
:100C70007047000010B500F0AFFE001D10BD00BFB2
:100C80002582010000487047780100200048704725
:100C900070010020704770477047704738B50446B0
:100CA0000A4600206946AFF30080002808BF38BD1F
:100CB00002460099204600F093FE012038BD012035
:100CC00001F03BB9F8B5AFF30080054600200C46B3
:100CD0000C2000BF0646A819A0420DD9324669462D
:100CE0000020AFF30080070008BF01F026F900984C
:100CF000A04218BF0546C419FFF7C4FF05600746A8
:100D0000F01D20F007004619284600F00AF8B4420A
:100D100008BFF8BDA21B31463868BDE8F84000F0B6
:100D20005FBE00210160416070470C2070472DE9D3
:100D3000F0470D4699469246044600F124080168A2
:100D4000880604D5E06921F01001216000E001204F
:100D5000A84201DD471B00E00027A1697A1902EBD8
:100D60000900081AA0612078C00602D42046FFF7C7
:100D7000ADFB002608E0D4E901211AF806009047EF
:100D8000206A401C761C20624E45F4DB2078C006A9
:100D90000AD52046FFF79AFB06E0D4E9012130206E
:100DA0009047206A401C2062381EA7F10107F4DC3E
:100DB00007E0D4E9012118F805009047206A401C9B
:100DC0002062281EA5F10105F3DC2046FFF794FB05
:100DD0002078000602D50220BDE8F0870120FBE75D
:100DE00011680268006A530501D508700AE0D3054E
:100DF00001D5088006E0130603D5C217C1E9000239
:100E000000E00860012070472DE9FF4F0C461E46A8
:100E10004FF0FF378BB0D2E90001DDF860800A9017
:100E20008A46C1F30A5505B93D46002108464FF0F0
:100E30000000BAF1000F00F4400005DA00EB80007A
:100E40004FF4400101EA50004FEA9059B9F1010F07
:100E500000DDB9460A9850EA4A000ED044F6105018
:100E6000A5F2FF3545432F14B8F1000F1ED075428F
:100E7000291E1EDDC9F100021CE0B8F1010F4FF080
:100E8000000001D0302103E0F24305E02154401C72
:100E9000B042FBDB30460022002121540B99C1F8FF
:100EA0000880C1E900200FB0BDE8F08FBD1B6D1CAC
:100EB000DEE74A4600DA694206A800F0C1FF06AB49
:100EC00093E8070003AB83E8070050460A9917F040
:100ED00037FA8DE80700A0F500501F3800900398FE
:100EE000002D0ADD42F21F014A460844002303A9EF
:100EF0000390684617F0E2FC09E0A0F500504A466E
:100F00001F38002303A90390684617F001FD8DE800
:100F100007000004000C03D04FF0FF30410800E050
:100F20001046B8F1000F03D00022009215461EE0D3
:100F3000751E05D400F081FD303262556D1EF9D565
:100F4000B3460122084302D000227F1C04E020782F
:100F5000302801D100227F1E002A099784D01DE08D
:100F6000112D07DA00F069FD303262556D1C50EA30
:100F70000102F5D1084302D00098C8B10EE000216B
:100F8000681E05E0235C625C63542254401E491CC9
:100F90008142F7DBAB46A81B401E0990002004F8F5
:100FA0000B000B98099AC0F80880C0E9002B7AE77B
:100FB00011264FF0000857E72DE9F04F8846044608
:100FC000D21D22F0070191B0D1E90001CDE90A015B
:100FD00017F0EAFD02460B98C00F01D02D2007E064
:100FE0002068810701D52B2002E0202101EAC00002
:100FF000032A099001D0072A05DB03464146204613
:1010000000F0DEFE0BE12078800601D5E06900E00B
:101010000620B8F1650F814606D0B8F1660F18D0EA
:10102000B8F1670F70D131E00020B9F1110F0090D5
:1010300001DB112301E009F101030AAA01A90CA8AF
:10104000FFF7E2FEDDE90C70002609F10105834699
:1010500047E001204B4600904FF000470AAA01A943
:101060000CA8FFF7D1FEDDE90DB00C995D46002616
:1010700010B909F101000D18B9EB050003D4C0F156
:10108000FF3609F10105A5EB09002BE0B9F1010FCD
:1010900001DA4FF001090020B9F1110F0090484624
:1010A00001DD112300E003460AAA01A90CA8FFF7FD
:1010B000ABFEDDE90C704D46002683462078000724
:1010C0000AD4AB4500DA5D4601A8012D04DD4119C3
:1010D00011F8011C302907D04F4502DA17F1040F2F
:1010E00004DA012082460FE06D1EEEE7002F02DCDD
:1010F000ED1B3E4403E0781CA84200DD7D1CB81BBC
:1011000000F1010A4FF000472078000703D4AA45F8
:1011100001DB4FF0FF3A0021B7F1004F0DF143081A
:101120008DF8431024D002202B23002F01DA7F42B8
:101130002D230A21021EA0F1010000DC5FB197FB04
:10114000F1FC97FBF1F201FB1C7C17460CF1300C13
:1011500008F801CDEEE7A8F1010003702188090528
:1011600001D5452100E06521A0F1010800F8011C2E
:1011700009980FA9A1EB0807FF1D00B10120411933
:1011800001EBEA70A1693844081A401EA06120787A
:10119000C00602D42046FFF799F9099828B1D4E98E
:1011A00001219047206A401C20622078C00622D589
:1011B0002046FFF78BF91EE0002E04DBB34502DD6D
:1011C00001A8805D00E03020D4E901219047206A29
:1011D000401C2062761CAAF101005FEA000A0AD1D5
:1011E00000F0FAFBC0680168405CD4E90121904737
:1011F000206A401C2062281EA5F10105DCDC07E006
:10120000D4E9012118F8010B9047206A401C2062A4
:10121000381EA7F10107F3DC2046FFF76DF9032024
:1012200011B041E601694A1C02610878704700B5B7
:101230008FB0CDE901310021059105497944CDE90F
:10124000031011466846FFF7BFFA0FB000BD00005B
:10125000E5FFFFFF0A6802F8010B0A607047D1E959
:1012600000239A4202D2531C0B601070704710B5D5
:10127000436913B1AFF3008001E0FFF760F901208B
:1012800010BD127800F124010A7000224A70012278
:10129000EDE711684FF0FF32E9E70000074B70B54A
:1012A0000D467B44FFF7C3FF0446284600F03AFE94
:1012B00010B14FF0FF3070BD204670BD07D4000064
:1012C00010B5436913B1AFF3008001E0FFF79CF95B
:1012D000012010BD128800F1240182840022C28402
:1012E0000122EDE711684FF0FF32E9E72DE9F04107
:1012F0008046D21D22F007020025D2E90002F5291E
:1013000015A614D0011E72F1000106DA0023D0EBFD
:10131000030063EB020211A608E0D8F800108B0767
:1013200001D50FA602E0490701D50EA601251146F9
:10133000002408F1240704E000F07FFB30323A5526
:10134000641C50EA0102F7D12B4632462146404642
:10135000BDE8F041FFF7EBBC000000002D000000ED
:101360002B000000200000002DE9FF4F06468BB047
:101370000878FF2806D0491C2D2805D000244FF0FE
:10138000000908E000200CE00124F8E709EB8903DC
:10139000491C00EB43090878FF28F7D114B1C9F1C3
:1013A00000008146107800252C46AA4629462D28A3
:1013B00001D02B2804D1521C2D2813D000208246A6
:1013C0008B461078FF280FD04FF0000C0A21521CDA
:1013D000A5FB017804FB018105FB0C11C5194BEB42
:1013E0000104EEE70120EAE7002108464FF0000083
:1013F000BAF1000F02D000EB80004008C0F3815723
:10140000012F01DD4FF0FF370E9955EA040009EB7B
:1014100001080BD04FF0020918F5FA7F16DA4FEAEF
:10142000CA70002F706008DD012007E04FEACA7023
:10143000C6E900B00FB0BDE8F08F00203060FFF7C4
:1014400025FCC0F800901821084616E0B8F5FA7F90
:1014500018DD002F02DAF748784401E0F6487844B6
:10146000D0E90010C6E9001040EACA707060FFF7CA
:101470000DFCC0F80090142108460FB0BDE8F04FF5
:1014800017F040BF002108464FF00000B8F10001FE
:10149000099002DAC7F1000200E03A4601DAC8F129
:1014A000000106A800F0CCFC06AB93E8070003ABF4
:1014B00083E8070044F23E005BEA040100905846CE
:1014C00004D144F21E012C465D460091210C090412
:1014D000014306D10099240444EA15442D0410392F
:1014E000009104F07F41014306D10099240244EAAF
:1014F00015642D020839009104F07041014306D1B2
:101500000099240144EA15742D01091F009104F08B
:101510004041014306D10099A40044EA9574AD000E
:10152000891E009104F00041084304D100986D1910
:101530006441401E00904FF001033A466846B8F1FE
:10154000000FCDE9014503A902DD17F0F6F901E02E
:1015500017F0C9F9BAF1000F04460D4601D084F026
:101560000044002108464FF00000099940F2FF773F
:10157000484010F00C0F07D124F00040284303D05E
:10158000C4F30A50B84212D1FFF780FBC0F80090B4
:10159000C4F30A50B8420AD1A8487844D0E90010F0
:1015A000C6E9001004F000410843706042E7C6E954
:1015B00000543FE72DE9FF4F1F464FF0000A4FF060
:1015C000FF38454691B0D7E90146CDF83CA000F080
:1015D00003FAC0680168405C1090B96912986D1CEC
:1015E0008847396A814688470028F6D1B9F1FF3F1C
:1015F0000AD0002E24F4D06411DDB9F12B0F08D0ED
:10160000B9F12D0F0BD102E0404615B013E744F4B9
:101610008064B96912986D1C8847761E8146600502
:1016200004A901D52D2000E02B20002E01F1010B93
:101630000DF130088DF810003FDDB9F1690F08D0C9
:10164000B9F1490F05D0B9F16E0F02D0B9F14E0FC3
:101650001CD13B4601A8009580E85002DDE912123A
:101660006FF0020017F0B9FEC11CCED10EE0B969CF
:1016700012986D1C884781461398761E44F40074B6
:1016800005600F98401C002E0F9016DDB9F1300F49
:10169000EDD0B9F1780F02D0B9F1580F0DD10F98F4
:1016A00001280AD13B46CDE90054DDE91212001FA2
:1016B000029617F090FEC11CA7D1109989453ED122
:1016C00044F0800406E01399681CAAF1010A44F46E
:1016D00000740860B9696D1C1298761E884730281E
:1016E0008146F0D02BE01099894505D1200603D41E
:1016F000761E44F0800418E0484617F084FB08B3D7
:10170000761E0DF123029345A9F1300044F40074D4
:1017100006D20BF8010B200607D5AAF1010003E061
:10172000200602D40AF101008246A00502D51399D1
:10173000681C0860B96912986D1C88478146002EA4
:10174000D1DC53E0002E51DDB9F1650F02D0B9F1C3
:10175000450F4BD1A00549D5B9696D1C1298761E6D
:1017600024F440748847002E81460CDD2B2804D0D9
:10177000B9F12D0F07D144F48074B96912986D1C2A
:101780008847761E8146E00501D52D2100E02B21FA
:1017900008F8011BCDF8008021E0761E0DF139011B
:1017A000884544F400740CD2A9F1300010F0FF0019
:1017B00088F8000002D10099884509D908F101088C
:1017C00006E0E00501D51E4801E042F20F708246B6
:1017D000B96912986D1C8847814613980560002EE0
:1017E00004DD484617F00FFB0028D6D1F96912989E
:1017F0008847FF2053468BF8000088F8000000203F
:101800000A900B9004AA0CA90AA8FFF7ADFDA00549
:1018100002D46FF00100F8E614F0240F12D0E007B4
:101820001CD13868DDE90A12031D3B600068C0E97D
:10183000001213E0C0C60100B2C6010076C5010067
:10184000F1D8FFFF0AA9684617F0CAFAE00705D1E8
:101850003868009A011D3960006802602846D4E6A5
:101860002DE9F04116460C460546FFF703FA0368DA
:1018700093F80101012807D0FF2C12D8185D80B120
:1018800001202C70BDE8F081D3F8070132462146D3
:1018900003F20713C7182846BC46BDE8F0410023F1
:1018A00060474FF0FF30EDE710B5002000F03EFB41
:1018B000FEF728FDBDE81040012005F058BE10B528
:1018C000044602E0641C00F07BF820780028F9D17F
:1018D00010BD00002DE9F04115460E46040002D16E
:1018E0002C6804B90BA42046FFF7BAF8044420780A
:1018F00070B1274631463846FFF790F80444207807
:1019000010B1002004F8010B38462C60BDE8F081CE
:101910000027F9E70000000010B5203AC0F00B8066
:10192000B1E81850A0E81850B1E81850A0E81850D5
:10193000203ABFF4F5AF5FEA027C24BFB1E818504B
:10194000A0E8185044BF18C918C0BDE810405FEAAD
:10195000827C24BF51F8043B40F8043B08BF704729
:10196000D20728BF31F8023B48BF11F8012B28BF2E
:1019700020F8023B48BF00F8012B70474FF00002EF
:101980000429C0F0128010F0030C00F0DF82CCF1CB
:10199000040CBCF1020F18BF00F8012BA8BF20F8FF
:1019A000022BA1EB0C0100F0D1BA5FEAC17C24BF8D
:1019B00000F8012B00F8012B48BF00F8012B7047FD
:1019C00008B569468DF800000320ABBE08BD0000D5
:1019D00000487047700100200048704790010020C7
:1019E000034640688C46002818BF88423CBF034627
:1019F0004068F8D318681844884207D00CF10300F7
:101A000020F00700001D411A521A0146081D0A6005
:101A1000FEF7D9BCB2F120030AD5C2F1200301FAC6
:101A200002F120FA03F341EA030100FA02F07047E1
:101A300000FA03F14FF00000704730B5B0F10A0230
:101A400071F100034FEA900E4EEA817EB0EB0E007A
:101A500061EB91014FEA101E4EEA017E10EB0E0081
:101A600041EB11114FEA102E4EEA016E10EB0E0001
:101A700041EB11214FEA104E4EEA014E10EB0E00E1
:101A800041EB1141401841F100014FEAD00040EA1A
:101A900041704FEAD1014FEA810444EA907410EB9F
:101AA000800544EB01046D1944EB0404521BA3416F
:101AB0004FF0000348BF0A3200D530BD401C41F151
:101AC000000130BD2DE9F04F04460D46D21D22F035
:101AD000070089B0D0E900974846394617F064F806
:101AE0000246F80F01D02D2307E02068810701D5B9
:101AF0002B2302E0202101EAC0038DF820300BB136
:101B0000012000E00020032A824601D0072A04DBDE
:101B10002946204600F054F93FE12078800601D4A0
:101B20000D2500E0E569C7F30A560D2D49DA0021BD
:101B30004FEA175B08464FF00000002F00F440000A
:101B400007DA00EB80004FF4400100EBD07001EAAF
:101B500060008115012901DD4FF0FF3100224FEABD
:101B6000850CBCF1180F06D31346ACF118004FF0EA
:101B70008052C24003E04FF4801323FA0CF30CF1BF
:101B80000C0CBCF1200F04D3ACF1200C09FA0CF0C2
:101B900001E007FA0CF000294FF0004801DD18B908
:101BA0000FE00ED140450CD319EB02095F4121B97A
:101BB000404502D19F4329EA0209BBEB175F00D0E1
:101BC000761C2088000502D57B48784402E07A48DC
:101BD0007844193808AA302302F80A30037C0AF145
:101BE0000101002E0AF1020A53546A4602DC4FF04A
:101BF000300101E04FF031014FF001088DF8001085
:101C000002D0A6F2FF3603E059EA470100D06B4E3E
:101C1000002D02DC2178090704D54FF002082E219F
:101C20008DF80110C44600210BE0C7F303433F01C8
:101C3000C35C491C6D1E02F80830052908F1010833
:101C400001DA002DF1DC00210CE000EB1973491CD6
:101C50001B786D1E082902F808304FEA091908F1AF
:101C6000010801DA002DF0DC21688B0602D516E0B0
:101C7000A8F10108E04505DD02EB080313F8013C7B
:101C8000302BF5D0B8F1000F09DD02EB080313F893
:101C9000013C2E2B03D1090701D4A8F10108002D26
:101CA00005DD3E2102F808106D1E08F10108407C98
:101CB000002E02F8080008F1010804DA2D2076420F
:101CC00002F8080002E02B2002F808000A214FF475
:101CD0007A70864208F101080BDB96FBF0F3303393
:101CE00002F8083096FBF0F308F1010800FB1366D8
:101CF00001E0642E0CDB642096FBF0F3303302F835
:101D0000083096FBF0F308F1010800FB136601E0D0
:101D10000A2E06DB96FBF1F0303002F8080008F1DD
:101D2000010896FBF1F001FB1060303002F808006A
:101D3000A16908F1010808EB050202EB0A00081A84
:101D4000A0612078C00602D42046FEF7BFFB216ABE
:101D500008AE01EB0A00206204E0D4E9012116F884
:101D6000010B9047BAF1010AF7D22078C00602D5DC
:101D70002046FEF7ABFB6E4609E016F8010B3E2845
:101D80000FD0D4E901219047206A401C2062B8F1AD
:101D90000108F2D22046FEF7AFFB09B00320BDE8F0
:101DA000F08F206A2844206203E0D4E9012130202A
:101DB00090476D1EEBD3F8E79678010002FCFFFF19
:101DC0002DE9F0411F46044603260168072A01F465
:101DD000006004DB08B116A505E016A503E008B114
:101DE00015A500E015A521F010002060A069C01E17
:101DF000A0610FB1401EA0612046FEF767FB4FB106
:101E0000D4E9012138469047206A401C2062C01C5A
:101E1000206206E0206AFAE7D4E9012115F8010BF7
:101E20009047761EF8D22046FEF766FBBDE8F081AB
:101E30004E414E006E616E00494E4600696E66006E
:101E40002DE9F047814616468AB0354878440DC8DA
:101E50008DE80D0032487844801C03AC0DC884E83E
:101E60000D0041F69B300844372190FBF1F290FBC6
:101E7000F1F5A5F1800501FB12041B3C02D564427B
:101E8000012000E00020DFF898A080460027FA44F7
:101E9000AAF1BE0A0EE0E0070AD03246684607EB18
:101EA000470101230AEB810116F032FD8DE807009E
:101EB00064107F1C002CEED1194F7F44AE3F19E017
:101EC000E80715D007EB04100DF1180A90E80E0092
:101ED0008AE80E00C068F04201D198190890324695
:101EE000012306A903A816F013FD03AB83E807003E
:101EF0006D10641C002DE3D14FF00103324669469A
:101F0000B8F1000F03A802D016F0D8FC01E016F0DB
:101F1000FFFCC9E90001C9F808200AB0BDE8F08754
:101F2000A4760100007B00F08000704710B500F03F
:101F3000A9FABDE8104000F0A0BA10B500F0BAFA56
:101F4000BDE8104000F099BA4FF0000200B513460A
:101F500094469646203922BFA0E80C50A0E80C50C9
:101F6000B1F12001BFF4F7AF090728BFA0E80C507A
:101F700048BF0CC05DF804EB890028BF40F8042B73
:101F800008BF704748BF20F8022B11F0804F18BFE0
:101F900000F8012B704770477546FFF719FDAE46F4
:101FA00005006946534620F00700854618B020B565
:101FB000FEF7C8F9BDE820404FF000064FF00007DB
:101FC0004FF000084FF0000BAC46ACE8C009ACE89D
:101FD000C009ACE8C009ACE8C00921F007018D4692
:101FE000704710B5FEF752FE006810BD10B50446EC
:101FF000FEF74CFE046010BD3A2800D2303820F0C5
:102000002002412A01D3A2F13700884201D34FF0C8
:10201000FF3070472DE9FF4F1F464FF03C0987B056
:102020004FF00042DDE9141001F10108DDF858A07D
:1020300002EA40500390002005908346054604467E
:102040000490B969461E08988847AAF1010A0290CF
:10205000BAF1000F3BDD02982E2815D01021FFF7B2
:10206000CBFF00282EDB4FF0010B0599014317D061
:10207000B9F1000F0BDB4A46C117FFF7CBFC054354
:102080000C43A9F1040905E0012004900BE008B11C
:1020900045F0010501200590049820B9361D02E0A5
:1020A000049800B1361FB969089808F101088847FB
:1020B000BBF1000FAAF1010A0290C9D00999C1F839
:1020C0000080C5E70298702808D0502806D0F9692A
:1020D00008988847BBF1000F14D04FE00020029011
:1020E0000120BBF1000F049009D0B969089808F1EC
:1020F00001088847AAF10109B9F1000F07DCF96965
:10210000089888476FF001000BB0BDE8F08F2B28CE
:1021100004D02D280CD14FF0FF300490B9690898F5
:1021200008F101088847A9F10109B9F1000FE6DDBE
:10213000411CE4D00A21FFF75FFF0028DFDB029992
:1021400008F1010801EB810100EB41000290B9693F
:10215000089888470A21FFF74FFF099AA9F101095A
:10216000B9F1000FC2F8008001DD0028E7DAF96953
:10217000089888470499029800FB016655EA040014
:1021800004D004F04041090002D006E0039898E032
:10219000A40044EA9574AD00B61E04F000410800A6
:1021A00002D16D196441761E159810F0240F03D0EA
:1021B0004FF00B095C4803E04FF028096FF07D00F9
:1021C0008246564507DAAAEB06018944B9F1410F68
:1021D00001DD4FF0410901200021A9F10102FFF7C3
:1021E00019FC024628400B462140084301D001213A
:1021F00000E00021501E029143F1FF3128402140B0
:10220000084301D0012000E000200299834651EAF2
:102210000B014FD0002108464FF00000039900F455
:10222000400039B100EB80004FF4400100EBD0706A
:1022300001EA60008015012802DD4FF0FF3000E068
:1022400013D0401C36D0029860B3BBF1000F0CD104
:102250004A4601200021FFF7DDFB284021400843CA
:1022600001D0012000E00020E0B101204A46002119
:10227000FFF7D0FB034640190A4661412D1A8C41F5
:1022800011D3B9F1400F09DD159810F0240F02D0D9
:10229000AAF1340603E0AAF1170600E0761C002537
:1022A0004FF0004406E05B1E42F1FF3220EA0305D6
:1022B00021EA0204CAF10100B04206DA1B49039880
:1022C00008430190002000900EE0039AC4F3D3214C
:1022D000E80A0A43164940EA44500A433146CDE928
:1022E0000002684616F085FD159810F0240F0BD0FB
:1022F0001598C00715D13868DDE90012031D3B6051
:102300000068C0E900120CE002A8694616F068FDFA
:102310001598C00705D13868029A011D3960006818
:1023200002604046F0E6000002FCFFFF0000F07F84
:102330000000F03F2DE9FF4F92461D4685B04FF05B
:102340000041DDE9124BDDE914727F1E01EA4B50BA
:10235000414940F0FF4940EA0108002122F02000F5
:102360004928049102D04E2828D04CE03BA00126F9
:1023700007C88DE80700A9690698641C88477F1E76
:10238000014606D41DF8060018B121F02001814253
:102390000BD0E96906988847032E34D0082E32D036
:1023A0006FF0010009B0BDE8F08F761C032E01D05C
:1023B000082EE0D1601CCAF80000DCE7A969069885
:1023C000641C88477F1E2AD420F02000412826D193
:1023D000A9690698641C88477F1E20D420F020003D
:1023E0004E281CD1A9690698641C88477F1E48F4B2
:1023F000002849F48009CAF8004001D4282806D0F2
:10240000E969069888475FEACB7012D022E0A96993
:102410000698641C88477F1E01D4002803DAE96906
:1024200006988847BCE72928F1D1641CCAF8004007
:10243000E9E71BF0240F07D028680499031D2B60DF
:102440000068C0E9001805E02868021D2A600068DD
:10245000C0F800902046A5E70000F07F494E4649AD
:102460004E4954590000000010B50446AFF30080F7
:102470002046BDE81040FDF750BF002801D005F010
:1024800076B8704710B5002102A000F03BF801209B
:1024900010BD0000534947414252543A2041626EF8
:1024A0006F726D616C207465726D696E6174696FB5
:1024B0006E00000010B5012805D0002103A000F037
:1024C00021F8012010BD09A1F8E700005349475247
:1024D000544D454D3A204F7574206F6620686561F4
:1024E00070206D656D6F7279000000003A204865BC
:1024F0006170206D656D6F727920636F7272757097
:102500007465640070B505460C460A2000E06D1C39
:10251000FFF756FA35B128780028F8D102E0641C9C
:10252000FFF74EFA14B120780028F8D1BDE87040CA
:102530000A20FFF745BA53EA020C00F069802DE942
:10254000F04B4FF00006002B1FBFB3FA83F503FAE0
:1025500005F424FA05F65E4012BF1643B2FA82F57E
:1025600002FA05F4C5F120051EBF22FA05FC44EA73
:102570000C04203556EA044C4FEA144418BF641C7E
:102580004FF000084FF00009904271EB030C39D373
:10259000002919BFB1FA81F701FA07F6B0FA80F7FE
:1025A00000FA07F6C7F120071EBF20FA07FC46EA2B
:1025B0000C062037B6FBF4FCA7EB0507103F07F02D
:1025C0001F0BCBF120062CFA06F60CFA0BFB44BFCE
:1025D000B3460026202FA4BF5E464FF0000B5BEAF7
:1025E000060C08BF4FF0010B19EB0B0948EB06086E
:1025F000ABFB027C06FB02CC0BFB03CCC01B71EBDC
:102600000C01C1E70B46024641464846BDE8F08B47
:1026100013B5084318BF4FF0FF300146AFF30080F9
:10262000BDE81C407047032A40F2308010F0030CD4
:1026300000F0158011F8013BBCF1020F624498BF15
:1026400011F801CB00F8013B38BF11F8013BA2F1B2
:10265000040298BF00F801CB38BF00F8013B11F02D
:1026600003033FF459A9083AC0F0088051F8043B2D
:10267000083A51F804CBA0E80810F5E7121D5CBF3A
:1026800051F8043B40F8043BAFF30080D20724BF6D
:1026900011F8013B11F801CB48BF11F8012B24BF01
:1026A00000F8013B00F801CB48BF00F8012B704750
:1026B00002F0FF0343EA032242EA0242FFF760B955
:1026C000B0B502EB00100022042A08BFB0BD002301
:1026D000042B05D0C45CCD5C6C40CC540133F7E7CF
:1026E000043104300132EFE7B0B5AD4901F14405E2
:1026F0003CCD80E83C004A6D02618A6D4261CA6D42
:10270000096E8261C161B0BD80B5A54801F08CFA47
:10271000043818BF012080BD81B001208DF803006E
:1027200005480068000744BF00208DF803009DF8AD
:10273000030001B0704700BF100C02402DE9F043C8
:102740008BB0B8B1DFF858921546024699F83400BC
:10275000012814D10C460021C9F838102819D9F8DD
:102760005C3098420FD9D9F8380040F00070C9F8B1
:10277000380004E08A48816B41F0006181630120E8
:102780000BB0BDE8F083032040F22A3689F834000C
:10279000D9F80030D9F84000D962DF6B3E436F02B0
:1027A000DE63804E8160C0E91361324E0168C6630A
:1027B0000E6826F0C0060E6003F18001BB0800F031
:1027C0002BFB88B1D9F80000C16B21F49571C1636E
:1027D00076498163D9F8380040F08040C9F8380064
:1027E000012089F83400CBE7714801214FF000083F
:1027F0000160022005916946CDF810800390902079
:10280000D9F84460CDE901704FF0FF300090D9F85D
:10281000000003F017FA012E18BF6402022D0AD33C
:10282000822002F0ADFF1220079006A902F043FFBC
:102830002846122109E0812002F0A2FF1120079012
:1028400006A902F038FF2846112102F076FF014662
:102850000020002994D0D9F80020544B9363D9F874
:1028600038201143C9F83810012189F83410C9F80B
:10287000300084E719610008F0B587B088B1484F8F
:10288000044697F83400012810D1002015460A4468
:10289000B863FB6D9A420DD9B86B40F00070B86315
:1028A00004E03F48816B41F00061816301263046BE
:1028B00007B0F0BD03223B4B87F834203E68FA6B2B
:1028C000D7F844C0F062C2E913303748D06340F211
:1028D0001A22F06B1043BCF1010FF06318BF4902DC
:1028E000022D0FD3A02038634FF48060019102F0D5
:1028F00066FF1920029001A9304603F099FA30468C
:1029000019210EE0902038634FF48060019102F0AD
:1029100056FF1820029001A9304603F089FA30468C
:10292000182102F00AFF30B13968204A01268A6373
:10293000B96B08431EE01E48012640226D02066066
:10294000F86B396882600268136866F38713136056
:1029500001F18002AB08214600F05EFA80B13868D0
:1029600040F21A22C16B9143C16310498163B86B75
:1029700040F08040B863002087F83460386396E701
:10298000902006960026CDE902504FF0FF30CDE9A9
:1029900004660190386801A903F054F987E700BF85
:1029A000148A0020C56000085D610008FF05400032
:1029B0008C852542FEE70000014800F0FBB800BF0F
:1029C00070840020014800F0F5B800BFB0830020FB
:1029D000014800F0EFB800BF10840020014800F06B
:1029E000E9B800BFD0840020026840F2FF3122EA3B
:1029F000010102F0F802103A5F2A88BF04318165B4
:102A00001823B2FBF3F202A39A5CC2650846704732
:102A10000006101600061016704772B6FEE700009A
:102A2000B0B526480021FA4A4CF25034C16124491D
:102A3000D36A0D68ED0306D5D56AED1AA54284BFA9
:102A40000320B0BDF5E70A68D2071CBF01220A6067
:102A50000A6812F0F20F04BF0020B0BD0A68D20667
:102A600005D5C26942F01002C26110220A600A68EC
:102A7000920605D5C26942F00802C26120220A60AE
:102A80000A68520605D5C26942F00402C2614022BA
:102A90000A600A68120605D5C26942F00202C261E4
:102AA00080220A600A68920705D5C26942F02002B6
:102AB000C261022008600120B0BD00BF50010020AB
:102AC0000C3C024070B5F94AD36A816D90F83540EC
:102AD000022C21D10468056C266826F016062660B3
:102AE000666926F0800666610DB9856C1DB12568A2
:102AF00025F008052560256825F001052560256875
:102B0000ED070DD0D56AED1A062DF8D320214165C9
:102B1000032180F835100CE080214165012108E097
:102B2000C26D3F2303FA02F28A60012180F835105A
:102B30000021002280F83420084670BD90F835103E
:102B4000022908D1052180F835100068016821F0BC
:102B5000010102F0B8BD802141650120704738B302
:102B600070B5044690F8350002281FD02068002672
:102B7000016821F001010160212106604660866044
:102B8000C660066141612046FFF72EFF054604F14D
:102B90003C001821FFF7D8F9E06D3F2101FA00F061
:102BA000A860666584F8346084F83560BDE87040DC
:102BB00070470000F8B504460020554A08210090EF
:102BC000D4E9166055683768814039420CD02268D4
:102BD00013685B0708D5136823F004031360B16022
:102BE000616D41F00101616501218140394208D0E8
:102BF00022685269120604D5B160616D41F002018C
:102C0000616504218140394208D022681268920728
:102C100004D5B160616D41F004016165102101FAD4
:102C200000F23A4218D021680B681B0714D5B26035
:102C30000B680A685B0306D4D20506D40A6822F042
:102C400008020A6001E0110301D4216C00E0A16CCC
:102C500011B120468847E06D202101FA00F23A4286
:102C600034D021680B68DB0630D5B26094F835307B
:102C70000A68052B16D122F016020A604A6922F072
:102C800080024A61226C0AB9A26C1AB10A6822F069
:102C900008020A603F2101FA00F0B06002F0B7FDBF
:102CA000216D2FE00868520308D4C0050AD40868D3
:102CB00020F01000086002F0AAFD03E0000301D438
:102CC000616C00E0E16B09B120468847606DF0B1AE
:102CD000606DC00715D005214FF4165084F83510EB
:102CE000B5FBF0F021680A6822F001020A60009A40
:102CF00001328242009202D80A68D207F7D102F06C
:102D000086FDE16C19B12046BDE8F8400847F8BDE2
:102D1000040000202DE9F04104466448C26AACB1C9
:102D2000022184F83510002184F8341021680B68E2
:102D300023F001030B600B68DB070AD0C36A9B1A00
:102D4000052BF8D90325202603205BE00120BDE8F0
:102D5000F081086804F1040C2E4A9CE8E81100EAAE
:102D6000020ED4E9072043EA0E032B4333433B43CF
:102D700043EA08031A43636A104340EA0C02042B37
:102D800003D1D4E90B05284302430A60042B4869A8
:102D900020F0070040EA030228D1D4E90A733A433D
:102DA00023B3BCF5005F08D0BCF1000F14D1022F93
:102DB00015D0012F0AD0002F10E0032F16D80125BF
:102DC00040260120DFE807F01E0B1E02A3F1C070B1
:102DD000B0FA80F0400904E0032F03D306D1C3F317
:102DE000006018B10125402601200BE020464A6111
:102DF000FFF7FAFDE16D3F220026012502FA01F1FD
:102E000081600020666584F83550BDE8F08100BF20
:102E1000D00100203F8010F0F0B590F83440012C34
:102E200036D00124856D80F8344090F83540012C6F
:102E30002BD1022480F8354000244465046886685C
:102E4000D0F840C0C06D2768402E27F48027276047
:102E500063600B4608BF1346A36008BF0A463F21C4
:102E6000E26001FA00F0BCF1000FA860206840F0B9
:102E70001600206003D0206840F008002060206821
:102E800040F0010020600020F0BD002180F83410E7
:102E90000220F0BD0549013028BF4FF0FF30CA6A5B
:102EA000CB6A9B1A8342FBD3704700BFD00100203E
:102EB0002DE9F843DFF89081044698F818000128BE
:102EC00004BF0220BDE8F8830120894688F8180075
:102ED000FFF7A6FD00286FD14FF0FF30394FC9F83A
:102EE00000002068012813D1386920F4407038614F
:102EF000386940F00400386120693969000280B205
:102F0000084302F0E7FB396921F0040139612DE043
:102F1000A068C10005468E1CE1680844854221D2A4
:102F2000386920F4407038612069C1B20002032979
:102F30004FF4407138BF81B238690843386138694D
:102F400020F078003861386930433861386902F020
:102F5000C1FB396921F07A01396128B9A0680836C6
:102F60000135D9E7002001E0C9F80050396889052A
:102F70000FD5396821F400713960396841F4006176
:102F80003960396821F400613960396841F40071B1
:102F90003960396849050FD5396821F48061396095
:102FA000396841F480513960396821F480513960C1
:102FB000396841F480613960002188F81810BDE853
:102FC000F88300BF003C02400F2101600A494A8893
:102FD00082604A78CC2A01D1CC2203E04A78AA2A1E
:102FE00018BF552202610A6802F0E00202760978F1
:102FF00001F00C0141617047143C0240F8B5124EDB
:103000000546307E012804BF0220F8BD0120144689
:103010003076FFF705FD98B90C4F386820F4407002
:103020003860386840F400703860386840F001005B
:1030300038602C60FFF7F4FC396821F00101396039
:1030400000213176F8BD00BF50010020103C024045
:103050002DE9F04F954980462E484FF0000B4FF078
:10306000010C4FF00F094FF0030E00230025A1F5CE
:103070007E7A102D08BFBDE8F08F0CFA05F616EA2F
:10308000080242D025F0030103F00C075AF80110A2
:1030900009FA07F739421CD1844C4FEA950ED4F84F
:1030A00000C02CEA0201216061689143616080499F
:1030B0008C4609689143CCF800104FF0010CA168D0
:1030C0009143A1605AF82E10B9434AF82E104FF0E0
:1030D000030E02680EFA0BF16FF0030404EA5507C1
:1030E0008A430744026003F01C023C6A09FA02F2B8
:1030F00024EA02023A62C2688A43C2604268B2436A
:103100004260826822EA010181600BF1020B043304
:103110000135AEE7000002402DE9FE4F614A082468
:103120004FF0010A4FF0000B4FF0000890425E4A4A
:1031300008BF07248305024443EA9222072A38BFC6
:10314000144600940022B8F1100F08BFBDE8FE8FAE
:103150000F680AFA08F917EA090700F09D80D1F80C
:1031600004C00323019203FA0BF60CF0030EF243A2
:10317000AEF10106012E13D88668D1F80CA00AFA28
:103180000BF416404FF0010A34438460CCF3001472
:10319000466804FA08F426EA09063443446005E068
:1031A000BEF1030F02D14FF0030E21E0C4688E6818
:1031B000144006FA0BF63443BEF1020FC46017D177
:1031C000019B03F01C040F2303FA04FC6FF00303BC
:1031D00003EA580505442E6A26EA0C0C0E6906FA25
:1031E00004F444EA0C042C62D1F804C00CF0030E81
:1031F00005680EFA0BF415402C4304601CF4403FA4
:10320000019A49D0002328F003060293294B1C6839
:1032100044F480441C601C680F2304F4804402942E
:1032200002F00C0403FA04F5204B9C461E44029B5A
:10323000214B9E46F358AB43009D05FA04F423430B
:1032400046F80E30DCF808304D6843EA0704EE0219
:1032500058BF23EA0704164BCCF80840AE029E463E
:103260001B6843EA070458BF23EA0704CEF800406E
:10327000AE03DCF8043043EA070458BF23EA07042E
:10328000CCF80440ED03DCF8003043EA070458BFF3
:1032900023EA0704CCF8004004320BF1020B08F1DA
:1032A000010850E7001C02400000FEBF003C014046
:1032B0000C3C01404438024008FCFFFF10B50F49A8
:1032C0004FF47A724968B1FBF2F14A1E0021B1EB6A
:1032D000126F11D10A4BF0245A600A4A1470996097
:1032E00007210F28196007D84FF0FF300F2100F099
:1032F0000DF805480121017210BD00BF0400002037
:1033000010E000E023ED00E0D001002010B5104AED
:1033100000F00F030F4C043B02442344002848BF35
:1033200003F10C0220684FF0FF34C0F30220C31EEB
:1033300080F0070038BF0023042828BF042004FAC7
:1033400000F021EA000098400001107010BD00BF9D
:1033500000E400E00CED00E010B501464148D0F873
:10336000E04471B194F89C02032825D1D4F8B80246
:1033700082690AB30020C4F8D4022046BDE8104098
:103380001047D4F89402032816D1B4F86021D4F879
:103390005801904211D9D4F86411831AD4F8C802A4
:1033A000C4F8583193421144C4F8641188BF1A46D6
:1033B000BDE8104003F05EBE10BD94F89C020328E7
:1033C00008D1D4F8B802016921B10020C4F8D402B0
:1033D000204688472046BDE8104003F0F3BD00BFFB
:1033E00081B0204A00231168009300F00F0340B21F
:1033F00003EBC303002802EB830202F5157348BFF9
:1034000002F1140318785A784001012A14D101F509
:1034100010610A58B2F1FF3F21DC734602F027F930
:103420009E46009B01330093009B934217D80B5894
:10343000B3F1FF3FF5DD12E001F530610A58B2F15A
:10344000FF3F0CDC734602F012F99E46009B0133ED
:103450000093009B934202D80B58002BF6D401B086
:10346000704700BF308500202DE9F84FDFF87C352C
:10347000012493F89C24D3F8E0A48AF8AA2202F04D
:103480001F070AF2AA2893F89DB4022F8AF8ABB25C
:1034900093F89E9493F89F5449EA052EAAF8ACE25B
:1034A00093F9A0C493F8A1645FFA8CF141EA062075
:1034B000AAF8AE02B3F8A234AAF8B032CAF8983229
:1034C000CAF8944202F060040FD0012F21D097BBBC
:1034D000CCB3402C01D0202C28D1DAF8D4020AEB4E
:1034E0008000D0F8B80282680EE0002C47D0402C53
:1034F00001D0202C1AD10020CAF8D402DAF8B80280
:103500008268002A00F0588250464146BDE8F84FD4
:1035100010471CB1402C01D0202C07D19AF89C02F6
:103520000138022898BFBCF1010F44D95046BDE8CC
:10353000F84F03F02FBDDAF8C80202F08001BDE8B1
:10354000F84F03F0ABBDBBF1090FEFD8DFE80BF08C
:103550000671057D0589BC05D2DFE7E79AF89C0274
:1035600001380228E2D8022BE0D1DAF8A4020322C3
:103570005146002808BF012241F80C2FADE1BBF1F4
:10358000000F2DD0BBF1010F40D0BBF1030FCDD107
:103590009AF89C0203283ED1BEF1000F40F01D8135
:1035A000480600F01A81002B40F01781DAF8C802B3
:1035B00003F074FD11E1DAF8B8028268002A00F025
:1035C000FB8100204146CAF8D40250469047BAF821
:1035D000B012002940F0F081002800F0FE80EBE1FD
:1035E0009AF89C02032800F0B58002287FF49EAF71
:1035F00048067FF49BAF0AF5AA71BCF1000F48BFE3
:103600000AF11401002001F80E0F66E19AF89C02FD
:10361000032800F0C38002287FF488AF48063FF4F7
:1036200085AFDAF8C80203F039FDDAF8C802802164
:1036300085E79AF89C02013802283FF677AFBEF181
:10364000010F40F0B981002008E0BEF1020F00F048
:10365000C280BEF1010F7FF469AF0120CAF8A40255
:10366000BBE000287FF462AF002B7FF45FAFBEF1B8
:103670007F0F3FF65BAF9AF89C0203283FF456AFEA
:10368000DAF8C8028AF89E9290F89414012913D0AF
:1036900080F811900168D1F8002822F4FE62C1F888
:1036A0000028002280F8942409F07F00D1F8002837
:1036B00042EA0010C1F8000801F0C2FFB9F1000FA2
:1036C00040F0EA80012011E10020ADF80200681E00
:1036D000062800F26B81DFE810F007008D009600ED
:1036E00069016901A300AF00DAF8B4129AF810007A
:1036F0000A6847E1012B7FF419AF9AF89C02411E3A
:1037000002296FD20020514641F8080F6FE0B84CF3
:10371000B9F1020F84F80090BFF408AF9AF89C0248
:10372000032800F09780022840F0B880B9F1000F1C
:1037300053D0DAF8B802CAF80490002800F0D38019
:103740000268504649469047002800F0CC8001F0BE
:103750007DFFA1E001F00F00BCF1FF3F00EB800016
:103760000AEB8000D4BF90F8230090F86301002892
:103770003FF4DCAE01F07F00BCF1FF3F41F080017F
:1037800000EB80000AEB800202F11400C8BF02F5D2
:10379000AA70802940F08A8000219BE0BEF1000FD2
:1037A00040F00A81480600F01D81DAF8C8120CF0DA
:1037B0000F020879824200F2158102EBC200BCF1CF
:1037C000FF3F01EB800040F3A980002380F85532D1
:1037D00000F51570A5E08AF8A0625046BDE8F84FE4
:1037E00003F0F0BB03287FF4A1AE0AF104015046B8
:1037F000012274E09AF81010DAF8B802002900F0FB
:103800007980C16A77E0B9F1050F00F2CF80DFE877
:1038100009F003A3A7ABAFB3DAF8B4024268AEE095
:103820009AF81000002840F0C180DAF8B802416B25
:103830000DF102008847A8E09AF81000002840F037
:10384000B580DAF8B802016B0DF102008847014635
:10385000072055E0B9F1000F54D0DAF804004845CC
:10386000BBD0DAF8B8124A68C1B250469047DAF8CD
:10387000B80221780028CAF80410AED00268504679
:1038800090470028A9D001F0E1FEDAF8B8029AF8D2
:103890000410426850469047022027E001F0D6FE0F
:1038A000DAF8B8024946426850462FE60CF07F022B
:1038B000DAF8C812BCF1000F02EBC20201EB820180
:1038C00001F2562248BF01F11602117800293FF497
:1038D00063AF0121817300F10E0150460222BDE861
:1038E000F84F03F065BB01F0ABFE03208AF89C02A1
:1038F000BDE8F88F816A0DF1020088470146022079
:10390000487043E00220CAF8049000218AF89C0223
:10391000DAF8B8024268504690475EE701234375E3
:10392000143000230270837091F89434012B59D025
:103930000B68447852011A44012C3FD1D2F8003967
:1039400023F40013C2F80039007900F0FE000228C9
:1039500045D102F510603EE0DAF8B40282680EE06C
:10396000DAF8B402C2680AE0DAF8B402026906E0E2
:10397000DAF8B402426902E0DAF8B4028269AAB164
:103980009AF810000DF1020190470146BAF8B022F2
:1039900082B1BDF8020048B1904238BF024650469D
:1039A000ADF8022003F004FBBDE8F88F01F04EFEF5
:1039B000BDE8F88F01F044FEBDE8F88FD2F8003B77
:1039C00023F40013C2F8003B007900F0FE00022847
:1039D00005D102F53060026842F08052026000209A
:1039E00081F8940401F02CFE85E500BF30850020AD
:1039F0000406002000684068C0F30353C0F342325D
:103A00000A70C0F3034203EB830302EB4302C0F3EB
:103A10000113CA7000F00F0243EA830302EB430272
:103A20008A70020AC0F30320D20648BF0A304870E9
:103A300070470068826A4A6002696FF3DF328A6009
:103A40000068C0F30213C0F38052CA7000F00F0286
:103A500003EB830302EB4302C0F302338A70C0F32B
:103A6000032203EB830302EB43024A70C0F30342D9
:103A7000C0F3015040EA800002EB4000087070473C
:103A80002DE9F041027F04460220012A57D06077D9
:103A900001204D782077E80642BF05F0EF0000F1E5
:103AA0000A054D702068CA224262532242622046B3
:103AB00091F800808F78CE7801F0FAFF08B10120EC
:103AC00038E009200921092E88BF31460A22B1FBBE
:103AD000F2F1092D01EB8103A6EB430343EA011147
:103AE0004FF0090388BF2B46C9B2B3FBF2F303EBD7
:103AF0008306A5EB460545EA0313DBB21B02092F3B
:103B000088BF384643EA0141B0FBF2F0362210FB91
:103B1000027242EA001000F03F000844216840EAC7
:103B200048304860204601F0E5FF0146012009B910
:103B3000607700200021FF22217721684A62BDE8DA
:103B4000F08100002DE9F8430D46017F0446022074
:103B5000012965D0607701202077206881684906B7
:103B600059BF4FF0000885F80380E9784FEA815883
:103B7000CA2141625321416220462F786E7895F820
:103B8000029001F095FF08B1012044E009200921CD
:103B9000092F88BF39460A22B1FBF2F1092E01EB49
:103BA0008103A7EB430343EA01114FF0090388BFE8
:103BB0003346B3FBF2F303EB8307A6EB470646EA73
:103BC0000313DBB21B02B9F1090F88BF484643EA71
:103BD0000141B0FBF2F000EB8002A9EB420242EAA5
:103BE0000010C0B208440F4940EA080008402168AC
:103BF0000860886820F480208860D5E903021043BB
:103C00008A6810438860204601F074FF0146012055
:103C100009B9607700200021FF22217721684A62DC
:103C2000BDE8F8837F7F7F00B0B586B004460568A5
:103C3000006D4FF480610591002100040491402142
:103C400001900D200391029001A901F034FD284656
:103C50000D2101F072FD18B101F001FE002003E01A
:103C600020684069C0F3432006B0B0BDF8B50446F3
:103C700000680268C168466915074FEA826351D03F
:103C800001F4907706F00106BF194FD0D70705D091
:103C9000CF0503D5676C47F001076764570704D564
:103CA0001EB1676C47F002076764920704D51EB126
:103CB000626C42F004026264002D07D501F020021C
:103CC000921903D0626C42F008026264626C002AAE
:103CD00058D0002B05D5890603D5204603F05DF8A2
:103CE00020684069616C00F0400001F00801401854
:103CF00002BF00206064F8BD204603F027F820686A
:103D0000406940063ED501F09BFEFCD1E06BC8B394
:103D100054490165FEF712FFA0B3E06B016DBDE8E9
:103D2000F8400847002B01D58B062CD4236B012BC0
:103D300003D1D30601D5CB062AD4130601D50B0631
:103D40000BD452061ED549061CD5C16821F040018E
:103D5000C160202084F84100F8BD94F84110212969
:103D600010D1A168B1F5805F02D12169002970D01E
:103D7000216A4A1C226209784160E18C0139E184A0
:103D8000090454D0F8BD2046BDE8F84003F005B85A
:103D900000210091016800914168009100994069FB
:103DA00040061AD4E08DA18DE28D002AEAD081422E
:103DB000E8D001F019FC20F4907041E80302002AD9
:103DC000F7D101F00AFEFCD1202084F84200002047
:103DD000206301F0D2FDFCD138E0E06BA18D0268D8
:103DE000526893B263B38B422AD2E285C069B0F5C0
:103DF000807F18D001F0F8FB20F4807041E80302C6
:103E0000002AF7D101F0E9FDFCD101F019FEFCD147
:103E1000202084F842000020206301F0AEFDFCD198
:103E2000E06BFEF74FFE02206063E08DF8BDC168D5
:103E300021F08001C160C16841F04001C160F8BD5E
:103E400099429FD1C069B0F5807F9BD10220606309
:103E5000F8BD216A31F8022B6FF35F2221624260C4
:103E60008BE700BF456D00082DE9F04F87B00028B3
:103E70005BD0044690F841008E4E8F4F002800F032
:103E800083802420BC46374649F20C6584F8410003
:103E90002668D4E90201E269F36823F40053F36071
:103EA000336923F44053194331612169F3680843AE
:103EB0006169AB43084318430A231043F0607069FB
:103EC000A16920F44070084326F480617061A7F571
:103ED000704081427F4808BF0D2340685CF8281C71
:103EE000D9407DA301F00701595C6368C8401921DE
:103EF000A0FB0101B2F5004F19D15A00DB0FFEF70C
:103F00001AFB774B6421B0FBF1F203F1805302FB03
:103F10000300322303EBC000B0FBF1F04FF4F87163
:103F200001EA400100F0070014E001202AE09A00B5
:103F30009B0FFEF700FB6421694BB0FBF1F202FB23
:103F40000300322303EB0010B0FBF1F000F0F001AE
:103F500000F00F0001EB021108442021B06030692D
:103F600020F490403061706920F02A007061F068A0
:103F700040F40050F0600020606484F8411084F840
:103F80004210606301F0F9BB0025142184F8405011
:103F900002A8FDF7D9FF2068484988422DD048493A
:103FA00088427FF46EAF00200190396941F400210E
:103FB0003961396901F40021019101990190396851
:103FC00041F001013960396801F0010101910821D6
:103FD00006910321CDE904010220CDE902100198E8
:103FE00002A93046FFF798F834200121FFF78EF937
:103FF00037484FF48011016043E70195B246786974
:1040000040F010007861786900F01000019001988C
:104010000195386840F001003860386800F0010010
:104020000190072006900320CDE904500220039060
:104030004FF4C0600290019802A93046FFF76CF877
:10404000204E21484FF000694FF4806814218346C8
:10405000C6E9000906F11400C6E90255C6F8108049
:10406000FDF772FF3046FEF755FE00BBB463E66312
:10407000164E002040210BF17802C6E9021006F12D
:1040800014001421C6E90029C6F81080FDF75CFF72
:104090003046FEF73FFE50B925200021B463A663E9
:1040A000FFF734F90A48202156460160E9E6FEF799
:1040B000B4FC00BF00000240303802400010014054
:1040C000004C00407084002040640240D0840020F6
:1040D00004E100E0040000200000000001020304ED
:1040E0009CFFFF0F2DE9F041044690F84200202884
:1040F0001CBF0220BDE8F081A1B11D460020222393
:10410000606484F8423020631F48A285C66AE28555
:10411000A068B0F5805F01D1206930B14FF0000890
:104120000F4604E00120BDE8F08100278846E08DBD
:1041300008B32046202101F02DFCF0B95FB1A06842
:10414000B0F5805F0FD008B9206960B12068406881
:1041500000F07F0009E02068002740686FF35F20CF
:1041600028F8020B03E02068406807F8010BE08D97
:104170000138E085DBE7002000E00320202184F8FF
:104180004210BDE8F08100BFD0010020FEE7000032
:104190002DE9F04F8DB00A4601460E200B91019299
:1041A000FEF78EFADFF8CCB10D2002900B9E707BEB
:1041B000717AB2787479F378717371787070B07ABB
:1041C0007472B272B070B0797171B17BB073F07902
:1041D000B1713146F070F07AF071F07BF373F072E8
:1041E000002004280DD00022042A07D011F8223024
:1041F0001BF8033001F822300132F5E701310130BC
:10420000EFE702980B99019AC6B23046FEF758FACA
:10421000002E00F0AC800020042800F0A4800B9950
:104220001B270C9011F920200C46114607EAD210EA
:10423000089280EA4202480040B21346099207EA17
:10424000D01080EA4201500040B20A9107EAD01033
:1042500080EA41050C98059504EB800494F902204E
:1042600094F90180069494F9034082EA080056000C
:10427000604076B2584007EAD81307EAD61683EAB8
:10428000480E07EAD21380EA0E00484083EA420152
:1042900086EA41034FEA4806049176B258400793F4
:1042A00007EAD61680EA050C86EA4E094FEA4E0662
:1042B00076B207EAD61686EA49054E0076B28CEA4F
:1042C000050007EAD61686EA430180EA010607EAF6
:1042D000D4100B46039180EA4401600040B207EA23
:1042E000D01080EA410A480040B207EAD010DDE968
:1042F0000BC780EA4A0046400CF82760DDF820C072
:10430000059F82EA0C06664086EA0E06DDF810E09C
:1043100086EA0E0686EA09067E4086EA0A066E40AE
:104320005E40069B46405E7088EA0C067140099E1E
:104330004A4061407240039E81EA0E0182EA09020E
:104340007A4082EA0A026A4072404240DA700A9A6F
:104350005140079A514079406940714048409870F7
:104360000C98013058E70298013802901EE70DB012
:10437000BDE8F08FE0A201082DE9F0470022202AD5
:104380000BD08B5C8C1883548318043265785D7075
:10439000A5789D70E478DC70F1E7DFF88CE04FF0F1
:1043A000080800220FF2840CD02A08BFBDE8F0876D
:1043B000851808F007012B7F6C7FAF7F95F81FA051
:1043C000042912D0C9B91EF804104FEAD8041EF807
:1043D00003301CF8044084EA01091EF80A101EF894
:1043E00007409A464B460F4607E01EF80AA01EF803
:1043F00007701EF804401EF80330815CEE7804322A
:1044000008F101085940AB7885F8201069786140BF
:1044100085F8211083EA070185F8221086EA0A014F
:1044200085F82310C0E700BFE8A301088D0102044E
:1044300008102040801B36002DE9F04FC7B0DFF890
:10444000F04641F2346141F2346B201DFDF77CFDF2
:1044500041F231614FF00130FF226050DFF8D406A5
:10446000062184F80C110FF2D46114302060DFF8BB
:10447000C806C4F81001C4F8080141F230502044C5
:104480000190FCF787FB41F2280141F230690120DD
:1044900041F2326A0DF11A054FF00008214404F888
:1044A0000900009141F22C312144029141F2303156
:1044B00021440591002800F0388314F80A000028F0
:1044C00000F0F480204629468DF81A8012F04AF94F
:1044D00048B305469DF81A0028B3DFF8746641F228
:1044E0003360275C01F0E8F9DFF8681650222046B7
:1044F000002F08BF3222049212F073FA01F0DCF9A7
:104500002A20002F08BF1E20039094F8200180B1BC
:1045100004EB8000D0F80C01F0B1D0F80480B8F1C1
:10452000000F08D118E020460FF29C6112F08EFABD
:10453000BAE0DDF804804046FCF70DFB0499081A48
:10454000470820462FB1DFF8101612F032FA013F6B
:10455000F7E7414612F07AFADFF8F815049A204698
:1045600012F03FFADFF8F41501F0D6F94FF0000928
:104570004FF000089DF81A00814578D209EBC90078
:1045800005EB800B5F4617F80D0FC0076CD1DA46BC
:104590001AF80C0F022806D1049A20460FF2246163
:1045A00012F01FFA5EE0DBF80020002A5CD0204603
:1045B0000FF2F45112F026FADBF804804046FCF7C3
:1045C000CAFA064603988642A8BF0646B8F1000F0D
:1045D0000FD0012E0DDB206858B1016849B1D1F828
:1045E00008C0BCF1000F04D0B2B241464FF47A7358
:1045F000E04741F23360205CF8B10398A8462546B5
:10460000DFF85445861B2EB12846214612F0D1F919
:10461000013EF8E75BF8080F2C4640B120460FF248
:10462000905112F0C6F9DBF8001001F075F99AF814
:104630000000DFF81C65454603E09AF80000DFF84B
:1046400010654FF00008012804D120460FF2645194
:1046500012F0AFF93878800704D520460FF2585190
:1046600012F0A7F901F028F909F1010982E701F038
:1046700023F9DFF8E014049A204612F0B2F9DFF8CB
:10468000DC1401F049F941F2346B14F80B000028F6
:1046900020460CBF0FF2DC410FF2C44112F089F941
:1046A00041F2306941F2326A0DF11A0501F0B6F8B3
:1046B00014F80B0000283ED08DF81880204606A97B
:1046C0004FF0FF3212F069F8002840F0718141F29A
:1046D0003160205C40B19DF8180029468DF81B80A0
:1046E0008DF81A0000F066FF9DF818003F2800F0D2
:1046F0003F81642800F04681682800F039817328E2
:1047000000F04781712800F03781A0F161018DF838
:104710001B80C9B21A2938BF20388DF81A002946E3
:10472000204612F06BF8002840F042819DF81820D6
:10473000DFF8C41439E141F2281100200025675C3C
:10474000A4F80401FE2800F2BA802068002800F0D6
:10475000B1800168002900F0AD80CE68002E00F025
:10476000A98006A901224FF0FF33B047002840F08E
:10477000A1809DF81800082824D01B282ED07F285F
:1047800020D00D2800F017810A2800F01481A0F134
:1047900020015E293ED8B4F804110DF11A025054DC
:1047A000481CA4F8040141F23160205C90B32068F9
:1047B00080B3016871B38E6866B306A901226423D1
:1047C000B04727E000F038FF24D00138DFF82C1480
:1047D000A4F80401204612F0ECF81BE02068C8B1F0
:1047E0000168B9B1CE68AEB10DF21B1101220A23E6
:1047F000B04778B99DF81B015B280BD1206848B100
:10480000016839B1CE682EB10DF58D7101220A23F0
:10481000B04710B1B4F8040194E79DF81A1178B2CA
:10482000422910D04129F5D1012807DAF2E70138F1
:10483000DFF8C813A4F8040101F06EF800F0FCFEE4
:10484000F5D1013F1DE041F22811665C711E8142E5
:104850000ADD00F0F1FE13D00138DFF8A013A4F850
:10486000040101F059F8F4E7D4D100F0E5FE19D0C5
:104870000138DFF88813A4F8040101F04DF8F4E7DB
:10488000013778B20DF11A0604EB002000F594719F
:104890003046FCF731F9FCF75EF9A4F80401204634
:1048A000314698E7002000253746A4F804018DF82A
:1048B0001A00AFE70DF11A054FF0000878E00DF18E
:1048C0001A06355402984FF40171FDF73DFBCC49AF
:1048D0003046FCF793F8354601464FF0000841F2A8
:1048E0002C36A059A9B1072813DC059F3F2207EBFE
:1048F0008010FCF74FF9A059C14907EB801080F8F0
:104900003F80A0590130A0510020FCF777F8014604
:10491000E7E7059E00284BD000F08AFE71282BD0D7
:104920003046B8A10522FCF7BBF828B33046B7A142
:104930000522FCF7B5F8F8B100F07AFE682817D028
:1049400000F076FE3F2813D0B24900F093FF78B113
:10495000B14930460622FCF7A3F828B141F23030C5
:104960002558AE4885427DD1B34900F0D5FFC2E05D
:10497000204612F077F81BE09E4900F01BFE04F879
:10498000098015E000F047FE9648A154964A9849E0
:1049900009E014F80B00944A80F0010100289148C6
:1049A00004F80B10914908BF0246204612F02AF87D
:1049B00014F809007EE5B4F804010DF11A06644903
:1049C000355400F0A9FF00F037FE3FF47BAF9DF8AF
:1049D0001A0000283FF476AF41F22810275CDFB1BF
:1049E00004EB07200DF11A0628303146FCF700F9D8
:1049F00000283FF467AF102F0FD300250026B5F530
:104A0000706F1DD0611901F5947001F50A71FCF702
:104A100073F805F58075F2E7002704F594760DF13B
:104A20001A01FF2206EB0720FCF7B4F841F2281226
:104A3000A15C481C06EB0121A05481F8FF500BE05B
:104A400000980DF11A01FF22FCF7A4F841F227109B
:104A5000265441F22810205C41F229110DF11A066A
:104A600060542FE700F0E4FD64282ED06C4900F07C
:104A700001FF50B300F0DCFD73282DD069493046AA
:104A80000722FCF70DF838B3674900F0F3FEA8B32E
:104A9000664900F0EFFEE0B3A5F161008DF81980E2
:104AA0008DF81850C0B2192898BF15F47F4004BF84
:104AB000A5F120008DF8180006A9204611F09EFEF1
:104AC000C8B95B492046324613E000F0A4FD4548D2
:104AD000A154454A464909E014F80B00424A80F0C7
:104AE000010100283F4804F80B10404908BF024666
:104AF000204611F087FF0DF11A0559E70DF11A054F
:104B000094F8200100283FF453AF204611F036FFFF
:104B1000F6E7204611F032FF00280DF11A057FF468
:104B200047AF444900F046FD42E747B0BDE8F08F8B
:104B3000D45D002040020020609F010853544D3393
:104B4000324634787820494150204D656E7500001A
:104B5000DFAF010891C9010815BA01082BA60108A9
:104B6000456E7465722073656C656374696F6E3A27
:104B700020000000456E7465722073656C65637477
:104B8000696F6E20286F722027682720666F722059
:104B900068656C702C2027712720746F20717569EF
:104BA00074293A200000000020205B25735D20005E
:104BB0002D200000203E3E00202864697361626C55
:104BC000656429002D0000004E6F206D656E752014
:104BD0006974656D7320617661696C61626C652EC4
:104BE0000000000093CB010823CB01086EAD010843
:104BF000C7AD0108EAC7010848A9010824A60108B1
:104C000028A6010871756974000000006578697450
:104C10000000000018D201081FD20108636C730065
:104C20007ECC01087BCE01081DCF010819D10108F7
:104C300070A9010869C801082FCB0108FEE7FEE74B
:104C40002DE9F04F87B0DFF80CA9DAF80090D9F819
:104C50001400C00740F0618400F01FFF014200F023
:104C60005C84D9F80808C0F30D20CAF8D40400F019
:104C700014FF0840800705D5D9F8140000F00200A1
:104C8000C9F8140000F009FF09F5006B0840C006E0
:104C900048463FD5D9F8180020F01000C9F8180090
:104CA000D9F82050C5F3434005F00F0406281AD068
:104CB000022848462AD147F6F07015EA0006484611
:104CC00024D004EBC40035090AEB800748462A4685
:104CD000D7F8601202F057FBD7F8600200EB16100D
:104CE000C7F8600207E00AF29C414846082202F039
:104CF0004AFBC5F30A1504EBC4000AEB8000D0F8A8
:104D000068122944C0F86812DAF80000816941F09D
:104D10001001816141698269CDF808B01140090331
:104D200040F1D280D0F81818D0F81C080AF51D7888
:104D30004FF430674FF0000B0840040C002C00F0DB
:104D4000BF80E00700F0B180DAF8000039188A6807
:104D5000D0F8143803EA0206F20751D009EB070233
:104D600001239360036C8A689AF80650012D21D1C3
:104D700015072BD4950641D412F0280F40D1D94DF8
:104D8000AB4201D9120426D4D8F8002009696FF388
:104D9000DF41511AB7F5306F48F80C1C29D1DAF809
:104DA0006422002A00F08880DAF860020844CAF819
:104DB00060021EE0CB4D05F58075AB420ED11004AC
:104DC00009D4900644BF2020886012E0C548834281
:104DD00016D9100414D54FF4004010E0B7F5306F29
:104DE00007D1DAF8641221B90AF29C42002102F0DC
:104DF000BFF95FFA8BF0FEF7AFFA01E02020886080
:104E000030071DD509EB07000821B64B8160DAF8A1
:104E1000001078180A6C81689A420FD9090444BFBF
:104E20004FF400418160FEF71FFB9AF8060001284D
:104E300006D1DAF8000000F014FE01E0FEF714FBE2
:104E4000F00642BF09EB070010218160B0071FD5B3
:104E5000D9F81400000604D50299486840F480602F
:104E6000486018F81D0C01280ED1002008F81D0C10
:104E700000F0DDFC08D090F89C22032A04D14A6A95
:104E800012B15FFA8BF1904709EB070002218160B4
:104E9000B00642BF09EB070020218160B00442BF89
:104EA00009EB07004FF40051816008F12408203716
:104EB00064080BF1010B41E70AF29C42012196E7DD
:104EC000DAF80000DDF808B000F045FC490340F1D5
:104ED0004481D0F81818D0F81C08084083B209F5AE
:104EE000106004900020CDE90590002B00F0338184
:104EF000D80700F02981DAF80000D0F81018069CD5
:104F0000D0F8342804F00F076501FA40D201D2B27C
:104F1000114300EB4412D2F8082901EA02095FEAC2
:104F2000C97100F084800124DBF8342004FA07F111
:104F300022EA0101CBF83410049929448C609AF8D4
:104F4000061001290BD1069E1C4606EBC6010AEB92
:104F50008101D1E907231A4423460A62BEB10698AB
:104F6000DAF8E06400061AD096F89C0203285ED1B5
:104F7000D6F8B8024269002A59D000201C46C6F86B
:104F8000D4020698C1B23046904723464FE0DAF883
:104F9000241011B900F065FD2346DAF8E064D6F874
:104FA000940202283DD1318CB0691C46884209D94F
:104FB000421A706AB2610144D6F8C802716202F006
:104FC000C1F826E010D1716981420DD3D6F898025C
:104FD000814209D2D6F8C8020021002202F0B2F8BC
:104FE0000020C6F8980214E096F89C02032808D125
:104FF000D6F8B802C16821B10020C6F8D402304604
:105000008847D6F8C802802102F048F80520C6F883
:10501000940206F5327000210022006802F02AF89E
:10502000234696F8A00210B1002086F8A0025FEA9D
:10503000097003D504980821284481605FEAC9609B
:1050400003D504981021284481605FEA49600397E2
:1050500003D504984021284481605FEA897020D5F7
:10506000DDE905061C46314602F06EF906EBC60086
:105070000AEB800010F8171F01290DD100210170E3
:1050800000F0D5FB08D090F89C22032A04D10A6ACC
:1050900012B10699C9B290470498234602212844C8
:1050A00081605FEA09604FD5069800EBC0000AEB0B
:1050B0008008444654F8240F274657F8042F90429E
:1050C00042D3D346DAF8009058F81CAF811A019306
:1050D000514538BF8A4605EB090108F1040501F581
:1050E00010661AE00A30544F9BF80630D8F800A03A
:1050F000801A29680093504538BF824606981FFAE7
:105100008AF3C2B2484602F058F928685044286031
:10511000386800EB0A0220683A60B3690AF10301BB
:105120009BB2B3EB910F28BF9042DDD8DA46DDE9A0
:10513000013B904208D8039901208840D9F83418DF
:1051400021EA0000C9F834080698DDF814905B08DD
:1051500001300690C9E6DAF8000000F0FCFAB1F17F
:10516000FF3F1BDCDBF8041021F00101CBF8041039
:105170009AF8CC14012903D100218AF8CC1409E053
:10518000DAF8E01491F89C22042A04BF91F89D22D9
:1051900081F89C22416901F00041416100F0DBFA95
:1051A000090522D5DBF80810C9071AD0DAF8E0148F
:1051B00091F89C22042A1CBF91F89C2281F89D2220
:1051C000042281F89C22D0F8001E41F00101C0F8B1
:1051D000001E9AF80B1021B1DF490A6842F006025E
:1051E0000A60416901F40061416100F0B4FAC90448
:1051F00056D5D9F8041821F00101C9F80418102176
:1052000002F0A2F89AF80410D44B09F530604FF67A
:105210007F3291B1A0F500740139A260C45824F422
:105220000014C4508260046824F40014046004680C
:1052300044F0006404602030EBE7DBF81C0040F031
:105240000110CBF81C009AF80F0040B1DBF8840085
:1052500040F00B00CBF884000BF1440008E0DBF8D1
:10526000140042F22B010843CBF814000BF110009C
:1052700001680AF29C4241F00B010160DBF800007A
:1052800020F4FE60CBF80000DAF800009AF806106F
:1052900001F06EFFDAF80000416901F480514161CC
:1052A00000F059FA890440F18680D0F8001940F2E4
:1052B000FF72ABA39143C0F80019D0F8041841F471
:1052C0008071C0F80418D0F8082802F0060192078F
:1052D000595C8AF8071002D44FF4105231E0A24A08
:1052E000A24BA34C52681344A34202D24FF4705213
:1052F00027E0A04BA04C1344A34202D24FF46052CB
:105300001FE09E4B9E4C1344A34202D24FF45052D6
:1053100017E09C4B9C4C1344A34202D24FF44052E2
:105320000FE09A4B9A4C1344A34202D24FF43052EE
:1053300007E0984B984C1344A34280F0F1804FF45F
:105340002052C36823F47053C360C3681A43C26019
:1053500019B1022940F0FC800121DAF8E05401245F
:10536000002085F89C422974C5F8A402686085F87D
:10537000A002C5F89402D5F8B80220B1426812B173
:10538000284600219047D5F8C802002101F024FEEC
:10539000D5F8C8024026802185F86341A5F86061F0
:1053A00001F01AFEDAF800002E8485F823404169E6
:1053B00001F40051416100F0CEF9090712D5DAF885
:1053C000E01491F89C22032A08D1D1F8B8222AB11E
:1053D000D2691AB108469047DAF80000416901F035
:1053E0000801416100F0B7F9090619D5D9F818008C
:1053F0000AF27B24012520F08000C9F818009AF8F1
:10540000040085420AD22178012904D1E8B2FDF7CF
:10541000E7FF9AF8040024340135F2E7DAF80000D7
:1054200000F099F9C90222D59AF804000AF13B0468
:1054300009F5126501260127874212D22968627890
:10544000012A0AD1B1F1FF3F07DC47F08000267046
:10545000C0B2FDF7C5FF9AF80400203524340137A7
:10546000EAE7DAF80000416901F48011416100F0D7
:1054700072F9890231D5DAF8D4349AF804400AF581
:105480001F7109F532624FF0010C0126A64220D2AD
:1054900017680D78012D12D1B7F1FF3F0FDC83EAB9
:1054A0001745ED070BD1D9F8185045F08005C9F81C
:1054B000185001F801CCD9F814502D0603D520322C
:1054C00024310136E2E7DBF8041041F40071CBF837
:1054D0000410416901F40011416100F03CF94900F8
:1054E00003D5416901F08041416100F034F9490779
:1054F00013D5446861070DD5DAF8E024012182F85C
:105500009C12D2F8B8322BB111795B6810469847DB
:10551000DAF8000041682143416007B0BDE8F08F30
:105520001E4B1F4C1344A342FFF4D6AE1D4B1E4C22
:105530001344A34202D24FF4005202E71B4B1C4C0F
:1055400013444FF4C052A34238BF4FF4E052F8E680
:10555000FDF763FA3085002010ED00E000FEFFFF4C
:10556000000F020F0F0F020004000020405327FF1E
:1055700000350C00401E1BFF40420F0000DC0BFFFB
:10558000804F1200808CF9FE20D6130060B6E5FE35
:1055900060E3160000D3CEFE40771B00C05BB3FE75
:1055A000C091210000CA91FE20753800E05459FED8
:1055B000E09C4100204611F049BA294611F046BA54
:1055C00001EBC01530464FF480712B46FAF75EBFF1
:1055D0004DF808ED0C460FF0D1F900285DF808EB06
:1055E0007047206800F080BC206850E8030F2168F5
:1055F00070472246FDF717B8224607F045BB4046E4
:1056000011F0A7B8044612F017BD3946FAF732BFB9
:10561000584611F09EB841F23362A05C80F001015F
:1056200000287047606A218D8161204612F02EBEED
:1056300041F23030205A7047B4F804010028704716
:10564000504601F0BFBC504611F0B3B9504601F0CE
:10565000A1BC002207F0EEBC4DF808ED4FF0FF3280
:1056600011F09BF89DF833035DF808EB7047425842
:1056700042F000624250425842F08042425042F2B0
:105680001072704718208DF88F00D8F81400002889
:1056900070477F2200EBC410FBF77CBA20462946F6
:1056A00038477F22FBF776BA2846FBF754BA2846DC
:1056B0004FF480717047284600F0BABBD0F804C0A0
:1056C000BCF1000F7047016000207047D9F8280036
:1056D0000028704740F480303861FDF7A1B9C0F16F
:1056E0007F022846FBF7AAB9316C41F08051316442
:1056F000316C01F08051079107990790704721465E
:10570000FAF7B8BEBFF34F8FBFF36F8F70473F20DC
:105710000094242F4FF480713246704720464FF09A
:10572000FF310EF0D3BF2046294630475A46029437
:10573000CDE9000558460BF090BF41F2883200F0E9
:10574000EDBB204600F074BB2022FCF76CBFD9F8FB
:1057500000000028704741698269114070474FF48A
:105760008071FAF793BE207D00F07F0020757047AE
:105770004FF480712046FAF789BE07B0BDE8F08F7C
:10578000C9F830004FF480600694CDE909804020CC
:10579000D9F800500890704704F130010123012628
:1057A00006F05EBF404611F051B940F0200171296A
:1057B0007047435C1A444254120A01317047059005
:1057C0000020049040200390704706900698CDF882
:1057D0001890306B70472846FAF758BE284611F0EB
:1057E000D9B9D9F8680000214A460026C3690E9845
:1057F0000068CDE9000770473846FAF747BE94F9CC
:105800001400B0F1FF3F7047584611F01FB9002057
:1058100084F83400012084F835007047204610F0E9
:1058200098BF20460BF0B3BF204612F02FBDDAF828
:10583000E004D0F8D41200EB8101D1F8B8120029AD
:105840007047314611F002B9846B40F23A5120683A
:1058500081632046FEF7E8B92A46FCF7E4BEA16B57
:105860000843A063704740462146304730462946EA
:1058700003F016B830460522FBF712B94FF48071D9
:10588000009028464047039048460BF043BD5046E1
:1058900011F0DCB88DF8EB01204649468DF8EC811B
:1058A00011F087B84FF0FF3210F077BF8021FAF780
:1058B000EDBD0020BDE8F0812046314611F079B8F9
:1058C00017F8013B304629464A46FAF7DFBD4FF448
:1058D000FA514068B0FBF1F041F28831484370471B
:1058E0002A4611F08FB8D8F8100000287047A06E33
:1058F00081691498B0FBF1F202FB11010029704795
:1059000040F23A5181630120002184F83400216380
:1059100070473146FAF7AEBD204611F04AB830461E
:10592000FAF7B4BD4FF4807183F8400070474FF42C
:105930008071504704F5CA7004F150011022FCF741
:1059400072BE2846FBF754B92046FBF751B904F163
:1059500040052C1805EB80004068247A704701F060
:105960007F02C909C27713224A430021704740468B
:1059700011F01FB8062001F03DB9206850E8030F70
:10598000216820F0100041E80302002A70473046E9
:1059900009F0E8BA32462B4601F05ABA394611F0FE
:1059A00055B84FF48071384704F1A400FEF7E4BC09
:1059B0005046414611F04AB840F6B83100F0CAB836
:1059C0000297CDE900B020460DF0B4BB2946304621
:1059D00010F0F6BE2946FAF74DBD206850E8050FD5
:1059E000216820F0010041E80502002A70470122E9
:1059F0006423204720EAE071C043C00F2160B0BD9E
:105A000009B0BDE8F08FFF22896AFCF751BE284635
:105A100010F0D6BE0121053884F834100021012889
:105A2000216370474FF47A70FDF734BA4FF4FA737C
:105A300007F042B800210BF06DBC204659463847AC
:105A4000206850E8050F216820F0400041E8050279
:105A5000002A704720460BF045BE204629462A46BC
:105A600050470AF29C42012101F082BBDAF80000A3
:105A7000002100F0ECB99DF8C2029DF8C3129DF818
:105A8000C13270474FF48060DAF80040704720213F
:105A900011F064BA484610F0D9BFD9F81400D9F80B
:105AA0001810704709048161204670477047000054
:105AB000F0B50168CA68520619D4CA68D14B0126EC
:105AC0004FF0040C42F08002CA600022DC6ACF680A
:105AD000F54345EA9715ED070AD1DD6A2D1BB5F5AB
